S01B00002E2F52656C656173652F414D53535F325F3030322E533139F6
S3510000A000FC2F0020D5A0000095F00000B3F400000000000000000000000000000000000000000000000000000000000031A10000000000000000000033A10000A5F0000039A1000041A1000049A1000041
S3510000A04C51A1000059A1000061A1000069A1000071A1000079A1000081A1000089A1000091A1000099A10000EDF0000061F10000B1A10000B9A10000C1A10000C9A10000D1A10000D9A10000E1A10000D1
S3510000A098E9A10000F1A10000D5F1000001A2000009A2000011A2000019A2000021A2000029A2000031A200009496010000F0FF1F9C09000000FAFF1F0C15000010B572B605F02EFA0E4C0F4B9C4206D2EC
S3510000A0E4A2686168206800F0A5F80C34F5E70B4B9C4205D26168206800F0A7F80834F6E7074B084A1A6007F045FD62B605F020FAFEE7C046C0A00000CCA00000D4A0000008ED00E000A00000FEE7FEE73A
S3510000A130FEE7FEE7FEE7FEE710B5FFF7FCFF10BD10B5FFF7F8FF10BD10B5FFF7F4FF10BD10B5FFF7F0FF10BD10B5FFF7ECFF10BD10B5FFF7E8FF10BD10B5FFF7E4FF10BD10B5FFF7E0FF10BD10B505F0E7
S3510000A17CAEF910BD10B505F0B5F910BD10B5FFF7D4FF10BD10B5FFF7D0FF10BD10B505F0B5F910BD10B505F0B9F910BD10B505F0BDF910BD10B5FFF7C0FF10BD10B5FFF7BCFF10BD10B5FFF7B8FF10BDC2
S3510000A1C810B5FFF7B4FF10BD10B5FFF7B0FF10BD10B5FFF7ACFF10BD10B5FFF7A8FF10BD10B5FFF7A4FF10BD10B5FFF7A0FF10BD10B5FFF79CFF10BD10B5FFF798FF10BD10B5FFF794FF10BD10B5FFF707
S3510000A21490FF10BD10B5FFF78CFF10BD10B5FFF788FF10BD10B5FFF784FF10BD10B5FFF780FF10BD002330B55C181D18934203D22D6804332560F7E730BD002310B51C001A188B4202D214600433F9E78F
S3510000A26010BDFFFFFFFFFFFFFFFFFFFFFFFFFFFFFFFFFFFFFFFFFFFFFFFFFFFFFFFFFFFFFFFFFFFFFFFFFFFFFFFFFFFFFFFFFFFFFFFFFFFFFFFFFFFFFFFFFFFFFFFFFFFFFFFFFFFFFFFFFFFFFFFFFFFF29
S3510000A2ACFFFFFFFFFFFFFFFFFFFFFFFFFFFFFFFFFFFFFFFFFFFFFFFFFFFFFFFFFFFFFFFFFFFFFFFFFFFFFFFFFFFFFFFFFFFFFFFFFFFFFFFFFFFFFFFFFFFFFFFFFFFFFFFFFFFFFFFFFFFFFFFFFFFFFFFFAC
S3510000A2F8FFFFFFFFFFFFFFFFFFFFFFFFFFFFFFFFFFFFFFFFFFFFFFFFFFFFFFFFFFFFFFFFFFFFFFFFFFFFFFFFFFFFFFFFFFFFFFFFFFFFFFFFFFFFFFFFFFFFFFFFFFFFFFFFFFFFFFFFFFFFFFFFFFFFFFFF60
S3510000A344FFFFFFFFFFFFFFFFFFFFFFFFFFFFFFFFFFFFFFFFFFFFFFFFFFFFFFFFFFFFFFFFFFFFFFFFFFFFFFFFFFFFFFFFFFFFFFFFFFFFFFFFFFFFFFFFFFFFFFFFFFFFFFFFFFFFFFFFFFFFFFFFFFFFFFFF13
S3510000A390FFFFFFFFFFFFFFFFFFFFFFFFFFFFFFFFFFFFFFFFFFFFFFFFFFFFFFFFFFFFFFFFFFFFFFFFFFFFFFFFFFFFFFFFFFFFFFFFFFFFFFFFFFFFFFFFFFFFFFFFFFFFFFFFFFFFFFFFFFFFFFFFFFFFFFFFC7
S3510000A3DCFFFFFFFFFFFFFFFFFFFFFFFFFFFFFFFFFFFFFFFFFFFFFFFFFFFFFFFFFFFFFFFFFFFFFFFFFFFFFFFFFFFFFFFFFFFFFFFFFEFFFFFF7047010010B5064A831C5231148806321C8002338B42F9D139
S3510000A4280123037010BDC046548B0100030082880020824203D0187A8007C00F101A7047037A9B070BD50268002A08D08388C188994201D3013BC3800021C388D154704730B5094C456822690300521BF4
S3510000A4740020914205D84800904203D949195960012030BD22695A60FAE7C04600FCFF1F10B581764261006803681B68984710BD70B5040000680D0003685B689847A84204D2206803685B6898470500FB
S3510000A4C0E37EDA0605D52A0001212000FFF7E2FF70BD5B060321DA0F002BF6DA2A000221F3E737B56B46DD1D002304002B70236829002000DB6998470028F8D137BDF8B505000E0017000024A74208DD31
S3510000A50C2B682800315DDB6A9847002801D00134F4E72000F8BD0120704770B5051C0BF079F9104C002803DC00232370637070BD0D49281C0AF036FA002803D0FF232370F03BF3E70849281C0AF0C8FC42
S3510000A55807490AF08DFE0AF069FAC3B20005000F23706070E5E7C04600F003400000C84200F07F4570B5002301250268D4880471A3420BD21668002E02D1117AA9431172F15C0679013389190171F1E700
S3510000A5A40123437170BD70B50026056846710400EE802800FFF746FF01232A7A13432B72267170BD70B5064B050099611B7F0C1C013B012B02D9081CFFF7A3FF6C6070BD00FCFF1FF7B58B680400588BCE
S3510000A5F01E000BF035F922490AF076FC051CB08B0BF02EF91E490AF06FFC071CF08B0BF027F91C490AF068FC0E360190B68AA0602560300067600BF01BF91749E060281C0AF0AAF9002817D0134B236024
S3510000A63C134D381C291C0AF0B5F9002800D06560104F0198391C0AF0ADF9002800D0A760182E0BD80C4BE3602000FEBD0B49281C0AF0A0F90028E3D0084BE0E7642EF3D9E560F1E70000204100401C4646
S3510000A6880000E0410000C8420000A0400000C84100004842806808234268002902D19A434260704713434360FBE7836810205A68022905D102435A605968054A0A4005E082430329F7D18021C9000A438C
S3510000A6D45A607047FFFBFFFF426830B55368002915D112480340536013005068B533FF338024DD7E0300A3436D0701D523000343052907D006290CD009490B4007E040200343E8E707490B408021490014
S3510000A7200B43536030BD05490B4080218900F7E73FFCFFFFFFFCFFFFFFFDFFFFFFFEFFFF70B50C4C00290ED0A068322385B22800642158430AF01CF880B2854201D80135A8B2206170BDA3689BB25A42BF
S3510000A76C53412361F8E7C04600900340054B42681B6A82B05033988CD38A80091B04184302B0704700FCFF1F4368588D704710B50068FFF7EDFE10BD037A9B070BD50268002A08D08388C188994201D300
S3510000A7B8013BC3800021C388D1547047828903000020032A0DD85A89013292B2032A09D801205A815A8909885200D1529A8901329A8170470022F3E70B8810B5032B0BD10368064C0E339A8EA284588A47
S3510000A8040BF02CF803490AF06DFBA06210BDC04600FCFF1F00002041012A02D1016000207047022AFBD10B680360F8E7012A02D1016000207047022AFBD10B680360F8E713B56B460A880068DA80D5235A
S3510000A850DB00C418002A10D101235B4222816381A2816B462000991DFFF7ACFF6B46DB882361A3820123A37513BDA37D002B05D10122524223816281A381EAE7A389042B0FD1238959004018D521013382
S3510000A89CC9009BB2415A032B15D823810323A3812369591A2161236920009A186B462261991DFFF781FF0028D8D0A18920690DF0A5FEA082D2E70023E7E7012A02D1016000207047022AFBD10B6803607E
S3510000A8E8F8E7012A02D1016000207047022AFBD10B680360F8E7036800205A79824208D01B681968814203D11A7A013082431A7208787047012A02D1016000207047022AFBD10B680360F8E7030082888A
S3510000A9340020824203D0187A8007C00F101A7047A9225200825A03000020A62A11D85130FF301A5A013292B2A62A0BD81A521A5A09885200D152A921012049005A5A01325A5270470022F1E7A72270B5E2
S3510000A98000230D000121040052008352494202328152023229008352FFF7D4FF22002B88FC329365AC225200A352AD23583A5B00FF3AE25470BDA82210B5A7249200825A030064000020A24210D20A48AB
S3510000A9CC1A5A013292B2A2420BD21A521A5A09885200D152A821012089005A5A01325A5210BD0022F1E7C0469E020000A722002370B50D00012192008352094A494281520232290083520400FFF7CFFFE2
S3510000AA18A9222B889200A3500432A3520122024BE25470BD9E020000AA02000010B504000068002801D0FFF7B4FD0023637310BD70477047030070B51C0080340800217B1A1D0C33002905D10131D96717
S3510000AA64D067A080217370BDA725D96FAD00A94209D20131D967D16F4018D067D96F0DF0C9FDA080EFE7A188D56F691AD167F2E7803080887047036800205A79824208D01B681968814203D11A7A0130F5
S3510000AAB082431A7248787047036870B504000D00002B03D10122237A934308E0002908D12000E580FFF766FE0123227A1343237270BDC3889942F3D9FFF722FF8542EFD9E0802000FFF756FEE4E7012067
S3510000AAFC40427047044B020CD218012380B2834011680B43136070470070044010B50478064A4368A400A2589B00D21813680448090203400B43136010BDC04660880100FFF8FFFF0121002A00D0053192
S3510000AB48D9627047704770B5074DC0B2AB6864219CB2604309F018FE80B2844201D80134A0B2286170BDC04600A00340030010B53220002B03D0D80FC01840103230FFF7E2FF10BD10B50B4B1B6A503348
S3510000AB949C8820000AF062FE002C0BD007490AF0A1F907490AF066FB06490AF089FC06490AF098F910BDC04600FCFF1F00FF7F4700401C450000D4430000C84010B5FFF7DBFF024B996A09F0E7FF10BD90
S3510000ABE000FCFF1F0300027B30B5D1079C68C80F00290FD1611C23D09207D50F002A07DA104A11695A68891AA14219D312195A60280015E00020611C12D091070DD504218A431A73074A58681269121AB6
S3510000AC2CA24204D306201A7B824311431973187B4007C00F30BDC04600FCFF1F70477047813000787047704770B50400054D2E692A682B699B1B9C4203D9002AF9D09047F6E770BD00FCFF1F012A00D16E
S3510000AC780160002070470278064B92009B185A69012340688340002901D1936070475360FCE7C04660880100F8B52E4B04001A7F0E002D4D824223D0421E1877012A1CD800222A4B1A705A70294F012131
S3510000ACC438002830FFF7D9FF3000012C00D07042FFF74EFF18222B68380093431A000823134301212B603430FFF7C7FF1BE09869FFF717FC032C17D0002CDFD1194E210030002830FFF7B9FF3000210075
S3510000AD103430FFF7B4FF3220FFF719FF18222B6893432B602B681342FCD1F8BD18232A689A432A602A68110019401A42FAD10A4C20003430FFF79BFF200001212830FFF796FF3220FFF7FBFEE7E7C046F1
S3510000AD5C00FCFF1F00A0034000F0034060880100080010B51100042807D809F0EDFC0307090B03000020FFF78DFF10BD0120FAE70220F8E70320F6E770B504004068114B426800290CD110490A4042600C
S3510000ADA8403318000121FFF766FF62680C4B51680B400FE080256D012A4342600329EFD1403318000021FFF756FF802362681B0151680B43536070BD60880100FFE7FFFFFFF7FFFFF8B505000E00170030
S3510000ADF400243119A74207DD2B682800DB699847002801D00134F4E72000F8BD70B505000E000024315D002907D02B682800DB6A9847002801D00134F4E7200070BD002808D00138431E9841034B4042B4
S3510000AE401840034BC01870470248FCE70040F9BF00C0064000B006400300002210B581331A70803004782000FFF7E3FF20220378DBB20370C3789343C3708379183A93438371002C1ED0012C21D040236A
S3510000AE8C02791A42FCD00023104AC3700133904204D00F4BC018431E9841831C98000D4B0D491818C26C0120130C92B290405B1819688143196010BD8022084B9201DA67DDE78022054BD201F9E7C0460E
S3510000AED800B006400040F9BF608801000070044004E100E0828F03000020372A0CD85A8F013292B2372A08D801205A8709785A8F99549A8F01329A8770470022F4E737B56B4604000733197072B619008F
S3510000AF240430FFF7E1FF051E0DD080342078FFF77EFF80220378DBB20370C3781343C3708379DBB2837162B628003EBD838F002B0DD0038FC35C0B70038F01339BB2372B08D80387838F013B83870120DB
S3510000AF7001E018000B7070470023F4E710B572B64230FFF7E5FF62B610BD10B50B4C00202200FE32D388FF2B0DD8938801339BB2FF2B09D8938023000120FE339A88A154DA880132DA8010BD0023F3E751
S3510000AFBC020000200300FE330200D88800280DD05888125C0A705A88013292B2FF2A07D85A80DA880120013ADA8000E0087070470022F5E710B50248FFF7E4FF10BDC046FCFEFF1FEFF3108372B603608B
S3510000B00872B67047F8B505000320002D16D06E680018002E12D0C8094C0004430C20E4B244432C19277D0A38002F07D1013820754CB22868002C02DAB468A047F8BDF468FBE737B504000D000320002CAC
S3510000B05413D0637F0138012B0FD001A8FFF7CEFF2B000321054A2068FFF7CEFF002801D101236377019B83F310883EBD08010020481E10B50C280CD809F062FB070B0B0B0B0B0B0B0D1F2B343F000022AD
S3510000B0A0284B2C331A7201240FE0002AFBD0254B012019002C3108721478CC728442F2D1214A186B5188FFF7C0FF200010BD1D4B2C33197A0029E6D01288110A0129E2D85B181A73DFE7002ADDD0174BE9
S3510000B0EC08331360122300245360E8E7002AD4D0147A002C1ED1114B1A33136043235360DDE7002AC9D0947A0C4B002C03D15D3313600423F3E71900643110890989884208D1022C06D8596EA400095998
S3510000B1389B6E11601B59D8E70524C2E700FCFF1F28F4FF1F030010B50320002B06D05C680018002C02D064691868A04710BD002210B5094C02710121E06AFFF7EBFF3C23E3561A00803206D01F22134062
S3510000B1841E3A9A401300024AD36710BD00FCFF1F04E100E0F8B50326002817D08C780C23250001361D401C4210D11E2766003E40E4093443634314685268C3181A61DC600A001D750221FFF7BFFF06007E
S3510000B1D03000F8BD73B56B460400D9710320002C14D0DA1DCDB201002000FFF7AFFF0C232A001A401D420AD11E2669003140ED090D436B43E418E2602261227576BD0420FCE713B56A460B000C24073236
S3510000B21C11700421234202D1FFF792FF0100080016BD13B56A460C240300073204201170214203D105211800FFF782FF16BDF0B5070085B04C0003A80D00160001931443FFF7D0FE402324013C19283474
S3510000B26862793601134363717B686D01590A63794902DB060E43DB0F019A3543DB002B435A6063790A9A0D49DE061B071204DB0F0A409B0113438822F60FF600134335432B60039B83F310882021002028
S3510000B2B4BB6894331A788A431A7005B0F0BDC0460000FF0373B5040001002D3422780C31D206D20FD3000826CB18002128254662816222780362AA43150020222A43227000960A00FFF7A7FF73BDF7B5B6
S3510000B3008168FF220B000C0088331A70022394342278134323700B00002298331A7043685E0A7302019308260023019D57013D432E432B60336010262E433360182635432B6005002C35EB51173E55006A
S3510000B34C35432D014519EB6215003035AD0092196B54042AE1D102000225A03213702278A130AA4322700A00FD358C321570892284310A7003702378693A93432370F7BD0F22F8B504000A405000C90910
S3510000B39808430001261835000C272D352B78BB432B700D0153012B4365686D0A6D022B431D686D0705D5B58D0826AD05AD0935431D6008252B431E68760705D52018808D80058009284318600225A06865
S3510000B3E49300C318C03318781143A8431870002902D12000FFF766FF2021A368002094331A788A431A70F8BD03000320002B0FD09B68FF211A000020803211701179C02110711076FF33107514325A7816
S3510000B4300A435A707047F0B585B0039194464A001E210A401D390A43160181190D002835040068794006C70F002807DB60468F6208624B622021687901436971A1198D8DAD05AD0D9D4200D91D002300F2
S3510000B47CA1331B780127002B0ED102321201A11913598A6A0F219B18039A2000114000953A00FFF7D4FE0700A619B36A1D4305D1039B1B0702D12000FFF708FF380005B0F0BDF7B51E254C002C402401CD
S3510000B4C8002B0CD10D070AD1402204192834637993436371FFF7F4FE01242000FEBD05192E00283676797606F70F002E02DBAF622A626B622026051928356F793E436E71AD88AD05AD0D9D4200D91D00E3
S3510000B51404192600A36A2836D318C269002A11D00400A0342778002F0CD1402D0AD82F001F43BF0706D020277379BB4373710123237013000200A13212780124002AC6D10E3421400095FFF776FE04004D
S3510000B560BFE71300032010B5002A0DD000200632D0775A680130002A06D01468002C03D00A0018000321A04710BD1300032010B5002A0CD000225A755A680238002A06D01468002C03D00A00010018005E
S3510000B5ACA04710BD1300032010B5002A0CD000225A775A680238002A06D01468002C03D00A0018000221A04710BDF0B5040089B0002802D1012009B0F0BD030028331B78002BF7D04268926851799942A5
S3510000B5F8F2D3564912685B18DB00D55CD6180C2700239D42E8DD3A005A4370688118825C022A61D12832944600230F7AA4449F424FDC002301932300CA7829331A70019B002BD1D000270120019BA36013
S3510000B644019B00251A79BA424ADC0C222B00944637789F420EDD62465A43716875688918AA5C0A2A68D12032944600230F7AA4449F4257DC00260F27019BE360019B1B79B342ACDD0022B000030003A943
S3510000B6900198019D0A71AD688068C018EB5C8B7045880D804078DD09C870012D4AD1022804D13B402375284B62750593206805AA06940136FFF768FDDAE748681A018518805C6246019512789042A8D0B8
S3510000B6DC0133A2E7013392E7B800020003A9019B0D7198689B6880189A5C8A7043880B804078D309C870012B09D1032807D10E331A40601D124BC277A21DD5770593206805AA06940137FFF739FD8DE782
S3510000B7284E681A01B518B65C62461278964203D001339BE701338AE7019599E70228B9D13B4023776277044BB3E7C046FFFFFF1F8BB5000063B50000B1B5000070B50400A3680120002B03D0E3680025A3
S3510000B774002B07D170BD9B68AA00D15C2068FFF727FD0135A3681A799542F4DB0025E3681A79954203DB0023A360E360EAE79B68AA00D15C2068FFF713FD0135EFE7F0B585B004000D001F000320019237
S3510000B7C0002C19D0237D8B4218D12600103673790220012B10D003A8FFF712FC80213B00019A20682943FFF711FC002801D101237371039B83F3108805B0F0BD631DDB7F01208B42F8D126002036E0E745
S3510000B80CF8B50079002874D03E4C23002C331A7A0023012A00D06DE0226C9A4243D0226C013242D08022384D520094462A00FE32216C994222D92E003449FE36CF5CF188614515D17188013189B2FF2950
S3510000B8580ED87180FF21D1809188013189B2FF290CD8918091886F54D1880131D18003E00021EEE7FF29EFD90133DBE70021F0E700232364230044331B78002B05D1214D2B00FE33DE88002E0BD100280A
S3510000B8A42BD01E4B206B5988FFF7CDFB25E01000EAE71800E8E780235B009E4200D91E000027174B2800F9180137FFF777FBBE42F7D12700012344373B7002213300104A206BFFF764FF002807D00122D1
S3510000B8F00023FE3552426B80AA80EB803B70F8BD0121064A4942FE3253809180D380F6E700FCFF1FFCFEFF1F080100200200002028F4FF1FFCFDFF1F70B50C0005000599052A11D1602122780A420BD006
S3510000B93C52B2002A08DBE288002A05D0DB012800D9B2FFF760FC70BD0123F7E7E3880A689A4200D90B60049A0B68280080211268FFF74EFB0028EED123787F2BEBD90300020001002800FFF743FBE4E782
S3510000B98837B5050001A80C00FFF736FB064A019B11688D4204D1226083F3108800203EBD83F310880420FAE7000D0020F7B50F00161E05D001A9FFF7E3FF0125041E13D00420FEBD0023124A1B01D318D6
S3510000B9D41B6E320039004068984703000528F2D05A1E93415B421D400134E4B2019B5B681A7AA2420BD918680C236343C01883681B79022BE0D0002BEED10123DDE72800D9E7C04660880100F0B589B0D8
S3510000BA200E0002A904000192FFF7AEFF00282AD1012E21D1154B80270593029B03AD069340232900200005AA2B806F802E71FFF7A3FB00280BD1A8702900200005AAFFF79BFB002803D039002000FFF706
S3510000BA6CB3FB02212000029AFFF79EFF029B31005B6820005B68019A984709B0F0BDC0466FD70000044B020CD218012380B2834011680B43136070470070044010B51C4C022362780020110019401A42B1
S3510000BAB819D1A37908009B0615D4A379DB0619D4154B986C00280ED0237862789B065B0F9206D840920F04D0062B05D0072B07D04009002808D110BD14210CF091FDF8E70C21FAE780200002E378E47880
S3510000BB045B069B0F0649E4095B001B195B0078315B5A5843E9E7C0460040064000FCFF1F6088010070B50A4C4023A279100018401A420BD01F252179064B2940986C01310CF068FD63792B401833584372
S3510000BB5070BDC0460040064000FCFF1F064A074B10B5D358DB0302D4FFF79EFF10BDFFF7DBFF4008FAE7C046007004400410000010B50F4A93791B079B0F022B12D0032B0AD0012B0BD1917919420ED00B
S3510000BB9C137A09481B075B0FD84001E0FFF7BEFF10BDFFF77BFFFBE7044B986CF8E780200002F5E70040064000093D0000FCFF1F01238B401178002903D142699A43426170475278002A04D183604269DE
S3510000BBE813434361F6E74360F9E710B504000121FEF78EFF2178054B054A89005B18586961680832FFF7DEFF10BDC04660880100E088010010B50400481E032807D808F095FD0207162100212000FEF71B
S3510000BC3471FF10BD01212000FEF76CFF21780C4A0C4B89005B180A3261685869FFF7BCFFEFE701212000FEF75DFF2178044A054B89005B180C32EFE72000FFF7C0FFE0E7E088010060880100C37810B588
S3510000BC80DB0605D48278202314001C401A4205D0034BDB6C9847BFF34F8F10BDA047FAE700FCFF1F30B50C00C37811008279DBB2520602D58022D20113438279D20602D58022520113432022134202D00A
S3510000BCCC8378134218D03F254378DAB22B404370142385782B4383704270C046C046C046C046C046C04601394B42594164002143C9B20171002030BD0048FCE74C0400003822202110B5837893438370F8
S3510000BD18074BC47822000A400C4206D0013B9BB2002BF6D18A20C00010BD1000FCE7C046FFFF00000223F7B5C3706B46DA1D00230C00C17813700600207FC9B2032839D163695D426B4115780135EDB2AD
S3510000BD6415701025294234D0F570614D012809D1014200D0ADE0237B002B35D002232377002D51D023685B0705D55A4B9D4202D0594B9D4209D1B3789B0606D53000FFF7B3FF002801D08A25ED00002322
S3510000BDB040222377B3789343B370276A002F40D02A0021003000636AB8473AE00528C6D16369013BC1E701270D003D40394200D17BE0002B00D074E0434DC1E76379002B07D103332377002DC6D165695B
S3510000BDFC002DC3D028E004232377002DBED11821B3788B43B3706369012B03D1B17807330B43B3703379DBB21370052323770AE0237B002B08D0013BA268DBB22373DB00DA40D3B23371F7BD6379002B70
S3510000BE480ED1033323776369002BF6D023691B7833712369013323616369013B6361ECE7012230002179FFF719FF042305002377002DE2D084E763695A1E6261002BDCD0002362691D009A4207D1236863
S3510000BE945B0715D43000FFF737FF012305006269012A03D1B17807320A43B270226931791170226901322261002B00D062E7D9E71023B17815000B43B3700123E7E7012804D1094D56E7012800D14CE764
S3510000BEE002380328ADD808F03FFCA1FF88FF90FFCAFFC0464F0400004E04000051040000016810B5002903D10122037A934303720C0000235034607822780002104340BA82B28C4204D0087801311B182F
S3510000BF2C9BB2F8E7D84380B2801A43425841C0B210BD036870B504000E00002B0AD000252000FEF771FAA84204D93378226853550135F5E70023E3802000FEF76FFA0123227A1343237270BD1D4A70B5E9
S3510000BF78002304000D00904208D01B4A0133904204D01A4BC3185A1E93410233184A9B00D3181869FFF778FD0722F0212B78090513402360EB786A785B01520213436A79083492041343EA7912041343DF
S3510000BFC4AA7952041343AA7812060A401343E3672A79C023002A03D0E26F1343E36770BDE26F9A43E267FAE700800340009003400060FCBFE0880100F8B5202604000D00110002680068B04320600720A4
S3510000C0100240D34018000CF0FFFA8023461E07005B029E4224D2A660A878642820D80022904207D0642170430CF0EEFABAB2864200D982B23C212878C0002018C3688B43C360C3680B42FCD16B78C16807
S3510000C05C9B000B4320210B43C3603C23C1681942FCD00261F8BD0168012310B5027A002902D19A43027210BD13430372FEF78CFBF9E713B5041E11D04368002B04D05B68006898470023636001A8FEF71E
S3510000C0A8ABFF002323606D342370019B83F3108813BDF0B5040085B00800002C23D0A368002B20D00A7A102A1FD1260001236F36002233700E212000FFF734F8230002226E331A70220000256C3215706E
S3510000C0F4623B1D605D601D720C339A42F9D1002201212000A3689847357005B0F0BD0C2316001E401A42F8D11E2551002940D2090A435343E318DD68002DEED0076801A9019747684F60407A0872002841
S3510000C14009D0631C2675DE770C235A43A21820001269A847DBE71875F6E71FB51E224B001340CA0913431A01821828325479640613D502331B011B58012401936B461973002369464B7340216442029439
S3510000C18C53798B435371006801A9FFF790FF002004B010BD70B50F2504000D40C8096E0006432000FFF7D3FF0020A3683035AD003601E854A419A38D9B0A9B02A38570BDF7B504000D00002800D104E1E2
S3510000C1D80F2900D903E1080008F0CCFA1000270036007F008800B400BD00C400DB0001010101010101010101E300F800A36800211A00FF325170197F490703D58020197F014319771021507A94330143E7
S3510000C2245172012219780A431A702800FEBDA3681A7F520703D57F211A7F0A401A771021FF335A7A8A435A720025EEE70125002AEBD00F209178168808404300C9090B430193D378A568012B29D180279F
S3510000C270331CFF00BE4201D35C4B1B889BB20093C027019B12791E01009BD2031343584AA6191340B28DBF013A401343B3858300ED18C0352B780422DBB2012900D09218134308432B70051EC8D12000F3
S3510000C2BCFFF704F8B5E7331C402E00D940238600AE19C03637789BB2BC460093012763461F433770CEE70125002AA2D020001178FFF758FF05009CE70125002A99D0117820000E350D40CE09FFF729FF1F
S3510000C30804226F0037433F01E719283779796D010A437A71636836015A0A5202354315437A792021D206D20FD20015438C22BB889B059B0913432B60A36894331A788A431A707FE70125002A00D16CE751
S3510000C35420001178FFF718F8C8E701231D00002A00D162E713806FE70125002A00D15CE713780C211D000D400B4232D158001231DB090840184300012418283463795B07DB0F538049E70125002A00D1EE
S3510000C3A045E7A36812789833CEE780260025764231002943C9B22000FFF7F2FE290001352000EDB2FFF7ECFE042DF1D12000FEF796FF3BE70125002A00D128E70025157025E7032523E7012521E7C04660
S3510000C3ECFC920100FFCFFFFFF8B5144C00252300134AA2331432E261FF221D70114B0600A36080330F001A7001212A002000FFF7D7FEA2680C4B1000190A9C30C9B20170190C6360C9B21B0EB4320175CA
S3510000C43820001370FEF75FFF28003C602660F8BDF00D0020000D00200020074000FAFF1F10B50623040008001100002C02D1FFF7C5FF0300180010BD002370B583608B6804000D00002B05D00222984716
S3510000C484EB68E360AB68A36070BD036870B5002B04D10122037A9343037270BDC4888C42F7D98B18A51A9C4202D8FEF703FBF4E78D4205D903685C18A45C5C540131F7E72900F2E7020000230C21083239
S3510000C4D070B5026008328260093204008381037102614161027E0320012582432A4322762200A16321002C32A2620832E2620932238662633C310A780B4E824320002A430A7032694C30E3646265437369
S3510000C51C8373FEF789FA336923668023DB02636668342378AB43237070BDC04600FCFF1F10B5C06E03689B6A984710BD10B5C06E03689B6A984710BDF8B5076804000D00002F04D10122237A9343237272
S3510000C568F8BDC688FEF7E0F98642F5D22B782000BB55E388227A0133E380012313432372FEF70CF9ECE70D23F0B589B06A466B4401930323127B02939A4313436A4610270500137301A8FEF7F9F80F4EFA
S3510000C5B404AC1C363A003100200005F0E1FD2B11E35C210001A82370FFF7C2FF3A003100200005F0D5FD0F200540635D210001A82370FFF7B5FF09B0F0BDC046E088010010B5FFF7ADFF10BDF8B5076894
S3510000C60004000D00002F04D10122237A93432372F8BDC688FDF70EFF8642F5D22B782000BB55E388227A0133E380012313432372FDF70AFFECE737B5040000680D00FDF7B4FF236818686B46D91D0D708A
S3510000C64CFFF7D6FF37BD37B56A460B0A0500D3710C000068D11DFFF7CBFF6B462868DC71D91DFFF7C5FF37BD10B5FFF7ECFF10BD73B56B460D000600DC1D0B0E237021000068FFF7B5FF2B0C3068210068
S3510000C6982370FFF7AFFF2B0A306821002370FFF7A9FF306825702100FFF7A4FF73BDF7B507000E0035783C68002D07D06B462000D91D0D70FFF796FF0136F3E72000FDF7ADFEE388984206D06B46200042
S3510000C6E4D91D0D70FFF788FFF7BD01212268002802D00D0001381218237A8B431D43002325721370F0E707B56B46D971073319000068FFF771FF07BD034B1B691B1A00208B424041C0B2704700FCFF1F17
S3510000C730F0B5030007006D336C373E781A7889B0040001921E70964204D0006831000368DB689847250078352B789A0704D5022293432B7000233B70206803681B68984760673B78029323006E33009340
S3510000C77C029B002B0FD0012B2BD0009B197823006F331A788A4204D01970206803681B69984709B0F0BD019B9E420CD02068002103685B689847009B029A1A7001222B7893432B70E1E72B78DA07DED530
S3510000C7C8012293432B70002363616363A363E36323643A70D3E7019B9E4200D12AE19A4B21681B6904ADA3640B6828009B68984723005C3307CD07C32A681A602068E66D03681B6898479149051C08F031
S3510000C814C3F8002847D1291C301C08F0B3F8002843D18B49281C08F04BFE8A4908F022FD8749051C301C08F043FE011C281C08F051FB002108F0B0F9051C66680021301C08F092F800280FD1311C281CD0
S3510000C86008F0A6F8002808D180231B06F618311C281C08F089F8002800D0351C65612100734D58312B69A3640B789A070BD5626DD8070ED4531C1CD0A968236DC91A914217D39B182365E36D14E000252B
S3510000C8ACCFE76A4DCDE7501C0DD0042083430B70AB68256D5B1B934205D306220B78934303430B70E9E7236F216823630B6804AD28009B689847230000275C3307CD07C32A681A60236E666EA56E029332
S3510000C8F8A360636B616FA363E660206B65602761039308F0DBFD011C01906063029808F0AFFC0199E063301C08F0AAFC616908F041F9391C061C281C08F024F800280FD1311C281C08F024F8002808D1D5
S3510000C94480231B06ED18291C301C08F01BF8002800D02E1C039901986661266408F0B0FD002108F087FC23002C331A78051C002A43D1E2610132A06122846062A0621A70216CE06B08F010F9A16A08F079
S3510000C9900DF9A66E051C011C301C07F0F5FF002807D10021281C07F0EFFF0026002800D12E1C2068311C03685B689847E66D2749301C08F07FFD656F011C281C07F0DCFF012300282FD12249301C08F0AC
S3510000C9DCE7F8011C281C07F0E5FF0223002824D00323009A137067616763A763E7632764C3E6238C012B0AD1A38B606A9B00E31899690023A383238408F056FD6062606A291C08F0C5F8238C6062002BAD
S3510000CA28ACD1E3830133A5612384A062A6E7009A1370A4E6FA21A06C8900FFF76BFE002800D018E79BE6C04600FCFF1F0000A04100000842000020400000204170B5057C467C04004574B54204D0806857
S3510000CA74290003689B689847A06803685B689847A37CE0609A0710D50022227402329343A374B54210D0A068002103681B6898470122A37C9343A37470BD207C0328FBD807F044FEEF0A1F25A37CDA07EE
S3510000CAC0F4D501229343A3742274EFE7B54208D0A068012103681B689847144B1B696360E4E7FA216068C900FFF718FE0028DDD002232374DAE7A289E3899A42D6D80323F7E7B542E9D1FA216068C9001C
S3510000CB0CFFF706FE0028CBD0054B064A1B699B186360E389A28932339A42E3DCC0E7C04600FCFF1F30F8FFFFF0B50A88056889B006AB2800DA80D323F1309B00FF30EE18002A72D106AB991DFDF712FF2C
S3510000CB5806AB3000991DFDF74BFFC023DB00EB181B78032B00D0C3E1D14BEB181B781B0700D4C5E1D323DB00EB180293CD4BEB180393029B039A934200D1B9E11C6823007C331B78002B00D164E1D223BF
S3510000CBA49B00EB18188808F0D1FEA66EE76E32003B000090019109F017F8002800D1B2E00098019932003B000AF0C4F900900191226E636E009801990AF0BCF9230038331A7D06000F00002A00D0A1E040
S3510000CBF00132A663E76326646764A2641A752600009A019B22666366042230363378934333709A0700D5D3E01B0700D5D0E0A849606AFFF77BFD002800D1A7E00823327813433370C4E0A34BEB181B78B7
S3510000CC3C002B3FD106AB991DFDF79AFE9F4BEB181B78002B00D181E79D4BEC18A72320885B00984216D1BD23D327DB00EA181388BF005900013369189BB2C95B834254D213804E23FF332380BE23DB000A
S3510000CC88EA181368591A1160BE23DB00EF1806AB3A68DB883000D3183B6006AB991DFDF786FE002800D158E7218838680BF0B0FC854BEB18188050E7844BEC182388A72B16D1834BE9180B885F00009396
S3510000CCD4EB19F8277F00DF5B009B01339BB2A62B1DD80B80A6232380BB239B00EB18996DCF1B9F65BB239B00EF18BB6D9A1806ABBA65991DFDF71CFE00289BD02188B86D0BF080FCD2239B00EB181880F8
S3510000CD2092E70023DFE70023A8E700220023009201934FE7A36C132B17D80133A364A26BE36B3000390008F05BFF06000F00A06CA663E76308F0FCFD02000B003000390009F08AFA2064616449E7A06BA3
S3510000CD6CE16B226C636C0AF0F1F8A063E163E0E73378DB0609D45649606AFFF7C9FC002803D01023327813433370A269E3690098019908F01BFF260001233036002863D00099019AA161E261327813435E
S3510000CDB83370494B1B69E362474B626F1E691B69B61A6367230050331A7B002A5DD10132A265266566651A730022009801993F4B09F046FA04900591300008F0ADFD02000B000498059909F03DFE0022C1
S3510000CE04384B09F037FA02000B00A068E16808F0F5FE220030321378A060E160666ADB0703D52E4B1B699B1BA36713789B0712D5A069E1692C4A2D4B09F01EFE02000B000098019908F0BCFE002804D0F8
S3510000CE508022230052007C331A80214B1B699E1B244B9E4202D900237C342370029B043302938AE63278FA219A43E06A3270FFF74DFC00289CD03278D30699D506239A43CEE6A36D132B09D80133A365A7
S3510000CE9C236DA16DF01820650BF0B8FB606599E7236D626D9B1A2365F2E7C046020600009C060000307500004A030000F6050000EC050000F4050000420300003E030000DC05000000FCFF1F0000084061
S3510000CEE800408F400AD7A3703D0AC73FC7AF0000D323DB00E85806ABD98803689B68984709B0F0BD836810B5002B02D003220100984710BD002370B586B004938B6802AD04000E00002B06D002222800C7
S3510000CF349847F368EB60B368AB606E4629000822300005F01DF92B00220003CA03C3230006CE06C3049BA268A360059B0492E2682800E3600592FFF7CFFF06B070BDC36813B504008162002B05D00191DD
S3510000CF8022002369043001A9984701232D34237013BD13B5040000232D342370441D8362E37703002C3301621A704369002B08D0002A05D16B461430D91D0A70FEF7BFFF13BD0421FFF7D5FFFAE70300D0
S3510000CFCC10B51C8A0800022C03D90221FFF7CBFF10BDDA89013292B2022A06D8DA81DA8901349200D0501C82F2E70022F6E773B505006B46002204001035D97128001100DE1DFFF7C0FF200031002430C6
S3510000D018FFF7F0FA29002068FFF7D3FF73BDF7B516000122431DDA770023426904000162836283859A4225D007006A461437D11D38000B70FEF777FF3800FDF7EFF982B213006569B04200D3B3B22276BB
S3510000D064120A62760322A3761B0AE376237F290A93431A000123257561751343290C2D0EA175E5752377F7BD0421FFF770FFFAE7030070B53D331D780400002D13D0826B012A12D17E331D78002D0CD1F6
S3510000D0B006001A701036013B290030001A78FFF7B2FF31002068FFF780FF280070BD0A23B0342370F9E7704770B500250126054C2C3464207540FDF7B5FD29002000FDF7C6FDF6E7E0880100F0B50700D9
S3510000D0FC80373B7804005B4D85B0002B00D18BE0012B00D191E03B78002B00D191E0012B00D197E03B78544EDA000293534B9B18221D1A653E325A65FEF724FDA959090F01310BF06BFAA9594903490FC4
S3510000D14801310BF065FAE121490306000BF060FA80B2031C002800D101239BB21901300001930BF055FA434BC3180393019B30005D1CADB229010BF04BFAE1235B02181A039B834201D81800019DD823F0
S3510000D1941B0198422CD80298FDF749FE0600031E08D0364A0123904204D0354BC3185A1E93410233334A9B00D318D86CFEF766FC0C231F21F2789A43F27032788A4311002A0A0A431321EDB2327075703C
S3510000D1E0B2788A43B27032780D318A433270F2781343F3703D782800FDF71BFE0378DBB203702023C2781343C3700823827913438371002D23D0012D26D001208134207005B0F0BD1948FDF76BFC702136
S3510000D22C184AAB588B43AB506DE71748FDF762FC69E703211548FDF769FC03211448FDF765FC67E703211348FDF760FC03211248F5E78022114B92011A60D8E780220F4BD201F9E7007004404410000086
S3510000D27800FCFF1F003EFEFF00B006400040F9BF608801000B003410101000000C003410AC8D0100B88D0100608E01006C8E010000E100E0F0B5804D18222B003C331A707E4B85B0197827327D4C01903C
S3510000D2C4914315D15A7952060FD41A78520708D45A7830310A4203D01A780A408A4200D01A78DB78744BE3580FE01A795B79F9E719789143402904D15A78D207F2D51B7AF0E71B789343802BECD0FEF764
S3510000D31025FC6B4A6B4913686B480B40A02113606A4AC902A3580B43A350FEF7B1FB2A000023674F2C32537213722B63EB627B6F002B09D003A8FDF75BFE624C039B2268002A2CD083F310883C2203233E
S3510000D35CFF21AA56C0201340DB0099409840C943002A00DB92E00F231340083B574C9B089B001B19DC6921400843D8611300803305D01F231A401E3B9340514A13600022E86A1100FDF7D4FE0120019B9D
S3510000D3A8187105B0F0BDA27483F310883B007033636003A8FDF720FE636D0399002B26D120002200C1305432037081F310884249E1652100C0310B802100C3310B7019000133D160116111750C32082B1B
S3510000D3F4F8D126003A4B5436383331003000A365FEF7F6FF0090002819D03000FEF73DFE01E081F310882E4C2068FEF736FE03A8FDF7ECFD2368039A002B05D0A37C002B02D123606360A37482F31088DB
S3510000D4408AE723000222C2331A702660214C009963681A7A8A4219D90C264E43196889198B681B79022B03D100200A1D01F093FC6368196889198B681879002801D10A1D804700980130C3B20093DFE794
S3510000D48C2368EB623B6F5B682B635FE7104C93089B001B19C024A4001E593140084318516FE7C04600FCFF1F00400640007004404410000034800440FFFFFBFF120034100410000028F4FF1F000D002086
S3510000D4D800ED00E000E100E01DBA0000E0880100F0B5040000681D00030085B06E3301921A780523012A16D80A78260017001A3310361F4000961A4210D132000621FDF719FE03210300228A0A4022821E
S3510000D52402222A60019A00991160180005B0F0BD012F02D100232382F2E70523022FF1D18B8803AE33700023320007217380FDF7FBFD0321728803000A4022822F60E1E773B56B46DD1D0023060000689C
S3510000D5702B7003006E331B780C00012B01D9052076BD4B78032B01D1023B2B7022781F23110019401A4207D16388012BEFD12A001421FEF73BFAEBE70229E8D16388002BE5D1A1880B0705D12B78C9B207
S3510000D5BC002B0BD0FDF727FE2B7805213068221D002B00D10621FEF7EFF9D3E7FDF729FEF2E7036870B51A006E3215780400032D09D00520022D05D849886C33197003230020137070BD1A000821180051
S3510000D6086C32FDF79FFD0028F6D1012223686E331A70F1E70068F0B51E0003006E334D881B781700052485B02A0A022B0CD8CB880293012A0BD10B2101AAFEF7EBF90400019B3B60029B3360200005B032
S3510000D654F0BDD3B2EDB2022A04D16B460C211D7301AAECE70524032BECD16B466A469D738B880D21938101AAE1E710B51100026804006E3212780520012A08D801221A60220010320A6020681521FEF7BD
S3510000D6A0BDF910BD70B50668050033006E331A780C000520012A11D800221A704A88002A01D101321A700234220003213000FEF771F9220009212868FEF7A0F970BD70B51500026804006E3212780520A2
S3510000D6EC002A0BD1013289881A60220010322A60C9B2218220681621FEF78AF970BD70B5056804002B006E331B780520002B10D126008B888A781B02134310363200042128002382FEF740F932000A21EF
S3510000D7382068FEF76FF970BD70B51D00036816001A006E32127804000520002A0AD18A8810342280180022000921FDF7F3FC022334602B6070BD0023F0B589B09C46039302934B680500140005205A1C33
S3510000D78450D064454ED026000F7A0836674500D17BE0082B46D10A68624543D053885B3063819388A381D388E3815178617212782272024216D1554B890059180F6D5B38674504D03100200002AB03AA30
S3510000D7D0B84702AB019303AB00930200002331002800FEF7A1F81FE020211140002B2DD050B200282ADB002918D06246012104AF0592280039733A0004960693FEF7D2F8069B0293059B03930028DAD12E
S3510000D81C0100E3892800039AFDF7F2FB09B0F0BD05205206CFD5002204AF059201323A7313213A00280004960693FEF7E9F8E1E700290FD00022012104AC059228002173220004960693FEF7A7F8069B94
S3510000D8680293059B0393B0E705205206ADD5012204AC0591280022731321220004960693FEF7C8F8EBE72A006E321278032A0AD1627A1D4B92009B181D6D3100200002AB03AAA847BCE70520002BB9D052
S3510000D8B4E289002AB6D0227A94460822A256002AB0DB2022604664461040144210D0096804AA516017730121049628009360FEF767F8020002AB019303AB0093012374E705226406F6D5096804AA10731C
S3510000D90051602800049613219360FEF787F8EAE7E0880100554BF0B5C3600023072585B00192534A441C1269C3618261E27F0382AA43E277C02292000285C362303004000170012915D04B48FDF7DAF806
S3510000D94C2378002B11D0012B18D02578474E484C002D27D0012D00D178E00020FEF792F800231B70FFDE4348E8E705214248FDF7CDF805214148FDF7C9F8E6E702214048FDF7C4F802213F48F5E7019BF2
S3510000D998C01A874246D9002803D007000396009540E00700009541E0FEF7E6F83159090F01310AF02DFE3159344C4903490F01310AF026FE0290AB00314D0127ED186868FEF75AF80025FF237F21257029
S3510000D9E46570A570E370AF3B6571A371E571A2782E000A40A270A2797F421A43A271A27900951343A3711223E37003960026224A7300D15A0298A9400AF0FCFD019B8342B7D9181A8742BAD80136402E96
S3510000DA30EFD1039E022D02D00135002FE7D17022009B9B011E43F6B26670A3791340A3718023A37005B0F0BDFEF792F83159104C090F01310AF0D8FD0290B0E70000FFFF00FCFF1F060034100070044025
S3510000DA7C4410000007003410208F01002C8F0100948D0100A08D01000060064060890100D48A010000700640F7B5114C01906034237801261F00BFF35B8F0E4D3740334211D1200004F05CFD00280CD013
S3510000DAC839002800094AFFF721FF09483100094AFFF71CFF200004F069FD5C20019B58432818FEBD00FCFF1F08020020801A06006402002040420F00F8B5CA880500502A00D95022AB1C1C0018002E0047
S3510000DB14096804F035FB23000A4A52361C885088211C844200D2011C94888FB2201CBC4200D9081C188002330632B342EED100232B70F8BD548B0100F0B503000600F233F03635881F88040087B01D80E8
S3510000DB60BD4207D0D8308368002B03D003A9C3680D8098473088072811D806F0FFFD080020007800AA01B801D5006D01CC012300FC331A78BD4204D001218A431A7007B0F0BDD107FBD501218A431A70DE
S3510000DBAC2300FA22F833F4341A60218007233380EFE7BD4226D0230022005233BC32180A13705070180C1B0ED370230090700021522225000320C0335970D9701A709A70C4352B781C3D83431800012395
S3510000DBF803432B772800FFF712FA2300A4331B6829001868FFF7DDF923002100D5331B78A831002BBFD0230052330393C64B0325049302AB1A7B0123AA43134302AA13738B6A012B0FD103A8FEF75EF984
S3510000DC4400280AD0200003A9FFF758FF0422FC3423789343237035809FE72300FA22F8331A600223F4342380A4E7BD4228D0230022005233BC32190A13705170190C1B0ED37023000020C033917052212E
S3510000DC905870D8702000032219709970C4300378250093431A000123A835134303700A002800FFF7B8F92300A4331B6829001868FFF783F923002100D5331B78A831002B00D164E723000322523303933A
S3510000DCDC984B2500049302AB1B7BFC3593431A000123134302AA13738B6A012B08D004232A78200013432B70FCF785FB052356E703A8FEF7F7F80028F1D0200003A9FFF7F1FE04222B7893432B70EFE763
S3510000DD28BD4200D182E00023220008212370FC32137827008B43137052230322523703AD039704932B7A01979343023A170013432B722800FCF774FB2B7A3B432B72039B002B13D12B7ABB432B7203A905
S3510000DD74CB88502B34D1039B00221D0018005035A8421FD007780130BC46624492B2F7E72800FCF74DFBA31CEA88904207D801222B7A93432B7203A8FCF74CFBDFE719782F680133B954EA880132EA801A
S3510000DDC0019A9A42EAD1F0E7D24392B2150A002B03D10127087AB84308721900513350310D701A702300019ABC331A70120A5A70019A0021120C9A70019A2000170E522259711A719A71D971DF70C4300B
S3510000DE0C03784F3A93431A0025000123A8351343037002222800FFF7B6F82300A4331B6829001868FFF7CBF822002300D5321278A833002A00D1ACE69B6A012B04D00823FC342278134323700623B0E632
S3510000DE58BD4228D0230022005233BC32190A13705170190C1B0ED37023000020C033917052215870D8702000032219709970C4300378250093431A000123A8351343037002222800FFF779F82300A43345
S3510000DEA41B6829001868FFF78EF822002300D5321278A833002A00D16FE69B6A012B04D00823FC34227813432370032373E6BD4205D022000223FC3211780B4313702378002B00D159E6042365E623789B
S3510000DEF0002B06D000232370124B1A692300E8335A60FA21EC3420688900FEF707FC002800D144E6F8E6BD4204D00A4BE8341B6963603CE62300F83319680C3B1868FEF7F5FB002800D132E6F434238800
S3510000DF3C3DE6C0465200520000FCFF1F0300093373B5036008230400027A4360053B9A4313430372FCF720FC2000FEF784F80122464901A804F008F96B461B79FF2B00D181E06B4600251D712368AB423F
S3510000DF8825D10122237A934323723D490822206804F0F4F8E188002938D0002201252068002802D1237AAB432372835C0D2B25D8082B25D901329142F2D800232000E380FCF7ECFB0123227A1343237249
S3510000DFD41EE02000FCF7AAFCE58006002000FCF7DFFB0123227A13432372AE42CFDD200001A9FEF7ADFA237ADB07C8D50135F4E7202BD9D0002BD7D000212000FEF73DFAE288002A20D001252068511E3E
S3510000E020002802D1237AAB432372435C0D2B0DD8082B0DD90139F3D200232000E380FCF7B1FB0123227A1343237207E0202BF1D0002BEFD020000131FEF719FA2368E188591899420DD01A780133203A5B
S3510000E06C5E2AF8D900232000E380FCF795FB0123227A13432372200076BDC046F8FF0100F0B50B6889B000915B7904001600002B01D1002560E00098FCF72BFC6328F8D80098FCF726FC532855D806F05A
S3510000E0B857FBF2FFF2FF75008400F2FF9100540054005400540098009E00A4005400540054005400540054005400F2FFF2FF54005400540054005400540054005400ED00F50054005400540054005400E9
S3510000E104540054005400F2FFF2FFF2FF5400540054005400540054005400FB002E013D01420154005400540054005400540080015400540054005400540087018C01540054009501CA01540054005400CC
S3510000E15054005400540054005400020209020E0211020325009B1B685B79002B17D00098FCF7C5FB6438C0B2632800D9ABE30098FCF7BDFBAB2800D9FFE18B2800D9B9E1702800D9EFE1632800D9D9E1DC
S3510000E19C0325280009B0F0BDC023DB00E3181B78032B00D175E722000823B532FF32D17E0B43D3766DE7C023DB00E3181B78032B00D166E72200B532FF322023D17EEFE7C14B1A692300C133FF335A6069
S3510000E1E859E72200A932FF320123117867E12200A932FF320223117861E10021009B0F001B685A798A4213D01B681968B94203D101201A7A82431A728A784D78CB7812022A430D791B041A432D061543A3
S3510000E2342BBA1F00380C07F011FBAA4906F052FEBBB2A9491F00051C06F09CFB00281DD1A649281C06F0AAFB002800D0A34D230001223133FF331D675F654C33197B0A431A739B4AC421926849005A6044
S3510000E2800622635C93431A0002231343635406E7964DE6E722000123D932FF32917C0B439374FCE62200D932FF320223917CF6E70098FCF7F2FB009B1A680023517999420DD013681A68002A03D1012518
S3510000E2CC197AA9431972D37891781B020B435BBA9BB2272800D9DCE60622424382498A1855882A1C9D4200D21A1C06272300450078430918888897B20E33011CB84200D9111CE95201232373C3E6009869
S3510000E318FCF7BFFB272800D9BDE6062342005843724BC15A23000E33D152EDE720000C30FCF76BF8AFE6009B1D686B79002B34D00822002103A803F06BFF01212A688C4693790193022301995D1E9942FA
S3510000E3640DD803AB1D8858889988DB882200E58701250E322573D086118753878DE61068002803D16746117AB943117241570902002803D16746157ABD431572C05C014302A80230C15202330A2BD6D117
S3510000E3B0D9E7190018001D00DAE704230025626825819A436260CDE6012362689A43626065E6F5230122DB00E254424B1A69464BE31800E7009B1B681B681968DB88013B072B00D853E608004B1C0930EB
S3510000E3FC1A78303A092A00D94BE601338342F7D14B798A79303B303A12021B0313430A7A8878303A1343CA793038303A120113434A780002303A120302430879C97830383039024309010A43E2810122B2
S3510000E4482382227327E6009B1B681B681968DB88013B072B00D81EE64B1C9C46254B62461800093115780788BD4200DA13E64788BD4200DD0FE6013206309142F2D1210022003E312E3201916146188841
S3510000E4940D78291C854200D2011C5D888FB2281CBD4200D9081C012110808C4421730199023206339142E9D1EFE5104BE218102311780B431370E8E50C4BE21811782023F7E70A4BE21889E6084BE2181D
S3510000E4E08CE6C04600FCFF1F000020410000E04100004842548B0100AC070000B68B0100020600008C381F2800D947E606F02CF99B0046FE46FE46FE46FE46FE46FE46FE46FE46FE9D00AE00BF00D20068
S3510000E52CE50046FE46FE46FE46FE46FEFA0046FE46FE46FE46FEFC00FF0046FE46FE46FE04015E0164380C2800D921E606F006F93A0020FE20FE20FE20FE450020FE20FE20FE20FE4D0054006900822867
S3510000E5785ED083285FD0782800D00BE66168890637E003004C33DBB2162B00D902E6B438162800D9FEE506F0E3F838013C0146015701FDFDFDFDFDFDFDFDFDFDFDFD5F01FDFDFDFDFDFDFDFD8701FDFDF6
S3510000E5C4FDFDFDFDFDFDBE01FDFD8C01336803A91868E7235B00E35C0B70FEF70DF80225DBE5D14B1B6A5033998A3068FEF740F8F5E761680907C90F3068FEF784F8EEE7FC34606B03681B689847C849BA
S3510000E61006F032FE07F0C2F90022C64B07F0F0FA06F020FA81B23068FEF713F8D9E73534FF34BF49E06AEBE76168C904DDE7F2235B00E15AD3E70021D8E70098FCF725FA0500336803A918680D70FDF7EB
S3510000E65CCFFF0021272DC4D80E346D00295BC0E70098FCF714FA0400336803A918680C70FDF7BEFF0021272CB3D80620AB4B4443D9E70098FCF703FA0400336803A918680C70FDF7ADFF0021272CA2D863
S3510000E6A806206043A24C241861889CE70098FCF7F0F90400336803A918680C70FDF79AFF0021272C8FD806206043994C2418A18889E72300E28F002403AD0E332A80DA8E6A801A8FAA805B8FEB806300EB
S3510000E6F4E95A30680134FDF7AAFF042CF7D16EE7218972E7616889B26FE761683068FDF7B3FF64E7336802AA00930D239B18258A03930923049303230F27127B03A89A43134302AA1373E689FCF732F8E1
S3510000E74003A8FDF796FC02ABDC1C330B30332100237003A8FDF74EFF330A3B4030332100237003A8FDF746FF33093B4030333E402370210003A83036FDF73CFF210003A82670FDF737FF2B0B30332100EB
S3510000E78C237003A8FDF730FF2B0A3B4030332100237003A8FDF728FF2B093B4030333D402100237003A83035FDF71EFF210003A82570FDF719FF03990098FDF776FF0AE70D2302AA9B1803930923049306
S3510000E7D80323127B03A89A43134302AA137325003668FBF7DBFF03A8FDF73FFC2E353E3402ABD91C2B8803A80B700235FDF7F6FEAC42F5D130000399D9E74A4930680C31D5E7444B5A6E2421595ED26F5C
S3510000E8248918CB43DB17194070E73F4B3F495B6E8433D86906F01EFD07F0AEF800223C4B07F0DCF906F00CF901005FE70225336803A918680D70FDF7CFFE9EE4374B0022E3181B8800270093354BE358B4
S3510000E8709C68DD6800232000290007F099F9B8420CD10022200029002F4B07F0AFF9B8420CD12000290006F0E5F887B2346800992000FDF7D6FE39002000BDE6274FF5E7D523DB00E418A18A99E6F52395
S3510000E8BCDB00E25C002A04D1194A1169214AA21851600222FF32E25285E6009B1B685B79002B00D15DE40098FCF70BF83830C0B2142800D955E40098FCF703F8C82810D0CA2800D04CE4F523DB00E25CED
S3510000E908002A04D1074A11690F4AA21851600222FF32E2523FE4346803A8FFF711FB200003994CE700FCFF1F000020410000E03F548B010060890100F40500009C060000E0FFEF40FFFF0000AC0700008D
S3510000E95410B50068FFF798FB10BD10B50068FFF793FB10BD10B5040003F040F9200010BD10B5040003F03AF9200010BD10B5040003F034F9200010BD10B5040003F02EF9200010BD10B5040003F028F92F
S3510000E9A0200010BD0FB40120404204B07047C046F0B50500140083B00B290BD87D4B89005B589F467C4A13002C331B7ADEB2012B00D19FE0012003B0F0BD774F02213B00907A7033528998731B8A014277
S3510000E9EC00D18FE00B43012631000140064200D186E00120034300260120B4466C4E02406F303E523E007036B27262467280727102323382F280228933812B233271EB5C6F38002B00D1A6E02C373B7AA8
S3510000EA38002962D0DAB2012BC9D1BA72C7E75668002E06D05C4B3000598809F067FE002979D0574B1A002C32127A012AB6D14421002022685854002A00D192E0002D00D198E06B7F012B00D196E04F4BCE
S3510000EA8401A85C88FCF7BAFA230003214C4A2868FCF7BAFA002854D101236B7751E05389012B5FD00020022B00D092E7137B012B75D0536818608CE75389012B5AD00020022B00D085E7156851683A4A8D
S3510000EAD06C322A600B607EE7072105CC384B7C3303600020116076E7137B012B36D00022636800201A606EE72B2300220020EA5469E7012B00D066E7B97264E7B34378E78B436EE763681364136C002BA3
S3510000EB1C00D059E7002843D0437F012B42D0254B01A85C88FCF766FA23000321224A2868FCF766FA002800D16E77019B83F3108843E70023002228000231FCF72CFE3CE70020184B12687C33136036E7A8
S3510000EB68137B012BBFD1124B002012686833F5E70F4B022105CC6833AEE7320001210A332800FCF712FE01232B22AB54B17B19404CE7002E00D019E768E7054B12686C33136014E7032012E7022010E7E8
S3510000EBB43088010000FCFF1FA120000028F4FF1F080100207FB5040015000320002A0FD0002C0DD001390238052909D8080005F0B7FD8B0309203660002301202834237004B070BD63680120002BF9D021
S3510000EC0026002836127833789A42F3D02000FCF7A9FD2B780022337023002A331A702000FCF7D9FCE6E763680120002BE2D02300293315881A782B0A9A42DBD126002A363378EDB2AB42D5D02000FCF7E1
S3510000EC4C8BFD3570E5E763680120002BCCD0A368002BC9D0E3680026002BC5D0A3681A79B2420FDC0026E3681A79B242BCDD9B68B1002A78C95C914202D12068FCF7C3FA0136F0E79B68B1002A78C95CDA
S3510000EC98914202D12068FCF7B8FA0136E0E763680120002BA2D0A368002B9FD0E3680026002B9BD0A3681A79B24210DC0026E3681A79B24200DC91E79B68B1002A78C95C914202D12068FCF7A6FA0136E7
S3510000ECE4EFE79B68B1002A78C95C914202D12068FCF79BFA0136DFE723001268293391881E78CBB201209E4200D071E7602613783340202B00D06BE72B1D0093043301936B461981694653884B812B7BAE
S3510000ED300B735078042811D90300203BDAB20520032A00D956E7032B00D953E7180063686A461B6805F0FEFC19171B1D636801386A4604211B68032804D805F0F3FC0206080A0521200098473CE7062165
S3510000ED7CFAE70721F8E70821F6E70921F4E70A21F2E70B21F0E70C21EEE7F0B5194C85B0656C0700160002200191002D11D103A8FCF728F91449039B0A68002A0BD0897CB94208D1626483F31088636CAC
S3510000EDC80320002B05D105B0F0BD83F310880420F9E7019BFF21A36423006C331D70230022006E331970064B44326365E365636628003260E7E7C046800D0020000D00200000FFFF10B504000320002CC2
S3510000EE140AD02000FCF7A4FC002322002360636028322A341370237010BD03000100F0B528338BB002931B7829310A7804000B70012B00D1D1E0022B00D1F3E0002B00D0A0E0018A002900D19BE0828932
S3510000EE6090000759013292B26762022A00D995E0A281260000230139343604ADE3622822218230001900019603F0CEF918220021280003F0C9F93B782B717B1DDB7F5A1E93416B713B6AAB607B782B7347
S3510000EEAC7B692B617B8B2C376B613B78DB0703D50223049A13430493230030331B781F1E03D05F1E7B1E9F41013728220021019803F0A4F9614BBA006365614BA4659B18019A5A605F4B604ADA64604B3F
S3510000EEF81233DB571A00803206D01F2213401E3A9A4013005B4A1360230030331F78002F42D0013F7B1E9F41574B7F421F40574BFF18019B1B7F0393002B54D129006B799C46019B45C945C345C945C359
S3510000EF446B69E364019B1B7B002B04D06346012B01D1039B9C460123019A1377B9794F331943B971B9790B43BB711223FB70636B11799B0714D562463800FCF791FE00282BD14023BA781343BB70012396
S3510000EF90029A137000E041620BB0F0BDA38168E7394FC2E7FB78B879DBB2420602D58020C0010343B879C20602D58020400103439B060CD430236246B878013A0343BB7053425A4149000A43D2B23A7146
S3510000EFDCD3E70321606AE1620028D7D0FDF7C3FFD4E7012A0FD03222C261421CD17F0B430621D3771B4B1B698361D37F8B43190002230B43D377E16A002906D0606A002801D0FDF7A8FF0223B4E720007E
S3510000F0281430FBF7DBFD0028B2D00521E162EFE7022A0DD00121C361421CD07F01430620D17709490969A161D17F81430B43D37720001430FBF7C2FD002899D0002393E741AB000080FCFF1F00FCFF1F9C
S3510000F0743DBD00006089010000E100E00090F9BF007006400060064010B502F0AFFD10BD024810B56830FCF7AAFDFEE7608A0100FA2100200E4B10B55A69890064325A61DA686432DA60DA688A4210D3C7
S3510000F0C0DA68094C1219DA601A6901321A615A6801325A608A42F0D358609A6801329A60EBE710BD00FCFF1F18FCFFFF37B51A4B1C6F237965792D021D4328231D420AD0E379DBB2AA0706D4144A506DE9
S3510000F10C6A46D11D0B70FBF7EBFE2B0612D52378E378A2791B021B040CD500236A46D3710B4BD11D186DFBF70DFF002803D06B46DB79E37137BD7F222378DBB22370E3781340E370A379DBB2A371F3E75D
S3510000F15880FDFF1F00FCFF1F37B51A4B5C6F237965792D021D4328231D420AD0E379DBB2AA0706D4144AD06D6A46D11D0B70FBF7B1FE2B0612D52378E378A2791B021B040CD500236A46D3710B4BD11D9D
S3510000F1A4986DFBF7D3FE002803D06B46DB79E37137BD7F222378DBB22370E3781340E370A379DBB2A371F3E780FDFF1F00FCFF1FF0B5B34B8DB0DB6A002B00D1A3E01C680826A368180080300278D1B23A
S3510000F1F00691324200D17EE0012790331A7806706368D108394002911509590A49026B0119439208029B3A40D0001B0103430B431E685B68029807936B000343DBB2180120182830407940065DD5B006E0
S3510000F23C000F03900D2802D12000A3300270B601B20D9446029A002A00D177E01B01E2180593936A1600634419009362536A283604935B1A0793737918001F070123FF0FBB43DF00082398430743012052
S3510000F288FB06DB0F9843102300019F4307437771049B8B4204D0B3889B059B0D9C4547D2136A40220993059B0A91E61828367379934373716346002B49D0B18860468905890D09F02BFA0B1E41D1002D3B
S3510000F2D42BD12300A3331B78049ADB00E3185B8A9A4236D22B000095012229002000FBF7AAFF0122069B13420ED02300A1331A70A36809A980331A70002309934B6010330B812068FCF7CFFE6B461B7E1F
S3510000F32080215BB2002B00DAA1E00DB0F0BD7279D20910D00091D9E780212000079B126A2943FCF778F8D6E7002D19D16246002A16D10A950995039B0D3B5A42534106AA5375029BD9010D43157509A9FD
S3510000F36C2068FCF7A4FE2021A36894331A788A431A70BAE71E01A6193200283252799706F80F002F0FDBD206D20FD2000A43991C09010959B66A52688919914248D122000021A03211701A01A118886AE6
S3510000F3B8604404908862486A0590002D3DD103980D283AD1260008222C3670781043707020003C3046783243427001261A01A01828304379DF06FF0FBE4310273601BB4333434371059B002B0AD0049E67
S3510000F404049F9B1B059EBE4204D080888005800D844523D2049B0A93039B0D2B1CD1079BA21809931300402128335A798A435A718FE7165C0E5401308445FAD1B3E70126A218283250790707FF0FBE4313
S3510000F4500827F600B84330435071C2E70B6AE1E70A6A20002900FCF72AF844E71970A36880331A7852B2002AF8DB23003D331A7804231A4205D122002D3212781A4200D14BE780212000FBF779FF002125
S3510000F49C2000FBF775FF42E700FCFF1F10B502F0A1FB10BDFEE704207146084202D0EFF3098001E0EFF3088081690A88214B9A4200D0FEE70231816120210160704710B5024B03485968FCF7CBFB10BD18
S3510000F4E880FCFF1F0060064010B5034B03489968FCF7C0FB10BDC04680FCFF1F0070064010B500210148884710BDC04600A0064010B500210148884710BDC04600B0064010B500210148884710BDC04613
S3510000F53400C006400823044A9178194202D091780B4393707047C04600D00740ABBE0000F0B5EF48B9B0037BBFF35B8FDB0701D500F0F5FD0C3003F007F8002801D100F0EEFD0F213C20E74BE74AE84C1A
S3510000F5801351E84A13788B431370137850310B4021310B431370E44B597881430800242101435970127852B2002A03DA022299791142FCD0DD4ADE49916438211A788A431A705A7836398A435A701A7856
S3510000F5CC39310A4045310A431A7064399A790A40082AFBD140215A798A435A71202299791142FCD105221F211A715A798A435A71402219791143197199791142FCD059790A435A71202299791142FCD0F7
S3510000F6183F211A780A401A703C399879800808400328FAD199799D791A7AC9B21207EDB2520F06D0EA0700D550E32F211A7A8A431A720122032059789143597019788143080002210143197099790E0011
S3510000F66416401142FAD18022AB4FB14BB14D3B517B5952021343C0227B513B68120313433B60FCF77BFA3959090F013108F0C2FFA94908F0BFFF802301385B0498420CD2A64AA7495060C0200B6A000666
S3510000F6B01B021B0A03430B620723966013608022A14B12061A60A148FBF71AFAA048FBF717FAA048FBF714FA9F48FBF711FA9F48FBF70EFA03219E48FCF798FAC6239D4C9B00E6182000A1680C34FCF783
S3510000F6FC8FFAB442F8D11420FBF7A6FA9748FBF7F9F900219648FBF701FA9448FCF7BAF94821944B0024DA7F93488A43110040220A438021DA7704704470DA7F8F480A43DA772100FBF79DFA75498D4A29
S3510000F7484B598D481A4080235B0413434B5127AE2BADFBF7D1F98948FBF7CEF934707470F47034717471B471F471B4702C706C70EC702C716C71AC71EC71AC7003218048FBF7C6F9012322AF3B703B0035
S3510000F79402271A005F7032237B4F310093703800347074703471F4707471B471F471FCF7DFFBFCF7D1F9182603005F4A380022A9FCF71AFC3B680321B343103E33433B606E48FBF79FF96E4A4F486E49A4
S3510000F7E0835823AF0B40022183503C702C706C702C71EC706C71AC71EC71684C797030312000B9702900FCF7B5FBFCF7A7F939000300634A2000FCF7F1FB18210125012223683C4F8B431E4326603B7CE3
S3510000F82CBFF35B8F5C4C1D40134200D0C8E03800103002F09DFE002800D1C1E00526574BA560A561A562A563A564013E1D609D809D601D731033002EF7D12300A8331E60C02223009200AC331A802D4BEA
S3510000F87801211A692300B4331A602200B832137848488B431370FBF737F931004648FBF73FF931004548FBF73BF931004448FBF737F931004348FBF733F931004248FBF72FF931004148FBF72BF910231D
S3510000F8C4404D3948EA681343EB60FCF7DFF87C230F22AB60EB6838009343EB602B6A0C3A93432B626B6A053293436B622B6A383293432B626B6A393A93431A00052313436B622300A4331E80103002F004
S3510000F91051FE5BE080FCFF1F000003100070044044100000005006400040064000FCFF1F00366E0100000110041000001027000010E000E000ED00E000E100E0090038100A0038100B0038100C00381087
S3510000F95C0D003810748C0100448C01001F003C10448F010002F0034000F00340888D0100FFFFFFFC19003C101A003C10048D010000900340508C01000C100000FFFFEFFF00A00340A861000088040020CF
S3510000F9A8D80400201B003C10908E0100848E0100F08E0100FC8E0100548E0100F88C010000B00340D84B00201C62FEF767F878610120FEF763F8B8613B7F01251C00BFF35B8F2C402B422FD13E001C369A
S3510000F9F4300002F0C1FD002828D0CD4ACD4B1C3202921A60CC4A991CDA67802294469C446246148008229446CC8719009C4462467A310C800299C548D1671A00C03210601A00C43214801A00BF49D86306
S3510000FA40FE32FC33300014805960D58002F0B2FDB94803217C1D3862FDF74EFBE27F01231600BFF35B8F1E401A4211D13D002435280002F083FD00280AD0AE4B23345C33BB62AB4B2800443326711E7052
S3510000FA8C02F092FD38000321283001253863FDF707FC0122A84B7E691B78BFF35B8F1D4013425AD1A44802F063FD002855D07623A24C2BA92660A24E236130002D95FCF7D1FC220003219F4B2C3263624D
S3510000FAD89E4B2563A3621378A5638B4302390B431370330020331D70A5872BA8FDF70AFA210080310D7031008F4A803122670A60220098321560220000239C3213602200A032E36513608C4B2565A03328
S3510000FB241D70824B65651A692300AC331A602300C022B03312011A8023000C22B2331A702300B8331D602300A5656567A567E567A036BC33BE347A4835601D80257002F027FD7C4C714B2600764A012555
S3510000FB705A660122A369383602933378BFF35B8F1D40134230D1300002F0F8FC00282BD0029B2000E36318234C30A3642BA92D95FCF766FC2300220003214033E3656B4B643223661378A5668B430239DA
S3510000FBBC0B43137023006C331D702300743325671D802BA8FDF79CF9230079331D7080237A34DB003000238002F0E6FC5B4B03211A005C483C32DA67FCF712F803215A48FCF70EF8594C01232278BFF351
S3510000FC085B8F15001D401A4200D0C8E0200002F0B1FC002800D1C2E023004833514A1D70514BE56325646564D35880221B011B0F0F2B03D04D4A5B00D3189A8A9202A2600122227380220023D20022619B
S3510000FC54226A6360A361E36163619A4202D01268022A1ED0E364434B414E183363652300200031004C3323620C2258303231206502F07EFA3100656D1C2228003E3102F077FA002301351A0019001800EB
S3510000FCA0A8470223E364220000230121483211701A006362A3620800904001320343282AF9D12E4A136012689A421BD180206268A3682169E26323646164C000814217D0274813E08A080240012A03D0A9
S3510000FCEC1A78920700D4A6E401215A788A435A709A790A42FCD19EE4002348341E482370FDF7E4F980211D4889028B42F8D11C48002AF5D1A0211B4A09025068884235D01948EDE700FCFF1F608901002F
S3510000FD3880030020FFFF00000000FFFFB4FCFF1FC0020020D4020020C40200200A000A0080FCFF1F05000500608E01006C8E010000FDFF1F007004404C100000E089010080FDFF1F100002402593010071
S3510000FD84FE920100489301006A930100A8F4FF1F899301009268F7489A42B5D1200002F007FCF54CF54B00256360FB6F2DAF2B93942338009B0027A925812C932995FCF755FB252322AA9B18012231955E
S3510000FDD03295DA774C2322A9C9182BAE349527A80D7036953586FDF791F8E64BE6482A93E64B257329932794FAF70BFB23002B99B03319602300B288B4331A8023AB1900380025739C460CC80CC12100EE
S3510000FE1CB83108000CC80CC7634681CB81C123002F9AC0331A602300309AC43319681A60220030912F95C83231AB83CB83C2230034994C22D4331960230022A98A181278D8331A702300369ADC331A6074
S3510000FE682300328E2600E0331A80299BEC363560AB420AD00222C44827A9984723002A9AF0331A60299B029233602300BF4EF833326927001A608023FC371B033B6023000822FE335A8022000F21FF3201
S3510000FEB4537A27A88B435372FDF726F82DA8FDF723F805237B613369B24AFB6180235B033B627A63B04BB14A64333A6532690025BB620023FA67C022AD48AE4984463864AD48FB62BB63F9637B64BB64D9
S3510000FF00BB65FB657866BB66FB663B677B673D617C623C637D653D66B7685200A750C42707207F000432A550E25D8243E255C6229E485200A05060460432A1509C490432A0500432A1509B490432A15032
S3510000FF4C0432A3500432A3500432A35C863FFF3FBB43A354D62395485B000830E050944A0433E4500433E25032690833E25032690833E2508F4A0433E5500433E25029002800FAF787FEE82388485B00DE
S3510000FF982430E05032690433E4500833E250874A0433E25080227C490433E150D2000433E252F5225200A35CBB43A354CF23804A9B00E5500433E2500433E5500433E550BD23DB00E1507B4B3269E5502E
S3510000FFE40433E550794B0F00E550794BC221E250A0220433D200E252764B0022E5540023C90061180A604B60C321C90061180A604B60C421C90061180A604B6030696E49605030696D4960500431655485
S35100010030083161180A604B60C921C90061180A604B60CA21C900655066496748655404316550664965500431655065496554043161180A604B60CE21C90061180A604B603269604BE2500433E5504F4AD0
S3510001007C5E4B3832E5527C3BE250D3228033E5505B4BD200E5500433E5505A4BE5545A4BA3505A4AA350D423DB00E4501033E750574B584FE5500433E550574B396AE552564B0291E554FCF701FA02991F
S351000100C8544B5548E150396B0291FCF7F9F905220299524B5248E1500433E550514B5249E25032690433E5520833E25088230C225B01CA50FBF779FD32694C4B306ADA654B4B2BA92E934B4B30302D9344
S351000101142B94FCF701FF2BA8FCF7F6FE474B306A2E93474B2BA940302D932B94FCF7F4FE2BA8FCF7E9FE1F4829004830FAF79DFD3800404B0C30DB681D7002F031FA384C0A21E06DFCF7E0FA002800D117
S3510001016081E088220B4B52011B69E365304B99580C22114274D069E0BB9301004805002001000800F1A70000540500201DA800002C06002000FCFF1F6C060020E08901000000FFFFCDCCCC3C00009041DF
S351000101AC66661A420000C84200020004608A0100F40600200007040018070020FFFF0000EC050000F4050000FC050000020600002C0600003406000054060000080C00205C060000640600007C06000040
S351000101F8840600008C06000094060000500B00209C060000B406000080FCFF1FBC060000BE0600002C070000780C00209C070000C48D0100A40700000070044080FDFF1F35CB000031A8000045A800007B
S35100010244D7A80000A8F4FF1FEFF3108172B655208B4A98500018985081F310882022894BDA608949894B0C6A1A002600A83630685432155C22002700AC321278AD3738783A70012A15D0022A57D0002AC0
S351000102906CD1002803D023000A69B0335A602300FA21B43318688900FCF738FA00285DD00123AC342FE0774E012819D0220009695D336D00EF5CB0325B19516059782300103AA533176019701F233B4068
S351000102DC002901D020210B431279002A01D040221343336033681B0611D52300B43302211868FCF70DFA002809D0336922AA9BB2138013001B880223AC34237028E02300B43305211868FCF7FBF90028CE
S3510001032820D02200A83213680133082B01D81360BAE70023FBE7554902282DD022001F23A032106803405079002801D0202003431279002A01D0402213430B60494BB0341B696360474A546E23002100C5
S35100010374B0331878B1310B7808700B2800D995E004F0FAF96C0088009701AF01D701EF012E02ED03F4030604170424040A68802317001F401A422CD023002A0150339B180869197B86B2A218000400298B
S351000103C031D10121000C91651065543216801973042D08D8280120188368002B03D02BA90E80C36898472200A832136801331360082B31D90023136022000123B83211780B43137054E72300B4330521FA
S3510001040C1868FCF785F90028AAD033680133082B01D8336046E7376044E7936D202B0ED8013393652B01E3181A6D000C80181F00996D186508F0EAF854373880C2E7130054331B88116DCB1A1365EBE7AC
S35100010458002B00D028E7CBE7002B03D01E212000FCF7C7FD23003D331B78002B1CD0A36BB034012B00D018E1237015E00411000080F00F4000FCFF1F608A010000B00340012B00D1ACE023000222A02178
S351000104A4BA331A8099702000FCF7A5FDC24BDC6F220020003E3211783F3003780170012900D19AE3032900D1C3E3002922D1002B0CD0250018230C352800617301222373FCF79FFD29002068FCF76DFDA1
S351000104F0230039331B78002B0ED02300626B3E33012A00D079E302212000197021793C300170890700D41A70A84C6069FEF787FCA069FEF784FCA64B60331B78002B03D0206A03685B699847A24B1B6AD3
S3510001053CB8331B78DB0703D501229E4B61331A709C4B60331B78002B04D0994B186B03685B6998470125994B1B691B0B9D43954B1C006434227A6272954200D18EE332212000F9F773FF002800D0257274
S351000105889048FDF7DFFAC0238F4CDB00E35C8F4F02938F4BE25C0692029AE254E35DDA06D10F002A00DB77E350228A489343103A13430121E3554830FAF75DFBD423DB00E258802351685B020B435360B4
S351000105D47B4B1A69814BE250C0237C4EDB00F05C042800D97CE304F0C7F879038003CA037904A3042000FCF74BFD002800D155E7A36B012B52D12300BC33197807239F2903D90B006033DBB25B08A21C08
S351000106205B00D3186279257912022A4352BADA8723000231C9B2BC331970AC2903D80222023B1A8031E721002BAD10222800403101F098FD2B88FF261B051B0D2B800023EB81C0251A00AD0101205110FB
S3510001066C49002BAFC95B02421AD0314080274B4008213F0218005B00384000D06B400139C9B20029F6D10132102AE7D1A21CD28F1B04120B1B0FB0349A4204D10223E9E6090AE3E7B0340923E4E6022B97
S351000106B803D04A212000FCF79CFC23003D331B78002B00D1F0E62300A26BB033012A6ED10A321A7009325A60B2340323CCE6032B07D023000422BA33002120001A80FCF780FC2000FCF7CAFC002800D1C1
S35100010704D4E62300A06BB033012852D104221A70626A002A04D121002C310B7883430B70137851781B04927809020B4313432365BCE6042B03D05A212000FCF75CFC23003D331B78002B00D1B0E62300B5
S35100010750A26BB033012A2ED10A321A7009325A60B23405238CE6052B07D023000422BA33002120001A80FCF740FC2000FCF78AFC002800D194E62300A06BB033012812D106221A70626A002A04D12100F3
S3510001079C2C310B7883430B70137851781B04927809020B43134363657CE60A221A7079E680FCFF1F80FDFF1F00FCFF1F00F00F4054050020480500200206000001060000608A0100FC050000636D00221D
S351000107E80093230001924A331B880F921B020E931100009E019F0E9A0F9BB61A9F4123004C33188832003B0004F0E2F80B00C9174902490A14910021020015911498159912184B4102920393039BFA203F
S351000108345902029BC000DA0D114304910021039B251DDB150593049A059B12184B410692079323000A33D88F32003B00002104F0B9F802000B00C8173F2108400021169017911698179912184B4199068A
S35100010880900908439B1108900993A31DDB8FD90B5B041093119110981199089A099B12184B411E921F9323000833D88F32003B00002104F091F802000B00C8177F2108400021189019911898199912185C
S351000108CC4B415906D00908430021DB110A900B93EB8F13911B041293129813990A9A0B9B12184B41300039002092219304F042F9079B002B07DC00D086E0FA23069ADB009A4200D280E080230022DB051E
S3510001091802F0B2FE0022D54B06F0ACF80022D44B06F0A8F804F0B8F800220023049205930290039102980399069E079F361A8F4120982199801A99410023226D04F040F80B00C917C902C90A1A91002141
S3510001096402001B911A981B9912184B41D902500D08435B150C900D93049805991E9A1F9B121A8B410C980D99801A99410B000200591C79DB591C02D1B7498A4274D3D9174904490C1C9100211D911C98F2
S351000109B01D9912184B415D04D20B154330003900A56504F0A9F8AE4904F08EFA23002200E0656133D97F061C6032002958D12167013125669182A567E567D977230022008533D97F8432002900D07CE09B
S351000109FC2000943016600160013191829661D661D9770723B03435E580230022DB0502F031FE0022984B06F02BF80022974B06F027F804F037F8029003910498059904F0A1F880230022DB0506000F003B
S35100010A4802F01AFE00228F4B06F014F800228E4B06F010F804F020F88023002204900591DB053000390002F007FE0022874B06F001F80022844B05F0FDFF04F00DF802000B0057E7002595E7938A042B29
S35100010A940FD1138A9900013361189BB2096E032B23D813822300032260339A82A36F591AA1672200A36F60325B19A367918A032992D8538A01339BB2032B10D8538222006032538A01319B00E3181D662C
S35100010AE089B2A06F918207F097FDE0677EE70023D9E70023ECE7938A042B0FD1138A990001339BB28958032B27D82500138203238435A869AB8204F0D5FCA86125008435A869311C04F042F8A861A88A1B
S35100010B2C032800D96DE76B8A01339BB2032B10D86B826B8A01309B0080B2EE50A88204F089FE011CA86904F0C9F9E86159E70023D5E70023ECE723000022B9331A700823B03487E4082B03D023001269B4
S35100010B78A8335A602300FA21AC3318688900FBF7C9FDB034002800D08AE58DE4092B00D18AE42200B93213780133DBB21370042B02D80023B03467E40123B83464E40A2B00D179E42200B93213780133CA
S35100010BC4DBB21370042BCED9B8346BE50B2B03D01369A834636069E42300B4331968083B1868FBF799FD002800D15FE42300B2331B78B03442E403228BE4012B1AD0220002233C321078250003431370BF
S35100010C101822227300222BAE0C356173280011003370FCF7B6F9200031002030FBF7E6FC29002068FCF7C9F9230039331B78002B00D169E4636B3E34012B02D10133237062E40323FBE7032B00D15DE45A
S35100010C5C3D3423780133DBB22370042B00D955E40023137052E4C046000014400000903D0180FFFF0000C842000008400000E03D00804E400000B03F00003D40DB4A12699A6673E49A060DD56022D9481D
S35100010CA89343E3554830F9F7E6FFD423DB00E258D54B51680B4088E45B0600D58AE4D34BD349E058FBF726FD002800D182E41023E25D1343E3557DE40122F254029B069A93422CD00AE0029B069A9342A4
S35100010CF41DD03122F35D93431A0010231343F355D423C54ADB00D25802995368022900D122E1042900D123E1029B5168023B012B00D921E180239B021943516009E0F35DDA0706D503229343F355C023F8
S35100010D40013ADB00F254F423B44DDB00EB58012B00D86CE2B248FBF785FEE6235B00EE5CCE23FF33EC5CEE54062E00D935E1300003F004FDFF0019013601BA01CE01F6013702D4230822DB00F3580025F5
S35100010D8CB533FF33D97E0A43DA762023F25D1343F355D323DB00F45823682000DB689847964925750A690B69096965750491611D25726572A572E57225736573A573E57325746574A574E574A575E57519
S35100010DD825766576A576E57625776577A577E577CA77110A8C461E906046A11DC877110C8C466046E11DC877120E0131CA772200190A2C3213705170190C1B0ED3702300303391709D73DD731D745D7447
S35100010E241D701D725D729D72DD721D735D7312339D73DD731D745D749D741D705D709D70DD701D715D719D71DD711D725D729D7213331D705D709D70DD701D715D719D71DD71DD721D735D739D73DD7320
S35100010E701D745D749D741E9804F06AFD2300020A68335A70020C9A700A0A5A710A0C9A71049A18701971000E090ED8701A73D9712300120A75331A70049B1A0C230076331A702200049B77321B0E137069
S35100010EBC2300012278331A711D705D709D70DD70F35D0B3293437D342570F355C023093ADB0000E7F15D0B070AD4484B1A694E4BF3585B6AD21AF92A02D908230B43F355474AD35DD90705D5454AC02345
S35100010F080421DB00D154E9E6990703D502218B43D355F4E7414BD3581A007D321278002AECD130331B781B07E8D4D7E61023F25D1343F3555B0708D4D4232022DB00F358B533FF33D97E0A43DA76C02306
S35100010F540121314ADB00D7E732490B405360DBE68021C9020B43F9E72F4B1940DDE6D025FF35002C07D000222C481100F9F788FA0022254B5A5524494B5D9A0723D542229343023A13434B55E6233F3A88
S35100010FA05B00CA5419E0012C0AD0002203212048F9F770FA144B194A1969DE235B00D150DE23164D5B000121E858FBF7A7FB002803D0E62302225B00EA54A6420BD147E0022C27D0084B00211A69DE233E
S35100010FEC5B001048EA50F9F757FADA23084A5B00D058310003689B68984733E000FCFF1F608A0100FFFFFEFFFC05000020BF020048050020200700209C060000FFFFFBFFFFFFFDFFFC0600200121C548A6
S35100011038F9F716FA002817D0DA26E425C24C7600A0596D00036867595B689847874241D3A05903685B6898470100BC48F9F71EFAE62303225B00E254F521B94BB64864331C7A5B7AC900425CA34200D1B0
S35100011084D0E0002C00D1CDE0002A04D1B24B1A69F623DB00C2500222AC4BFF325A52F623FA21AA4CDB00E0584900FBF735FB002800D1BAE0A94BAA4AE05CAA49AA4B002800D1C0E0187CDB681870BFF351
S351000110D04F8FD160BFF34F8FC046FDE761599D480131F9F7DFF9C3E7DE235B00032C02D09A4A1269EA50AF21954D8900E858FBF70DFB002800D168E7E62304225B0063E7042C05D0914B1A69DE235B00BA
S3510001111CEA506AE707218A48F9F7A0F90028A1D0E423884A5B00D1588748002903D00139D1500029CFD10021F9F7AEF9D022814BFF32995C033AC90602D50521995489E70621FBE7D025FF35052C13D045
