S02B00002E2F72656C656173655F626F6F746C6F616465722F416C636F4D656173757265315F323030312E53B8
S3510001000000000120390501009D050100A105010099050100990501009905010000000000000000000000000000000000910D04009905010000000000A1FE030001FE0300B1050100B5050100B905010010
S3510001004CBD050100C1050100C5050100C9050100CD050100D1050100D5050100D9050100DD050100E1050100E5050100E9050100ED050100F1050100990501009905010099050100990501009905010030
S351000100989905010099050100F5050100F9050100FD0501000106010005060100090601000D0601001106010015060100190601001D0601002106010025060100290601002D0601003106010035060100FE
S351000100E4390601003D0601009905010041060100B151020049060100855102005106010059510200590601002D510200610601006506010069060100015102007106010099050100990501009905010061
S351000101309905010099050100990501009905010099050100990501009905010099050100A13E0200E13B0200990501009905010099050100AD44020099050100C96E02000D6F0200F56E0200DD6E0200AD
S3510001017C9905010085060100990501009905010099050100990501009905010099050100990501009905010099050100990501009905010099050100990501009905010099050100990501009905010076
S351000101C89905010099050100990501009905010099050100990501009905010099050100990501009905010099050100990501009905010099050100990501009905010099050100990501009905010017
S3510001021499050100990501009905010099050100990501009905010099050100990501009905010099050100990501009905010099050100990501009905010099050100990501009905010099050100CA
S35100010260990501009905010099050100990501009905010099050100990501009905010099050100990501009905010099050100990501009905010099050100990501009905010099050100990501007E
S351000102AC9905010099050100990501009905010099050100990501009905010099050100990501009905010099050100990501009905010099050100990501009905010099050100990501009905010032
S351000102F899050100990501009905010099050100990501009905010099050100990501009905010099050100990501009905010099050100990501009905010099050100990501009905010099050100E6
S351000103449905010099050100990501009905010099050100990501009905010099050100990501009905010099050100990501009905010099050100990501009905010099050100990501009905010099
S35100010390990501009905010099050100990501009905010099050100990501009905010099050100990501009905010099050100990501009905010099050100990501009905010099050100990501004D
S329000103DC9905010099050100990501009905010099050100990501009905010099050100FFFFFFFF02
S31500010400FFFFFFFFFFFFFFFFFFFFFFFFFEFFFFFFF6
S351000104400348044B834202D0034B03B1184770477407FF1F7407FF1F00000000054806490B1AD90F01EBA301491002D0034B03B1184770477407FF1F7407FF1F0000000010B5064C237843B9FFF7DAFFC3
S3510001048C044B13B10448AFF300800123237010BD0008FF1F00000000002B060008B5044B1BB104490448AFF30080BDE80840CFE7000000000408FF1F002B0600A3F5803A704700BF154B002B08BF114BBA
S351000104D89D46FFF7F5FF00218B460F461148124A121A02F023FC0C4B002B00D098470B4B002B00D098470020002104000D000B4802F052F802F0BCFA2000290019F09EFA02F058F80000080000000000AD
S3510001052400000000000001200008FF1FE4F20020B529010072B60E480E4901600A6882F308880D4880470D490D4A0E4B9A42BEBF51F8040B42F8040BF8E70B490B4A00209142BCBF41F8040BFAE762B668
S351000105700848804708ED00E000000100E11705002C2B06000000FF1F7407FF1F0008FF1FE4F20020D1040100FFF7FEBF3A4800473A4800473A4800473A4800473A4800473A4800473A4800473A4800474D
S351000105BC3A4800473A4800473A4800473A4800473A4800473A4800473A4800473A4800473A4800473A4800473A4800473A4800473A4800473A4800473A4800473A4800473A4800473A4800473A48004701
S351000106083A4800473948004738480047374800473648004735480047354800473548004735480047344800473348004732480047314800473048004730480047304800473048004730480047304800472C
S35100010654304800473048004730480047304800473048004730480047304800473048004730480047304800473048004730480047304800479D050100A1050100910D0400A1FE030001FE03009905010071
S351000106A099050100990501009905010099050100990501009905010099050100990501009905010099050100990501009905010099050100990501009905010099050100AD6C0200A16C02001D7002005E
S351000106EC09700200F56F02009905010099050100990501009905010099050100116B020099050100056B020099050100F96A020099050100ED6A020099050100E16A020099050100D56A020099050100C9
S3510001073899050100990501009905010099050100896C0200000000002DE9F05F40F20008C1F6FF78F0C824BA2DBA36BA3FBAF0C298E8001C802900F0D781C02900F0FF8090E80A0309BA1BBA98FA88F802
S3510001078499FA89F9A2E80A035AF8040B4FEA396ECCF844E8CCF800B0DCF884E88EEA000E84EA0E0485EA040586EA050687EA0607F0C2CCF84478CCF800B0DCF884E881EA0E0183EA010388EA030889EA59
S351000107D00809A2E80A035AF8040B4FEA396ECCF844E8CCF800B0DCF884E88EEA000E84EA0E0485EA040586EA050687EA0607F0C2CCF84478CCF800B0DCF884E881EA0E0183EA010388EA030889EA080900
S3510001081CA2E80A035AF8040B4FEA396ECCF844E8CCF800B0DCF884E88EEA000E84EA0E0485EA040586EA050687EA0607F0C2CCF84478CCF800B0DCF884E881EA0E0183EA010388EA030889EA0809A2E83A
S351000108680A035AF8040B4FEA396ECCF844E8CCF800B0DCF884E88EEA000E84EA0E0485EA040586EA050687EA0607F0C2CCF84478CCF800B0DCF884E881EA0E0183EA010388EA030889EA0809A2E80A036B
S351000108B45AF8040B4FEA396ECCF844E8CCF800B0DCF884E88EEA000E84EA0E0485EA040586EA050687EA0607F0C2CCF84478CCF800B0DCF884E881EA0E0183EA010388EA030889EA0809A2E80A035AF8DA
S35100010900040B4FEA396ECCF844E8CCF800B0DCF884E88EEA000E84EA0E0485EA040586EA050687EA0607F0C2CCF84478CCF800B0DCF884E881EA0E0183EA010388EA030889EA0809A2E80A035AF8040BD0
S3510001094C4FEA396ECCF844E8CCF800B0DCF884E88EEA000E84EA0E0485EA040586EA050687EA0607F0C2BDE8F09F90E8000398FA88F899FA89F9A2E800035AF8040B4FEA3963CCF84438CCF800B0DCF88A
S35100010998843883EA000384EA030485EA040586EA050687EA060788EA070889EA0809A2E8F0035AF8040B4FEA3963CCF84438CCF800B0DCF8843883EA000384EA030485EA040586EA050687EA060788EA36
S351000109E4070889EA0809A2E8F0035AF8040B4FEA3963CCF84438CCF800B0DCF8843883EA000384EA030485EA040586EA050687EA060788EA070889EA0809A2E8F0035AF8040B4FEA3963CCF84438CCF824
S35100010A3000B0DCF8843883EA000384EA030485EA040586EA050687EA060788EA070889EA0809A2E8F0035AF8040B4FEA3963CCF84438CCF800B0DCF8843883EA000384EA030485EA040586EA050687EA98
S35100010A7C060788EA070889EA0809A2E8F0035AF8040B4FEA3963CCF84438CCF800B0DCF8843883EA000384EA030485EA040586EA050687EA060788EA070889EA0809A2E8F0035AF8040B4FEA3963CCF84C
S35100010AC84438CCF800B0DCF8843883EA000384EA030485EA040586EA050687EA060788EA070889EA0809A2E8F0035AF8040B4FEA3963CCF84438CCF800B0DCF8843883EA000384EA030485EA040586EA3C
S35100010B14050687EA0607F0C2BDE8F09FDAF800004FEA3763CCF84438CCF800B0DCF8843883EA000384EA030485EA040586EA050687EA0607F0C2DAF804004FEA3763CCF84438CCF800B0DCF8843883EAD4
S35100010B60000384EA030485EA040586EA050687EA0607F0C2DAF808004FEA3763CCF84438CCF800B0DCF8843883EA000384EA030485EA040586EA050687EA0607F0C2DAF80C004FEA3763CCF84438CCF8F9
S35100010BAC00B0DCF8843883EA000384EA030485EA040586EA050687EA0607F0C2DAF810004FEA3763CCF84438CCF800B0DCF8843883EA000384EA030485EA040586EA050687EA0607F0C2DAF814004FEA8E
S35100010BF83763CCF84438CCF800B0DCF8843883EA000384EA030485EA040586EA050687EA0607F0C2DAF818004FEA3763CCF84438CCF800B0DCF8843883EA000384EA030485EA040586EA050687EA06076D
S35100010C44F0C2DAF81C004FEA3763CCF84438CCF800B0DCF8843883EA000384EA030485EA040586EA050687EA0607F0C2DAF820004FEA3763CCF84438CCF800B0DCF8843883EA000384EA030485EA040538
S35100010C9086EA050687EA0607F0C2DAF824004FEA3763CCF84438CCF800B0DCF8843883EA000384EA030485EA040586EA050687EA0607F0C2BDE8F09FAFF30080AFF300802DE9F01F90E8F00024BA2DBA87
S35100010CDC36BA3FBA40F21000C1F6FF70B1E8000F84EA080485EA090586EA0A0687EA0B0790E8011F8BE8F000CCF80000CCF80080F0C989E8F000CCF80000CCF80080F0C989E8F000CCF80000CCF800808B
S35100010D28F0C989E8F000CCF80000CCF80080F0C989E8F000CCF80000CCF80080F0C989E8F000CCF80000CCF80080F0C989E8F000CCF80000CCF80080F0C989E8F000CCF80000CCF80080F0C989E8F000B4
S35100010D74CCF80000CCF80080F0C989E8F0000A2A1DD0CCF80000CCF80080F0C989E8F000CCF80000CCF80080F0C989E8F0000C2A0DD0CCF80000CCF80080F0C989E8F000CCF80000CCF80080F0C989E83E
S35100010DC0F000CCF80000CCF800809AE8F00091E8000F84EA080485EA090586EA0A0687EA0B0724BA2DBA36BA3FBA83E8F000BDE8F01F7047AFF30080AFF30080AFF300802DE9F01F90E8F00024BA2DBAC8
S35100010E0C36BA3FBA40F23000C1F6FF7001EB021191E8000F84EA080485EA090586EA0A0687EA0B0790E8011F8BE8F00031E9F000CCF80000CCF8008089E8F00031E9F000CCF80000CCF8008089E8F000C0
S35100010E5831E9F000CCF80000CCF8008089E8F00031E9F000CCF80000CCF8008089E8F00031E9F000CCF80000CCF8008089E8F00031E9F000CCF80000CCF8008089E8F00031E9F000CCF80000CCF8008069
S35100010EA489E8F00031E9F000CCF80000CCF8008089E8F00031E9F000CCF80000CCF8008089E8F0000A2A21D031E9F000CCF80000CCF8008089E8F00031E9F000CCF80000CCF8008089E8F0000C2A0FD094
S35100010EF031E9F000CCF80000CCF8008089E8F00031E9F000CCF80000CCF8008089E8F000CCF80000CCF800809AE8F00031E9000F84EA080485EA090586EA0A0687EA0B0724BA2DBA36BA3FBA83E8F00023
S35100010F3CBDE8F01F704700BFAFF30080AFF30080AFF3008041F6480390E80600CEF2080383E8060041F2000140F20002CEF20801CCF280420A60986B10F0020018BF4FF0FF3070472DE9F00041F64807EE
S35100010F88CEF2080791E818001BBA24BA90E860002DBA36BA87E8780040F28000C1F6FF70FBC880E8780080E8C00003C900BA09BA82E80300F0BC70472DE9F00041F64807CEF2080791E818001BBA24BA12
S35100010FD490E860002DBA36BA87E8780040F2A000C1F6FF70FBC880E8780080E8C00003C900BA09BA82E80300F0BC70474DF8044D40F2C001C1F6FF711EC980E81E0010BC704700BFAFF30080AFF30080B5
S351000110202DE9F0038946904698E81E0040F2D007C1F6FF7724EA020503EA020635432944066831443E68314402EB716123EA010502EA010635432C44466834447E68344401EB345422EA040501EA04065F
S3510001106C35432B4486683344BE68334404EBF33321EA030504EA030635432A44C6683244FE68324403EBB22224EA020503EA020635432944066931443E69314402EB716123EA010502EA010635432C4465
S351000110B8466934447E69344401EB345422EA040501EA040635432B4486693344BE69334404EBF33321EA030504EA030635432A44C6693244FE69324403EBB22224EA020503EA020635432944066A3144D9
S351000111043E6A314402EB716123EA010502EA010635432C44466A34447E6A344401EB345422EA040501EA040635432B44866A3344BE6A334404EBF33321EA030504EA030635432A44C66A3244FE6A324452
S3510001115003EBB22224EA020503EA020635432944066B31443E6B314402EB716123EA010502EA010635432C44466B34447E6B344401EB345422EA040501EA040635432B44866B3344BE6B334404EBF333DE
S3510001119C21EA030504EA030635432A44C66B3244FE6B324403EBB22223EA040502EA040635432944466831443E6C314402EBF16122EA030501EA030635432C44866934447E6C344401EBF45421EA020557
S351000111E804EA020635432B44C66A3344BE6C334404EBB34324EA010503EA010635432A4406683244FE6C324403EB323223EA040502EA040635432944466931443E6D314402EBF16122EA030501EA03062A
S3510001123435432C44866A34447E6D344401EBF45421EA020504EA020635432B44C66B3344BE6D334404EBB34324EA010503EA010635432A4406693244FE6D324403EB323223EA040502EA0406354329446B
S35100011280466A31443E6E314402EBF16122EA030501EA030635432C44866B34447E6E344401EBF45421EA020504EA020635432B44C6683344BE6E334404EBB34324EA010503EA010635432A44066A3244B5
S351000112CCFE6E324403EB323223EA040502EA040635432944466B31443E6F314402EBF16122EA030501EA030635432C44866834447E6F344401EBF45421EA020504EA020635432B44C6693344BE6F3344FB
S3510001131804EBB34324EA010503EA010635432A44066B3244FE6F324403EB323282EA03056540294446693144D7F88060314402EB317181EA02055D402C44066A3444D7F88460344401EB745484EA01057C
S3510001136455402B44C66A3344D7F88860334404EB334383EA04054D402A44866B3244D7F88C60324403EB722282EA03056540294446683144D7F89060314402EB317181EA02055D402C4406693444D7F8CC
S351000113B09460344401EB745484EA010555402B44C6693344D7F89860334404EB334383EA04054D402A44866A3244D7F89C60324403EB722282EA030565402944466B3144D7F8A060314402EB317181EA85
S351000113FC02055D402C4406683444D7F8A460344401EB745484EA010555402B44C6683344D7F8A860334404EB334383EA04054D402A4486693244D7F8AC60324403EB722282EA030565402944466A314481
S35100011448D7F8B060314402EB317181EA02055D402C44066B3444D7F8B460344401EB745484EA010555402B44C66B3344D7F8B860334404EB334383EA04054D402A4486683244D7F8BC60324403EB72225C
S3510001149462EA04055D40294406683144D7F8C060314402EBB16161EA030555402C44C6693444D7F8C460344401EBB45464EA02054D402B44866B3344D7F8C860334404EB734363EA010565402A44466921
S351000114E03244D7F8CC60324403EBF22262EA04055D402944066B3144D7F8D060314402EBB16161EA030555402C44C6683444D7F8D460344401EBB45464EA02054D402B44866A3344D7F8D860334404EB86
S3510001152C734363EA010565402A4446683244D7F8DC60324403EBF22262EA04055D402944066A3144D7F8E060314402EBB16161EA030555402C44C66B3444D7F8E460344401EBB45464EA02054D402B4411
S3510001157886693344D7F8E860334404EB734363EA010565402A44466B3244D7F8EC60324403EBF22262EA04055D40294406693144D7F8F060314402EBB16161EA030555402C44C66A3444D7F8F4603444F6
S351000115C401EBB45464EA02054D402B4486683344D7F8F860334404EB734363EA010565402A44466A3244D7F8FC60324403EBF222D8F800502944D8F804502A44D8F808502B44D8F80C502C4488E81E00D8
S3510001161000F14000B9F101097FF40CADBDE8F003704700BFAFF30080AFF30080AFF30080F0B540F2C004C1F6FF74F0CC82E8F000FFF7EEFCF0BD00BFAFF30080AFF300800A464FF00101E3E4AFF300801D
S3510001165CAFF300802DE9300040F2D011C1F6FF713EC980E83E0030BC704700BFAFF30080AFF300802DE9F00FE0B041F2000BCEF2080B0BF648080DF11C0992E8F80088E8F80000BF89E8F8004FEAF36589
S351000116A8CBF8445840F200054BF2000640F2F01ACCF60045CCF61216C1F6FF7A5AF8047B50F8043B1CBACBF8006010943C44CBF8C448CBF8005050F8043B1CBACBF8006011943C44CBF8C448CBF80050DB
S351000116F450F8043B1CBACBF8006012943C44CBF8C448CBF8005050F8043B1CBACBF8006013943C44CBF8C448CBF8005050F8043B1CBACBF8006014943C44CBF8C448CBF8005050F8043B1CBACBF8006088
S3510001174015943C44CBF8C448CBF8005050F8043B1CBACBF8006016943C44CBF8C448CBF8005050F8043B1CBACBF8006017943C44CBF8C448CBF8005050F8043B1CBACBF8006018943C44CBF8C448CBF8F4
S3510001178C005050F8043B1CBACBF8006019943C44CBF8C448CBF8005050F8043B1CBACBF800601A943C44CBF8C448CBF8005050F8043B1CBACBF800601B943C44CBF8C448CBF8005050F8043B1CBACBF8EA
S351000117D800601C943C44CBF8C448CBF8005050F8043B1CBACBF800601D943C44CBF8C448CBF8005050F8043B1CBACBF800601E943C44CBF8C448CBF8005050F8043B1CBACBF800601F943C44CBF8C448A3
S35100011824CBF80050CBF80060109C129B84EA0304189B84EA03041D9B84EA03044FEAF47320933B44CBF8C438CBF80050CBF80060119C139B84EA0304199B84EA03041E9B84EA03044FEAF47321933B4457
S35100011870CBF8C438CBF80050CBF80060129C149B84EA03041A9B84EA03041F9B84EA03044FEAF47322933B44CBF8C438CBF80050CBF80060139C159B84EA03041B9B84EA0304209B84EA03044FEAF4736D
S351000118BC23933B44CBF8C438CBF800504BF20008CCF692085AF8047BCBF80080149C169B84EA03041C9B84EA0304219B84EA03044FEAF47324933B44CBF8C438CBF80050CBF80080159C179B84EA030427
S351000119081D9B84EA0304229B84EA03044FEAF47325933B44CBF8C438CBF80050CBF80080169C189B84EA03041E9B84EA0304239B84EA03044FEAF47326933B44CBF8C438CBF80050CBF80080179C199BB2
S3510001195484EA03041F9B84EA0304249B84EA03044FEAF47327933B44CBF8C438CBF80050CBF80080189C1A9B84EA0304209B84EA0304259B84EA03044FEAF47328933B44CBF8C438CBF80050CBF8008048
S351000119A0199C1B9B84EA0304219B84EA0304269B84EA03044FEAF47329933B44CBF8C438CBF80050CBF800801A9C1C9B84EA0304229B84EA0304279B84EA03044FEAF4732A933B44CBF8C438CBF80050C4
S351000119ECCBF800801B9C1D9B84EA0304239B84EA0304289B84EA03044FEAF4732B933B44CBF8C438CBF80050CBF800801C9C1E9B84EA0304249B84EA0304299B84EA03044FEAF4732C933B44CBF8C43834
S35100011A38CBF80050CBF800801D9C1F9B84EA0304259B84EA03042A9B84EA03044FEAF4732D933B44CBF8C438CBF80050CBF800801E9C209B84EA0304269B84EA03042B9B84EA03044FEAF4732E933B447F
S35100011A84CBF8C438CBF80050CBF800801F9C219B84EA0304279B84EA03042C9B84EA03044FEAF4732F933B44CBF8C438CBF80050CBF80080209C229B84EA0304289B84EA03042D9B84EA03044FEAF473A2
S35100011AD030933B44CBF8C438CBF80050CBF80080219C239B84EA0304299B84EA03042E9B84EA03044FEAF47331933B44CBF8C438CBF80050CBF80080229C249B84EA03042A9B84EA03042F9B84EA0304A2
S35100011B1C4FEAF47332933B44CBF8C438CBF80050CBF80080239C259B84EA03042B9B84EA0304309B84EA03044FEAF47333933B44CBF8C438CBF80050CBF80080249C269B84EA03042C9B84EA0304319B16
S35100011B6884EA03044FEAF47334933B44CBF8C438CBF80050CBF80080259C279B84EA03042D9B84EA0304329B84EA03044FEAF47335933B44CBF8C438CBF80050CBF80080269C289B84EA03042E9B84EA16
S35100011BB40304339B84EA03044FEAF47336933B44CBF8C438CBF80050CBF80080279C299B84EA03042F9B84EA0304349B84EA03044FEAF47337933B44CBF8C438CBF800504BF20009CCF652195AF8047B19
S35100011C00CBF80090289C2A9B84EA0304309B84EA0304359B84EA03044FEAF47338933B44CBF8C438CBF80050CBF80090299C2B9B84EA0304319B84EA0304369B84EA03044FEAF47339933B44CBF8C4387B
S35100011C4CCBF80050CBF800902A9C2C9B84EA0304329B84EA0304379B84EA03044FEAF4733A933B44CBF8C438CBF80050CBF800902B9C2D9B84EA0304339B84EA0304389B84EA03044FEAF4733B933B44C7
S35100011C98CBF8C438CBF80050CBF800902C9C2E9B84EA0304349B84EA0304399B84EA03044FEAF4733C933B44CBF8C438CBF80050CBF800902D9C2F9B84EA0304359B84EA03043A9B84EA03044FEAF473F7
S35100011CE43D933B44CBF8C438CBF80050CBF800902E9C309B84EA0304369B84EA03043B9B84EA03044FEAF4733E933B44CBF8C438CBF80050CBF800902F9C319B84EA0304379B84EA03043C9B84EA0304EA
S35100011D304FEAF4733F933B44CBF8C438CBF80050CBF80090309C329B84EA0304389B84EA03043D9B84EA03044FEAF47340933B44CBF8C438CBF80050CBF80090319C339B84EA0304399B84EA03043E9B5E
S35100011D7C84EA03044FEAF47341933B44CBF8C438CBF80050CBF80090329C349B84EA03043A9B84EA03043F9B84EA03044FEAF47342933B44CBF8C438CBF80050CBF80090339C359B84EA03043B9B84EA6B
S35100011DC80304409B84EA03044FEAF47343933B44CBF8C438CBF80050CBF80090349C369B84EA03043C9B84EA0304419B84EA03044FEAF47344933B44CBF8C438CBF80050CBF80090359C379B84EA030471
S35100011E143D9B84EA0304429B84EA03044FEAF47345933B44CBF8C438CBF80050CBF80090369C389B84EA03043E9B84EA0304439B84EA03044FEAF47346933B44CBF8C438CBF80050CBF80090379C399B41
S35100011E6084EA03043F9B84EA0304449B84EA03044FEAF47347933B44CBF8C438CBF80050CBF80090389C3A9B84EA0304409B84EA0304459B84EA03044FEAF47348933B44CBF8C438CBF80050CBF8009017
S35100011EAC399C3B9B84EA0304419B84EA0304469B84EA03044FEAF47349933B44CBF8C438CBF80050CBF800903A9C3C9B84EA0304429B84EA0304479B84EA03044FEAF4734A933B44CBF8C438CBF8005063
S35100011EF8CBF800903B9C3D9B84EA0304439B84EA0304489B84EA03044FEAF4734B933B44CBF8C438CBF80050DAF80070CBF800803C9C3E9B84EA0304449B84EA0304499B84EA03044FEAF4734C933B4450
S35100011F44CBF8C438CBF80050CBF800803D9C3F9B84EA0304459B84EA03044A9B84EA03044FEAF4734D933B44CBF8C438CBF80050CBF800803E9C409B84EA0304469B84EA03044B9B84EA03044FEAF473CF
S35100011F904E933B44CBF8C438CBF80050CBF800803F9C419B84EA0304479B84EA03044C9B84EA03044FEAF4734F933B44CBF8C438CBF80050CBF80080409C429B84EA0304489B84EA03044D9B84EA0304B1
S35100011FDC4FEAF47350933B44CBF8C438CBF80050CBF80080419C439B84EA0304499B84EA03044E9B84EA03044FEAF47351933B44CBF8C438CBF80050CBF80080429C449B84EA03044A9B84EA03044F9B26
S3510001202884EA03044FEAF47352933B44CBF8C438CBF80050CBF80080439C459B84EA03044B9B84EA0304509B84EA03044FEAF47353933B44CBF8C438CBF80050CBF80080449C469B84EA03044C9B84EA43
S351000120740304519B84EA03044FEAF47354933B44CBF8C438CBF80050CBF80080459C479B84EA03044D9B84EA0304529B84EA03044FEAF47355933B44CBF8C438CBF80050CBF80080469C489B84EA030449
S351000120C04E9B84EA0304539B84EA03044FEAF47356933B44CBF8C438CBF80050CBF80080479C499B84EA03044F9B84EA0304549B84EA03044FEAF47357933B44CBF8C438CBF80050CBF80080489C4A9B09
S3510001210C84EA0304509B84EA0304559B84EA03044FEAF47358933B44CBF8C438CBF80050CBF80080499C4B9B84EA0304519B84EA0304569B84EA03044FEAF47359933B44CBF8C438CBF80050CBF8008000
S351000121584A9C4C9B84EA0304529B84EA0304579B84EA03044FEAF4735A933B44CBF8C438CBF80050CBF800804B9C4D9B84EA0304539B84EA0304589B84EA03044FEAF4735B933B44CBF8C438CBF800501A
S351000121A4CBF800804C9C4E9B84EA0304549B84EA0304599B84EA03044FEAF4735C933B44CBF8C438CBF80050CBF800804D9C4F9B84EA0304559B84EA03045A9B84EA03044FEAF4735D933B44CBF8C4388A
S351000121F0CBF80050CBF800804E9C509B84EA0304569B84EA03045B9B84EA03044FEAF4735E933B44CBF8C438CBF80050CBF800804F9C519B84EA0304579B84EA03045C9B84EA03044FEAF4735F933B44D6
S3510001223CCBF8C438CBF800500DF11C090BF6C8080BF6880A99E8F80088E8F8009AE8F80001397FF41FAA60B082E8F800BDE8F00F704700BF2DE9F84040F2D013C1F6FF73F8CB82E8F800FFF7FDF9BDE857
S35100012288F88000BFAFF300800A464FF00101FFF7F3B900BFAFF300802DE9F00140F22021C1F6FF7191E8FE0180E8FE01BDE8F0014FF00000704700BF2DE9F01F41F2000CCEF2080CD0B005928B4692E831
S351000122D4FE010CF6480989E8FE0140F2002AC1F6FF7ACDF808A00DF11C0900BF89E8FE01DDF808A09AE8E00750F8042B11BA1091CCF84418CCF800905AF8043BCCF8C438CCF80080CCF8007050F8042B2D
S3510001232011BA5AF8043BCCF844181191CCF80090CCF8C438CCF80080CCF8007050F8042B11BA5AF8043BCCF844181291CCF80090CCF8C438CCF80080CCF8007050F8042B11BA5AF8043BCCF84418139107
S3510001236CCCF80090CCF8C438CCF80080CCF8007050F8042B11BA5AF8043BCCF844181491CCF80090CCF8C438CCF80080CCF8007050F8042B11BA5AF8043BCCF844181591CCF80090CCF8C438CCF800807D
S351000123B8CCF8007050F8042B11BA5AF8043BCCF844181691CCF80090CCF8C438CCF80080CCF8007050F8042B11BA5AF8043BCCF844181791CCF80090CCF8C438CCF80080CCF8007050F8042B11BA5AF8BD
S35100012404043BCCF844181891CCF80090CCF8C438CCF80080CCF8007050F8042B11BA5AF8043BCCF844181991CCF80090CCF8C438CCF80080CCF8007050F8042B11BA5AF8043BCCF844181A91CCF80090D6
S35100012450CCF8C438CCF80080CCF8007050F8042B11BA5AF8043BCCF844181B91CCF80090CCF8C438CCF80080CCF8007050F8042B11BA5AF8043BCCF844181C91CCF80090CCF8C438CCF80080CCF80070AA
S3510001249C50F8042B11BA5AF8043BCCF844181D91CCF80090CCF8C438CCF80080CCF8007050F8042B11BA5AF8043BCCF844181E91CCF80090CCF8C438CCF80080CCF8007050F8042B11BA5AF8043BCCF8FB
S351000124E844181F91CCF80090CCF8C438CCF80080CCF800704FF0300220AB00BF53F8401CCCF8441853F83C1CCCF86818CCF8005053F81C1CCCF8C41853F8081CCCF86818CCF80060DCF8841843F8041B88
S35100012534CCF800905AF8041BCCF8C418CCF80080CCF80070013ADBD10DF11C090CF6C80A99E8FE018AE8FE010CF6880A9AE8FE01BBF1010B7FF4C2AEDDF8149050B089E8FE01BDE8F01F7047AFF3008082
S351000125802DE9F04F40F22024C1F6FF7494E8F00F82E8F00FFFF794FEBDE8F08FAFF300800A464FF001018BE6AFF30080AFF30080002301461A46184601F07CBC0A22002101F058BC0A23002201F048BC34
S351000125CC08B5074B044613B1002101F0BDFC054B1868836A03B19847204602F0CDFD00BF553F01007C2805008B891A072DE9F0410C46804641D44A68002A59DDE66A002E53D00022D8F80050216AC8F87C
S35100012618002013F4805251D101234046B047431C5FD0A389E66A216A5F0705D56268636B801A0BB1236CC01A024600234046B047461C45D1D8F80030B4F90C20002B55D01D2B01D0162B5AD123690022CB
S35100012664C4E90032616BC8F8005011B304F14403994202D0404600F0ABFB00206063BDE8F0810E69AEB10D680E6099070CBF63690023AD1BA3600AE02B463246A76A216A4046B8470028A5EB00050644CD
S351000126B00ADD002DF2DC0020BDE8F0810A6C002AA2DCF8E7606DB3E7A38943F04003A3814FF0FF30BDE8F0812269A389226000226260DA04C0D56065BEE7D8F80030002B9BD01D2B0CD0162B0AD0A38916
S351000126FC43F04003A381D9E72169C4E90013D304ACD5EAE7C8F80050CFE742F04002A281CCE700BF0B6923B310B5044682B008B18369BBB1104B994212D0104B994216D00F4B994208BFE168B1F90C30F4
S351000127482BB1204602B0BDE81040FFF74FBF002002B010BD6168F1E7019100F007F90199E2E7A168EAE70020704700BF5C2805003C2805001C28050020B1054B01461868FFF7CABF034B0449186800F00F
S351000127944FB900BF4003FF1F7C2805002127010000207047014900F043B900BF212701000020704770B54A1E682505FB02F50E4605F1740100F05AFB044640B100210C30666005F168022160A06000F0A8
S351000127E0A9FA204670BD00BF1E4B70B51D68AB69064643B34835D5E90134013B05D51EE0013B5A1C04F1680419D0B4F90C20002AF6D10025144B6566C4E90055A560C4E90455A5612946E360082204F1CB
S3510001282C5C0000F081FAC4E90D55C4E91255204670BD2C682CB12546D7E7284600F010F8D2E704213046FFF7B1FF044628600028F1D10C233360EAE77C2805000100FFFF2DE9F84F334B34491A6881622E
S3510001287890424FF00003C0E91233036504BF012383610546FFF7ACFF68602846FFF7A8FFA8602846FFF7A4FF6E68E86000240423F3607466C6E90044B460C6E90444B461214606F15C00082200F038FA5B
S351000128C4DFF888B0AF68DFF888A0DFF88890DFF888801C4BC6F83080C6E9086BC6E90AA92146FB6008227C66C7E90044BC60C7E90444BC6107F15C0000F01AFAEE68124BC7F83080C7E9087BC7E90AA972
S351000129102146F3607466C6E90044B460C6E90444B46106F15C00082200F004FA0123C6E9086BC6E90AA9C6F83080AB61BDE8F88F7C280500A92701000900010012000200C9300100F130010031310100FD
S3510001295C51310100024B0349186800F065B800BF7C28050021270100836903B978E77047704700BF704700BF704700BF704700BF024B0349186800F029B800BF4003FF1FA5270100024B0349186800F058
S351000129A81FB800BF4003FF1FB527010038B50A4C0A4D641BA4100AD004F18043013B05EB8305013C55F804399847002CF9D1BDE8384050F097B800BF2C2B0600282B06002DE9F04110F148071BD08846E8
S351000129F40026D7E90154013D0FD4A389012B05F1FF3506D9B4F90E300133204601D0C04706436B1C04F16804EFD13F68002FE8D13046BDE8F0813E463046BDE8F08100BF2DE9F84310F148071FD088463D
S35100012A4006464FF00009D7E90154013D11D4A389012B05F1FF3508D9B4F90E3001332146304602D0C04749EA00096B1C04F16804EDD13F68002FE6D14846BDE8F883B9464846BDE8F88300BF70B50D4E36
S35100012A8C0D4D761BB61006D00024013455F8043B9847A642F9D1094E094D761B50F02AF8B61006D00024013455F8043B9847A642F9D170BD202B0600202B0600282B0600202B0600032A70B412D940EA69
S35100012AD80105AD0704460B4620D11946204653F8045B54F8046BAE4218D1043A032A20461946F2D8541E72B103780A789A4208BF241806D00CE010F8013F11F8012F934206D1A042F7D1002070BC70475B
S35100012B24541EEBE7981A70BC704700BF844641EA000313F003036DD1403A41D351F8043B40F8043B51F8043B40F8043B51F8043B40F8043B51F8043B40F8043B51F8043B40F8043B51F8043B40F8043BFF
S35100012B7051F8043B40F8043B51F8043B40F8043B51F8043B40F8043B51F8043B40F8043B51F8043B40F8043B51F8043B40F8043B51F8043B40F8043B51F8043B40F8043B51F8043B40F8043B51F8043B93
S35100012BBC40F8043B403ABDD2303211D351F8043B40F8043B51F8043B40F8043B51F8043B40F8043B51F8043B40F8043B103AEDD20C3205D351F8043B40F8043B043AF9D2043208D0D2071CBF11F8013BD6
S35100012C0800F8013B01D30B8803806046704700BF082A13D38B078DD010F003038AD0C3F10403D21ADB071CBF11F8013B00F8013B80D331F8023B20F8023B7BE7043AD9D3013A11F8013B00F8013BF9D222
S35100012C540B7803704B7843708B788370604670478842F0B40DD98B1883420AD9841832B1224613F8014D02F8014D9942F9D1F0BC70470F2A0ED80346541E002AF7D001340C44013B11F8012B03F8012F53
S35100012CA0A142F9D1F0BC704740EA01039B073BD1A2F110073F0901F1200606EB071601F1100300F1100453F8105C44F8105C53F80C5C44F80C5C53F8085C44F8085C53F8045C44F8045C1033B34204F15A
S35100012CEC1004EAD17B1C1B0112F00C0F194402F00F05034415D0043DAD0803EB850C1C1F0E4656F8047B44F8047F6445F9D10135AD002B44294402F00302B1E7541E0346B1E72A46ACE700BFF0B48607D0
S35100012D3846D0541E002A3CD0CAB2034602E014F1FF3436D303F8012B9D07F8D1032C29D9CDB245EA05250F2C45EA054533D9A4F11006360903F1200707EB061703F1100242E9045542E902551032BA42E7
S35100012D84F8D1721C14F00C0F03EB021204F00F0613D0331F23F003030433134442F8045B9342FBD106F003042CB1C9B21C4403F8011B9C42FBD1F0BC704734461346002CF3D1F8E714460346C2E71A463E
S35100012DD02646E0E700293CD038B551F8043C0C1F002BB8BFE418054601F086F9234B1A682AB1A2420DD921686018824223D0626028461C60BDE8384001F078B9A34203D81A465368002BF9D11168501865
S35100012E1CA04219D024D821686018834206D0636054602846BDE8384001F062B9D3E900030144636021605460F3E7D2E90002014462602160D6E7704720680144501883421160E6D1D3E90003014453608A
S35100012E681160E0E70C232B602846BDE8384001F041B900BF1C08FF1FF8B5CD1C25F0030508350C2D38BF0C25002D064633DBA94231D82A4F01F02CF93A6852B113685B1B04D43FE023685B1B29D522465F
S35100012EB45468002CF8D1796800293BD02946304600F0EEF8431C28D0C41C24F00304A04205D0211A304600F0E3F801301DD02560304601F009F904F10B0020F00700231DC21A01D01B1AA350F8BD0C22AA
S35100012F0032600020F8BD0B2B05D8A242636811D05360E7E7144623601C442560E2E70C233046336001F0EAF80020F8BD0B2BF1D8536814463B60D5E7304600F0B3F87860BEE700BF1C08FF1F0EB410B507
S35100012F4C044683B008B1836963B106A803460190059AA168204601F00FF903B0BDE8104003B07047FFF700FDEFE700BF0FB410B50B4B1C6882B00CB1A36963B105A803460190049AA168204601F0F6F8EF
S35100012F9802B0BDE8104004B070472046FFF7E6FCEEE700BF4003FF1F38B5124B1C68A26B05461AB10023C2E9045338BD182001F087F80246A06378B1012000210A4B1360C2E904010B23094809499381DB
S35100012FE40023C2E90101C2E9045338BD064B0748422100F0FBFF00BF4003FF1F0E33CDAB34126DE6ECDE0500382A0600502A060038B51A4B1C68A26B92B1146918495369184801FB04F100FB0313A4FBFC
S351000130300045611C1D4445F1000323F00040C2E9041338BD182001F047F80246A06388B101200021C2E904010A480C4C0C4B0D490D4D146053600B24034695609481C2E9041338BD094B0A484E2100F0F3
S3510001307CB9FF00BF4003FF1F2DF451582D7F954C0E33CDAB34126DE62E7F954CECDE0500382A0600502A060038B5074C00230546084623603EF064FF431C00D038BD2368002BFBD02B6038BD58EF00209F
S351000130C810B50C46B1F90E1001F0A8FB002803DB636D0344636510BDA38923F48053A38110BD00BF002070472DE9F0411646B1F90C201F46D3050C460546B1F90E1009D422F48052A2813B463246284689
S35100013114BDE8F04100F0B6BE0022022300F0C4FFB4F90C20B4F90E10ECE700BF10B50C46B1F90E1000F0B8FFA389421C0EBF23F4805343F480536065A38110BDB1F90E1000F070BF830710B5044610D116
S351000131600268A2F1013323EA020313F0803F08D150F8042FA2F1013323EA020313F0803FF6D003781BB110F8013F002BFBD100F0D5F9204610BD00BFC9B200F00303002935D07BB10378002B57D09942B9
S351000131AC52D0431C05E013F8012B002A4DD08A424AD09A071846F6D170B441EA0126046846EA064601E050F8044F86EA0405A5F10132A4F1013322EA050223EA0403134313F0803FEFD0037843B1994213
S351000131F802D106E08B4204D010F8013F002BF9D1184670BC70474BB10378FBB1431C02E002780133D2B199071846F9D10268A2F1013323EA020313F0803F08D150F8042FA2F1013323EA020313F0803F5B
S35100013244F6D0037823B110F8013F002BFBD170477047104670471846704700BFA2EB0300704700BF02780B78012A28BF9A42F5D16DE9044540EA0104CDE902676FF0000C4FEA447212B380EA010414F05E
S35100013290070F6AD100F0070420F0070004F0030521F007014FEAC505F0E8042314F0040FF1E804670CFA05F462EA040266EA04060AD063EA0403624667EA0407664603E0F0E80423F1E8046782FA4CF5AA
S351000132DC82EA0604A4FA8CF46CBB83FA4CF583EA0705A5FA8CF595B950E9022351E9026782FA4CF582EA0604A4FA8CF483FA4CF583EA0705A5FA8CF52543DBD09CB92DBAB5FA85F424F0070427FA04F1EA
S35100013328DDE9026723FA04F303F0FF0001F0FF01FDE80445A0EB0100704724BAB4FA84F424F0070426FA04F1DDE9026722FA04F202F0FF0001F0FF01FDE80445A0EB0100704714F0030F3CD110F00304C5
S3510001337428D150F8082B51F8083B82FA4CF582EA0305A5FA8CF55DB950F8042C51F8043C82FA4CF582EA0305A5FA8CF5002DE8D02DBAB5FA85F424F0070423FA04F122FA04F202F0FF0001F0FF01FDE84F
S351000133C00445A0EB010070474FEAC40420F0030050F8082B21F0030151F8083B0CFA04F462EA040263EA0403C9E710F003041AD0A1EB040120F00300E40750F8042B06D00FD28B785FFAA2F4E41A06D135
S3510001340C2BB1CB785FFAB2F4E41A00D11BB920465DF8104B704701F1040150F8042BCC0721F0030151F8043B48D824D222F07F4482FA4CF594EA1325A5FA8CF50AD165B951F8043B84EA0204B4EB036F7D
S351000134580ED150F8042BEBE74FEA132355E035F07F454DD10878FDE80445C0F1000070474FEA126203F0FF0347E002EA1C4482FA4CF594EA1345A5FA8CF50AD165B951F8043B84EA0204B4EB034F0CD1AD
S351000134A450F8042BEBE74FEA134330E015EA1C4528D10B884FEA124229E04FEA124203EA1C4324E002F0FF0482FA4CF594EA1365A5FA8CF50AD165B951F8043B84EA0204B4EB032F09D150F8042BEBE7DD
S351000134F04FEA13630DE015F0FF0F05D10B684FEA122223F07F4304E04FF00000FDE80445704712BA1BBA82FA4CF482EA0304A4FA8CF5B5FA85F402FA04F203FA04F34FEA1260FDE80445A0EB13607047BC
S3510001353C80EA0102844612F0030F4FD111F0030F32D14DF8044D11F0040F51F8043B0BD0A3F101329A4312F0803F04BF4CF8043B51F8043B16D100BF51F8044BA3F101329A4312F0803FA4F101320BD134
S351000135884CF8043BA24312F0803F04BF51F8043B4CF8044BEAD023460CF8013B13F0FF0F4FEA3323F8D15DF8044B704711F0010F06D011F8012B0CF8012B002A08BF704711F0020FBFD031F8022B12F0D5
S351000135D4FF0F16BF2CF8022B8CF8002012F47F4FB3D1704711F8012B0CF8012B002AF9D1704700BF70B404789CB10E7805464EB1A6420BD00A4601E0A34207D012F8013F002BF9D115F8014F002CF0D1F8
S35100013620281A70BC70472046FBE700BF000000000000000000000000000000000000000090F800F06DE9024520F007016FF0000C10F0070491F820F040F049804FF000046FF00700D1E9002391F840F0B7
S3510001366C00F1080082FA4CF2A4FA8CF283FA4CF3A2FA8CF34BBBD1E9022382FA4CF200F10800A4FA8CF283FA4CF3A2FA8CF3E3B9D1E9042382FA4CF200F10800A4FA8CF283FA4CF3A2FA8CF37BB9D1E9C9
S351000136B8062301F1200182FA4CF200F10800A4FA8CF283FA4CF3A2FA8CF3002BC6D0002A04BF04301A4612BAB2FA82F2FDE8024500EBD2007047D1E9002304F00305C4F100004FEAC50514F0040F91F8DE
S3510001370440F00CFA05F562EA05021CBF63EA050362464FF00004A9E7002A46D040EA010313F00303F0B425D1032A23D904680D68AC423CD1043A35D0A4F1013525EA040414F0803F2ED1071D0D1D0DE00C
S3510001375057F8043B0E68A3F10134B34224EA030427D1043A20D014F0803F1DD1032A2946384605F10405EBD803780D789D4202F1FF360ED186B17BB1044602E082180BD053B114F8013F11F8015FAB420C
S3510001379CA6EB0402F4D0581BF0BC70470020F0BC70471046704703780D789D4202F1FF36E3D0F0E770B440EA0104A30727D1032A25D90B460646194653F8045BA5F1013424EA050414F0803F06D1043A08
S351000137E8032A46F8045B1946EFD882B133460C7803F8014B551E74B132442E4405E011F8014FF51A03F8014B2CB19A42F7D170BC70470646E9E7002DF9D01D44002203F8012BAB42FBD170BC704700BF98
S3510001383430B40478DCB10D789DB1AC420FD00A4601E0A3420BD012F8013F002BF9D110F8014F002CF0D11378002B08BF002030BC704710F8014F0A46002CE5D1F3E7204630BC704771B138B503460C46E8
S35100013880002501E0431C054618462146FFF784FC0028F7D1284638BDFFF77EBC70B40478A4B10E7805464EB1A6420AD00A4601E0A34206D012F8013F002BF9D1281A70BC704715F8014F002CEDD1F7E78B
S351000138CC2046F6E72DE9F04F0124254688461646AE462A46ADF21C4D07461C4600214FF0FF3553189C4206EB05000ED9805C16F803C0844580F0CC8019460122A3EB050E53189C4206EB0500F0D8CDF861
S351000139180CE04FF0010E724600214FF0FF3053189C4206EB000C0FD91CF802C016F80390E14540F2B68019460122A3EB000E53189C4206EB000CEFD86B1C01309842029328BFCDE9020E05AB0DF21442A4
S3510001396443F8044F9342FBD1631E0093002C00F01681009B06AD721E9819019512F8011FD34323443344824245F82130F6D1DDE902233046F118FFF799F8002840F09680029B013B0593F3188246814654
S351000139B0049307EB090E009B019A1EF8033052F82330EBB1BAF1000F03D0039A934238BFA31A99444FF0000AA8EB04034B45E8D207EB080044F4006100F032FF8044A8EB04034B45DDD200200DF21C4DD6
S351000139FCBDE8F08F029B534538BF53461D46009B9D4218D205EB0902715DB85C88423A4406EB050334D1A4F1020CB444C6F1010B05E013F8010F12F8011F884228D19C450BEB0305F5D1029B9A4580F0C9
S35100013A48A980059B049A4B441178FA5C91423B4440F0A0800AEB09053D44049A05E012F8010D13F8011D884203D1AB42A3EB0E0CF5D10AF1010AE2457DD8039B9944A4EB030AA5E7029BC3F1010399441C
S35100013A94A9444FF0000A9DE70CD04FF0010E0D467246714421E70BD04FF0010E08467246714436E7724512BF01321946012214E7724512BF0132194601222AE7029AA31A934238BF1346511E01330593F3
S35100013AE0731804910393002506EB020B07EB050E009A01991EF8023051F8233083B11D44A8EB04039D42F1D907EB080044F4006100F09EFE8044A8EB04039D42E6D96AE7029B934217D2EA189BF8003039
S35100013B2CB95C99423A4429D1A4F1020CB4445B46C6F1010905E013F8010F12F8011F88421ED1634509EB030AF5D1049B5A1C10D0EA18039BB95C1B7899423A4416D1039B05E013F8010D12F8011D884284
S35100013B780ED1B342F7D170460DF21C4DBDE8F08FDDF808A0029BC3F101031D445544B3E7059BB0E7DDF808C06BE706AB0193F4E62DE9F0410E46097890B00446002958D07278002A00F08D80B078002819
S35100013BC455D0F378002B00F08D803379002B5FD03046FFF733FD804640F40071204600F035FE804572D8B8F1FE0F00F29280A0EB0807402208F1010168462744FFF798F8B8F1000F10D0731E03EB0805DD
S35100013C105FFA88F013F8012F10A902F03F020A44F11A0144AB4202F8401CF3D1013C10AA14F8083003F03F03134413F8403C1C44A74203D238E02C44A74235D314F8085010AB05F03F051D444246314627
S35100013C5C204615F8405CFEF735FF0028EDD1204610B0BDE8F081237842EA014253B3601C617800E0204641EA0343441C11B39A424178F7D1441EEAE72278DAB1306800BA02E0834208D00C4642EA032351
S35100013CA86278611C002AF6D183420DD1033CD8E717F8083007EB080033B14FF4006100F0C3FD0744A742ADD20024204610B0BDE8F081FFF75DFA0446204610B0BDE8F0811204237842EA016242EA0022F3
S35100013CF4002BEBD01B02601C617800E020460B431B02441C0029E1D09A424178F6D1841EA9E70146434620463246FFF7D7FD0446A1E700BF012B2DE9F84F41D0242B98463ED80F46DFF81CC100E02F4668
S35100013D403D4615F8014B1CF8046016F00806F6D12D2C6CD02B2C0ABF95F800B0A346BD1C002B46D0102B57D0002E14BF4FF000496FF000490027B9FBF8FEBC4608FB1E9A07E0E64513D32FD00CFB084C99
S35100013D8C012715F801BBABF13004092C05D9ABF14104192C0FD8ABF13704A34213DD002FE9DA4FF0FF37ECE700F052F9162303600020BDE8F88FABF16104192C03D8ABF15704A342EBDC002F25DB0EB148
S35100013DD8CCF1000C0AB177BB11606046BDE8F88FA245CDDA4FF0FF37CDE7BBF1300F03D04FF00A084346B3E72B7803F0DF03582B1BD14FF0100895F801B043460235A7E7BBF1300F15D09846A2E7222370
S35100013E2403603AB1691ECC46D8E795F800B00126BD1C93E7CC466046D2E7E146F2E74FF0080843468EE72C7804F0DF04582CDAD0984687E78128050064E700BF10B4034C13460A460146206810BC5BE7EA
S35100013E704003FF1F10B4034C13460A460146206810BC51E74003FF1F70B50D46084C114606461A462846002323603EF09BF8431C00D070BD2368002BFBD0336070BD00BF58EF00202DE9F843224C2568FB
S35100013EBC0DB36C681F2C3BDC984691460F46064688B1D5F8880028B3D0F8003140F824900122A24000EB84011343022EC0F80031C1F8808010D0A31C01346C6045F823700020BDE8F883114E114D25608A
S35100013F08002ED8D03468C5F88840D4E7D0F804311A43C0F80421E8E70B4B5BB14FF4847000F0D6F830B100236C68C0E94033C5F88800CDE74FF0FF30DDE700BFB008FF1F000000002408FF1FD94001003F
S35100013F542DE9F04FDFF8908083B0D8F8005001900F464FF0010A8DB16C68D5F88860013C0CD405F1080B67B12EB106F1800353F82430BB4205D014F1FF34F4D203B0BDE8F08F6B685BF82420013BA3422C
S35100013FA016BF00236C604BF82430002AEDD0D5F80490B6B1D6F800110AFA04F30B4210D0D6F8040156F8241003420CD1019890476B68D8F800204B4501D1AA42D5D01546C3E79047F4E708469047F1E76C
S35100013FECB008FF1F00B50A4C2668054685B01C46F06852B1074B0091CDE9013206492B46224600F039F800F01DFD044B1A46F2E74003FF1F842A0600942A0600902A060008B513460022FFF7DDFF00BFCD
S3510001403838B5074C002305460846236001F06EF8431C00D038BD2368002BFBD02B6038BD58EF0020014B1868704700BF4003FF1F0CB400B583B004AB53F8042B019300F085F803B05DF804EB02B07047FE
S351000140840EB410B583B005AB064C53F8042B01930146206800F074F803B0BDE8104003B0704700BF4003FF1F70B50D46084C114606461A4628460023236001F059F8431C00D070BD2368002BFBD033602D
S351000140D070BD00BF58EF0020024B01461868FEF7CFBE00BF4003FF1F024B01461868FEF771BE00BF4003FF1F704700BF704700BF9368013B002B93600FDA10B49469A34208DB0A2906D01368581C106021
S3510001411C1970084610BC704710BC00F0B3BB1368581C106019700846704700BF9BB1F8B513440F4606465D1E541E01E0AC4208D03A4614F8011F3046FFF7D4FF431CF5D1F8BD0020F8BD0020704700BF6B
S35100014168936810B5144613B95360184610BD00F073FC0023C4E9013310BD00BF2DE9F04F9FB08B4690461C46039018B18369002B00F0B780A24B9B4500F0B980A14B9B4500F0C780A04B9B4504BF039BE5
S351000141B4D3F80CB0BBF80C30180740F1B280DBF81030002B00F0AD8030238DF8323098F800300594002120220B918DF83120944E0127002B00F08780252B00F01581454603E0252B00F0A38025466B78DC
S351000142006C1C002BF7D1B4EB080A76D04246534659460398FFF790FF01306ED00B9B6A7853440B93002A68D000234FF0FF3201340693CDE908338DF85B301C93079205E0069A07FA03F313432C46069304
S3510001424C2546052215F8011B304600F003FEAA46831B0028EED1069BD90644BF20228DF85B2021781A0744BF2B228DF85B202A2966D1059A1168043200290592C0F29D8009916178A51C2E2973D0684CD0
S351000142980322204600F0E0FD002800F08680001B069B402404FA00F00343069305F10108297860488DF83010062200F0CDFD002800F083805C4B002B72D005AB00935A465A4B039806A9AFF30080814697
S351000142E4B9F1FF3F07D00B9B4B440B9398F80030002B7FF479AFBBF80C305B0618D40B981FB0BDE8F08FFEF733FB464B9B457FF447AF039BD3F804B0BBF80C3018073FF54EAF5946039800F011FB0028E6
S351000143303FF44CAF4FF0FF30E4E7039BD3F808B03AE7B4EB080A3FF46FAF5FE7A1F13002092A88BFA2469CD8099B01E02C460135297803EB830302EB4303A1F13002092AAA46F3D92E2904F10205099398
S3510001437C8BD19AF801102A292FD1059B9AF802101A6807920433002A05930AF103050AF1020338DB254C032220469A4600F05AFD00287FF47AAFA84655467FE7059B073323F007030833059391E749428B
S351000143C843F00203099106935DE705AB00935A461A4B039806A900F0D5F881467EE7A1F130020023092A079301D915E05546697803EB830302EB4303A1F13002092A05F1010AF3D90235079341E74FF0D6
S35100014414FF329A4607923CE7444603E7AA46013537E700BF5C2805003C2805001C280500C42A0600CC2A0600D02A0600000000003941010010B4044C13460A460146206810BCFFF795BE00BF4003FF1FAA
S351000144602DE9F0470C4691460A698968DDF820808A42B8BF0A46C9F8002094F8431006461F4611B10132C9F80020236899065CD5D9F800200232C9F80020236813F0060F19461DD1E1688A1A002AD8BFE1
S351000144AC194617DD04F1190A002505E0E368D9F800209B1AAB420CDD0123524639463046C047013005F10105F0D14FF0FF30BDE8F087216894F84330003318BF01238A060AD5E1185A1C302081F84300B1
S351000144F8224494F8451082F84310023304F1430239463046C0470130E1D02368A268216903F00603042B1DD08A4226DD4FF00009521A91441A34002501E04D451DDA0123224639463046C047013005F1F5
S351000145440105F4D1C5E713F0060F13D094F84330003318BF0123D3E7D9F80000E3688A42A3EB000323EAE379DCDC002BDCDC0020BDE8F087E168D9F800208A1A002AD8BF194693DCAAE700BF2DE9F0430C
S351000145900C46097E85B06E29064617460C98984604F1430E6DD039D9732900F0F68044D9752900F00481782940F0118178232268DFF858C284F845300168150651F8043B016040F1A180D10744BF42F00B
S351000145DC20022260002B00F093801022002184F843106068A0600028C0F2C880216821F004012160002B40F0A380002840F0C0807546082A00F0AC80AEEB0503236141E0632900F0E5801AD8002938D025
S35100014628582940F0D88084F845102268DFF8E8C1C6E76F2900F0BF80702940F0CC802268DFF8D0C142F020027823226084F84530B6E7642902D0692940F0BD8022680368110603F1040557D51968056068
S351000146740B46002959DBDFF8A4C10A22B5E70368226861691D1D056015061B6802D4500600F1BD801960002375462361CDF800803B4603AA21463046FFF7D8FE013020D02A46236939463046C0470130AA
S351000146C019D022680398E368920719D51A1A002A16DD04F11909002504E0E36803981A1AAA420DDD01234A4639463046C047013005F10105F1D14FF0FF3005B0BDE8F0839842B8BF184605B0BDE8F08310
S3510001470C226822F020022260102267E7500648BF9BB25AE75106A5D5B3F9003005601946A3E76168A1602D200029C3F1000384F8430002DB22F004022260DFF8D8C00A22754600E00B46B3FBF2F102FB72
S35100014758113093421CF8000005F8010DF4D2082A7FF454AF2368DB077FF550AF626823699A423FF74BAF302305F8013C013D45E7002BDFD19CF8003084F8423004F1420539E703686268191D01601D68F8
S351000147A40021284600F05AFB002832D0401B60602061002384F8433070E72268036812F0800F03F104051AD01B6805606F290CBF08220A22DFF844C004E7012384F84210236104F14205E4E703681A6881
S351000147F0191D0123016004F1420584F842202361D9E712F0400F0DBF1B6805601B880560DEE7198041E76068CCE700BFEC2A0600D82A060070B50D46084C114606461A462846002323603DF0BDFB431C45
S3510001483C00D070BD2368002BFBD0336070BD00BF58EF0020B9B10278BAB1431C014499421A4614D010B41478013334B199421A4606D014780133002CF8D1101A10BC7047081A10BC7047084670471046D7
S351000148887047081A704700BFF8B50D461446064608B1836943B3254B9C422AD0244B9C4229D0244B9C4208BFF468A389A269A2601A0722D5236903B322686169D31AEDB299422F4629DD0133A168501CDD
S351000148D40139A1602060157062699A4216D0A389DB0701D50A2D11D03846F8BDFEF740F80F4B9C42D4D17468D9E7B468D7E72146304600F023F838B92369D7E721463046FDF704FF0028E7D04FF0FF37CA
S35100014920E4E721463046FDF7FBFE0028F6D122680123CDE75C2805003C2805001C280500024B0A4601461868FFF7A2BF4003FF1F3B4B70B51D6806460C460DB1AB69DBB1384B9C421ED0384B9C424AD011
S3510001496C374B9C4208BFEC68B4F90C2093B2190718D5206908B313F001022CD0636900225B42A361A26060B3002070BD2846FDF7EBFF294B9C42E0D16C68B4F90C2093B21907E6D4DD063CD5580726D4B3
S351000149B8206942F00803A3819BB20028DDD103F42072B2F5007FD8D03046214600F0F6F9A389206913F00102D2D1990758BF6269A2600028D2D1B4F90C301A06CFD543F04003A3814FF0FF3070BDAC68E9
S35100014A04B6E7616B51B104F14403994204D03046FEF7DEF9B4F90C200023636300232069636022F024022060C5E742F04002092333604FF0FF30A28170BD00BF4003FF1F5C2805003C2805001C280500E6
S35100014A5008B5062000F000FB012000F093FB00BF9368002B00F002812DE9F04FB1F90C309BB20C46190783B08246904635D522699AB313F00202D8F800603DD00027D4F828B0D4F820C0DFF8CC923D462E
S35100014A9C4D452B463A4628BF4B4661465046D5B1D847002840F3D280D8F808301B1A07442D1AC8F80830002B00F0B780D4F820C0D4F828B04D452B463A4628BF4B4661465046002DE4D1D6E90075083648
S35100014AE8D8E721465046FFF72FFF002840F03081B4F90C30D8F800609BB213F00202C1D113F0010940F0B080A76820684D46002D54D09A0540F1BC80AF42BB4600F2E78013F4906F2FD0D4E9041707EB85
S35100014B344707A0EB010B07EBD777681C7F105844B8423A4684BF07463A465B0540F1E98011465046FEF792F9002800F0F5805A4621690190FDF7E2FFA289019B22F4906242F08002A281A7EB0B0203EB19
S35100014B800B00676123612060A2602F46AB465A464946FEF767F8A2682368D21B5B442F46A26023600025D8F80830DB1BB944C8F80830002B3FD0B4F90C30A76820689BB2002DAAD1D6E900950836A4E721
S35100014BCC0BF1080353E902679B460833002FF9D03A460A21304600F03DF9002853D00130A0EB06094B46D4E904122068BB4228BF3B46884203D9A5681544AB4219DC9A427DDC1346A56A216A3246504604
S35100014C18A847051E1CDDB9EB05096BD00120D8F808305B1B2E447F1BC8F8083013BB002003B0BDE8F08F31462A46FEF70FF823682B44236021465046FDF766FD0028E2D0B4F90C3043F040034FF0FF308E
S35100014C64A38103B0BDE8F08F0020704733469146104617464E469B46002FA5D00028B5D13A460A21304600F0E9F80028ABD17B1C9946ACE72369834215D36169A94212D82E4BA76A9D4294BF2B466FF05E
S35100014CB000434A4693FBF1F3504601FB03F3216AB847071EC8DDED1B6DE7AF4228BF2F463A464946FDF7C6FFA3682268DB1B3A44A3602260002BEED121465046FDF718FD0028E8D0B0E72F46AB4648E795
S35100014CFC21465046FDF70EFD00288ED0A6E71A4631460193FDF7A8FF019BA1682268C91A1A44A16022601D467BE7504600F0EAF8034600287FF423AF21695046FEF74CF8B4F90C300C2223F08003CAF8B2
S35100014D48002087E70C23CAF80030B4F90C3081E74FF0FF306CE700BFFEFFFF7F00FCFF7F70B50C46B1F90E10002996B016461D4613DB6A4600F0A4F900280EDB019A02F47042A2F50052B2FA82F2520953
S35100014D944FF4806300202A60336016B070BDA38900221B062A6004D540230020336016B070BD4FF480630020336016B070BD00BF8A8992070B4606D501F1470201211A60C3E90421704770B582B001ABD6
S35100014DE06A460C460646FFF7BFFF009905463046FEF746F8B4F90C3070B11649B162019A0099206043F08003A381C4E904018AB92B43A38102B070BD9A05FBD423F0030304F1470243F002030121A3813E
S35100014E2C2260C4E90421EFE73046B4F90E1000F059F910B9B4F90C30E4E7A38923F0030343F001031BB2DDE7A9270100000000000000000001F0FF01102A2BDB10F0070F08D010F8013B013A8B422DD0C3
S35100014E7810F0070F42B3F6D1F0B441EA012141EA014122F007047FF000070023F0E80256083C85EA010586EA010685FA47F5A3FA87F586FA47F6A5FA87F68EB9EED1F0BC01F0FF0102F0070232B110F86B
S35100014EC4013B013A83EA010313B1F8D10020704701387047002D06BF35460338073815F0010F07D1013015F4807F02BF013015F4C03F0130F0BC0138704700BF09B3F8B51446CAB106460D4600F002F904
S35100014F10A04202D32F463846F8BD21463046FDF7AFFF07460028F6D022462946FDF700FE30462946FDF74EFF3846F8BD2746FDF749FF3846F8BD1146FDF79ABF10B580210446FDF795FF606440B1031F84
S35100014F5C00227C3043F8042F8342FBD1002010BD4FF0FF3010BD00BF436C0BB100207047E6E700BF1F2970B5054608D8436C16460C464BB153F8240043F8246070BD162202604FF0FF3070BDFFF7D2FF38
S35100014FA808B96B6CF0E74FF0FF3070BD1F2938B521D8426C05460C466AB152F8213053B1012B16D0591C10D00025204642F824509847284638BD284600F070F8224601462846BDE8384000F055B8162361
S35100014FF40360012038BD002038BD162303604FF0FF3038BD1F2921D838B5436C05460C4683B153F8242003EB84034AB1511C10D0012A0CD0002520461D609047284638BD012038BDFFF788FF28B96B6C4F
S35100015040E9E7032038BD022038BD4FF0FF3038BD4FF0FF30704700BF024B01461868FFF7A9BF00BF4003FF1F024B0A4601461868FFF786BF4003FF1F034B1868436C0BB10020704762E700BF4003FF1FCC
S3510001508C024B01461868FFF7B9BF00BF4003FF1F38B50B46074C0546114618460023236000F05AF8431C00D038BD2368002BFBD02B6038BD58EF002000F03EB838B50B46074C054611461846002323600D
S351000150D800F02CF8431C00D038BD2368002BFBD02B6038BD58EF002038B5074C002305460846236000F02AF8431C00D038BD2368002BFBD02B6038BD58EF002051F8043C181F002BBCBF0B58C018704770
S35100015124024B58221A604FF0FF30704758EF0020024B58221A604FF0FF30704758EF0020024B58221A604FF0FF30704758EF0020024B58221A600020704700BF58EF0020024B58221A604FF0FF3070472D
S3510001517058EF0020024B58221A604FF0FF30704758EF0020FEE700BFF8B50B46002BC3F30A52A2F2FF35C3F31303B4BF4FF0FF340124132D43F4801318DC002D11DB4FF4002028410344C5F1140023FA2A
S351000151BC00F0002204FB02F2E71700FB0722A4FB00011144F8BD013530D12046E117F8BD3E2D2ED8332D0646A2F2134118DC4FF00042CA40161828BF0133A1F12002C1F12000C5F1340523FA00F003FA39
S3510001520802F2202D42EA000203FA01F0D4D0EE403043D1E7A2F23342C1F12005964003FA01F003FA02F223FA05F530432A43C3E700200021F8BD01F097FCF8BDC0F3C7520028A2F17F0110B5B4BF4FF016
S35100015254FF3401241E290DDC002918DBC0F31603162943F400030ADD963A934003FB04F4204610BD01F054FC0446204610BD4FF480020A411344C1F11701CB40EEE7013118BF0024204610BD2DE9F843EB
S351000152A01D4606460F46144600F0B6F8564B93F900300133804689462AD022462B462046294601F019FC18BB32463B463046394601F012FC002841D1002200233046394601F0D8FBC0B1002200232046D7
S351000152EC294601F0D1FB00283AD12046294600F095FE38B1204629460022002301F0CEFB002858D140464946BDE8F8834046494600F084FE60B3002200234046494601F0B3FB0028EED03046394600F017
S3510001533877FE0028E8D02046294600F071FE0028E2D0FEF787FE222303604FF000084FF00009D9E7204629460022002301F096FB0028D1D0DFF89C904FF0000840464946BDE8F8833046394600F052FE35
S351000153840028CCD02046294600F04CFE0028C6D042464B464046494601F0ACFB28BBFEF75BFE22230360002200233046394601F079FB4FF0000858B9DFF85090A6E7FEF74BFE212303604FF00008DFF868
S351000153D044909DE72046294600F032FE22462B4601F058FB0028E9D1DFF8289090E7FEF735FE21210022002301601046194601F00BFA8046894683E7A403FF1F0000F03F0000F07F0000F0FF2DE9F04FD7
S3510001541C23F0004555EA020493B03DD0DFF8B4E121F0004474450F4683462EDC1E46944639D0754529DCDFF89CE1754522D0002F8A468146CDE9002336DB4FF00008BCF1000F4CD15F4B9D4200F08E8051
S351000154685E4B9D4200F09D80B6F1804F00F08B845B4B9E423DD1002F3BDB4846514613B0BDE8F04F00F00ABDBCF1000FD9D004F1404404F5801454EA0B0309D14F4C00231846214613B0BDE8F08F08B9CF
S351000154B4A542C4DD4C4813B0BDE8F04F00F0B8BD4A4B9D4275DCA3F154739D420EDD2B15A3F2FF33142B40F36084C3F134032CFA03F202FA03F3634500F0A0844FF00008BCF1000FB6D04846514600F0E4
S351000155008FFDBBF1000F20D124B1364B27F040429A421AD1002E05DA02460B460020314901F07AF9002FC1DA04F1404404F5801454EA080340F0558402460B4600F08AFE02460B4601F068F9B0E7FB0F07
S3510001554C013B079358EA030332D0274B9D424FDD03F104739D4240F3B183244B9C4240F33E83002E40F33E8318A3D3E900231046194601F021F893E704F1404303F5801353EA0B0388D0194B9C4240F36D
S351000155985383002EC0F22883DDE900341846214680E7002EC0F2E783484651467AE74FF002084EE74A4653464846514600F046FE02460B4601F024F96CE700BFAFF300809C7500883CE4377E0000F07FB1
S351000155E40000F03F0000E03F902A0600FFFF3F430000E041FFFFEF3FD04B3B40002B40F02B830022CE4B00F0DBFF6FF034060C46CC4D2315C4F31302A3F2FF3342F07F54AA4203EB060944F4401440F379
S351000156301083C64B9A4240F3DD8300220023CDE90A2309F10109A4F58014CDE91023C04B0022CDE908230025DDE908232146824600F0F8FDA346DDE9082306460F4650462146CDE90CAB00F0EFFD024691
S3510001567C0B460020B34901F0C9F80A460146CDE90E12134639460246304600F095FF631043F0005382468B4603F500238C46CDE904AB5919D3460023CDE902BC0293DDE902AB002004460D4602460B46D1
S351000156C85046594600F07AFF02460B463046394600F0BCFDDDE9082306460F462046294600F0B4FD02460B46DDE90C0100F0AEFD52465B4600F062FF02460B463046394600F0A4FDDDE90E2300F058FFC4
S35100015714DDE90445CDE9080122462B462046294600F04EFF73A3D3E9002304460D4600F047FF72A3D3E9002300F08CFD22462B4600F03EFF6FA3D3E9002300F083FD22462B4600F035FF6DA3D3E9002301
S3510001576000F07AFD22462B4600F02CFF6AA3D3E9002300F071FD22462B4600F023FF68A3D3E9002300F068FD224606460F462B462046294600F016FF02460B463046394600F010FF524604460D465B4670
S351000157ACDDE9040100F052FDDDE9082300F004FF22462B4600F04AFD524606460F465B465046594600F0F8FE00225F4BCDE90C0100F03CFD32463B4600F038FD02980D46044622462B465046594600F0AC
S351000157F8E5FE002282468B46544B2046294600F025FDDDE90C2300F021FD02460B463046394600F01BFDDDE9042300F0CFFE224606460F462B46DDE9080100F0C7FE02460B463046394600F00BFD064627
S351000158440F4602460B465046594600F003FD029834A3D3E9002304460D4600F0B1FE5246CDE904015B462046294600F0F1FC02460B463046394600F0EBFC2CA3D3E9002300F09EFE2BA3D3E90023064634
S351000158900F462046294600F095FE02460B463046394600F0D9FCDDE9102300F0D5FC044648460D4600F01CFE224606460F462B46DDE9040100F0C8FCDDE90A2300F0C4FC32463B4600F0C0FC0298324683
S351000158DC3B4682468B4600F0B7FCDDE90A2300F0B3FCDDE9042331E0AFF30080EF4E454A287ECA3F65DBC9934A86CD3F01411DA96074D13F4D268F515555D53FFFAB6FDBB66DDB3F033333333333E33FC5
S35100015928000000E009C7EE3FFD033ADC09C7EE3FF5015B14E02F3EBE0000F07F000040438E98030079B60B000000F03F0000084000F07CFC02460B462046294600F076FC079A08F1FF331343CDE90201ED
S35100015974DDE900010CBFCD4CCD4C00230026CDE9043432460B460F4600F062FC5B46524600F016FEDDE9002380468946DDE9020100F00EFE02460B464046494600F052FC3246CDE900013B465946504628
S351000159C000F000FE0B46024680468946DDE9000100F042FCB84B994204460D468B4640F30C8101F13F4303F5E003034340F0EB819BA3D3E90023DDE9000100F02DFC424606460F464B462046294600F0CA
S35100015A0C23FC02460B463046394601F065F8002840F0D381CBF30A534FF48012A3F2FE3342FA03F35B44C3F30A52A14DA2F2FF321541C3F3130423EA05010020C2F1140A44F48014BBF1000F02460B460D
S35100015A5844FA0AFA40464946B8BFCAF1000A00F0F5FB02460B4680468946DDE9000100F0EFFB4FEA0A5B0D46002479A3D3E900232046294600F09AFD424606460F464B462046294600F0DAFB02460B4660
S35100015AA4DDE9000100F0D4FB70A3D3E9002300F087FD70A3D3E90023804689462046294600F07EFD02460B464046494600F0C2FB8046894602460B463046394600F0BAFB32463B4604460D4600F0B2FBA6
S35100015AF002460B464046494600F0ACFB2246804689462B462046294600F05CFD5CA3D3E9002306460F4600F055FD5BA3D3E9002300F098FB32463B4600F04CFD58A3D3E9002300F091FB32463B4600F000
S35100015B3C43FD56A3D3E9002300F086FB32463B4600F03AFD53A3D3E9002300F07FFB32463B4600F031FD02460B462046294600F073FB06460F4602460B462046294600F023FD0022CDE900014FF0804351
S35100015B883046394600F062FB02460B46DDE9000100F03EFE424606460F464B462046294600F00CFD42464B4600F052FB02460B463046394600F04AFB22462B4600F046FB02460B460020394900F040FBEB
S35100015BD48B44BBF5801FC0F225815946DDE9042300F0EEFC60E4002EFFF6C2AC002300241846214658E4DFF8C8C021F00043634540F3D9802D4B0B4403430AD142464B4600F01EFBDDE9002300F058FF64
S35100015C2000283FF4FDAEDDE904011FA3D3E9002300F0C8FC1CA3D3E9002300F0C3FC35E4002ED5DADDE90034184604F1004319462CE400220023CDE90A23F6E40026D9E4FE822B654715973C00000000A5
S35100015C6C432EE63FEF39FAFE422EE63F396CA80C615C20BED0A4BE726937663EF16BD2C541BDBB3E2CDE25AF6A56113F93BDBE166CC1663F3E5555555555C53F59F3F8C21F6EA5010000F0BF0000F03FEE
S35100015CB8FFFF8F40FFFF0F0000346F3FFFCB9040714B9C428DDD714B9C423FF74CAC00226E4B00F0BBFA5EA3D3E9002304460D4600F06CFC5CA3D3E9002306460F462046294600F063FC002282468B46C4
S35100015D04644B2046294600F05BFC02460B4655A1D1E9000100F09CFA22462B4600F050FC02460B4600205C4900F092FA2246CDE902012B462046294600F042FC02460B46DDE9020100F03CFC48A3D3E9FC
S35100015D50002300F037FC02460B465046594600F079FA02460B4604460D463046394600F073FA002082468B4632463B46ECE54A4653460020434900F047FDFFF78FBB4A4648465346514600F015FCFFF7F0
S35100015D9C87BBBCF1000F38D1C3F1140345FA03F202FA03F3AB4247D0E046FFF757BB384A934247DCB346B2465CE6DDE904012BA3D3E9002300F0F8FB28A3D3E9002300F0F3FBFFF765BBB8F1010F7FF4B8
S35100015DE861AB01F100431946FFF75CBB22A3D3E90023CDE90A2322A3D3E90023CDE91023254B00224FF48025CDE9082320E400F003F9BBF1000F7FF4CDABD846FFF770BB524600F095F9D7E602F00102AF
S35100015E34C2F10208BCF1000F3FF414ABFFF75BBB02F00102C2F10208FFF70CBB1B15E7E5AFF30080000000604715F73F44DF5DF80BAE543E555555555555D53FFE822B654715F73F9C7500883CE4377E40
S35100015E800000004003B8E23F06D0CF43EBFD4C3EFEFFEF3F0000F03F0000D03F0000E03F0000F83F2DE9F0415C4E8E430C46054600F09C8000290B46024652DD5FEA215E00F0A580C3F31303AEF2FF3EB8
S35100015ECC43F48013D10F1EF0010F01EB43034FEA420403D0E40F04EB430394004FF0000C4FEA6E0E664616254FF40012B118994202DC5B1A8E1894445B00013D03EBD4734FEA52024FEA4404F0D12F46B8
S35100015F1820204FF0004209E041D0E10F01384FEA520201EB43034FEA440441D0B34202EB0501F1DD002901EB020509DBB0469B1BA14288BF03F1FF33641A17444646E4E7002DF3DB06F10108F1E721F03B
S35100015F640046064337D0002948D1D40A153B52052146002CF9D0E50249D4002000E028464900CC0200F10105F9D50C461146AA40C5F1200521FA05F5A3EB000E45EA04038EE7A142BBD8002901EB020587
S35100015FB0D2DB98460023CBE7234310D178084FEA6C0303F17F5303F500131CF0010F03EB0E5718BF40F000403946BDE8F0817B1C16BF781C0CF1010C4008E8E702460B4600F0E8FA2A46234600F02EF937
S35100015FFCBDE8F08100F028F902460B4600F006FCE5E77346B5E7114620254FF0FF30BDE70000F07F21F000431946704741F0004101F58010C00F704700200149704700BF0000F87F2DE9F043C1F30A5CC0
S35100016048ACF2FF36132E83B002460B460C464FEAD175074638DC002E2DDB3B49314103EA010010432BD049080B4052EA03070CD04FF48023132E24EA010143FA06F444EA01040CBF4FF00047002730493B
S3510001609401EBC5052346D5E900453A462046294600F0D8F8CDE9000122462B46DDE9000100F0CEF803B0BDE8F08321F00041014320D11046194603B0BDE8F083332E05DDB6F5806FF5D100F0BDF8F4E780
S351000160E0ACF2134C4FF0FF3121FA0CF10842EAD049080842CDD04FF0804320EA010143FA0CFC41EA0C07C4E7C3F31301014311484F420F4300EBC501D1E900895C0C3F0B640407F4002747EA0403404639
S3510001612C494600F093F8CDE9000142464B46DDE9000100F089F821F0004444EAC57103B0BDE8F083FFFF0F0088290500F8B5C1F30A5304460D460E46174673BB21F000460346334328D0314B002200F0F1
S3510001617825FA304B9F4204460D461ADBC1F30A530E46363B3B4440F2FE72934220DC002B3DDC13F1350F2CDA4CF250339F4217DC05F0004343F0D27141F4B731224841F01F011BA3D3E9002300F000FACB
S351000161C4F8BD40F2FF729342DED102460B4600F041F8F8BD05F0004343F0FC4141F45F1141F4105111A3D3E90023154841F03C0100F0E6F9F8BD26F0FF4626F4E006363346EA03552046294600220E4BD4
S3510001621000F0D8F9F8BD26F0FF4626F4E00646EA035520462946F8BD59F3F8C21F6EA5019C7500883CE4377E00005043B03CFFFF59F3F8C29C7500880000903C81F0004102E000BF83F0004330B54FEAA2
S3510001625C41044FEA430594EA050F08BF90EA020F1FBF54EA000C55EA020C7FEA645C7FEA655C00F0E2804FEA5454D4EB5555B8BF6D420CDD2C4480EA020281EA030382EA000083EA010180EA020281EACF
S351000162A80303362D88BF30BD11F0004F4FEA01314FF4801C4CEA113102D0404261EB410113F0004F4FEA03334CEA133302D0524263EB430394EA050F00F0A780A4F10104D5F1200E0DDB02FA0EFC22FA9A
S351000162F405F2801841F1000103FA0EF2801843FA05F359410EE0A5F120050EF1200E012A03FA0EFC28BF4CF0020C43FA05F3C01851EBE37101F0004507D54FF0000EDCF1000C7EEB00006EEB0101B1F5B9
S35100016340801F1BD3B1F5001F0CD349085FEA30004FEA3C0C04F101044FEA445212F5800F80F09A80BCF1004F08BF5FEA500C50F1000041EB045141EA050130BD5FEA4C0C404141EB0101013C28BFB1F543
S3510001638C801FE9D291F0000F04BF01460020B1FA81F308BF2033A3F10B03B3F120020CDA0C3208DD02F1140CC2F10C0201FA0CF021FA02F10CE002F11402D8BFC2F1200C01FA02F120FA0CFCDCBF41EAE6
S351000163D80C019040E41AA2BF01EB0451294330BD6FEA04041F3C1CDA0C340EDC04F11404C4F1200220FA04F001FA02F340EA030021FA04F345EA030130BDC4F10C04C4F1200220FA02F001FA04F340EABB
S351000164240300294630BD21FA04F0294630BD94F0000F83F4801306BF81F480110134013D4EE77FEA645C18BF7FEA655C29D094EA050F08BF90EA020F05D054EA000C04BF1946104630BD91EA030F1EBF56
S351000164700021002030BD5FEA545C05D14000494128BF41F0004130BD14F580043CBF01F5801130BD01F0004545F0FE4141F470014FF0000030BD7FEA645C1ABF194610467FEA655C1CBF0B46024650EAC5
S351000164BC013406BF52EA033591EA030F41F4002130BD00BF90F0000F04BF0021704730B54FF4806404F132044FF000054FF0000150E700BF90F0000F04BF0021704730B54FF4806404F1320410F000450F
S3510001650848BF40424FF000013EE700BF42004FEAE2014FEA31014FEA02701FBF12F07F4393F07F4F81F06051704732F07F4208BF704793F07F4F04BF41F40021704730B54FF4607401F0004521F000414D
S351000165541CE700BF50EA010208BF704730B54FF000050AE050EA010208BF704730B511F0004502D5404261EB41014FF4806404F132045FEA915C3FF4D8AE4FF003025FEADC0C18BF03325FEADC0C18BFCD
S351000165A0033202EBDC02C2F1200300FA03FC20FA02F001FA03FE40EA0E0021FA02F11444BDE600BF70B54FF0FF0C4CF4E06C1CEA11541DBF1CEA135594EA0C0F95EA0C0F00F0DEF82C4481EA030621EA39
S351000165EC4C5123EA4C5350EA013518BF52EA033541F4801143F4801338D0A0FB02CE4FF00005E1FB02E506F00042E0FB03E54FF00006E1FB03569CF0000F18BF4EF0010EA4F1FF04B6F5007F64F540744B
S3510001663804D25FEA4E0E6D4146EB060642EAC62141EA55514FEAC52040EA5E504FEACE2EB4F1FD0C88BFBCF5E06F1ED8BEF1004F08BF5FEA500E50F1000041EB045170BD06F0004646EA010140EA0200BA
S3510001668481EA0301B4EB5C04C2BFD4EB0C0541EA045170BD41F480114FF0000E013C00F3AB8014F1360FDEBF002001F0004170BDC4F10004203C35DA0C341BDC04F11404C4F1200500FA05F320FA04F041
S351000166D001FA05F240EA020001F0004221F0004110EBD37021FA04F642EB06015EEA430E08BF20EAD37070BDC4F10C04C4F1200500FA04F320FA05F001FA04F240EA020001F0004110EBD37041F1000114
S3510001671C5EEA430E08BF20EAD37070BDC4F1200500FA05F24EEA020E20FA04F301FA05F243EA020321FA04F001F0004121FA04F220EA020000EBD3705EEA430E08BF20EAD37070BD94F0000F0FD101F03E
S351000167680046400041EB010111F4801F08BF013CF7D041EA060195F0000F18BF704703F00046520043EB030313F4801F08BF013DF7D043EA0603704794EA0C0F0CEA135518BF95EA0C0F0CD050EA410684
S351000167B418BF52EA4306D1D181EA030101F000414FF0000070BD50EA410606BF1046194652EA430619D094EA0C0F02D150EA013613D195EA0C0F05D152EA03361CBF104619460AD181EA030101F000416C
S3510001680041F0FE4141F470014FF0000070BD41F0FE4141F4780170BD70B54FF0FF0C4CF4E06C1CEA11541DBF1CEA135594EA0C0F95EA0C0F00F0A7F8A4EB050481EA030E52EA03354FEA013100F088801B
S3510001684C4FEA03334FF0805545EA131343EA12634FEA022245EA111545EA10654FEA00260EF000419D4208BF964244F1FD0404F5407402D25B084FEA3202B61A65EB03055B084FEA32024FF480104FF478
S35100016898002CB6EB020E75EB030E22BFB61A754640EA0C005B084FEA3202B6EB020E75EB030E22BFB61A754640EA5C005B084FEA3202B6EB020E75EB030E22BFB61A754640EA9C005B084FEA3202B6EB44
S351000168E4020E75EB030E22BFB61A754640EADC0055EA060E18D04FEA051545EA16754FEA06164FEAC30343EA52734FEAC2025FEA1C1CC0D111F4801F0BD141EA00014FF000004FF0004CB6E711F4801F1A
S3510001693004BF01430020B4F1FD0C88BFBCF5E06F3FF6AFAEB5EB030C04BFB6EB020C5FEA500C50F1000041EB045170BD0EF0004E4EEA113114EB5C04C2BFD4EB0C0541EA045170BD41F480114FF0000E7B
S3510001697C013C90E645EA060E8DE60CEA135594EA0C0F08BF95EA0C0F3FF43BAF94EA0C0F0AD150EA01347FF434AF95EA0C0F7FF425AF104619462CE795EA0C0F06D152EA03353FF4FDAE1046194622E787
S351000169C850EA410618BF52EA43067FF4C5AE50EA41047FF40DAF52EA43057FF4EBAE12E74FF0FF3C06E000BF4FF0010C02E000BF4FF0010C4DF804CD4FEA410C7FEA6C5C4FEA430C18BF7FEA6C5C1BD0E2
S35100016A1401B050EA410C0CBF52EA430C91EA030F02BF90EA020F0020704710F1000F91EA030F58BF994208BF90422CBFD8176FEAE37040F0010070474FEA410C7FEA6C5C02D150EA013C07D14FEA430CFA
S35100016A607FEA6C5CD6D152EA033CD3D05DF8040B704700BF8446104662468C461946634600E000BF01B5FFF7B7FF002848BF10F1000F01BD4DF808EDFFF7F4FF0CBF012000205DF808FB00BF4DF808EDF3
S35100016AACFFF7EAFF34BF012000205DF808FB00BF4DF808EDFFF7E0FF94BF012000205DF808FB00BF4DF808EDFFF7CEFF94BF012000205DF808FB00BF4DF808EDFFF7C4FF34BF012000205DF808FB00BFCD
S35100016AF84FEA410C7FEA6C5C02D150EA013C0AD14FEA430C7FEA6C5C02D152EA033C02D14FF0000070474FF0010070474FEA4002B2F1FE4F0FD34FF09E03B3EB12620DD94FEA002343F0004310F0004F62
S35100016B4423FA02F018BF404270474FF00000704712F1610F01D1420205D110F0004008BF6FF0004070474FF00000704738B505460C462846214600220023FFF793FF28B928462146BDE8384000F00AB886
S35100016B90284604F1004100F005F8404261EB410138BD00BFD0B50C4B002206460F46FFF709FD00F015F80446FFF78AFC074B0022FFF700FD02460B4630463946FFF742FB00F006F82146D0BD0000F03DC8
S35100016BDC0000F0414A0011D212F5001211D20DD56FF47873B3EB62520ED44FEAC12343F0004343EA505323FA02F070474FF00000704750EA013002D14FF0FF3070474FF0000070474FEA410212F500129B
S35100016C2815D211D56FF47873B3EB625212D94FEAC12343F0004343EA505311F0004F23FA02F018BF404270474FF00000704750EA013005D111F0004008BF6FF0004070474FF00000704700BF4FEA410229
S35100016C74B2F1E04324BFB3F5001CDCF1FE5C0DD901F0004C4FEAC0024CEA5070B2F1004F40EB830008BF20F00100704711F0804F21D113F13872BCBF01F00040704741F480114FEA5252C2F11802C2F100
S35100016CC0200C10FA0CF320FA02F018BF40F001004FEAC1234FEAD32303FA0CFC40EA0C0023FA02F34FEA4303CCE77FEA625307D150EA01331EBF4FF0FE4040F44000704701F0004040F0FE4040F40000B1
S35100016D0C704700BF80F0004002E000BF81F0004142001FBF5FEA410392EA030F7FEA226C7FEA236C6AD04FEA1262D2EB1363C1BFD218414048404140B8BF5B42192B88BF704710F0004F40F4000020F09A
S35100016D587F4018BF404211F0004F41F4000121F07F4118BF494292EA030F3FD0A2F1010241FA03FC10EB0C00C3F1200301FA03F100F0004302D5494260EB4000B0F5000F13D3B0F1807F06D340084FEA29
S35100016DA4310102F10102FE2A51D2B1F1004F40EBC25008BF20F0010040EA03007047490040EB0000013A28BFB0F5000FEDD2B0FA80FCACF1080CB2EB0C0200FA0CF0AABF00EBC25052421843BCBFD040DE
S35100016DF01843704792F0000F81F4000106BF80F400000132013BB5E74FEA41037FEA226C18BF7FEA236C21D092EA030F04D092F0000F08BF0846704790EA010F1CBF0020704712F07F4F04D1400028BFF8
S35100016E3C40F00040704712F100723CBF00F50000704700F0004343F0FE4040F4000070477FEA226216BF08467FEA23630146420206BF5FEA412390EA010F40F4800070474FF0000304E000BF10F0004318
S35100016E8848BF40425FEA000C08BF704743F0964301464FF000001CE050EA010208BF70474FF000030AE000BF50EA010208BF704711F0004302D5404261EB41015FEA010C02BF84460146002043F0B643CD
S35100016ED408BFA3F18053A3F50003BCFA8CF2083AA3EBC25310DB01FA02FC634400FA02FCC2F12002BCF1004F20FA02F243EB020008BF20F00100704702F1200201FA02FCC2F1200250EA4C0021FA02F2F0
S35100016F2043EB020008BF20EADC7070474FF0FF0C1CEAD0521EBF1CEAD15392EA0C0F93EA0C0F6FD01A4480EA010C400218BF5FEA41211ED04FF0006343EA501043EA5111A0FB01310CF00040B1F5000F30
S35100016F6C3EBF490041EAD3715B0040EA010062F17F02FD2A1DD8B3F1004F40EBC25008BF20F00100704790F0000F0CF0004C08BF49024CEA502040EA51207F3AC2BFD2F1FF0340EAC250704740F4000098
S35100016FB84FF00003013A5DDC12F1190FDCBF00F000407047C2F10002410021FA02F1C2F1200200FA02FC5FEA310040F1000053EA4C0308BF20EADC70704792F0000F00F0004C02BF400010F4000F013A2B
S35100017004F9D040EA0C0093F0000F01F0004C02BF490011F4000F013BF9D041EA0C018FE70CEAD15392EA0C0F18BF93EA0C0F0AD030F0004C18BF31F0004CD8D180EA010000F00040704790F0000F17BF90
S3510001705090F0004F084691F0000F91F0004F14D092EA0C0F01D142020FD193EA0C0F03D14B0218BF084608D180EA010000F0004040F0FE4040F40000704740F0FE4040F4400070474FF0FF0C1CEAD05249
S3510001709C1EBF1CEAD15392EA0C0F93EA0C0F69D0A2EB030280EA010C49024FEA402037D04FF0805343EA111143EA10130CF000408B4238BF5B0042F17D024FF4000C8B4224BF5B1A40EA0C00B3EB510FD8
S351000170E824BFA3EB510340EA5C00B3EB910F24BFA3EB910340EA9C00B3EBD10F24BFA3EBD10340EADC001B0118BF5FEA1C1CE0D1FD2A3FF650AF8B4240EBC25008BF20F0010070470CF0004C4CEA502031
S351000171347F32C2BFD2F1FF0340EAC250704740F400004FF00003013A37E792F0000F00F0004C02BF400010F4000F013AF9D040EA0C0093F0000F01F0004C02BF490011F4000F013BF9D041EA0C0195E78E
