S0030000FC 
S3510001000000000120D90401003D050100410501003905010039050100390501000000000000000000000000000000000081CA02003905010000000000F1CA020041CB0200510501005505010059050100FF
S3510001004C5D0501006105010065050100690501006D0501007105010075050100790501007D0501008105010085050100890501008D05010091050100390501003905010039050100390501003905010050
S35100010098390501003905010095050100990501009D050100A1050100A5050100A9050100AD050100B1050100B5050100B9050100BD050100C1050100C5050100C9050100CD050100D1050100D50501002C
S351000100E4D9050100DD05010039050100E1050100697D0400E9050100957D0400F1050100C17D0400F9050100ED7D0400010601000506010009060100197E040011060100390501003905010039050100B8
S35100010130390501003905010039050100390501003905010039050100390501003905010085A10400CDA104003905010039050100390501002D9C04003905010095580400415804005D5804007958040003
S3510001017C3905010025060100390501003905010039050100390501003905010039050100390501003905010039050100390501003905010039050100390501003905010039050100390501003905010096
S351000101C83905010039050100390501003905010039050100390501003905010039050100390501003905010039050100390501003905010039050100390501003905010039050100390501003905010037
S3510001021439050100390501003905010039050100390501003905010039050100390501003905010039050100390501003905010039050100390501003905010039050100390501003905010039050100EA
S35100010260390501003905010039050100390501003905010039050100390501003905010039050100390501003905010039050100390501003905010039050100390501003905010039050100390501009E
S351000102AC3905010039050100390501003905010039050100390501003905010039050100390501003905010039050100390501003905010039050100390501003905010039050100390501003905010052
S351000102F83905010039050100390501003905010039050100390501003905010039050100390501003905010039050100390501003905010039050100390501003905010039050100390501003905010006
S3510001034439050100390501003905010039050100390501003905010039050100390501003905010039050100390501003905010039050100390501003905010039050100390501003905010039050100B9
S35100010390390501003905010039050100390501003905010039050100390501003905010039050100390501003905010039050100390501003905010039050100390501003905010039050100390501006D
S329000103DC3905010039050100390501003905010039050100390501003905010039050100FFFFFFFF02
S31500010400FFFFFFFFFFFFFFFFFFFFFFFFFEFFFFFFF6
S3510001041010B5054C237833B9044B13B10448AFF300800123237010BD0008FF1F00000000E82D060008B5064B1BB106480649AFF300800648036813B1054B03B1984708BD00000000E82D06000408FF1FB3
S3510001045CB006FF1F00000000154B002B08BF134B9D46A3F5803A00218B460F461348144A121A3FF03CFE0F4B002B00D098470E4B002B00D098470020002104000D000D48002802D00C48AFF300803FF052
S351000104A8CFFD2000290036F06BFA3FF019FC00BF000008000000012000000000000000000008FF1F80F70020000000000000000072B60E480E4901600A6882F308880D4880470D490D4A0E4B9A42BEBF50
S351000104F451F8040B42F8040BF8E70B490B4A00209142BCBF41F8040BFAE762B60848804708ED00E0000001009D4F0100102E06000000FF1FB406FF1F0008FF1F80F7002065040100FFF7FEBF3A48004726
S351000105403A4800473A4800473A4800473A4800473A4800473A4800473A4800473A4800473A4800473A4800473A4800473A4800473A4800473A4800473A4800473A4800473A4800473A4800473A4800477D
S3510001058C3A4800473A4800473A4800473A4800473A4800473A4800473A4800473A480047394800473848004737480047364800473548004735480047354800473548004734480047334800473248004764
S351000105D831480047304800473048004730480047304800473048004730480047304800473048004730480047304800473048004730480047304800473048004730480047304800473048004730480047A2
S35100010624304800473D0501004105010081CA0200F1CA020041CB020039050100390501003905010039050100390501003905010039050100390501003905010039050100390501003905010039050100EF
S3510001067039050100390501003905010039050100B15C0400C55C040095510400A9510400BD5104003905010039050100390501003905010039050100D966040039050100F9660400390501001967040028
S351000106BC3905010039670400390501005967040039050100796704003905010039050100390501003905010039050100F5630400000000002DE9F05F40F20008C1F6FF78F0C824BA2DBA36BA3FBAF0C266
S3510001070898E8001C802900F0D781C02900F0FF8090E80A0309BA1BBA98FA88F899FA89F9A2E80A035AF8040B4FEA396ECCF844E8CCF800B0DCF884E88EEA000E84EA0E0485EA040586EA050687EA060782
S35100010754F0C2CCF84478CCF800B0DCF884E881EA0E0183EA010388EA030889EA0809A2E80A035AF8040B4FEA396ECCF844E8CCF800B0DCF884E88EEA000E84EA0E0485EA040586EA050687EA0607F0C2DB
S351000107A0CCF84478CCF800B0DCF884E881EA0E0183EA010388EA030889EA0809A2E80A035AF8040B4FEA396ECCF844E8CCF800B0DCF884E88EEA000E84EA0E0485EA040586EA050687EA0607F0C2CCF87D
S351000107EC4478CCF800B0DCF884E881EA0E0183EA010388EA030889EA0809A2E80A035AF8040B4FEA396ECCF844E8CCF800B0DCF884E88EEA000E84EA0E0485EA040586EA050687EA0607F0C2CCF8447839
S35100010838CCF800B0DCF884E881EA0E0183EA010388EA030889EA0809A2E80A035AF8040B4FEA396ECCF844E8CCF800B0DCF884E88EEA000E84EA0E0485EA040586EA050687EA0607F0C2CCF84478CCF8E4
S3510001088400B0DCF884E881EA0E0183EA010388EA030889EA0809A2E80A035AF8040B4FEA396ECCF844E8CCF800B0DCF884E88EEA000E84EA0E0485EA040586EA050687EA0607F0C2CCF84478CCF800B0AC
S351000108D0DCF884E881EA0E0183EA010388EA030889EA0809A2E80A035AF8040B4FEA396ECCF844E8CCF800B0DCF884E88EEA000E84EA0E0485EA040586EA050687EA0607F0C2BDE8F09F90E8000398FAC3
S3510001091C88F899FA89F9A2E800035AF8040B4FEA3963CCF84438CCF800B0DCF8843883EA000384EA030485EA040586EA050687EA060788EA070889EA0809A2E8F0035AF8040B4FEA3963CCF84438CCF8DA
S3510001096800B0DCF8843883EA000384EA030485EA040586EA050687EA060788EA070889EA0809A2E8F0035AF8040B4FEA3963CCF84438CCF800B0DCF8843883EA000384EA030485EA040586EA050687EA61
S351000109B4060788EA070889EA0809A2E8F0035AF8040B4FEA3963CCF84438CCF800B0DCF8843883EA000384EA030485EA040586EA050687EA060788EA070889EA0809A2E8F0035AF8040B4FEA3963CCF815
S35100010A004438CCF800B0DCF8843883EA000384EA030485EA040586EA050687EA060788EA070889EA0809A2E8F0035AF8040B4FEA3963CCF84438CCF800B0DCF8843883EA000384EA030485EA040586EA04
S35100010A4C050687EA060788EA070889EA0809A2E8F0035AF8040B4FEA3963CCF84438CCF800B0DCF8843883EA000384EA030485EA040586EA050687EA060788EA070889EA0809A2E8F0035AF8040B4FEA60
S35100010A983963CCF84438CCF800B0DCF8843883EA000384EA030485EA040586EA050687EA0607F0C2BDE8F09FDAF800004FEA3763CCF84438CCF800B0DCF8843883EA000384EA030485EA040586EA05062E
S35100010AE487EA0607F0C2DAF804004FEA3763CCF84438CCF800B0DCF8843883EA000384EA030485EA040586EA050687EA0607F0C2DAF808004FEA3763CCF84438CCF800B0DCF8843883EA000384EA0304C4
S35100010B3085EA040586EA050687EA0607F0C2DAF80C004FEA3763CCF84438CCF800B0DCF8843883EA000384EA030485EA040586EA050687EA0607F0C2DAF810004FEA3763CCF84438CCF800B0DCF8843859
S35100010B7C83EA000384EA030485EA040586EA050687EA0607F0C2DAF814004FEA3763CCF84438CCF800B0DCF8843883EA000384EA030485EA040586EA050687EA0607F0C2DAF818004FEA3763CCF844381C
S35100010BC8CCF800B0DCF8843883EA000384EA030485EA040586EA050687EA0607F0C2DAF81C004FEA3763CCF84438CCF800B0DCF8843883EA000384EA030485EA040586EA050687EA0607F0C2DAF82000CF
S35100010C144FEA3763CCF84438CCF800B0DCF8843883EA000384EA030485EA040586EA050687EA0607F0C2DAF824004FEA3763CCF84438CCF800B0DCF8843883EA000384EA030485EA040586EA050687EA18
S35100010C600607F0C2BDE8F09FAFF30080AFF300802DE9F01F90E8F00024BA2DBA36BA3FBA40F21000C1F6FF70B1E8000F84EA080485EA090586EA0A0687EA0B0790E8011F8BE8F000CCF80000CCF80080C2
S35100010CACF0C989E8F000CCF80000CCF80080F0C989E8F000CCF80000CCF80080F0C989E8F000CCF80000CCF80080F0C989E8F000CCF80000CCF80080F0C989E8F000CCF80000CCF80080F0C989E8F00031
S35100010CF8CCF80000CCF80080F0C989E8F000CCF80000CCF80080F0C989E8F000CCF80000CCF80080F0C989E8F0000A2A1DD0CCF80000CCF80080F0C989E8F000CCF80000CCF80080F0C989E8F0000C2AA8
S35100010D440DD0CCF80000CCF80080F0C989E8F000CCF80000CCF80080F0C989E8F000CCF80000CCF800809AE8F00091E8000F84EA080485EA090586EA0A0687EA0B0724BA2DBA36BA3FBA83E8F000BDE891
S35100010D90F01F7047AFF30080AFF30080AFF300802DE9F01F90E8F00024BA2DBA36BA3FBA40F23000C1F6FF7001EB021191E8000F84EA080485EA090586EA0A0687EA0B0790E8011F8BE8F00031E9F0009B
S35100010DDCCCF80000CCF8008089E8F00031E9F000CCF80000CCF8008089E8F00031E9F000CCF80000CCF8008089E8F00031E9F000CCF80000CCF8008089E8F00031E9F000CCF80000CCF8008089E8F0008F
S35100010E2831E9F000CCF80000CCF8008089E8F00031E9F000CCF80000CCF8008089E8F00031E9F000CCF80000CCF8008089E8F00031E9F000CCF80000CCF8008089E8F0000A2A21D031E9F000CCF80000B8
S35100010E74CCF8008089E8F00031E9F000CCF80000CCF8008089E8F0000C2A0FD031E9F000CCF80000CCF8008089E8F00031E9F000CCF80000CCF8008089E8F000CCF80000CCF800809AE8F00031E9000F75
S35100010EC084EA080485EA090586EA0A0687EA0B0724BA2DBA36BA3FBA83E8F000BDE8F01F704700BFAFF30080AFF30080AFF3008041F6480390E80600CEF2080383E8060041F2000140F20002CEF20801DF
S35100010F0CCCF280420A60986B10F0020018BF4FF0FF3070472DE9F00041F64807CEF2080791E818001BBA24BA90E860002DBA36BA87E8780040F28000C1F6FF70FBC880E8780080E8C00003C900BA09BA86
S35100010F5882E80300F0BC70472DE9F00041F64807CEF2080791E818001BBA24BA90E860002DBA36BA87E8780040F2A000C1F6FF70FBC880E8780080E8C00003C900BA09BA82E80300F0BC70474DF8044DCF
S35100010FA440F2C001C1F6FF711EC980E81E0010BC704700BFAFF30080AFF300802DE9F0038946904698E81E0040F2D007C1F6FF7724EA020503EA020635432944066831443E68314402EB716123EA0105AC
S35100010FF002EA010635432C44466834447E68344401EB345422EA040501EA040635432B4486683344BE68334404EBF33321EA030504EA030635432A44C6683244FE68324403EBB22224EA020503EA020697
S3510001103C35432944066931443E69314402EB716123EA010502EA010635432C44466934447E69344401EB345422EA040501EA040635432B4486693344BE69334404EBF33321EA030504EA030635432A44DB
S35100011088C6693244FE69324403EBB22224EA020503EA020635432944066A31443E6A314402EB716123EA010502EA010635432C44466A34447E6A344401EB345422EA040501EA040635432B44866A3344DF
S351000110D4BE6A334404EBF33321EA030504EA030635432A44C66A3244FE6A324403EBB22224EA020503EA020635432944066B31443E6B314402EB716123EA010502EA010635432C44466B34447E6B3444B5
S3510001112001EB345422EA040501EA040635432B44866B3344BE6B334404EBF33321EA030504EA030635432A44C66B3244FE6B324403EBB22223EA040502EA040635432944466831443E6C314402EBF16150
S3510001116C22EA030501EA030635432C44866934447E6C344401EBF45421EA020504EA020635432B44C66A3344BE6C334404EBB34324EA010503EA010635432A4406683244FE6C324403EB323223EA04050D
S351000111B802EA040635432944466931443E6D314402EBF16122EA030501EA030635432C44866A34447E6D344401EBF45421EA020504EA020635432B44C66B3344BE6D334404EBB34324EA010503EA010671
S3510001120435432A4406693244FE6D324403EB323223EA040502EA040635432944466A31443E6E314402EBF16122EA030501EA030635432C44866B34447E6E344401EBF45421EA020504EA020635432B4443
S35100011250C6683344BE6E334404EBB34324EA010503EA010635432A44066A3244FE6E324403EB323223EA040502EA040635432944466B31443E6F314402EBF16122EA030501EA030635432C448668344448
S3510001129C7E6F344401EBF45421EA020504EA020635432B44C6693344BE6F334404EBB34324EA010503EA010635432A44066B3244FE6F324403EB323282EA03056540294446693144D7F88060314402EB83
S351000112E8317181EA02055D402C44066A3444D7F88460344401EB745484EA010555402B44C66A3344D7F88860334404EB334383EA04054D402A44866B3244D7F88C60324403EB722282EA03056540294408
S3510001133446683144D7F89060314402EB317181EA02055D402C4406693444D7F89460344401EB745484EA010555402B44C6693344D7F89860334404EB334383EA04054D402A44866A3244D7F89C60324452
S3510001138003EB722282EA030565402944466B3144D7F8A060314402EB317181EA02055D402C4406683444D7F8A460344401EB745484EA010555402B44C6683344D7F8A860334404EB334383EA04054D40E2
S351000113CC2A4486693244D7F8AC60324403EB722282EA030565402944466A3144D7F8B060314402EB317181EA02055D402C44066B3444D7F8B460344401EB745484EA010555402B44C66B3344D7F8B8601C
S35100011418334404EB334383EA04054D402A4486683244D7F8BC60324403EB722262EA04055D40294406683144D7F8C060314402EBB16161EA030555402C44C6693444D7F8C460344401EBB45464EA020595
S351000114644D402B44866B3344D7F8C860334404EB734363EA010565402A4446693244D7F8CC60324403EBF22262EA04055D402944066B3144D7F8D060314402EBB16161EA030555402C44C6683444D7F83B
S351000114B0D460344401EBB45464EA02054D402B44866A3344D7F8D860334404EB734363EA010565402A4446683244D7F8DC60324403EBF22262EA04055D402944066A3144D7F8E060314402EBB16161EA4F
S351000114FC030555402C44C66B3444D7F8E460344401EBB45464EA02054D402B4486693344D7F8E860334404EB734363EA010565402A44466B3244D7F8EC60324403EBF22262EA04055D402944066931441B
S35100011548D7F8F060314402EBB16161EA030555402C44C66A3444D7F8F460344401EBB45464EA02054D402B4486683344D7F8F860334404EB734363EA010565402A44466A3244D7F8FC60324403EBF22206
S35100011594D8F800502944D8F804502A44D8F808502B44D8F80C502C4488E81E0000F14000B9F101097FF40CADBDE8F003704700BFAFF30080AFF30080AFF30080F0B540F2C004C1F6FF74F0CC82E8F000C4
S351000115E0FFF7EEFCF0BD00BFAFF30080AFF300800A464FF00101E3E4AFF30080AFF300802DE9300040F2D011C1F6FF713EC980E83E0030BC704700BFAFF30080AFF300802DE9F00FE0B041F2000BCEF216
S3510001162C080B0BF648080DF11C0992E8F80088E8F80000BF89E8F8004FEAF365CBF8445840F200054BF2000640F2F01ACCF60045CCF61216C1F6FF7A5AF8047B50F8043B1CBACBF8006010943C44CBF8E3
S35100011678C448CBF8005050F8043B1CBACBF8006011943C44CBF8C448CBF8005050F8043B1CBACBF8006012943C44CBF8C448CBF8005050F8043B1CBACBF8006013943C44CBF8C448CBF8005050F8043BE1
S351000116C41CBACBF8006014943C44CBF8C448CBF8005050F8043B1CBACBF8006015943C44CBF8C448CBF8005050F8043B1CBACBF8006016943C44CBF8C448CBF8005050F8043B1CBACBF8006017943C440E
S35100011710CBF8C448CBF8005050F8043B1CBACBF8006018943C44CBF8C448CBF8005050F8043B1CBACBF8006019943C44CBF8C448CBF8005050F8043B1CBACBF800601A943C44CBF8C448CBF8005050F8AF
S3510001175C043B1CBACBF800601B943C44CBF8C448CBF8005050F8043B1CBACBF800601C943C44CBF8C448CBF8005050F8043B1CBACBF800601D943C44CBF8C448CBF8005050F8043B1CBACBF800601E949A
S351000117A83C44CBF8C448CBF8005050F8043B1CBACBF800601F943C44CBF8C448CBF80050CBF80060109C129B84EA0304189B84EA03041D9B84EA03044FEAF47320933B44CBF8C438CBF80050CBF80060EA
S351000117F4119C139B84EA0304199B84EA03041E9B84EA03044FEAF47321933B44CBF8C438CBF80050CBF80060129C149B84EA03041A9B84EA03041F9B84EA03044FEAF47322933B44CBF8C438CBF80050E2
S35100011840CBF80060139C159B84EA03041B9B84EA0304209B84EA03044FEAF47323933B44CBF8C438CBF800504BF20008CCF692085AF8047BCBF80080149C169B84EA03041C9B84EA0304219B84EA030474
S3510001188C4FEAF47324933B44CBF8C438CBF80050CBF80080159C179B84EA03041D9B84EA0304229B84EA03044FEAF47325933B44CBF8C438CBF80050CBF80080169C189B84EA03041E9B84EA0304239B35
S351000118D884EA03044FEAF47326933B44CBF8C438CBF80050CBF80080179C199B84EA03041F9B84EA0304249B84EA03044FEAF47327933B44CBF8C438CBF80050CBF80080189C1A9B84EA0304209B84EA27
S351000119240304259B84EA03044FEAF47328933B44CBF8C438CBF80050CBF80080199C1B9B84EA0304219B84EA0304269B84EA03044FEAF47329933B44CBF8C438CBF80050CBF800801A9C1C9B84EA03042C
S35100011970229B84EA0304279B84EA03044FEAF4732A933B44CBF8C438CBF80050CBF800801B9C1D9B84EA0304239B84EA0304289B84EA03044FEAF4732B933B44CBF8C438CBF80050CBF800801C9C1E9B18
S351000119BC84EA0304249B84EA0304299B84EA03044FEAF4732C933B44CBF8C438CBF80050CBF800801D9C1F9B84EA0304259B84EA03042A9B84EA03044FEAF4732D933B44CBF8C438CBF80050CBF80080B8
S35100011A081E9C209B84EA0304269B84EA03042B9B84EA03044FEAF4732E933B44CBF8C438CBF80050CBF800801F9C219B84EA0304279B84EA03042C9B84EA03044FEAF4732F933B44CBF8C438CBF8005029
S35100011A54CBF80080209C229B84EA0304289B84EA03042D9B84EA03044FEAF47330933B44CBF8C438CBF80050CBF80080219C239B84EA0304299B84EA03042E9B84EA03044FEAF47331933B44CBF8C43899
S35100011AA0CBF80050CBF80080229C249B84EA03042A9B84EA03042F9B84EA03044FEAF47332933B44CBF8C438CBF80050CBF80080239C259B84EA03042B9B84EA0304309B84EA03044FEAF47333933B44E5
S35100011AECCBF8C438CBF80050CBF80080249C269B84EA03042C9B84EA0304319B84EA03044FEAF47334933B44CBF8C438CBF80050CBF80080259C279B84EA03042D9B84EA0304329B84EA03044FEAF4730D
S35100011B3835933B44CBF8C438CBF80050CBF80080269C289B84EA03042E9B84EA0304339B84EA03044FEAF47336933B44CBF8C438CBF80050CBF80080279C299B84EA03042F9B84EA0304349B84EA030407
S35100011B844FEAF47337933B44CBF8C438CBF800504BF20009CCF652195AF8047BCBF80090289C2A9B84EA0304309B84EA0304359B84EA03044FEAF47338933B44CBF8C438CBF80050CBF80090299C2B9B9F
S35100011BD084EA0304319B84EA0304369B84EA03044FEAF47339933B44CBF8C438CBF80050CBF800902A9C2C9B84EA0304329B84EA0304379B84EA03044FEAF4733A933B44CBF8C438CBF80050CBF800901A
S35100011C1C2B9C2D9B84EA0304339B84EA0304389B84EA03044FEAF4733B933B44CBF8C438CBF80050CBF800902C9C2E9B84EA0304349B84EA0304399B84EA03044FEAF4733C933B44CBF8C438CBF8005081
S35100011C68CBF800902D9C2F9B84EA0304359B84EA03043A9B84EA03044FEAF4733D933B44CBF8C438CBF80050CBF800902E9C309B84EA0304369B84EA03043B9B84EA03044FEAF4733E933B44CBF8C438E1
S35100011CB4CBF80050CBF800902F9C319B84EA0304379B84EA03043C9B84EA03044FEAF4733F933B44CBF8C438CBF80050CBF80090309C329B84EA0304389B84EA03043D9B84EA03044FEAF47340933B442D
S35100011D00CBF8C438CBF80050CBF80090319C339B84EA0304399B84EA03043E9B84EA03044FEAF47341933B44CBF8C438CBF80050CBF80090329C349B84EA03043A9B84EA03043F9B84EA03044FEAF47361
S35100011D4C42933B44CBF8C438CBF80050CBF80090339C359B84EA03043B9B84EA0304409B84EA03044FEAF47343933B44CBF8C438CBF80050CBF80090349C369B84EA03043C9B84EA0304419B84EA03044F
S35100011D984FEAF47344933B44CBF8C438CBF80050CBF80090359C379B84EA03043D9B84EA0304429B84EA03044FEAF47345933B44CBF8C438CBF80050CBF80090369C389B84EA03043E9B84EA0304439BC4
S35100011DE484EA03044FEAF47346933B44CBF8C438CBF80050CBF80090379C399B84EA03043F9B84EA0304449B84EA03044FEAF47347933B44CBF8C438CBF80050CBF80090389C3A9B84EA0304409B84EAD6
S35100011E300304459B84EA03044FEAF47348933B44CBF8C438CBF80050CBF80090399C3B9B84EA0304419B84EA0304469B84EA03044FEAF47349933B44CBF8C438CBF80050CBF800903A9C3C9B84EA0304DB
S35100011E7C429B84EA0304479B84EA03044FEAF4734A933B44CBF8C438CBF80050CBF800903B9C3D9B84EA0304439B84EA0304489B84EA03044FEAF4734B933B44CBF8C438CBF80050DAF80070CBF8008026
S35100011EC83C9C3E9B84EA0304449B84EA0304499B84EA03044FEAF4734C933B44CBF8C438CBF80050CBF800803D9C3F9B84EA0304459B84EA03044A9B84EA03044FEAF4734D933B44CBF8C438CBF8005039
S35100011F14CBF800803E9C409B84EA0304469B84EA03044B9B84EA03044FEAF4734E933B44CBF8C438CBF80050CBF800803F9C419B84EA0304479B84EA03044C9B84EA03044FEAF4734F933B44CBF8C438A8
S35100011F60CBF80050CBF80080409C429B84EA0304489B84EA03044D9B84EA03044FEAF47350933B44CBF8C438CBF80050CBF80080419C439B84EA0304499B84EA03044E9B84EA03044FEAF47351933B44F4
S35100011FACCBF8C438CBF80050CBF80080429C449B84EA03044A9B84EA03044F9B84EA03044FEAF47352933B44CBF8C438CBF80050CBF80080439C459B84EA03044B9B84EA0304509B84EA03044FEAF4733A
S35100011FF853933B44CBF8C438CBF80050CBF80080449C469B84EA03044C9B84EA0304519B84EA03044FEAF47354933B44CBF8C438CBF80050CBF80080459C479B84EA03044D9B84EA0304529B84EA030417
S351000120444FEAF47355933B44CBF8C438CBF80050CBF80080469C489B84EA03044E9B84EA0304539B84EA03044FEAF47356933B44CBF8C438CBF80050CBF80080479C499B84EA03044F9B84EA0304549B8B
S3510001209084EA03044FEAF47357933B44CBF8C438CBF80050CBF80080489C4A9B84EA0304509B84EA0304559B84EA03044FEAF47358933B44CBF8C438CBF80050CBF80080499C4B9B84EA0304519B84EAAE
S351000120DC0304569B84EA03044FEAF47359933B44CBF8C438CBF80050CBF800804A9C4C9B84EA0304529B84EA0304579B84EA03044FEAF4735A933B44CBF8C438CBF80050CBF800804B9C4D9B84EA0304B4
S35100012128539B84EA0304589B84EA03044FEAF4735B933B44CBF8C438CBF80050CBF800804C9C4E9B84EA0304549B84EA0304599B84EA03044FEAF4735C933B44CBF8C438CBF80050CBF800804D9C4F9B6E
S3510001217484EA0304559B84EA03045A9B84EA03044FEAF4735D933B44CBF8C438CBF80050CBF800804E9C509B84EA0304569B84EA03045B9B84EA03044FEAF4735E933B44CBF8C438CBF80050CBF8008070
S351000121C04F9C519B84EA0304579B84EA03045C9B84EA03044FEAF4735F933B44CBF8C438CBF800500DF11C090BF6C8080BF6880A99E8F80088E8F8009AE8F80001397FF41FAA60B082E8F800BDE8F00F5C
S3510001220C704700BF2DE9F84040F2D013C1F6FF73F8CB82E8F800FFF7FDF9BDE8F88000BFAFF300800A464FF00101FFF7F3B900BFAFF300802DE9F00140F22021C1F6FF7191E8FE0180E8FE01BDE8F00144
S351000122584FF00000704700BF2DE9F01F41F2000CCEF2080CD0B005928B4692E8FE010CF6480989E8FE0140F2002AC1F6FF7ACDF808A00DF11C0900BF89E8FE01DDF808A09AE8E00750F8042B11BA10910E
S351000122A4CCF84418CCF800905AF8043BCCF8C438CCF80080CCF8007050F8042B11BA5AF8043BCCF844181191CCF80090CCF8C438CCF80080CCF8007050F8042B11BA5AF8043BCCF844181291CCF800909F
S351000122F0CCF8C438CCF80080CCF8007050F8042B11BA5AF8043BCCF844181391CCF80090CCF8C438CCF80080CCF8007050F8042B11BA5AF8043BCCF844181491CCF80090CCF8C438CCF80080CCF800701C
S3510001233C50F8042B11BA5AF8043BCCF844181591CCF80090CCF8C438CCF80080CCF8007050F8042B11BA5AF8043BCCF844181691CCF80090CCF8C438CCF80080CCF8007050F8042B11BA5AF8043BCCF86C
S3510001238844181791CCF80090CCF8C438CCF80080CCF8007050F8042B11BA5AF8043BCCF844181891CCF80090CCF8C438CCF80080CCF8007050F8042B11BA5AF8043BCCF844181991CCF80090CCF8C43899
S351000123D4CCF80080CCF8007050F8042B11BA5AF8043BCCF844181A91CCF80090CCF8C438CCF80080CCF8007050F8042B11BA5AF8043BCCF844181B91CCF80090CCF8C438CCF80080CCF8007050F8042B72
S3510001242011BA5AF8043BCCF844181C91CCF80090CCF8C438CCF80080CCF8007050F8042B11BA5AF8043BCCF844181D91CCF80090CCF8C438CCF80080CCF8007050F8042B11BA5AF8043BCCF844181E91E5
S3510001246CCCF80090CCF8C438CCF80080CCF8007050F8042B11BA5AF8043BCCF844181F91CCF80090CCF8C438CCF80080CCF800704FF0300220AB00BF53F8401CCCF8441853F83C1CCCF86818CCF80050A5
S351000124B853F81C1CCCF8C41853F8081CCCF86818CCF80060DCF8841843F8041BCCF800905AF8041BCCF8C418CCF80080CCF80070013ADBD10DF11C090CF6C80A99E8FE018AE8FE010CF6880A9AE8FE014C
S35100012504BBF1010B7FF4C2AEDDF8149050B089E8FE01BDE8F01F7047AFF300802DE9F04F40F22024C1F6FF7494E8F00F82E8F00FFFF794FEBDE8F08FAFF300800A464FF001018BE6AFF30080AFF3008086
S3510001255010F8012B11F8013B012A28BF9A42F7D0D01A7047D0400B1CD1409C46203AD3401843524263469340184370479140031C90409C46203A9340194352426346D3401943704781F0004102E000BF74
S3510001259C83F0004330B54FEA41044FEA430594EA050F08BF90EA020F1FBF54EA000C55EA020C7FEA645C7FEA655C00F0E2804FEA5454D4EB5555B8BF6D420CDD2C4480EA020281EA030382EA000083EAD3
S351000125E8010180EA020281EA0303362D88BF30BD11F0004F4FEA01314FF4801C4CEA113102D0404261EB410113F0004F4FEA03334CEA133302D0524263EB430394EA050F00F0A780A4F10104D5F1200EC6
S351000126340DDB02FA0EFC22FA05F2801841F1000103FA0EF2801843FA05F359410EE0A5F120050EF1200E012A03FA0EFC28BF4CF0020C43FA05F3C01851EBE37101F0004507D54FF0000EDCF1000C7EEBAC
S3510001268000006EEB0101B1F5801F1BD3B1F5001F0CD349085FEA30004FEA3C0C04F101044FEA445212F5800F80F09A80BCF1004F08BF5FEA500C50F1000041EB045141EA050130BD5FEA4C0C404141EB0B
S351000126CC010111F4801FA4F10104E9D191F0000F04BF01460020B1FA81F308BF2033A3F10B03B3F120020CDA0C3208DD02F1140CC2F10C0201FA0CF021FA02F10CE002F11402D8BFC2F1200C01FA02F12B
S3510001271820FA0CFCDCBF41EA0C019040E41AA2BF01EB0451294330BD6FEA04041F3C1CDA0C340EDC04F11404C4F1200220FA04F001FA02F340EA030021FA04F345EA030130BDC4F10C04C4F1200220FADD
S3510001276402F001FA04F340EA0300294630BD21FA04F0294630BD94F0000F83F4801306BF81F480110134013D4EE77FEA645C18BF7FEA655C29D094EA050F08BF90EA020F05D054EA000C04BF194610469C
S351000127B030BD91EA030F1EBF0021002030BD5FEA545C05D14000494128BF41F0004130BD14F580043CBF01F5801130BD01F0004545F0FE4141F470014FF0000030BD7FEA645C1ABF194610467FEA655C19
S351000127FC1CBF0B46024650EA013406BF52EA033591EA030F41F4002130BD00BF90F0000F04BF0021704730B54FF4806404F132044FF000054FF0000150E700BF90F0000F04BF0021704730B54FF48064CE
S3510001284804F1320410F0004548BF40424FF000013EE700BF42004FEAE2014FEA31014FEA02701FBF12F07F4393F07F4F81F06051704792F0000F14BF93F07F4F704730B54FF4607401F0004521F00041F0
S3510001289420E700BF50EA010208BF704730B54FF000050AE050EA010208BF704730B511F0004502D5404261EB41014FF4806404F132045FEA915C3FF4DCAE4FF003025FEADC0C18BF03325FEADC0C18BFC2
S351000128E0033202EBDC02C2F1200300FA03FC20FA02F001FA03FE40EA0E0021FA02F11444C1E600BF70B54FF0FF0C4CF4E06C1CEA11541DBF1CEA135594EA0C0F95EA0C0F00F0DEF82C4481EA030621EA32
S3510001292C4C5123EA4C5350EA013518BF52EA033541F4801143F4801338D0A0FB02CE4FF00005E1FB02E506F00042E0FB03E54FF00006E1FB03569CF0000F18BF4EF0010EA4F1FF04B6F5007F64F5407447
S3510001297804D25FEA4E0E6D4146EB060642EAC62141EA55514FEAC52040EA5E504FEACE2EB4F1FD0C88BFBCF5E06F1ED8BEF1004F08BF5FEA500E50F1000041EB045170BD06F0004646EA010140EA0200B7
S351000129C481EA0301B4EB5C04C2BFD4EB0C0541EA045170BD41F480114FF0000E013C00F3AB8014F1360FDEBF002001F0004170BDC4F10004203C35DA0C341BDC04F11404C4F1200500FA05F320FA04F03E
S35100012A1001FA05F240EA020001F0004221F0004110EBD37021FA04F642EB06015EEA430E08BF20EAD37070BDC4F10C04C4F1200500FA04F320FA05F001FA04F240EA020001F0004110EBD37041F1000110
S35100012A5C5EEA430E08BF20EAD37070BDC4F1200500FA05F24EEA020E20FA04F301FA05F243EA020321FA04F001F0004121FA04F220EA020000EBD3705EEA430E08BF20EAD37070BD94F0000F0FD101F03B
S35100012AA80046400041EB010111F4801F08BF013CF7D041EA060195F0000F18BF704703F00046520043EB030313F4801F08BF013DF7D043EA0603704794EA0C0F0CEA135518BF95EA0C0F0CD050EA410681
S35100012AF418BF52EA4306D1D181EA030101F000414FF0000070BD50EA410606BF1046194652EA430619D094EA0C0F02D150EA013613D195EA0C0F05D152EA03361CBF104619460AD181EA030101F0004169
S35100012B4041F0FE4141F470014FF0000070BD41F0FE4141F4780170BD70B54FF0FF0C4CF4E06C1CEA11541DBF1CEA135594EA0C0F95EA0C0F00F0A7F8A4EB050481EA030E52EA03354FEA013100F0888018
S35100012B8C4FEA03334FF0805545EA131343EA12634FEA022245EA111545EA10654FEA00260EF000419D4208BF964244F1FD0404F5407402D25B084FEA3202B61A65EB03055B084FEA32024FF480104FF475
S35100012BD8002CB6EB020E75EB030E22BFB61A754640EA0C005B084FEA3202B6EB020E75EB030E22BFB61A754640EA5C005B084FEA3202B6EB020E75EB030E22BFB61A754640EA9C005B084FEA3202B6EB41
S35100012C24020E75EB030E22BFB61A754640EADC0055EA060E18D04FEA051545EA16754FEA06164FEAC30343EA52734FEAC2025FEA1C1CC0D111F4801F0BD141EA00014FF000004FF0004CB6E711F4801F16
S35100012C7004BF01430020B4F1FD0C88BFBCF5E06F3FF6AFAEB5EB030C04BFB6EB020C5FEA500C50F1000041EB045170BD0EF0004E4EEA113114EB5C04C2BFD4EB0C0541EA045170BD41F480114FF0000E78
S35100012CBC013C90E645EA060E8DE60CEA135594EA0C0F08BF95EA0C0F3FF43BAF94EA0C0F0AD150EA01347FF434AF95EA0C0F7FF425AF104619462CE795EA0C0F06D152EA03353FF4FDAE1046194622E784
S35100012D0850EA410618BF52EA43067FF4C5AE50EA41047FF40DAF52EA43057FF4EBAE12E74FF0FF3C06E000BF4FF0010C02E000BF4FF0010C4DF804CD4FEA410C7FEA6C5C4FEA430C18BF7FEA6C5C1BD0DE
S35100012D5401B050EA410C0CBF52EA430C91EA030F02BF90EA020F0020704710F1000F91EA030F58BF994208BF90422CBFD8176FEAE37040F0010070474FEA410C7FEA6C5C02D150EA013C07D14FEA430CF7
S35100012DA07FEA6C5CD6D152EA033CD3D05DF8040B704700BF8446104662468C461946634600E000BF01B5FFF7B7FF002848BF10F1000F01BD4DF808EDFFF7F4FF0CBF012000205DF808FB00BF4DF808EDF0
S35100012DECFFF7EAFF34BF012000205DF808FB00BF4DF808EDFFF7E0FF94BF012000205DF808FB00BF4DF808EDFFF7CEFF94BF012000205DF808FB00BF4DF808EDFFF7C4FF34BF012000205DF808FB00BFCA
S35100012E384FEA410212F5001215D211D56FF47873B3EB625212D94FEAC12343F0004343EA505311F0004F23FA02F018BF404270474FF00000704750EA013005D111F0004008BF6FF0004070474FF00000B4
S35100012E84704700BF4A0011D212F5001211D20DD56FF47873B3EB62520ED44FEAC12343F0004343EA505323FA02F070474FF00000704750EA013002D14FF0FF3070474FF0000070474FEA4102B2F1E0433E
S35100012ED024BFB3F5001CDCF1FE5C0DD901F0004C4FEAC0024CEA5070B2F1004F40EB830008BF20F00100704711F0804F21D113F13872BCBF01F00040704741F480114FEA5252C2F11802C2F1200C10FA72
S35100012F1C0CF320FA02F018BF40F001004FEAC1234FEAD32303FA0CFC40EA0C0023FA02F34FEA4303CCE77FEA625307D150EA01331EBF4FF0FE4040F44000704701F0004040F0FE4040F40000704700BF52
S35100012F6880F0004002E000BF81F0004142001FBF5FEA410392EA030F7FEA226C7FEA236C6AD04FEA1262D2EB1363C1BFD218414048404140B8BF5B42192B88BF704710F0004F40F4000020F07F4018BF5C
S35100012FB4404211F0004F41F4000121F07F4118BF494292EA030F3FD0A2F1010241FA03FC10EB0C00C3F1200301FA03F100F0004302D5494260EB4000B0F5000F13D3B0F1807F06D340084FEA310102F17C
S351000130000102FE2A51D2B1F1004F40EBC25008BF20F0010040EA03007047490040EB000010F4000FA2F10102EDD1B0FA80FCACF1080CB2EB0C0200FA0CF0AABF00EBC25052421843BCBFD0401843704700
S3510001304C92F0000F81F4000106BF80F400000132013BB5E74FEA41037FEA226C18BF7FEA236C21D092EA030F04D092F0000F08BF0846704790EA010F1CBF0020704712F07F4F04D1400028BF40F000407B
S35100013098704712F100723CBF00F50000704700F0004343F0FE4040F4000070477FEA226216BF08467FEA23630146420206BF5FEA412390EA010F40F4800070474FF0000304E000BF10F0004348BF4042E1
S351000130E45FEA000C08BF704743F0964301464FF000001CE050EA010208BF70474FF000030AE000BF50EA010208BF704711F0004302D5404261EB41015FEA010C02BF84460146002043F0B64308BFA3F1DD
S351000131308053A3F50003BCFA8CF2083AA3EBC25310DB01FA02FC634400FA02FCC2F12002BCF1004F20FA02F243EB020008BF20F00100704702F1200201FA02FCC2F1200250EA4C0021FA02F243EB0200FC
S3510001317C08BF20EADC7070474FF0FF0C1CEAD0521EBF1CEAD15392EA0C0F93EA0C0F6FD01A4480EA010C400218BF5FEA41211ED04FF0006343EA501043EA5111A0FB01310CF00040B1F5000F3EBF4900FC
S351000131C841EAD3715B0040EA010062F17F02FD2A1DD8B3F1004F40EBC25008BF20F00100704790F0000F0CF0004C08BF49024CEA502040EA51207F3AC2BFD2F1FF0340EAC250704740F400004FF000037E
S35100013214013A5DDC12F1190FDCBF00F000407047C2F10002410021FA02F1C2F1200200FA02FC5FEA310040F1000053EA4C0308BF20EADC70704792F0000F00F0004C02BF400010F4000F013AF9D040EA5B
S351000132600C0093F0000F01F0004C02BF490011F4000F013BF9D041EA0C018FE70CEAD15392EA0C0F18BF93EA0C0F0AD030F0004C18BF31F0004CD8D180EA010000F00040704790F0000F17BF90F0004F96
S351000132AC084691F0000F91F0004F14D092EA0C0F01D142020FD193EA0C0F03D14B0218BF084608D180EA010000F0004040F0FE4040F40000704740F0FE4040F4400070474FF0FF0C1CEAD0521EBF1CEA17
S351000132F8D15392EA0C0F93EA0C0F69D0A2EB030280EA010C49024FEA402037D04FF0805343EA111143EA10130CF000408B4238BF5B0042F17D024FF4000C8B4224BF5B1A40EA0C00B3EB510F24BFA3EB2C
S35100013344510340EA5C00B3EB910F24BFA3EB910340EA9C00B3EBD10F24BFA3EBD10340EADC001B0118BF5FEA1C1CE0D1FD2A3FF650AF8B4240EBC25008BF20F0010070470CF0004C4CEA50207F32C2BF51
S35100013390D2F1FF0340EAC250704740F400004FF00003013A37E792F0000F00F0004C02BF400010F4000F013AF9D040EA0C0093F0000F01F0004C02BF490011F4000F013BF9D041EA0C0195E70CEAD15388
S351000133DC92EA0C0F08D142027FF47DAF93EA0C0F7FF470AF084676E793EA0C0F04D14B023FF44CAF08466EE730F0004C18BF31F0004CCAD130F000427FF45CAF31F000437FF43CAF5FE700BF4FF0FF3C7F
S3510001342806E000BF4FF0010C02E000BF4FF0010C4DF804CD4FEA40024FEA41037FEA226C18BF7FEA236C11D001B052EA530C18BF90EA010F58BFB2EB030088BFC81738BF6FEAE17018BF40F001007047D4
S351000134747FEA226C02D15FEA402C05D17FEA236CE4D15FEA412CE1D05DF8040B704700BF844608466146FFE70FB5FFF7C9FF002848BF10F1000F0FBD4DF808EDFFF7F4FF0CBF012000205DF808FB00BF4A
S351000134C04DF808EDFFF7EAFF34BF012000205DF808FB00BF4DF808EDFFF7E0FF94BF012000205DF808FB00BF4DF808EDFFF7D2FF94BF012000205DF808FB00BF4DF808EDFFF7C8FF34BF012000205DF86F
S3510001350C08FB00BF4FEA4002B2F1FE4F0FD34FF09E03B3EB12620DD94FEA002343F0004310F0004F23FA02F018BF404270474FF00000704712F1610F01D1420205D110F0004008BF6FF0004070474FF054
S351000135580000704742000ED2B2F1FE4F0BD34FF09E03B3EB126209D44FEA002343F0004323FA02F070474FF00000704712F1610F01D1420202D14FF0FF3070474FF00000704700BF73B96AB9002908BFA7
S351000135A40028BCBF00204FF00041C4BF6FF000414FF0FF3000F052B882B0EC462DE9005000F01CF8DDF804E002B00CBC704700BF4BB942B9002908BF002802D04FF0FF31084600F03BB882B0EC462DE98C
S351000135F0005000F01DF8DDF804E002B00CBC70472DE97043069E14461D468046894600F029F804FB01F300FB0533A4FB00451D44B8EB040469EB0505C6E90045BDE870832DE97043069E1446804689461D
S3510001363C1D4600F05DF900FB05F504FB0153A0FB04451D44B8EB040469EB0505C6E90045BDE87083704700BF00292DE9F00FC0F29F800024002BC0F29680154606460F46002B3ED18A4257D9B2FA82F381
S351000136884BB1C3F1200201FA03F720FA02F29D40174300FA03F6290CB7FBF1F2330C01FB127CA8B243EA0C4700FB02F3BB4209D97F1902F1FF3C80F00181BB4240F2FE80023A2F44FF1AB7FBF1F3B6B289
S351000136D401FB137146EA014100FB03F0884208D9491903F1FF3780F0ED80884240F2EA80023B43EA0242002303E08B420AD900231A461046194614B1404261EB4101BDE8F00F7047B3FA83F8B8F1000F9D
S3510001372040F084808B4202D3824200F2DE8000230122E8E712B90123B3FBF2F5B5FA85F2002A39D17F1B280C1FFA85FC0123B7FBF0F1320C00FB117742EA07470CFB01F2BA4207D97F1901F1FF3802D2B4
S3510001376CBA4200F2C1804146BF1AB7FBF0F2B6B200FB127046EA00400CFB02FC844507D9401902F1FF3702D2844500F2AB803A4642EA0142B1E7E443524263EB430364E7404261EB41014FF0FF345BE7C3
S351000137B89540C2F1200327FA03F1280C26FA03F39740B1FBF0F81F433B0C00FB18111FFA85FC43EA01410CFB08F38B4206FA02F608D9491908F1FF3279D28B4277D9A8F102082944C91AB1FBF0F3BFB2E4
S3510001380400FB131147EA01470CFB03F2BA4207D97F1903F1FF3160D2BA425ED9023B2F44BF1A43EA084390E7C8F1200203FA08FC25FA02F343EA0C0C4FEA1C4921FA02F301FA08F720FA02F2B3FBF9F1E5
S35100013850174309FB11333A0C1FFA8CFB42EA03430BFB01FA9A4505FA08F008D913EB0C0301F1FF3235D29A4533D902396344CAEB0303B3FBF9F209FB1233BFB247EA03470BFB02F9B94508D917EB0C07F1
S3510001389C02F1FF331BD2B94519D9023A674442EA0145A5FB0001C9EB07078F424FF000030AD305D02A4620E7624601E73B4614E706FA08F68642F5D26A1E002315E71A46E5E70B46A0E71146CBE79046BC
S351000138E888E7434642460AE7023A53E702392F443CE700BF2DE9F00F144605460E46002B43D18A4253D9B2FA82F757B1C7F1200620FA06F601FA07F302FA07F41E4300FA07F5210CB6FBF1F22B0C01FB79
S351000139341267A0B243EA074600FB02F3B34209D9361902F1FF3780F0F680B34240F2F380023A2644F61AB6FBF1F3ADB201FB136145EA014100FB03F0884208D9091903F1FF3680F0E280884240F2DF80A0
S35100013980023B43EA0242002310461946BDE8F00F70478B424AD8B3FA83F6002E4DD18B4202D3824200F2D6800023012210461946BDE8F00F704712B90124B4FBF2F4B4FA84F2002A7CD1091B260CA7B2DF
S351000139CC0123B1FBF6F02A0C06FB101142EA014107FB00F28A4207D9091900F1FF3C02D28A4200F2C3806046891AB1FBF6F2ADB206FB121145EA014507FB02F7AF4208D92C1902F1FF3180F09680A742F0
S35100013A1840F29380023A42EA004210461946BDE8F00F704700231A4610461946BDE8F00F7047C6F1200522FA05F4B3401C434FEA144821FA05F301FA06F720FA05F5B3FBF8FC2F4308FB1C333D0C1FFA0A
S35100013A6484FA45EA03430AFB0CF9994502FA06FB04D91B190CF1FF326DD39446C9EB0303B3FBF8F508FB1533BFB247EA03470AFB05F8B84504D93F1905F1FF3361D31D4645EA0C4CACFB0B23C8EB070742
S35100013AB09F424FF0000549D345D062462B4663E79440C2F1200321FA03FC260C20FA03F301FA02F5BCFBF6F843EA05010B0C06FB18CCA7B243EA0C4C07FB08F3634500FA02F509D91CEB040C08F1FF32A7
S35100013AFC3AD2634538D9A8F10208A444C3EB0C0CBCFBF6F389B206FB13CC41EA0C4107FB03F28A4207D9091903F1FF3022D28A4220D9023B2144891A43EA084349E73A460CE733461FE70A466BE7B0401C
S35100013B489042B6D20CF1FF32002319E73346324616E799458FD9ACF1020C23448CE7B8459BD9023D274499E70346DEE79046C7E7023821443AE700BF13B5074B01901A7832B158689C6801A90122A04782
S35100013B94012001E04FF0FF3002B010BD1C08FF1FF0B5154D1F462B7885B00E462C46FBB9012A2A7003D0062A18BF042019D1606001A832F0C1FC3A466068019601A932F02BFC6368DA7842F00802DA7085
S35100013BE0DA7842F00402DA70054BA360054BE360002000E0012005B0F0BD00BF1C08FF1F5D660400736604000FB42DE9F04FB34B1B7897B0002B73D0002621AB0C939A46089634463546209991F900000B
S35100013C2C002865D0252841D12099002791F901202B2A0B4602D147F0020704E005DD2D2A0DD147F001070131F0E7202A02D147F00407F8E7232A07D147F01007F3E7302A02D147F00807EEE70020D046F9
S35100013C78049093F90120A2F13000092803F1010106D804980A2303FB0022303A0492E2E22A2A34D1D8F80020049208F10408DAE2059B632B40F0788298F9000008F1040AFFF762FF013619E05E46FB0687
S35100013CC400F1B9810998A0F16F03012B40F2CA810599622900F0C681752900F0C381C246002D40F03F82B046FB07464600F14A82209B0133209394E73046B4E24FF0FF30B1E22E2A16D14FF0000B0B4698
S35100013D10D94693F90120A2F13001092905D80A2101FB0929A9F130099BE22A2A08D1D8F8009008F1040894E24FF0000B4FF0060993F90120682A02D06C2A0BD015E093F90220682A02D047F0400709E088
S35100013D5C023347F020070AE093F902206C2A03D047F08007013302E0023347F48077581C5B78209059B264290993059119D0692917D003F0DF035BB2462B00F0AA80582B00F0A780099AA2F16F03012B47
S35100013DA840F2A180622900F0558175297FF478AF0122029284E7F90508D508F1070828F0070303F10808D3E900AB06E0D8F8003008F104089A464FEAE37B00238DF834305AEA0B0304D130238DF8353088
S35100013DF401242BE0CDE902AB4FF001090A220023DDE90201FFF7C8FB0A23A0FB034503FB0155DDE90223141B63EB0505002C75F1000305DA30220023121B63EB050301E014F130020DAB4C4609F8032007
S35100013E4050EA010209F1010902D0CDE90201D7E70DADBAF1000F7BF10003254403DA01344FF02D0A0BE0BA0703D501344FF02B0A05E017F0040A1CBF01344FF0200A3B0714D5BAF1000F03D05046FFF7ED
S35100013E8C79FE0136B146A31B04984B44834205DA3020FFF76FFE09F10109F4E70446D6E1F80717D4B146A31B04994B448B4205DA2020FFF75FFE09F10109F4E7BAF1000F00F0C5815046FFF755FE09F16C
S35100013ED80109BEE11C08FF1FBAF1000F03D05046FFF74AFE0136059A582A05D0782A40F0B4800023029301E001200290F90508D508F1070828F0070303F10808D3E9002304E0D8F80020002308F10408E8
S35100013F2400218DF8341052EA030105D130238DF835304FF001092CE00124100940EA03710691180901010790069841EA107006990B9009010A91DDE90A01121A63EB0103002B08BF0A2A01D2303206E0D3
S35100013F70029909B9612000E041200A3A12180DABA146E254DDE90623134304F1010402D0DDE90623D3E70DAD17F008034D4407F0100A1ED0BAF1000F0CD03020FFF7E8FD029800280CBF78205820FFF732
S35100013FBCE1FD02364FF0010A049CB346C6EB090304995B448B42BFF675AE3020FFF7D2FD0BF1010BF2E7FA0724D4BAF1000F02D009F1020400E04C46B146A31B049A4B44934205DA2020FFF7BDFD09F1AE
S351000140080109F4E7BAF1000F11D03020FFF7B4FD029B002B0CBF78205820FFF7ADFD09F102064FF0010A48E64C469A4645E64E4643E6BAF1000F7FF443AE3020FFF79CFD029800280CBF78205820FFF747
S3510001405495FD0236023435E60121029132E6012302932FE6F80508D508F1070828F0070303F1080AD3E9004504E0D8F8004008F1040A0025099A53B26F2B11D005DC622B089B08BF022308930CE0702BF6
S351000140A005D00898752B08BF0A20089004E01021089101E00822089200238DF8343054EA050304D130238DF8353001242CE04FF0010B08980021C0B2804689462046294642464B46FFF776FAA0FB08231A
S351000140EC08FB0133A41A65EB0305002D08BF0A2C01D2303406E0029A0AB1412200E061220A3CA4180DAB0BF8034050EA01035C460BF1010B02D004460D46D4E70DAD39072544B0460CD5A31B04984344A3
S35100014138834205DA3020FFF71FFD08F10108F4E704460CE0FA070AD4A31B049943448B4205DA2020FFF710FD08F10108F4E74646AB46A94606EB0B08C9EB08084D4619F8010900283FF4B6AD40B2FFF706
S35100014184FDFCF1E7C8EB0403049A33449342BFF6AFAD2020FFF7F2FC0136F3E70598732853D108F1040AD8F80080B8F1000F3FF49FADBBF1000F01D04C4603E040463CF03CF9044617F001070DD13346AB
S351000141D0A21B04991A448A4206DA20200193FFF7CFFC019B0133F3E71E46BBF1000F01D1B34611E0B346C6EB080313F80B0010B9C4EB090413E0002CFADD40B2FFF7B8FC0BF1010B013CEEE7C6EB080366
S3510001421C13F80B0028B140B2FFF7ACFC0BF1010BF4E75E46002F3FF45FADCBEB0403049A33449342BFF658AD2020FFF79BFC0136F3E70598FFF796FC0136C2464CE54E4647E60B460BE501334FF0010B86
S3510001426853E517B0BDE8F04F04B0704738B5144651B10138012807D8054B187820B158689D68A847204638BD4FF0FF3038BD00BF1C08FF1F38B5144638B9054B187820B1DD685868A847204638BD4FF090
S351000142B4FF3038BD1C08FF1F094B1A680AB9094A1A601B68084A1844904205D9074B0C221A604FF0FF307047014A1060184670472C08FF1F80F7002080FB00200C91FF1FEFF305835BB1EFF311834FF0B1
S35100014300200282F31188BFF36F8FBFF34F8F0370704718F0CDBBEFF3058313B180F31188704718F0D5BB10B5044640B1042018F077FF2060D0F1010038BF002010BD012010BD08B518B119F075F90020E4
S3510001434C08BD012008BDF8B50C46A8B14568ADB1CF0901F00F0647EA46060C2707FB06061036377967B90127377124064CBFAC68EC680068A047F8BD0320F8BD0620F8BD0220F8BD08B528B143682BB146
S351000143985B690068984708BD032008BD062008BD37B5054600240DF10700FFF79FFF9DF807002C6085F86D40FFF7A9FF204603B030BD30B5044685B000294AD0002848D08368002B47D00B7A102B03F07E
S351000143E40F021FD1012380F86F300E210022FFF7CDFF022384F86E30002384F86C30082523460022013DDA601A611A7503F10C03F7D1A368204601212A46984784F86F50284623E0032A20D8DB0943EAF4
S3510001443042030C2000FB0340C268C2B10A6801924A6802924A7A8DF80C2022B10022227584F8202000E002750C2202FB03432046DD681A6901A9A84702E0032000E0012005B030BD00210A46FFF78ABFFE
S3510001447C01210022FFF786BF10B5044658B1436823B15B6800689847002363602046FFF785FF002010BD032010BD00002DE9F341064688461746002A45D0254D0DF10700FFF71AFF2C689DF807003CB187
S351000144C895F86D30B34212D1FFF721FF012435E085F86D60FFF71BFFC5F8088085F86D6085F86C4085F86F402B46082103E0FFF70EFF022422E000200139D8601861187503F10C03F7D1012E0DD80E499B
S351000145140E4B6B6030460A4600F0A8FB064648B10948FFF7ADFF34460AE00748FFF73AFF062405E0022385F86E303D6000E00324204602B0BDE8F0813008FF1F5421050001F00F0141F08001FFF7F9BE6C
S3510001456001F00F01FFF7F5BEF0B50B46C0B1C9B1C2B18D7805F00F04032C13D8ED0945EA44040C2101FB0401166852680A6100220A75CE601A460221BDE8F040FFF7F8BE0320F0BD0420F0BD73B50D46B6
S351000145AC8DF80710064698B101F00F040DF107020321FFF7E7FE032C0CD8ED0945EA44040C2505FB04640023E3602361237502E0032000E0042002B070BD07B58DF8071001F00F01032905D804210DF179
S351000145F80702FFF7C9FE00E0042003B05DF804FB07B58DF8071001F00F01032905D805210DF10702FFF7B8FE00E0042003B05DF804FBDAB1023906291AD8DFE801F004061012080B14000F210EE0102118
S351000146440CE090F86E3001E090F86C30137000207047062102E0072100E00921FFF796BE042070470120704703390B2926D8DFE801F0062525080B252520221C251E11211AE0DAB1137808E090F86E30B6
S35100014690032B08D0A2B1137880F86C30032380F86E3000207047082100F16C0206E00A2104E00B2102E00C2100E00D21FFF768BE0120704730B58368FF2283F88820836893F8942042F0020283F894206F
S351000146DC8368002283F89820416821F4FF71540121F00101214341F0080500230B602B6041F0100541F018012B600B60510141F0100104440144E362CB6202F1300481680132042A01F82430DED182688A
S3510001472880F8A03092F8941001F0FD0182F894108268FF2182F88C108268892182F8841080F8A130836893F8942002F0DF0283F8942030BD2DE9F341054642EA410405EB04140DF107000E4698461746F5
S35100014774FFF7BEFD94F82D3043F0400384F82D306868089A20F4FF7007F0010720F0010040EA071006F00F06DBB240EA4610C3F3001340EAC303C2F30902C3F8048094F82D30C3F30016C3F3C0039B0129
S351000147C040EAC60043F0880343EA024202609DF80700FFF7A0FDAB6893F89420002002F0DF0283F8942002B0BDE8F08137B590F82D50C5F30013002100EBC30345F020050C33082461F3C3050362816203
S3510001480C446280F82D500A460094FFF7A1FF03B030BD70B501F00F03C90941EA43052D01044628440E0190F82D2002F0FB026FF3C30280F82D20626822F4FF7246EA431622F001023243283016687607DD
S3510001485806D58088C0F30900000440F00800106042F008021068400707D52544A88DC0F30900000440F008001060A26802EB830292F8C00000F0FD0082F8C0001BB911B92046FFF7A7FFA36893F894200E
S351000148A402F0DF0283F89420002070BDC0B18368FF2283F88020826892F88430002382F88430826882F89830826882F89430826892F8001141F0C00182F8001118467047032070472DE9F34101F00F05CD
S351000148F04FEA450C4CF0010C4FEA0C160446304490F82D70C7F3801747B9026290F82D20876242F02002436280F82D20A219978DC7F30907BB4238BF1F4694F8A1306BB904EB0C132046D3F820E0936A74
S3510001493C0097294601227344FFF70AFF804601E04FF001082644B36A23B91FB915B92046FFF746FF404602B0BDE8F081F7B501F00F0104464E004BB941B990F82D3061F3861380F82D30FFF733FF35E03B
S351000149883601A01990F82D50C5F3801515B9856202624362264406F1280096F82D5045F0200586F82D50B58DC5F30905AB4238BF1D46B36A1344E26982B194F8A0606EB9402D0BD845EA0307BF0707D0D9
S351000149D4437966F345134371012384F8A030134694F8A12022B900952046FFF7B5FE00E0012003B0F0BD1FB5CB0901F00F0243EA420200EB021328335C79640613D500EB02128DF80C10126A019200210C
S35100014A204FF0FF348DF80D1002945A7961F386125A71006801A9FFF7C8FC002004B010BD70B5044601F00F05CB0943EA4506FFF7D4FF3035A268002002F8250004EB0614A38D60F30903A38570BDF8B5D1
S35100014A6C0446002800F0F9800F2900F2F880DFE811F010002900390087008E00BB00C200C700D800F600F600F600F600F600DE00F0008368002283F8002183681A7F510703D51A7F42F080021A77A3682D
S35100014AB893F8082142F0100283F80821A36893F8942042F001028EE083681A7F520703D51A7F02F07F021A77A36893F8082102F0EF0283F808218BE0002A00F0BA809578D178178805F00F0001294FEA6F
S35100014B04D51545EA400306B205D140F2FF318F4228BF0F460BE0A16801EB8601402F28BF402791F8C0C04CF0010C81F8C0C004EB0313012D93F82D106FF3861183F82D10998D67F3090199854FEA1121D7
S35100014B5001F0F7016FF3820183F82D10127962F3C71183F82D10A36803EB860314BF0821042193F8C0200A4383F8C020002843D1002D73D12046FFF731FE3DE0002A6CD01178BDE8F840FFF753BF002A13
S35100014B9C65D0117801F00F06CD0945EA4607FFF726FF04EB071328335A7942F004025A7161689B88C2F3001021F4FF7222F0010242EAC00242EA4616C3F3090346EA05151B0443F08C032B60A36893F88B
S35100014BE8942002F0DF0283F8942009E0002A38D01178BDE8F840FFF70EBE012092B310800020F8BD6AB3117801F00F03032B28D8C90941EA430300EB031494F82D30C3F380035380ECE7E2B183681278CA
S35100014C3483F89820E6E70025EEB246F080012046FFF7FCFE013520463146FFF7F7FE042DF2D12046FFF734FDD4E722B100201070F8BD0320F8BD0120F8BD0000F8B50E461746054620BB134C134B84F88E
S35100014C80A20004F1A402E261FF22A360012183F8802020462A46FFF7E8FE0D4BA0686360C3F3072280F89C20C3F307421B0E80F8B02080F8B4302046FFF704FD3C6028462660F8BD0620F8BD000CFF1FA5
S35100014CCC00200740000AFF1F2DE9F04F87B0002800F05B810468A36893F88070FFB23A0740F12481082593F8902083F880506368D2B223F4FF73110923F00103C2F3C00043EA41165FFA80FCC2F380020B
S35100014D1846EA001040EAC2004CEA41050368D0F80480280104EB000999F82D9019F0400F00F0FE80C3F3830EBEF10D09D9F1000E5EEB090EBEF1000F01D084F8A320C3F30942BCF1000F5ED004EB0008C0
S35100014D6408F12806D8F828301344C8F8283096F80590C9F3C00A8AF0010A6AF3C30904EB05155FFA89F9D5F82480C9F3001A8AF0010A6AF30419B8EB030386F8059004D0B688C6F30906964230D92044E2
S35100014DB000F12806836A04932B6A039373796FF386137371002A00F0A680B388C3F30903B2FBF3F003FB1023002B40F09C8069B994F8A33004EBC3035A8A6B6A9A4240F292800091204601220B4606E042
S35100014DFC7279D20900F08980009320460122FFF7A7FC93E0204641F080012A6AFFF766FD8CE019B912B90491039176E004EB000A9AF82D90C9F34013CBB9C9F3001946EAC90604EB05197668D9F820B0B5
S35100014E48DAF82890D944B14503D1002384F8A03007E09342F9D013F806A009F803A00133F7E72618B36A1344B36204EB0516D6F8249079B9BEF1000F0CD094F82D0040F0080084F82D0094F83D0040F099
S35100014E94080084F83D000AE0204490F82DA0CAF3C00B8BF0010B6BF3C30A80F82DA02D0104EB050A0AF1280A9AF80500C0F3001B8BF0010B6BF304108AF80500706A40B1B9EB030305D0BAF80400C0F3F7
S35100014EE00900904212D963199B6A0493BEF1000F02D0CDF80C8001E0336A0393254495F82D306FF3861385F82D3004E02046326AFFF72AFD10E041EACC118DF814108DF815E0206803A9FFF750FAA368E7
S35100014F2C93F8942002F0DF0283F89420FD0711D5A268012384F8A13082F880300023102203938DF814208DF815302068049303A9FFF735FA380618D5A36893F88020110603D5802283F88020F6E794F88E
S35100014F783D305A0703D494F82D305B0707D580212046FFF748FC20460021FFF744FC07B0BDE8F08F054B4CF22052DA814DF62812DA814FF4E9721A80704700BF002005404F4A137813F0C00F6DD15379FB
S35100014FC458065DD41378590729D44B4B51781B784A4813F0010318BF4FF4004011F0300F11460FD073B9117801F03801302911D0382902D14FF4C0630EE013782022C3F3C20303E00B780122C3F3C203DB
S3510001501002FA03F39BB201E04FF4A063B0FBF3F301E04FF40043344AD27802F0E002602A1ED008D8202A15D0402A16D0002A50D14FF420721CE0A02A15D004D8802A48D14FF4377214E0C02A10D0E02A5E
S3510001505C41D140F671320DE04FF4A0620AE04FF4F06207E04FF4206204E04FF4B76201E040F6950253432EE011791E4B01F01F010131B3FBF1F1537903F01F0318334B4321E0137803F0C003402B0CD11D
S351000150A85378DB0717D5137A0122C3F3420302FA03F3124AB2FBF3F30FE0137803F0C003802B14D10B4B1B7813F0010F0A4B18BF4FF4004301E04FF4004341F2440208498A58120F0132B3FBF2F3064AD8
S351000150F4136070470040064070DF002080F0FA0200093D00007004404003FF1F022808B506D1044800F05EFE003018BF012008BD042008BDE40CFF1F022808B506D1044800F0D4FD003018BF012008BD91
S35100015140042008BDE40CFF1F022816D1032914D8DFE801F01102070C7AB1094BD3F8A83008E052B1064BD3F8AC3003E02AB1044B93F895301360002070470420704700BFE40CFF1F023818BF01207047E1
S3510001518C022810B512D10A4C0A4B236000202FF059FB6060204600F05BFA40B1204600F089FD20460021B4223AF0A1FF012010BDE40CFF1F00100B4020B10128024818BF0020704701487047980DFF1FD2
S351000151D89C0DFF1F10B5FFF7F1FF044650B100210322012017F076FF20602068003018BF012010BD10BD10B50C46FFF7DFFF7CB178B1631C1DBF4FF47A735C43B4FBF3F12146006818F0FCF8003018BF4A
S35100015224012010BD204610BD07B5FFF7C9FF0023019308B9002010E0006801A918F047F80028F7D0019B3BB1054B4FF080521A60BFF34F8FBFF36F8F012003B05DF804FB04ED00E008B5FFF7ABFF20B102
S351000152700068BDE8084018F0DDB908BD044B1B6913F0400F034B14BF002201221A60704700F10F40E80DFF1F044B0AB9012200E0002200201A70FFF7C1BF00BF4403FF1F07B5082300910A4A0A4931F069
S351000152BC51F808B1012009E04FF47A71FFF799FF0028F7D0054B187880F0010003B05DF804FB00BFC80DFF1FA00DFF1F4403FF1F08B5FFF7C5FF034B1868D0F1010038BF002008BDE80DFF1F30B587B09C
S3510001530804461422002101A83AF0F3FE022300256372A3728023E36023612068257204F1080130F057FE094B05932068084901AA2B4630F0C9FF2846FFF74CFF18B1054BA362284600E0012007B030BD14
S3510001535499520100A00DFF1FB152010008B5006830F022FE0020BDE80840FFF77BBF0000F8B505460F461646AB6A2868394698470128044604D07B68DA680F4B13406BB195F8B030023B012B08D8286882
S351000153A01321402200F079FE48B140F2297404E0002C40F2097318BF1C462EB1013E1CB140F229739C42D9D12046F8BD0800F9FF30B58BB002AC05460021204620223AF08CFE0D2302936B6B1B040393BC
S351000153EC01238DF811300C4B09930AA9002341F8283D2846694602220194FFF7B5FF38B9059AD305F1D5C2F34322072AEDD001E040F209700BB030BD0800F9FF30B58BB002AC05460021204620220091C0
S351000154383AF05FFE0C23029303238DF8103002238DF811302846074B0993694601220194FFF78CFF40F20973002814BF184600200BB030BD0800F9FF2DE9F04790B0002508AF04468846914629462022E4
S35100015484384603AE9A46019502953AF034FE2946142230463AF02FFE06234FEA890208934FEAC8780F23934068F07F4828EA03080AFA02FA012348EA0A0209928DF82930402205932068189BA16A0492D8
S351000154D0069300F087FD80B910A9029741F83C6DA36A2068984758B90B9A084B134040F20972AB4218BF104604E040F20A7001E040F2097010B0BDE8F08700BF0800F9FF2DE9F04397B006AF04460E46DE
S3510001551C15460021402238463AF0E9FD03A800210C223AF0E4FDA36B002B00F08B80B4F88430590540F1868000972046002132462B46FFF78FFF10B140F209707CE0637A012B11D01FD3022B74D1069B60
S351000155681BBA0693079B1BBA0793089B1BBA0893099B1BBA09930A9B1BBA0DE0069B5BBA0693079B5BBA0793089B5BBA0893099B5BBA09930A9B5BBA0A93069BADF81630079BADF812301A0C089BADF8C0
S351000155B41420ADF80E301A0C099BADF8102016A91A0CADF80C2001EB46020A9832F84C2C2A41D20737D51B029BB24FEA860943EA106828FA09F808F00F08A8452BD100972046012132462B46FFF738FF49
S351000156000028A7D1637A012B08D00DD3022B1FD1099B1BBA09930A9B1BBA04E0099B5BBA09930A9B5BBA0A93099B9DF82B20180280B2104320FA09F000F00F0040F21673404514BF1846002004E040F2DE
S3510001564C0C7001E04FF4E16017B0BDE8F08300002DE9F04190F82C3092B004463BB9FFF74BFE002840F0F582012384F82C302068836A23F006038362FFF732FE0546002840F00D83642000F021FCA44A48
S3510001569894E8030030F006FD64212063206830F04DFDE5632068A16A00F080FC064610B140F21375F5E2206804F114010AAD30F0D9FC28463146202205963AF012FD08230A934FF4D5730B9309238DF863
S351000156E4313006950A2705AEA36A20683146984740F2097330B99DF83430AA2B40F20C7308BF0023013F02D0002BECD100E02BB9E36B854F43F00803E36307E02068A16A00F046FC0028C5D14FF4401740
S35100015730002128462022059106913AF0DEFC29230A9304230B978DF8313040F2E9374FF00108013F23D02068A16A002200F000FC0028F6D105900695A36A206831469847002840F076820D9B002B0DDA0A
S3510001577C5A0003D5E26B42F00202E263DF0103D5E26B42F02002E263A36606E04FF00508D9E7B8F1000F40F05E82E36B980608D52068A16A00F03EFC002840F05782032300E00123002184F8B3302022DC
S351000157C82846059103273AF094FC02230A938DF831700695A36A206831469847804600283DD10DA9102204F140003AF05EFC109B84F870301A0E84F86C20C3F30F220F9BA4F86E201A0E84F87120C3F3FE
S35100015814074284F87220C3F3072284F873200E9A84F87430130E84F875300D9BCDF81480120242EA1362C3F30B23A267A4F87C304146202228463AF056FC08238DF8313031460A970695A36A206898471C
S351000158600146E0B902E040F20D751EE2BDF8363063630590202228463AF03FFC09230A93636B8DF831701B040B930695A36A2068314698470746002840F0E18002E040F20E7502E20DA9102204F1500046
S351000158AC3AF001FC109B84F88330C3F3074284F88120C3F3072284F882200F9A980FC2F3034E130D110484F88000A4F8843084F886E005D5B4F8883043F00103A4F88830530405D5B4F8883043F0010341
S351000158F8A4F88830910405D5B4F8883043F00403A4F88830D30405D5B4F8883043F00803A4F888300E9B38B1012835D04BE000BF801A060000003040990FC2F3090241EA8202C3F3C26184F89010C3F385
S35100015944026184F8911003F46001090D84F89210C3F38241C3F3C23084F89310012101FA0EF1C4F88C2084F89400013202308240B1F5007FC4F8A820C4F8AC101DD04FF400704A43C4F8AC00520A14E003
S351000159904FF40071C4F8AC1002F03F02190C41EA02424FF6FE718A42C4F88C2003D9E16B41F01001E16301329202C4F8A820580405D5B4F8882042F01002A4F88820C3F3C61203F07F0384F896300D9BF1
S351000159DC84F89520C3F3826284F897209902C3F3835284F8982005D5B4F8882042F04002A4F888201A0405D5B4F8882042F08002A4F88820580405D5B4F8882042F48072A4F88820990405D5B4F8882035
S35100015A2842F40072A4F88820DA0405D5B4F8882042F48062A4F88820C3F3812384F899302068A16A626B012300F058FA8046002840F0098102E040F20F7522E1414620222846019702973AF044FB4146D7
S35100015A74142230463AF03FFB2068A16A626B0397049700F06BFA002840F0F28033230A930B970123082203AF8DF8313007930295069208970196A36A206801A998470546002840F0DD807E4B0D9A1340C0
S35100015AC0002B40F0D780637A012B09D00ED3022B40F0D080039B1BBA0393049B1BBA04E0039B5BBA0393049B5BBA0493082204F1600039463AF0DDFA039B1A0F84F89C201E02C3F3036284F89D2005D530
S35100015B0CB4F89E1041F00101A4F89E10C3F3025184F8A0101804C3F3034184F8A11005D5B4F89E0040F00200A4F89E0003F4F040800ADBB284F8A20003F0030084F8A300012A0498C4F8A40005D002D325
S35100015B58022A04D00BE0012208E0022206E00422A263B4F89E20920701D50822A2634F0703D5E26B42F00402E263DE0703D5E26B42F08002E263980703D5E36B43F04003E36394E80300464A30F084FA9E
S35100015BA4636A2063D9062DD5E36B5A072AD50AAE002120223046059506953AF09CFA2068A16A626B00F0CAF9002854D106230A9312A901238DF8313002230B93069641F8345DA36A20689847002844D184
S35100015BF0304B0D9A1340002B3FD123689A6A22F0060242F002029A62022194F8B1202046FFF77EFC032194F8B2202046FFF778FC2068A16A4FF4007200F0DCF9054638BB94F8B330032B26D0636A9B02E7
S35100015C3C26D5204629460122FFF764FC00BB012384F8B03094E80300194A30F029FA206316E0054623E040F2147520E040F225751DE04FF4E2651AE040F2117517E040F2127514E040F20A7511E040F26D
S35100015C881B750EE094F8B030023B012B09D820681321402200F0FDF940F22975002808BF0025284612B0BDE8F08100BF0800F9FF40787D0180F0FA0210B504460023A16A626B006800F01AF92046FFF735
S35100015CD445FB002384F82C3010BD00002DE9F04F17461C469A18D0F8A8309A4293B005468B4669D80026002C64D02B6A9C4288BFC3EB04080DF1280A88BF1C464FF0000319464FF02002504698BF4FF092
S35100015D2000080393049301933AF0E7F9019B0DF114091946484614223AF0DFF9D5F8AC30B3F5007F37D3EB69B3F5007F33D32846FFF73EFB002831D14FF40073012CEA6B06930BEB4623089314BF12238C
S35100015D6C11230A93920706EB070312A90B935CBF5B020B930122144B41F83C9D284607948DF831201193CDF810A0FFF7EDFAC0B9079B012B0FD99DF8143063B92846FFF73DFB40B140F217700BE040F220
S35100015DB80C7008E04FF4E36005E02644444698E7204600E0042013B0BDE8F08F0800F9FF2DE9F04F17461C469A18D0F8A8309A4293B005468B466DD80026002C68D02B6A9C4288BFC3EB04080DF1280AF1
S35100015E0488BF1C464FF0000319464FF02002504698BF4FF000080393049301933AF06BF9019B0DF114091946484614223AF063F9D5F8AC30B3F5007F3BD3EB69B3F5007F37D32A68536AD901FCD52846F2
S35100015E50FFF7BEFA002831D14FF40073012CEA6B06930BEB4623099314BF192318230A93920706EB070312A90B935CBF5B020B930122144B41F83C9D284607948DF831201193CDF810A0FFF76DFAC0B90F
S35100015E9C079B012B0FD99DF8143063B92846FFF7BDFA40B140F217700BE040F20C7008E04FF4E36005E02644444694E7204600E0042013B0BDE8F08F0800F9FF82B000230093009B83420DD200230193B9
S35100015EE8019A42F20F739A4203D800BF019B0133F5E7009B0133EDE702B070472DE9F0418AB002AC06460D461746002120462022984600913AF0EDF807230293B8F1000F04D03F04012303978DF8113064
S35100015F34304669460194A84740B9059A064B134040F20972002B18BF104601E040F209700AB0BDE8F08100BF0800F9FFF0B58BB002AC064617460D4620460021202200913AF0C1F8372302933F040123F8
S35100015F803046694603978DF811300194A84750B9059A074B134033B912F0200F40F20C7018BF002001E040F209700BB0F0BD00BF0800F9FF70B58AB002AC06460D4620220021204600913AF098F83046CD
S35100015FCC69460194A84740F20973002814BF184600200AB070BD0000F0B58BB002AC074616460D4620460021202200913AF07FF81023029338460123694603968DF811300194A84740B9059A054B134085
S3510001601840F20972002B18BF104601E040F209700BB0F0BD0800F9FF70B58AB002AD04460E4628460021202200913AF05AF80B23029320460123694601958DF81130B0470546C8B9E36A23F00803E362E7
S35100016064636A13F0706F02D040F22A7510E06420FFF730FFE36A43F00803E3620A20FFF729FF636A13F0706FEED001E040F2097528460AB070BD08B50120FFF71BFF002008BD10B50023934203D0CC5C08
S351000160B0C4540133F9E710BD10B50C468107034604D019462046FFF7EEFF2346184610BD2DE9F04399B0804616461C46209DB1B1ABB1A2B10846402208A9FFF7E5FF14F0030781460DD12246484631466D
S351000160FCC04727B1204669462A46FFF7CEFF002009E0042007E02A4668462146FFF7C5FF01276A46EAE719B0BDE8F0832DE9F0410A2AC4B0884615461C4604D00C2A14BF3C26342600E02C266946102227
S35100016148FFF7B6FF3246074608A94046FFF7B0FF9DF8282114F0030601461ABF012604AB234638461AB12A46FAF77EFD02E02A46FAF712FE26B1204604A91022FFF78FFF002044B0BDE8F08130B522F035
S3510001619404050A2D9DF80C4001D00C2A07D130B12BB121B10394BDE83040FFF7BBBF042030BDF0B587B00D46144602A908221F46FFF778FF0822064669462846FFF772FF14F0030501461ABF012504AAD2
S351000161E02246304617B1FAF79BFE01E0FAF7B8FE25B1204604A90822FFF755FF002007B0F0BD2DE9F04198B0064617460846402208A91C46FFF750FF14F0030580460AD1224640463946B0476DB12046FE
S3510001622C69461022FFF739FF07E0102268462146FFF733FF01256A46EDE7002018B0BDE8F08170B521F00803102BC4B006460D46144601D0202928D13EB334B300212022684639F044FF0021F02208A8DE
S3510001627839F03FFF202230466946FFF719FF14F003061ABF012608AA2246E900FAF72CFA5EB1102D04D0182D14BF3C22342200E02C22204608A9FFF7FAFE002000E0042044B070BD13B501240094FFF7F5
S351000162C465FF02B010BD13B500240094FFF75EFF02B010BD10B530B129B122B10123BDE81040FFF766BF042010BD10B530B129B122B10023BDE81040FFF75BBF042010BD10B513460C46014638B132B1EB
S351000163102CB122460348BDE81040FFF772BF042010BD00BFC10F010037B5134605460C4614220092294622460248FFF7C9FE03B030BD00BF2116010037B5134605460C4620220092294622460248FFF721
S3510001635CB9FE03B030BD00BF6122010070B50023041DCA5C064E550822F00102755D2A43E2540133082BF4D101230360002070BD6C21050070B50246041D0023C85C064E450820F00100755D2843E05400
S351000163A80133082BF4D10020106070BD6C210500F0B5021D0023CD5C0D4C6E0825F00105A65D3543D5540133102B2746F3D1CC1814F8104C660824F00105BE5D3543D5540133182BF3D101230360002077
S351000163F4F0BD00BF6C210500F0B5024600230430CD5C0D4C6E0825F00105A65D3543C5540133102B2746F3D1CC1814F8104C660824F00105BE5D3543C5540133182BF3D100201060F0BD00BF6C21050084
S3510001644070B50023041DCA5C064E550822F00102755D2A43E2540133182BF4D101230360002070BD6C21050070B50246041D0023C85C064E450820F00100755D2843E0540133182BF4D10020106070BDAC
S3510001648C6C21050008B503460846191D1B68012B02D1FFF71BFF01E0FFF723FF002008BDF8B503461D46084655F80C1B0129144603F1040603F114070DD13146FFF706FF294622462046FFF70CFF204691
S351000164D839462246FFF7FCFE0CE03946FFF703FF294622462046FFF7F3FE204631462246FFF7F9FE0020F8BD10B5C02A00F108040346446006D0B2F5807F05D0802A0CD10A2002E00C2000E00E201860DD
S351000165240846D1082246FFF790FE002010BD6FF01F0010BD10B5C02A00F108040346446006D0B2F5807F05D0802A0CD10A2002E00C2000E00E2018600846D1082246FFF774FE002010BD6FF01F0010BD7B
S3510001657010B504461346084622686168BDE81040FFF79CBE10B504461346084622686168BDE81040FFF799BE00F1080208460121FFF7B0BE00F1080208460121FFF7BCBE00F1080208460121FFF7C6BEB0
S351000165BC38B50846114614461D4633F0F7F910B12C60002038BD012038BD38B501FB00F4204616F0CFFB054618B10021224639F086FD284638BD00214FF48C7239F07FBD38B100F58C73984203D0002280
S3510001660802700130F9E7704710B50129144621461A4602D1FFF7A8FF01E0FFF7AFFF002010BD2DE9F04F1E46130785B007468B4644D10E9B03EB02080F9B154603EB0209002933D1C5EB080AC5EB09048D
S35100016654C5B151461022684639F029FD5246384600212346FFF7D2FF0022B15CA35C4B40A3540132102AF8D13046694639F017FD103DE1E700201DE0315D1A5D4A400AF804200134102CF7D159465246B1
S351000166A053463846FFF7B4FF30465146224639F000FD103DC5EB0803C5EB090A002DE3D00024E3E76FF0210005B0BDE8F08F2DE9F04708ADE0CD824698461C6806EB020911BB4E4522D024B95046294652
S351000166EC2A46FFF73FFF2A5D16F8013B5A4007F8012B2B55013404F00F04ECE724B9504629462A46FFF72EFF2B5D16F8012B534007F8013B2B55013404F00F044E45EDD1C8F800400020BDE8F0872DE92E
S35100016738F84F0B9DDDF828801468834692461F4605EB01094D451DD07CB9584639464246FFF70AFF07F1100616F8013C0133DBB206F8013D0BB9BE42F6D118F8042015F8013B53400C9A02F8013B0134CC
S351000167840C9204F00F04DFE7CAF800400020BDE8F88F036870B5CC1A002C02DC6FF05F0070BD1D782E0604D45C1C04601B78136032E005F07F05013D032D34D8DFE805F00208111D012CE9D05C781460F4
S351000167D0023322E0022CE3DD5D789C7844EA05241460033319E0032CDADD9C785D78240244EA0544DD782C43146004330DE0042CCEDD9C785D78240444EA05641D792C43DD7844EA052414600533036063
S3510001681C0368C91A13688B42BCD8002070BD6FF0630070BD70B504680E1B002E08DD26789E4208D101340460BDE87040FFF7A5BF6FF05F0070BD6FF0610070BD37B50123154601AA0446FFF7E5FF68B924
S35100016868019B012B08D1236813F8012B003218BF01222A60236001E06FF0630003B030BD37B50223154601AA0446FFF7CDFFB8B9019B042B12D8236893F90030002B0DDB28600198431E019350B12368B9
S351000168B42A6813F8011B41EA02222A602360F2E76FF0630003B030BD37B50223154601AA0446FFF7ABFF40B9019A2168284600F0FDFC2268019B1344236003B030BD70B5032304460E461546FFF798FF5B
S35100016900D0B92B689BB12268013B2B6012782A71072A0FD8226801322260AA6022681344B34223600CBF00206FF0650070BD6FF05F0070BD6FF0630070BD38B5032304461546FFF775FF80B92B685A1E90
S3510001694C012B2A6009D923685A1C22601B78002B14BF6FF06700002038BD6FF0670038BD2DE9F34115461F4601AA302304468846FFF758FF00282ED12668019B1E44464514D06FF0650026E02A461B785A
S3510001699842F8043B204631463B46FFF745FFE0B92368AB6022686B681344B342236003D32368B342EAD308E0094B01201B6810219847E86038B10546F2E70020E8602368B34202D0D7E76FF0690002B0F6
S351000169E4BDE8F0814C03FF1FF7B517461D4601AA302304460E46FFF719FF00283AD12368F61A002E34DD019E19783A461E4442F8041B204631460623FFF708FF50BB2368BB6021687A688B18B342236015
S35100016A3008BF05F10C0306D19D424FF000001BD028700135F8E7895C2A46013342F8041B204623603146FFF79EFE68B92368AB6023686A681344B34223600CBF00206FF0650001E06FF05F0003B0F0BD55
S35100016A7C7FB506460D46144600210C2201A839F036FB30462946224601ABFFF7A9FF60B9019B052B00D033B9029B002B0CBF00206FF0670001E06FF0670004B070BD03687F2AC1EB030107D8002929DD3D
S35100016AC8591E016003F8012C01207047FF2A0DD801291FDD591E016003F8012C03685A1E0260812203F8012C02207047022911DD591E016003F8012C0368120A591E016003F8012C03685A1E02608222FD
S35100016B1403F8012C032070476FF06B0070470368591A002905DD591E016003F8012C012070476FF06B007047F8B5054610460E46174600F0C5FB2968B142044602D26FF06B00F8BD8B1B8342F9D3091A3F
S35100016B6029603846224600F0F5FBF8B93B68012B0CD12B6893F90020002A07DA9A1B002AE7DD5A1E2A60013403F8010C284631462246FFF792FF002808DB0444314628460222FFF7BEFF0028A8BF00197F
S35100016BACF8BD00002DE9F043079F00252E462C46BC423ED24FF0000813F804C0BCF1200F04D10134BC4208F10108F5D3BC4230D0C4EB070CBCF1010F0BD913F804C0BCF10D0F06D103EB040C9CF801C0F2
S35100016BF8BCF10A0F1DD013F804C0BCF10A0F18D0B8F1000F63D1BCF13D0F02D10135022D5DD81CF0800F5AD1DFF8BC8018F80CC0BCF17F0F53D0BCF13F0F01D8002D4ED101360134BEE70EB9166045E022
S35100016C4406277E430736C5EBD60538B1A94205D300260146B446032735460AE015606FF02900BDE8F08313F80680B8F10D0F03D10136A642F7D127E0B8F10A0FF8D0B8F1200FF5D0DFF8549019F80880FD
S35100016C900135B8F1400F08BF013F08F03F08042D48EA8C1CE6D17FB14FEA1C45012F0D7001D1013108E0022F4FEA1C254D7016BF81F802C0023103310025D3E7091A11600020BDE8F0836FF02B00BDE85F
S35100016CDCF08300BFEC21050000232DE9F04115461C46844205F104054FEA840617D055F804CCC3EB0C0645F8046C51F82470BE422CBF4FF000084FF00108F61B9C452CBF434608F1010345F8046C013465
S35100016D28E1E7324443B11168C81A994242F8040B2CBF00230123F5E7BDE8F0812DE9F04186B08446019300230391029205938046B8F10F0F40F2CA8003980299059A019B50F8044B4FF000050E68E3FBDC
S35100016D740425B71845F1000241F8047B50F8044B4FF000050E68E3FB0425B71845F1000241F8047B50F8044B4FF000050E68E3FB0425B71845F1000241F8047B50F8044B4FF000050E68E3FB0425B7188F
S35100016DC045F1000241F8047B50F8044B4FF000050E68E3FB0425B71845F1000241F8047B50F8044B4FF000050E68E3FB0425B71845F1000241F8047B50F8044B4FF000050E68E3FB0425B71845F1000203
S35100016E0C41F8047B50F8044B4FF000050E68E3FB0425B71845F1000241F8047B50F8044B4FF000050E68E3FB0425B71845F1000241F8047B50F8044B4FF000050E68E3FB0425B71845F1000241F8047B36
S35100016E5850F8044B4FF000050E68E3FB0425B71845F1000241F8047B50F8044B4FF000050E68E3FB0425B71845F1000241F8047B50F8044B4FF000050E68E3FB0425B71845F1000241F8047B50F8044B0B
S35100016EA44FF000050E68E3FB0425B71845F1000241F8047B50F8044B4FF000050E68E3FB0425B71845F1000241F8047B50F8044B4FF000050E68E3FB0425B71845F1000241F8047B059202910390A8F197
S35100016EF0100831E70CF00F08B8F1070F69D903980299059A019B50F8044B4FF000050E68E3FB0425B71845F1000241F8047B50F8044B4FF000050E68E3FB0425B71845F1000241F8047B50F8044B4FF096
S35100016F3C00050E68E3FB0425B71845F1000241F8047B50F8044B4FF000050E68E3FB0425B71845F1000241F8047B50F8044B4FF000050E68E3FB0425B71845F1000241F8047B50F8044B4FF000050E6842
S35100016F88E3FB0425B71845F1000241F8047B50F8044B4FF000050E68E3FB0425B71845F1000241F8047B50F8044B4FF000050E68E3FB0425B71845F1000241F8047B059202910390A8F1080892E70CF0E7
S35100016FD4070CBCF1000F15D003980299059A019B50F8044B4FF000050E68E3FB0425B71845F1000241F8047B0592029103900CF1FF3CE6E7029B1968059A0A4443F8042B05998A422CBF002201220592C6
S35100017020002AF2D106B0BDE8F08120B101230360002343608360704710B5044690B1806858B16368024613F1FF3303D3002111600432F8E7044B1B6898470123236000236360A36010BD00BF5003FF1F67
S3510001706C42F21073994270B504460D461FD843688B421FD2104B08461B68042198470646A8B1A16881B16268920039F00CF8A0686368024613F1FF3303D3002111600432F8E7064B1B6898476560A66038
S351000170B802E06FF00F0070BD002070BD4C03FF1F5003FF1F42688A4270B504460D4603D8BDE87040FFF7C6BF531E02F18042013A92002BB1A1688958043A09B9013BF8E70133AB4228BF1D460F4B2846F3
S351000171041B68042198470646A8B1A16879B1AA0038F0CDFFA0686368024613F1FF3303D3002111600432F8E7054B1B6898476560A660002070BD6FF00F0070BD4C03FF1F5003FF1F8842F8B504460D4616
S3510001715023D08E6816B9FFF76FFF20E04B68591E06EB830621B156F8043D0BB90139F9E72B6823604F1C20463946FFF777FF064668B96268A0683146920038F0B6FFA068A968BA0038F08DFF01E000206E
