S0030000FC
S35100010000FFFB0020910D0300956904009569040095690400956904009569040000000000000000000000000000000000590401009569040000000000290501009569040095690400956904009569040051
S3510001004C956904009569040095690400956904009569040095690400956904009569040095690400956904009569040095690400956904009569040095690400956904009569040095690400956904003B
S3510001009895690400956904009569040095690400956904009569040095690400956904009569040095690400956904009569040095690400956904009569040095690400956904009569040095690400EF
S351000100E495690400956904009569040095690400956904009569040095690400956904009569040095690400956904009569040095690400956904009569040095690400956904009569040095690400A3
S351000101309569040095690400956904009569040095690400956904009569040095690400956904009569040095690400956904009569040095690400956904009569040095690400956904009569040056
S3510001017C956904009569040095690400956904009569040095690400956904009569040095690400956904009569040095690400956904009569040095690400956904009569040095690400956904000A
S351000101C895690400956904009569040095690400956904009569040095690400956904009569040095690400956904009569040095690400956904009569040095690400956904009569040095690400BE
S351000102149569040095690400956904009569040095690400956904009569040095690400956904009569040095690400956904009569040095690400956904009569040095690400956904009569040071
S351000102609569040095690400956904009569040095690400956904009569040095690400956904009569040095690400956904009569040095690400956904009569040095690400956904009569040025
S351000102AC95690400956904009569040095690400956904009569040095690400956904009569040095690400956904009569040095690400956904009569040095690400956904009569040095690400D9
S351000102F8956904009569040095690400956904009569040095690400956904009569040095690400956904009569040095690400956904009569040095690400956904009569040095690400956904008D
S351000103449569040095690400956904009569040095690400956904009569040095690400956904009569040095690400956904009569040095690400956904009569040095690400956904009569040040
S3510001039095690400956904009569040095690400956904009569040095690400956904009569040095690400956904009569040095690400956904009569040095690400956904009569040095690400F4
S339000103DC956904009569040095690400956904009569040095690400956904009569040095690400FFFFFFFFFFFFFFFFFFFFFFFFFEFFFFFFE5
S3510001042001DF704701DFFFF7FEBFDFF84003D0F8000072B6B0F8181051B9D0F82410D0F81C20D2F81C30994200F0028062B603DF62B6704702DF70474DF804ED72B61EF0040F0CBFEFF30881EFF3098196
S3510001046CD1F8181011F8021C032940F0048000F038F800F033B8012940F00880DFF8E002D0F800005DF804EB00F05BB8022940F02580DFF8CC02D0F80000D0F81C10D1F8082042F00102C1F808204DF8F3
S351000104B8041DD0F8401011F0010F1EBF4DF804ED23F064FB5DF804EB5DF8041BD1F80420D1F80030C2F80030C3F8042000F003F862B65DF804FB2DE90F40EFF31182A2F11002DFF87402D0F8041011F0BB
S35100010504805F00F0058090F822309A4280F0088080F82220DFF8582251EA0201C0F80410BDE80F8072B6EFF3098CDFF8481291F80220EFF311832CE9FC4FDFF82C02D0F80000D0F81C30C3F814C072B670
S35100010550D0F82410D1F800208A4240F01680D1F808105FEA01017FF4F5AF81F31188DFF80812DFF8082281F8022062B6AFF3038072B6D0F82010FFF7E5BFC0F82410C0F81C20B2F82430A0F81A30D2F883
S3510001059C14C0BCE8FC4F83F311888CF309884DF8041DD0F8401011F0010F1EBF4DF804ED23F046FB5DF804EB5DF8041B62B6704772B64DF804EDDFF89831D3F80030B3F8181001F10101A3F81810DFF853
S351000105E898014DF8040DEFF31182EFF30581D3F834002DE90700EFF30880C3F834004FEA0100D3F8401011F0010F00F006802DE90F0023F045FBBDE80F00D3F830200AB900F059B8904200F25680D3F833
S351000106342C20811AC0F25180D3F838204FEAD1014FEA810152F8011009B900F046B8D1F8002042B1824200F00880D1F8101011EA010F7FF4F4AF00F038B8D1F80C00D1F8042062B64DF8043D90475DF887
S35100010680043B72B6D3F8401011F0010F00F00880EFF305802DE90F0023F032FBBDE80F00BDE80700C3F834005DF8040BB3F81810491EA3F81810D3F81C20D2F8280010F4805F40F0098039B9D3F824101A
S351000106CCD1F80010914218BFFFF70BFF62B65DF804FBD3F82820FFF7C8BF72B62DE9F100DFF87C30D3F80030D3F834C00CF1100C5CF804EBDFF8800020F00100CCF818009CE8FF005DF804CBACF1040CFC
S351000107182CE9FF00BDE8F0008CF3088862B670472DE9024090F8001011F0800F03BF41F0800180F8001080EA00004FF08000BDE80280EFF309807047EFF308807047EFF3038070477046704778467047FA
S3510001076462B6704772B67047B80AFF1F00ED00E00000001020ED00E0FF000000000000007F060100002303E010F8012B9B189BB20A46491EC9B2002AF6D1D84380B27047002303E010F8012B9B189BB2CA
S351000107B00A46491E89B2002AF6D1D84380B27047B0FBF1FC01FB0CF1C2F800C0401A1860704700000028B8BFA0EB400070470000DFF81630426832B10268914208BF436801D00830F6E7184670472C4991
S351000107FC0500000070B506460D464FF0FF34716839B128463EF09CFB08B9346801E00836F5E72046BDE870407047000070B50646002500240EE030460A2141F029FB01FA04F080B2054330460A2141F0D6
S3510001084821FB241D86B2A4B2002EEED12846BDE870407047002304215A0093B29A0092B29B18C0F30F329BB29B1800019BB280B2491EF1DC18467047DFF8081051F820007047C0463049050008B501F095
S351000108940702DFF8301051F8221042F063F841F0ADF80B46002102460020C3F6E0713EF0B1FF41F0DBFD0028B8BF002080B2BDE80840704730490500DFF8041008607047800EFF1FDFF8043002201847F3
S351000108E075090100DFF80430012018477509010070B5DFF8405004462968496909B1884715E0012000F05AF888B12868006970B1012000F02FF8064603E02868006900B180473046214600F007F8002823
S3510001092CF5D0BDE870407047800EFF1F70B5064601200D46012400F017F8801BA84238BF00242046BDE870407047000038B5054602200C4600F008F8401BA0422CBF01200020BDE83840704738B50546CF
S35100010978002400F01FF8A8B125B1012D07D0022D0AD00FE0DFF826000068006808E0DFF81E000068406803E0DFF8120000688068804704462046BDE838407047C046800EFF1F0000002120B1012808D00F
S351000109C402280CD011E0DFF826000068006860B10AE0DFF81A000068406830B104E0DFF80E000068806800B1012108467047800EFF1F000010B58160C168044621F00F01C16008070017FFF7B3FF2060F9
S35100010A106060207C20F0010040F00100C0B240F002002074BDE810407047000010B58160C168044621F00F0141F00101C16008070017FFF797FF20606060207C20F0010040F00100C0B240F0020020747B
S35100010A5CBDE810407047000010B58160C168044621F00F0141F00201C16008070017FFF77BFF20606060207C20F0010040F00100C0B240F002002074BDE810407047000038B5017C05468A070024D20F29
S35100010AA818D0C907C90F05D0C06800070017FFF75DFF6860AA68B2F1FF3F08BF002409D069682868081A904221BF287C20F00100287401242046BDE83840704708B5017CC907C90F08BF002001D0FFF70A
S35100010AF4D3FFBDE80840704770B50546FFF7CCFF0446E8B1E8682E680007001704D0012807D002280AD00DE0A9682846FFF76AFF08E0A9682846FFF77FFF03E0A9682846FFF796FFA8683118286881420A
S35100010B4088BF29602046BDE87040704708B5C1680907091704D0012906D0022908D00AE08168FFF749FF06E08168FFF75FFF02E08168FFF777FFBDE80840704710B5017C04468A07D20F13D0C907C90F9B
S35100010B8C0ED08168B1F1FF3F08BF00200BD0C06800070017FFF7E8FE21686060401A02E0806800E00020BDE81040704738B5017C0546C9070024C90F15D0C06800070017FFF7D2FE297C68608907C90F2B
S35100010BD80BD0AA68B2F1FF3F08BF4FF0FF3404D02968401A904200D2141A2046BDE838407047000003680022994205D38068C91A401E814238BF01221046704710B5044600F008F8206800210170204626
S35100010C24BDE81040704700000160416082607047016800220A70016841607047436893F900207AB1816859188B420BD2A2F16101C9B219299CBFA2F1200119704168491C4160EBE770470000016841605E
S35100010C707047000041680068081A704781684A1E41680068081A101A7047000010B50C46FFF7F4FFA0422CBF01200020BDE81040704700004368016880680022091804E093F9000018B15B1C521C8B4247
S35100010CBCF8D31046704700000368806800211A1804E093F9000018B15B1C491C9342F8D308467047DFF804301847C0466DEE04000022836808E0016801EB020C895611B9C0F804C002E0521C9A42F4D36E
S35100010D0883689A4203D10168C918491E416070470368994204D382689A18914238BF41607047000010B5026804465118FFF7F0FF2046BDE81040704741680068081A7047D0F804C00268ACEB02038268DA
S35100010D54521E93423ABF0CF10102426000218CF800107047416800220A70704710B54FF0000C002284680CE003689B5623B98A4228BF4FF0010C06E0203BDBB25E2B02D8521CA242F0D36046BDE81040E2
S35100010DA07047000010B50DE044680368A4EB030C83685B1E9C4507D2631C436011F9013B2370521E002AEFD1BDE810407047000010B50446FFF7B8FF6068002101702046BDE81040704700000FE0D0F8E4
S35100010DEC04C00268ACEB02038268521E93420AD20CF10102426011F9012B8CF8002091F90020002AEBD1416800220A707047000070B5064640684FF0FF343EF0C5F9054630462946FFF7E4FE08B1306807
S35100010E382C1A2046BDE870407047000038B5054640683EF0B3F9044628462146FFF7D2FE00B900242046BDE8384070472DE9F8431446064620460D463DF0FCFF8046706800273DF0F7FF024600210020B0
S35100010E84736803EB0209336809EB080EAEEB030CB3689C4508D2002F07BF8EF80000012799F900308EF80030002A08BF012100D0521EAA4201D30029E2D0716830464919FFF728FF002505E014F9011B1A
S35100010ED03046FFF739FF6D1C4545F7D317B97068002101703046FFF701FF3046BDE8F8437047000010B5DFF8182004465156FFF723FF6068002101702046BDE81040704740490500F8B5DFF830600F465B
S35100010F1CC1F3071171560446FFF710FF07F00F0160680025057071562046FFF707FF606805702046BDE8F8407047C0464049050038B50C460546C1F30721FFF7DDFF2846E1B2FFF7D9FF2846BDE83840B1
S35100010F687047000038B50C46C1F30F410546C1F30721FFF7CBFF2846C4F30741FFF7C6FFA1B22846C1F30721FFF7C0FF2846E1B2FFF7BCFF2846BDE83840704710B504460846FFF73DFCC2B2DFF81810E8
S35100010FB420468956FFF7C6FE6068002101702046BDE810407047C0464049050010B504460846FFF727FC01462046C9B2FFF798FF2046BDE81040704738B50C4605462046FFF718FC01462846C1F3072123
S35100011000FFF788FF2046FFF70FFC01462846C9B2FFF780FF2846BDE838407047F8B50E4642F2107407463046214641F03DF805463846A9B2FFF7DAFF05FB04F1711A384689B2FFF7D3FF3846BDE8F8403A
S3510001104C704700003EB5054642F20F701446814205DD084642F2107140F012FF09B2042C88BF04240020009001942E2002902846621C302300F0B6F82846BDE83E40704778B583B0064642F20F70154608
S351000110981C46814205DD084642F2107140F0F2FE09B2042D88BF0425009501942E20029030462A46302300F097F8304603B0BDE878407047FEB500914568DFF852700646002400980A2100AA01ABFFF777
S351000110E46DFB019930467956FFF72CFE0098641C0028F0D17068002303700193621E09E0D01AE9562856E8540198101A29540198431C0193B3EB540FF2D33046BDE8FE40704740490500000038B505469B
S351000111300C46002906DA2D21FFF706FE686800210170644228462146FFF7C0FF2846BDE8384070472DE9FE434468814690461F460A9EFFF7B3FF48462146FFF7D5FD4846FFF798FD054646450ED3B04221
S3510001117C0CD94846A119FFF7C9FDD9F8040000210170484621463546FFF7C0FD002300A803E000F8017B5B1C6D1C4545F9D3002100AAD15413B14846FFF756FE48462146FFF7ACFD0B9A72B1AA420CD87D
S351000111C80AA890F9081000A8017000214170A91A484689B200AAFFF741FE4846FFF782FD4846BDE8FE437047FEB507460E4615461C46002906DA2D21FFF7A2FD786800210170764208983146009009988E
S351000112142A46019008A890F90800029038462346FFF796FF3846BDE8FE4070472DE9F84183B006460D461446082A88BF08244FF07C5800270CE0404640F0D8FB00230022C4F2240342F078FE3FF032FC33
S3510001126080467F1CA742F0D328460021002740F099FB2846414603D341F014FE054608E042F03CF8054630462D21FFF75DFD70680770284640F0FEFF8046FFF79BFA01463046FFF743FF54B330462E21B2
S351000112ACFFF74CFD706800270770404640F01EFC0146284642F01CF80AE040F09BFB0023C4F2240300223FF05DF83FF0F5FB7F1CA742F2D340F0D8FFFFF776FA0146009400200190202002903046224608
S351000112F83023FFF779FF304603B0BDE8F84170472DE9F84F82460026DDF828B00B980091914698460B900024012735462BB10AB1082A07D94FF0080904E00AB10A2A01D94FF00A095046FFF79DFC01289B
S351000113444AD3DAF8040090F90000002844D05EB9B8F1000F08D1BBF1000F05D02D2804BF4FF0FF3701262DD0A0F13002D1B2092909D8B8F1000F01D02D0101E00A204543D0B22D180BE0B8F1000F0BD0CD
S35100011390A0F14101C9B2052906D83738C0B200EB0515012601240FE0B8F1000F06D0A0F16101C9B2052901D85738EFE776B90B9810B9B9F1010F09D9DAF80400401CCAF80400002CB2D0B9F10109AFD116
S351000113DC5CB1009805FB07F101600EE0DAF80400401CCAF80400A9F10109B9F1000F04D05046FFF73DFC0128F0D22046BDE8F84F7047000018B583B00024009402A9022201230194FFF772FF00B90294FA
S351000114280298C0B203B0BDE81840704718B583B00024009402A9042201230194FFF760FF00B90294029880B203B0BDE81840704718B583B00024009402A9082201230194FFF74EFF00B90294029803B0C0
S35100011474BDE818407047000018B583B00024009402A9012200230194FFF73CFF00B902940298C0B203B0BDE81840704718B583B00024009402A9042200230194FFF72AFF00B90294029880B203B0BDE86D
S351000114C01840704718B583B00024009402A90A2200230194FFF718FF00B90294029803B0BDE818407047000018B583B001210091002402A90A2200230194FFF705FF00B90294029803B0BDE81840704776
S3510001150C70B5044608780E46FFF788F901462046C9B2FFF7F9FC20463A21FFF70FFC6068002505707078FFF779F901462046C9B2FFF7EAFC20463A21FFF700FC60680570B078FFF76BF901462046C9B2AD
S35100011558FFF7DCFC2046BDE87040704770B50446C8780E46FFF75CF901462046C9B2FFF7CDFC20462F21FFF7E3FB606800250570B078FFF74DF901462046C9B2FFF7BEFC20462F21FFF7D4FB60686421DB
S351000115A40570308840F070FCC8B2FFF73BF901462046C9B2FFF7ACFC2046BDE87040704770B5064615461C46FFF7CAFF30462946FFF708FC30462146FFF796FF3046BDE8704070473EB505460C460029E0
S351000115F0ACBFDFF84010DFF840102846FFF7F4FB2046FFF7E7F8C11700AA04F0DDFF01AC204605F073F801462846FFF77BFC204605F074F801462846FFF774FC2846BDE83E407047E8490500EA490500E2
S3510001163C411EDFF814200B299CBFDFF8100050F8212010467047C04651490500544905002DE9F041C1F3076407460E4620460A2140F00EFCC0B2FFF7D9F801463846C9B2FFF74AFC20460A2140F002FC58
S35100011688C8B2FFF7CDF8C1B2DFF8E05038466956FFF756FB78680024047038462E21FFF74FFB7868C6F30748047040460A2140F0E9FBC0B2FFF7B4F801463846C9B2FFF725FC40460A2140F0DDFBC8B298
S351000116D4FFF7A8F8C1B269563846FFF733FB78682E2104703846FFF72DFB7868C6F30728047040460A2140F0C7FBC0B2FFF792F801463846C9B2FFF703FC40460A2140F0BBFBC8B2FFF786F8C1B269565D
S351000117203846FFF711FB78682E2104703846FFF70BFB7868F6B2047030460A2140F0A6FBC0B2FFF771F801463846C9B2FFF7E2FB30460A2140F09AFBC8B2FFF765F8C1B269563846FFF7F0FA7868047070
S3510001176C3846BDE8F0417047404905002DE9F84F824601208B460090182700240425DAF80400DFF882104FF0010800263DF0A4FC814610BB0020002400902DE0B9F1010F11D0B9F1020F07D0B9F1030F88
S351000117B810D15046FFF75EFE642103E05046FFF759FE0A214843C0B202E05046FFF752FE3618F6B2B9F1010908BF4FF00008B8F1000FDDD1DAF8041006FA07F004435046491C083FFFF78CFA6D1EC2DCBB
S35100011804CBF800400098BDE8F84F7047C046384A05000000A0F130014AB2C9B20023092998BF13460DD9A0F14101C9B2052901D8373805E0A0F16101C9B2052901D8573843B21846704700002DE9F041A4
S35100011850456806462C4620271BE0252A12D195F90100A8B195F9020090B1FFF7D5FF804695F90100FFF7D0FF48EA001004F8010BAD1C05E02B2A0CBF04F8017B04F8012B6D1C95F9002022B13168B06856
S3510001189C08188542DBD30020207074603046BDE8F041704738B50C46DFF820100546FFF795FA28462146FFF791FADFF814102846FFF78CFA2846BDE838407047434A0500474A050070B50D46DFF834108F
S351000118E806461446FFF77CFA30462946FFF778FADFF824103046FFF773FA30462146FFF76FFADFF818103046FFF76AFA3046BDE870407047434A0500BD490500494A050070B50D46DFF83410064614466F
S35100011934FFF758FA30462946FFF754FADFF824103046FFF74FFA30462146FFF7EDFBDFF818103046FFF746FA3046BDE870407047434A0500BD490500494A050038B50C46DFF820100546FFF735FA2846EE
S351000119802146FFF731FADFF814102846FFF72CFA2846BDE8384070474C4A0500474A050070B50D46DFF8341006461446FFF71CFA30462946FFF718FADFF824103046FFF713FA30462146FFF70FFADFF82B
S351000119CC18103046FFF70AFA3046BDE870407047434A0500BD4905004F4A050070B50D46DFF8341006461446FFF7F8F930462946FFF7F4F9DFF824103046FFF7EFF930462146FFF78DFBDFF8181030465C
S35100011A18FFF7E6F93046BDE870407047434A0500BD4905004F4A050038B505460C4682B1DFF85610FFF7D4F928462146FFF7D0F9DFF84A102846FFF7CBF92846DFF842100FE0DFF83610FFF7C3F928467C
S35100011A642146FFF7BFF9DFF82A102846FFF7BAF9DFF826102846FFF7B5F9DFF822102846FFF7B0F92846BDE838407047C046434A0500BD490500B9490500BB4905004F4A050000002DE9F84F8246894636
S35100011AB090461F460A9E4FF0010B6AB942680168511A2BD0006832460123B8478346DAF80000CAF8040021E000241CE05046FFF7CDF80546504609EB04014246FFF75AF9454513D8DAE90002DAF800107C
S35100011AFC511A32460023B847DAF8001064198346CAF80410A8EB050810B1B8F1000FDFD15846BDE8F84F7047F8B504460F4616461D4639B10168FFF7F1F821682046C919FFF754F9002D204600D104E0F1
S35100011B48FFF798F8A84203D22046FFF793F805466068079ADDF818C029463346E047034600280DDD226861682046891A59185118FFF7CEF8606800210170616820680B1A1846BDE8F84070472DE9FE4F3C
S35100011B948246029191469B460026012401254AE095B1DAF80470DAF80080B8450CD050464146FFF7AFF8DAF80020A7EB080150465118FFF70FF90AE00021029A50460B46CDE9009BFFF7A4FF0028D8BF1E
S35100011BE0002454B3DAF80070DFF85A10384600253DF042FA0246D8B1B84205D9411E91F900100D2900D1421E50461146FFF784F850460021FFF798F8DAF8040090F900000A2803D150460021FFF78EF8BB
S35100011C2C012603E05046FFF723F800B90024002CB2D13046BDE8FE4F7047534A05000000DFF8041008607047840EFF1F90F8383023F0010343F001030160002180F8383082808171704700003EB50D461C
S35100011C7890F8381021F0010180F83810002182800346016000AC2046991D3222FEF7BEFF20462946FFF7A4F8BDE83E4070470000002238B190F83810C907C90F02D0006800B101221046704708B528B166
S35100011CC4801DFFF70BF808B1012000E00020BDE80840704710B50446FFF7E4FF002814BF0120002030B92046FFF7E8FF002814BF01200020002814BF01200020BDE810407047000038B5DFF834300446D3
S35100011D101B680D461B68002273B19847024658B1206885602168087B20F0010008732168087B20F0020008731046BDE838407047840EFF1F08B5DFF8181000220968496809B1884702461046BDE8084025
S35100011D5C7047C046840EFF1F08B5DFF820C04FF0FF3EDCF800C0DCF808C0BCF1000F01D0E04786467046BDE808407047840EFF1F08B5DFF818304FF0000C1B68DB680BB1984784466046BDE80840704781
S35100011DA8840EFF1F0B46844610461A46DFF80430614618478D1D010008B50090084611461A46DFF80C30FFF76BFEBDE808407047AD1D01007CB51446064620460D463DF041F80246DFF81030284621464E
S35100011DF40096FFF757FEBDE87C407047AD1D010008B5DFF818200023126812690AB1904703461846BDE808407047C046840EFF1F08B5DFF818200023126852690AB1904703461846BDE808407047C0465A
S35100011E40840EFF1F08B5DFF818200023126892690AB1904703461846BDE808407047C046840EFF1F10B5DFF82820044612680023926A42B19047034628B1207B20F0010040F0010020731846BDE8104032
S35100011E8C7047C046840EFF1F08B5DFF818304FF0000C1B68DB690BB1984784466046BDE808407047840EFF1F08B5DFF8182000231268126A0AB1904703461846BDE808407047C046840EFF1F08B5864648
S35100011ED88C46104671466246FFF740FFBDE80840704700000EB5DFF81CC0CDF800C00190084611461A46049BFFF710FEBDE80E407047C046D51E010008B5034608461146DFF80C20FFF738FEBDE80840B8
S35100011F247047C046D51E0100F8B588B005AE07460D46304601A910220024FEF769FE3046A91DFEF74FFF3046FEF78EFE00A9FFF711FC18B100980124286008E0DFF82A000068426A1AB1384629469047F3
S35100011F70044695F8380020F0010104F00100084385F83800204608B0BDE8F8407047840EFF1F0000DFF8103084460A2203CBACE80300521EFAD17047584A05000FB410B5029C61684A6C12B12068896CB6
S35100011FBC9047606890F84C00C007C00F06D020680021FFF739FF2068FFF7B6FEBDE8104004B070472DE9F04188B0054603A800210024FFF78BFE30B30398EA6B2946FFF74BFFE8B1029400AE0DF10808E4
S3510001200804AF0299286C814210D2039801A9FFF74DFF0028F5D001980595049034773846CDF818800097FFF7BDFFEAE70A2000F0B3F9E6E70398FFF781FE002008B0BDE8F0417047DFF804100860704711
S35100012054880EFF1F08B5DFF828C04FF0000EDCF800301B6843B14260DCF800C00022DCF800C01346E04786467046BDE808407047880EFF1F0021DFF80830C9431847C0469920010008B5DFF818200023B1
S351000120A0126892680AB1904703461846BDE808407047C046880EFF1F08B5DFF810100968C96801B18847BDE808407047880EFF1F08B5DFF816100968496909B1884701E0FFF7EAFFBDE808407047880E53
S351000120ECFF1F000081600021C16001614FF0FF3102604360416170470021C16001614FF0FF3141617047000010B50446E268636800209A4210DA6269521C62619A42A8BF606122686069A368504318189A
S351000121383CF0D6FDE068401CE0600120BDE810407047000038B5C368044600250022002B0CDD00F00FF802462069411C606821618142A8BF2561E068401EE0601046BDE83840704708B58446DCF80C2031
S351000121840020002A0BDD0846DCF80020DCF81010DCF80830514359183CF0A4FD0120BDE808407047C06870474168C068081A704738B594461C46054604226346FFF796FF2846214600F004F8BDE83840C8
S351000121D0704700000FB438B50546FFF793FF002404E0284605A9FFF795FF641C69688C42F7DB05982862059800FB01F20020AA61E861BDE8384004B0704700000FB41CB5044600A9FFF79AFFA26900987C
S3510001221CE369121A63F10003A261E3610598101843F10001A061E161204605A9FFF76CFF6268A069E169D3173FF000FE2062BDE81C4004B07047000038B594461C46054602226346FFF746FF2846214634
S3510001226800F004F8BDE83840704700000FB438B50546FFF743FF002404E0284605A9FFF745FF641C68688442F7DBBDF8141001FB00F2D0172962AA61E861BDE8384004B0704700000FB41CB500A904464E
S351000122B4FFF74AFF00A8A2690088E369121A63F10003A261E361BDF81400101843F10001A061E161204605A9FFF71AFF6268A069E169D3173FF0AEFD80B22062BDE81C4004B07047006A80B27047000067
S35100012300DFF80410086070478C0EFF1F18B583B084460160426000AC836020460CF10C010B22FEF777FC06992046FEF75DFD03B0BDE81840704700000FB41CB50446002200A80271DFF81C0000680368CB
S3510001234C13B1069A00A898470099019821606060BDE81C4004B070478C0EFF1F0FB418B589B00146DFF8280003AC009020464FF47A720923FFF7C4FF0D9A01A82146FFF7D5FF01A8007909B0BDE818409B
S3510001239804B07047A84A050008B5DFF810100968896801B18847BDE8084070478C0EFF1F08B5DFF810100968C96801B18847BDE8084070478C0EFF1F08B5DFF810100968096901B18847BDE808407047AE
S351000123E48C0EFF1F08B5DFF818304FF0000C1B689B690BB1984784466046BDE8084070478C0EFF1F08B5DFF8181000220968C96909B1884702461046BDE808407047C0468C0EFF1F08B5DFF810100968AA
S35100012430096A01B18847BDE8084070478C0EFF1F08B5DFF8301000220A744A748A74CA740A7508B1C860012242B1DFF818000021816001210022FFF7F7FD02461046BDE808407047900EFF1F38B5DFF844
S3510001247C5E500446E8688047E97C2B7C084395F812C080EA03010CEA01016A7CC9B2114369746FEA0C01C9B20CEA0002194011432974C9B24840A874687D884207D0002C284602D0FFF706FE01E0FFF74B
S351000124C8F7FDDFF80E00017C4175BDE838407047C046900EFF1F00002DE9F047DFF89A408246894690461E46FEF7F8F90746514600252046FFF7CCFD002837D0484600F04FF828B3207CA16800EA0900D5
S35100012514C5B209B128468847B8F1000F28D02E4026D0207D284218BF45F0800520D141462046FFF7AFFDF0B200F02AF8C0B1FEF7CFF9C01B404528BF45F0800510D2A8EB0001EDE7BAF1FF3F07D2FEF7F6
S35100012560C1F9C01B504505D2AAEB0001C5E74FF0FF31C2E7002020752846BDE8F0477047C046900EFF1F0000DFF8041088607047900EFF1FDFF80C10097C084214BF012000207047900EFF1FDFF82810B7
S351000125AC4B7C13EA00020CD00A7C024209D0C043C2B203EA02004874C87C1040C8740120704700207047C046900EFF1F10B50446FFF7DAFF10B9DFF80C00C474BDE810407047C046900EFF1F38B5DFF840
S351000125F8144005462075FFF7C9FF00B9E574BDE838407047900EFF1F022810D2DFF8202002EBC0021160107920F0010040F00100C0B240F00200C0B220F0040010717047A80EFF1F10B5DFF828100124BF
S3510001264401EBC00211798907C90F08BF002405D01168096811B1884700B900242046BDE810407047A80EFF1F10B5DFF8241001EBC0042168496801B1884720798107C90F1CBF20F004002071BDE81040FC
S351000126907047C046A80EFF1F08B5DFF81C304FF0010C53F830309B680BB1984784466046BDE808407047C046A80EFF1F08B5DFF81C304FF0010C53F83030DB680BB1984784466046BDE808407047C04634
S351000126DCA80EFF1F08B5DFF81C304FF0000C53F830301B690BB1984784466046BDE808407047C046A80EFF1F2DE9F84183B007460E4615461C464FF00008FFF791FF78B10A98314600900B982A460190D1
S35100012728012002903846234600F00AF980463846FFF798FF404603B0BDE8F84170470000FEB507460E4615460024FFF773FF68B10022009501200190384631461346029400F0EEF804463846FFF77CFF82
S351000127742046BDE8FE4070472DE9F84F86B0119D8346039117460493109E129C4FF0000A75B301204FF00108059058464FF0000AFFF74AFFF8B1B8F1000F02D10120FEF79DF84FF00008A94614B1AC42C7
S351000127C038BFA14600960598CDF8049002900399049B58463A4600F0B7F8824658464E444F44A5EB0905FFF741FFBAF1000F01D0002DD4D1504606B0BDE8F84F704700002DE9F84183B00E460B99074660
S3510001280C15461C464FF0000891B1FFF711FF78B10A98314600900B982A460190012002903846234600F0BAF880463846FFF718FF404603B0BDE8F84170470000F8B584B007460E4615460024FFF7F2FE75
S3510001285880B103A8057003A80090012001900022384631461346029400F09AF804463846FFF7F8FE204604B0BDE8F840704700002DE9F04F87B083461398DDF844800026039192460493DDF84090129FED
S351000128A41390B8F1000F47D0002F08BF444603D0781E0AEA00003C1A444588BF44465846FFF7BAFE58B3CDF800900194012002900399049B5846524600F064F80646D0B11398C0B1FDF7FCFF059000259F
S351000128F011E00520FDF7FCFF5846082106AAFFF7CBFE00B1012535B905981399FEF714F808B100260125002DEBD05846FFF7A6FE00E0002616B10520FDF7E2FFA144A244A8EB040816B1B8F1000FB7D1EE
S3510001293C304607B0BDE8F04F704700000EB5DFF856C05CF830C0DCF814E0BEF1000F0FD0DDF810C0CDF800C0DDF814C0CDF804C00DF1100C9CF808C0CDF808C0F0470FE0DDF810C0CDF800C0DDF814C0CF
S35100012988CDF804C00DF1100C9CF808C0CDF808C000F036F8BDE80E407047A80EFF1F00000EB5DFF856C05CF830C0DCF818E0BEF1000F0FD0DDF810C0CDF800C0DDF814C0CDF804C00DF1100C9CF808C0A5
S351000129D4CDF808C0F0470FE0DDF810C0CDF800C0DDF814C0CDF804C00DF1100C9CF808C0CDF808C000F0C6F8BDE80E407047A80EFF1F00002DE9FE4F80460C98DDF838900C9000208B4692461F460D9E93
S35100012A20009001240025B9F1000F00F0A48013B1042B40F2A0800120009000249BE0082D00F29680DFE805F005172D57616B76808A8A4046022102AACDF808B0FFF71CFE00B90024B9F1000F08BF05254F
S35100012A6C00F080806D1CEDB27CE0404601A90022FFF71EFE4046002102AAFFF707FE48B1029800B9EEE7404601210022FFF7FEFD002467E0FCE74046032102AACDF808A0FFF7F4FD38B14046042102AADD
S35100012AB80297FFF7EDFD00B10425042D54D000207A1E01A907E0131ADB002AFA03F3401C01F8013BC0B2B842F5D3404601A93A46FFF7E8FD002808BF00243DD0BCE74046002102AAFFF7CCFD002808BFA4
S35100012B04002433D0B2E7404605210022FFF7C2FD002808BF002429D0A8E74046062102AA0296FFF7B7FD002808BF00241ED09DE70C9940463246FFF7D1FDB04218BF002414D193E74046002102AAFFF784
S35100012B50A3FD002808BF00240AD089E7404601210022FFF799FD00280EBF0024012000900CB901200090009800283FF460AF2046BDE8FE4F704700002DE9FE4F80460C98DDF838A00C900D988B4691462B
S35100012B9C1F460D90002601240025BAF1000F00F08A8013B1042B40F286800126002482E0062D00F27E80DFE805F0040E2B555F6973734046022101AACDF804B0FFF75EFD00B9002411E0404600A900228C
S35100012BE8FFF768FD4046002101AAFFF751FD80B1019838B9BAF1000F08BF04255BD06D1CEDB258E0404601210022FFF741FD002451E0FCE74046032101AACDF80490FFF737FD38B14046042101AA0197D4
S35100012C34FFF730FD00B10425042D3ED000207A1E00A907E0131ADB0029FA03F3401C01F8013BC0B2B842F5D3404600A93A46FFF72BFD002808BF002427D0CAE74046002101AAFFF70FFD002808BF0024F4
S35100012C801DD0C0E70C990D9A4046FFF717FD002808BF002413D0B6E74046002101AAFFF7FBFC002808BF002409D0ACE7404601210022FFF7F1FC00280CBF0024012604B90126002E3FF47AAF2046BDE8DC
S35100012CCCFE4F7047DFF8041008607047B80EFF1F2DE9F04107460E4601243D4642E0284631463CF061FA054608B900243AE03CF0B7F8804630463CF0B3F8404584BF002400252FD808BF00241FD01ED885
S35100012D18295626290CDC16DA002901DC13D014E00D2912DC0A2910DB0DD00D290BD00CE03B2901DC07D008E03F2906DC3D2904DB01D03F2901D1002401E0411C6D185CB9BD4209D0691E91F900102629EB
S35100012D6404D03F291EBF0124401C2D18002CBAD12846BDE8F041704738B51546FFF7ACFF18B3DFF84C103CF013FA0446E8B1641C94F900100A290ED00D290CD059B1262909D03B2907D03F2905D0284630
S35100012DB0FDF7CAFF68680028EBD12846FDF7D4FF2846FDF753FF2846FEF740FD2046BDE838407047B34A050078B583B0002516461560FFF77BFF40B3DFF85A103CF0E2F9411C316008B3401C90F90010FB
S35100012DFC0A290BD00D2909D041B1262906D03B2904D03F2902D009B16D1CEEE70021017000AC316820462A46FDF702FF2046FEF70FFD019900980D1A2046FDF719FF284603B0BDE878407047C046B34ABA
S35100012E480500000078B585B002AC06460D46204600A90522FDF7DAFE20462946FEF772F80299304600F0A2F905B0BDE87840704778B5C3B000AC06460D46204603A9FF22FDF7C4FEDFF828102046FDF7AB
S35100012E94A9FF20462946FDF7A5FFDFF81C102046FDF7A0FF0099304600F082F943B0BDE878407047C34A0500C54A050078B5C3B000AC06460D46204603A9FF22FDF7A0FE20462946FEF7EAFC00993046C4
S35100012EE000F068F943B0BDE878407047F0B5C3B000AC07460E461546204603A9FF22FDF789FE204631462A46FEF7EAFC0099384600F050F943B0BDE8F0407047F0B5C3B000AC07460E461546204603A910
S35100012F2CFF22FDF771FE204631462A46FEF7F6FC0099384600F038F943B0BDE8F040704778B5C3B000AC06460D46204603A9FF22FDF75AFE20462946FEF704FD0099304600F022F943B0BDE8784070478D
S35100012F78F0B5C3B000AC07460E461546204603A9FF22FDF743FE204631462A46FEF704FD0099384600F00AF943B0BDE8F0407047F0B5C3B000AC07460E461546204603A9FF22FDF72BFE204631462A46B5
S35100012FC4FEF710FD0099384600F0F2F843B0BDE8F0407047F0B5C3B000AC07460E461546204603A9FF22FDF713FE204631462A46FEF71CFD0099384600F0DAF843B0BDE8F040704778B5C3B000AC064605
S351000130100D46204603A9FF22FDF7FCFDDFF8181020462A46FEF704FD0099304600F0C2F843B0BDE878407047BB4A050078B5C3B000AC06460D46204603A9FF22FDF7E2FDDFF8181020462A46FEF7A2FC0C
S3510001305C0099304600F0A8F843B0BDE878407047B54A05002DE9F0478EB0DFF854A0DFF8549080460F460026002500ACD9F8000000EBC5014868B0B1096820463BF0F2FE204651463BF044FF4046214677
S351000130A83CF084F838B1DFF820000126006800EBC500386001E06D1CE2E730460EB0BDE8F0477047C74A0500B80EFF1F38B505460C3000A90024FFF7C7FF20B1009928464968884701242046BDE8384085
S351000130F470470000DFF8041008607047BC0EFF1F10B5C0E98F120446029A00F512701946FDF77EFD0399049A04F51570FDF778FD0020C4F8440294F8600220F0010084F8600204F5097042F21071FDF76B
S3510001314075FC204600F004F8BDE810407047000038B5054600F51270FDF76CFD05F51570FDF768FD002405F50970C5F83842FDF7EDFC95F80C0220F00100C0B220F00200C0B220F0040085F80C02C82015
S3510001318CC5F8180295F8200220F00100C0B220F0080085F820026C60AC60C5F81442C5F81C42BDE83840704738B50C46054620463BF056FE02462846214600F025F8BDE83840704738B5864692F8200284
S351000131D88C46010715461C46C90F0ED08007C00F0BD028467146624600F01EF85CB1002128460A4600F018F805E0D2F8400271466246FEF7BFFDBDE83840704708B5DFF81430009000F51570FEF742FC7D
S35100013224BDE808407047C046D13101002DE9F04186B003AC80460F461646204600A90C220025FDF7E5FCFF2E204603D93146FDF78BFE02E0B1B2FDF777FEDFF84E1003A8FDF7C0FD039C20463BF0FEFD03
S351000132700246D8F840022146FEF788FD90B1012536B1D8F8400239463246FEF77FFD054645B1D8F84002DFF816100222FEF776FD00B10125284606B0BDE8F0417047BC4D05000000DFF8080000684068A7
S351000132BC7047C046BC0EFF1F2DE9F843C4B001AD80460F46284604A9FF22DFF83462FDF79BFC2846FDF7C4FCDFF828122846FDF77DFDD8F818122846FDF7EAFEDFF818122846FDF773FDDFF81402D8F875
S351000133081812FDF769FA01462846FDF769FDDFF804122846FDF764FD019C20463BF0A2FD2146DFF8F441024608F515702346CDF80080FEF7B5FB2846FDF794FCDFF8DC112846FDF74DFDDFF8D811284645
S3510001335409688968FDF746FDDFF8AC112846FDF741FDDDF8049048463BF07EFD024608F5157049462346CDF80080FEF793FB2846FDF772FCDFF8A0112846FDF72BFD98F82002C007C00F284602D0DFF8F1
S351000133A0901101E0DFF88C11FDF71EFD28463146FDF71AFDDDF8049048463BF057FD0246CDF8008008F5157049462346FEF76CFBD8F8140218B32846FDF748FCDFF858112846FDF701FDDFF85401D8F819
S351000133EC1412FDF7F7F901462846FDF7F7FC28463146FDF7F3FCDDF8049048463BF030FD024608F5157049462346CDF80080FEF745FBD8F81C0268B12846FDF721FCDFF814112846FDF7DAFCD8F81C12DD
S351000134382846FDF747FE0BE098F820028007C00F1AD02846FDF70EFCDFF8F010FDF7C8FCDFF8B0102846FDF7C3FCDDF8049048463BF000FD0246DFF8B03008F515704946CDF80080FEF714FBD8F81002B0
S3510001348410B32846FDF7F0FBDFF8B8102846FDF7A9FCD8F8100200F06FFD01462846FDF7A1FCDFF864102846FDF79CFC019D28463BF0DAFC0246DFF8643008F515702946CDF80080FEF7EEFAD7B13046A5
S351000134D03BF0CCFC024608F5157031462346CDF80080FEF7E1FA0021CDF8008008F515700A462346FEF7D8FA98F8200240F0080088F8200244B0BDE8F8437047BC4D0500BF4D0500C94D0500304C0500BD
S3510001351CCB4D0500D1310100CF4D0500BC0EFF1FD84D0500E54D0500F04D0500F64D0500804C0500054E0500164E0500314E050038B50546002419E0D5F84812284600F095F8A8B1284600F027F888B1BC
S351000135680021DFF84230009505F515700A46FEF797FA95F82002C0070124C00F0FD02846FFF7E2FD05F50970FDF712FB0246D5F8400205F51271FEF7B7FC0028D6D12046BDE838407047D1310100000034
S351000135B438B505460024FFF78BFD00B1012424B9284600F0B1F900B1012424B105F50970FDF7BAFA0EE0002128460A460B4600F00DF84FF4CA70C5F81802284601210124FFF766FE2046BDE838407047B9
S35100013600C0F814124FF0C80C90F82012C0F818C221F0020C03F001014CEA4101C9B221F00801C9B221F0010390F80C128907C0F81C2280F82032C90F05D0D9B221F0010141F0010113E090F86012C90758
S3510001364CC90F10D01AB9D9B28907C90F0BD090F8201221F0010290F80C12C907C1F3C071114380F820120021C0F8101290F8201221F0040180F82012012070477CB5D0F83822002504460E46022A06D046
S3510001369800F046F878B30220C4F838022BE030463BF0E0FB28B196F900000D2801D00A281DD194F80C024007C00F13D004F51270FDF7D4FA0246A06804F512710090D4F8400200230025FEF705FCA168D8
S351000136E4884200DC0D1AA5600020C4F83802012503E02046314600F077F82846BDE87C407047000010B500240A2903D1FDF72AFB012403E00D2901D0FDF714FB2046BDE81040704770B50E460446DFF819
S35100013730B4103046042200253BF06AFC10B9012565600BE0DFF8A010304605223BF060FC002803BF0220606001256560002D39D03046202100253BF063FC064670B3401C20213BF05DFC00B10570701C51
S3510001377C00F06AF9701C3BF073FB40F2FF11884219D204F10C00711C3BF074FB04F10C003F213BF047FC00281CBF002100F8011B06D104F10C003BF05BFB04F10C010818206001250CE0002020734FF459
S351000137C8CF7005E025734FF4C87001E040F2F510C4F818022846BDE8704070475C4E0500614E0500F8B586B0DFF8D86005460F46304600243BF036FB0246384631463BF003FC28BB384620213BF00EFCE6
S351000138140746002852D0401C3BF026FB024603AE3046791C521CFDF7FFF9009401200190304602A90A220023FDF764FD00283DD002980124A86095F80C0240F0040085F80C0233E0DFF8746030463BF004
S3510001386005FB0246384631463BF0D2FB40BBDFF8641038463BF09EFC58B195F80C0220F0010040F00100C0B240F0020085F80C0216E0DFF8441038463BF08CFC002895F80C021EBF20F0010040F001000E
S351000138AC85F80C0206D18107C90F04BF20F0010085F80C02204606B0BDE8F8407047C046704D0500804D0500974D05008C4D050008B5DFF81430009000F51570FEF7DEF8BDE808407047C046D13101003D
S351000138F838B52E2100253BF0A7FB044660B13BF0B1FA022808D3DFF81800611CFCF774FF05460028B8BF00252846BDE838407047F04C050070B596B00FAE0546304602A93422FDF76BF995F90C000024B5
S351000139442F2808D195F90D0028B9DFF8C41030460968096802E00FA805F10C01FDF742FADFF8B0100F98096801AA00F059F8C8B10F98FFF7BFFF019A0146D26828460023FFF73CFE28460121FFF79AFC4D
S35100013990019ADFF8883000959168D26805F51570FEF782F8044630E00FA8FDF75FF9DFF86420002112685268FDF754FA12AE0F983146002200F0EEFBF8B10F98FFF794FF0446304600F0E6FC02462846BB
S351000139DC21460023FFF70EFE284601210124FFF76BFCD5F85C02401E0090DFF8281030462A46002300F058FD304600F03FFC204616B0BDE870407047BC0EFF1FB84D0500D1310100DD3801002DE9F04159
S35100013A280025002480460F461646156051B1395941B140463BF0BAFB10B13819306001251034F4E72846BDE8F0417047024616E02F2910D190F901102E290CD190F902102F2908BF801C06D02E2904D1AB
S35100013A7490F903102F2908BFC01C10F9011B02F8011B90F900100029E4D100201070704738B50C7893F800C044400CEA04041578E4B22C4314701A7802EA00046FEA020C0A780CEA020222430A70D1B244
S35100013AC048401870BDE8384070470000137813EA000C08D00978014205D0C043C0B21840107001207047002070470000137813EA000C08D00978014205D1C043C0B21840107001207047002070470000CC
S35100013B0C38B50546DFF82CC00C462B460B22BCE8030003C3521EFAD1DFF81CC005F140030322BCE8030003C3521EFAD12C60BDE838407047804E0500684E0500F0B587B00468DFF86C600546002700F1DE
S35100013B584003032203CE03C3521EFBD1206800F095FD10B304AE304600A90D22FDF74EF82846314600F088F920680499DFF838202B4600F0FBFE286D00280DDD286C58B9E96CE0688142A1BF95F85400E7
S35100013BA420F0010040F0010085F854000127384607B0BDE8F0407047684E0500C53B010010B5014684684968204600F077F9002822DB1BDB2168C968884217DCB0EB610F08DA216C8842B8BF2064616C09
S35100013BF08842C8BF606407E0A16C8842B8BFA064E16C8842C8BFE064206D401C206505E094F8540040F0020084F854000120BDE810407047FEB502680D464FF0FF318163064610680021002400F090FD07
S35100013C3C70B33046FFF782FF50B3F26C716C9142C8BFB16306DC306C18B98A42A8BFB16300DAB263B06B0027002802DA0DB1B7630127B06B002813DB00AD2846311D3422FCF7CAFF3046294600F0BCF879
S35100013C8847B1301D00F070FC20B94FF0FF30B06300203071B06B0028AEBF0124002030712046BDE8FE40704778B587B0054600260468FFF745FFD0B1296D2069814204DC95F854008007C00F10D004AE10
S35100013CD4304600A90D22FCF79BFF2846314600F0D5F820680499DFF814202B4600F048FE0126304607B0BDE878407047053D010070B50646846871682046256800F0D6F8002839DBEA6801219042C8BFAE
S35100013D20002129DC94F85420D207D20F0BD1E26C636C9342D8BF13462A699A1A521C9042B8BF002118E0626CD5F810C0531C634508DBA2EB0C035B1C984201DB90420BDD002109E0ACEB0203E46C9B1E04
S35100013D6CE31A984202DA9042C8BF002141B9287D0028306802D000F08FFD01E000F020FC0120BDE87040704778B583B0826B05460C46002A06DB0168C9688A42BCBF511C816301DB0021816300AE3046E4
S35100013DB8291D3422FCF72AFF2846314600F01CF884B12868007D20B1281D00F091FC48B903E0281D00F0C8FB20B96FF00100A86300202871A86B0028ACBF0120002003B0BDE878407047000070B506464A
S35100013E04806B00240D460028284618DB31680968FCF7E8FFDFF832102846FCF7E3FF316828464968FCF7DEFFB16B2846FDF77CF9316828468968FCF7D5FF012401E0FCF791FF2046BDE870407047D84EE5
S35100013E500500000070B50646806B00240D46002828460EDB31684968FCF7BEFFB16B2846FDF75CF9316828468968FCF7B5FF012401E0FCF771FF2046BDE870407047000038B505460C462968204649684F
S35100013E9CFCF7A4FFDFF818102046FCF79FFF296820468968FCF79AFFBDE838407047C046DA4E050070B500680E4640684FF0FF35FCF708FF044630463AF0CAFFA04203D930193BF0B3FA05462846BDE8E6
S35100013EE87040704770B5064600200D46022E1CD28C2006FB00F4DFF85400001990F8881021F0020180F88810114634223AF0F2FFDFF83C000A22031903CD03C3521EFBD1DFF830000021015101208C21B8
S35100013F34DFF81C207143531893F8881021F0010200F00101114383F88810BDE870407047C00EFF1FF40EFF1F440FFF1F844638B1DFF810300A2203CBACE80300521EFAD17047C046DC4E050010B504465E
S35100013F803AF074FF2018A04209D990F900105C2901D02F2901D1401C01E0401EF3E7BDE81040704710B5012102281BDA8C2200FB02F3DFF83820D41894F8882022F0020284F88820DFF82820D2580AB1EA
S35100013FCC9047014694F8880020F0020201F0010042EA400084F888000846BDE810407047C00EFF1FF40EFF1F08B54FF0010C022811DA8C2100FB01F3DFF82410CA1892F8881021F0020182F88810DFF82E
S351000140181810C95809B1884784466046BDE808407047C046C00EFF1FF80EFF1F2DE9F843DFF8366081464FF0FF3800270025022470193AF00FFF024632B1701949463AF0DBFF08B9B84603E07F1C8C35E6
S35100014064641EEFDC4046BDE8F8437047C046C00EFF1F00000021012898BF0121084670470021022808DA8C214143DFF81000401890F888008007C10F08467047C00EFF1F08B503460020022B08DA08466D
S351000140B08C21DFF8142059435118FCF795FE0120BDE808407047C046C00EFF1F38B50C464268016805468A4208D9511E91F900105C2903D0DFF81410FCF77EFE28462146FCF77AFEBDE838407047C04694
S351000140FCB04F050070B50E4615460024FFF7CCFF20B130462946FFF7DBFF01242046BDE87040704770B50C46064615462046FCF79FFD20462946FCF759FE8C2006FB00F1DFF82000401890F888008007E1
S35100014148C00F05D0DFF81400415809B1204688472046BDE870407047C00EFF1F3C0FFF1F3EB500AC05462046FCF75CFD8C2005FB00F1DFF82000401890F888008007C00F05D0DFF81400415809B12046DF
S351000141948847BDE83E407047C00EFF1F400FFF1F2DE9F04790B00DAD824689469046284600A93422FCF72CFD50460027FFF738FF00281ADB8C2100FB01F6DFF84410C9E90007891991F888108907C90FE4
S351000141E00DD0DFF83440A15949B129465246FFF797FF0D98A35949464246984707461FB94FF0FF30C9F80000384610B0BDE8F0477047C046C00EFF1FFC0EFF1FF8B507460E461546002400F003FA002825
S3510001422C384600D003E000F09DF928B1384631462A46FFF7B1FF04462046BDE8F8407047F8B507460E461546002400F0EBF90028384604D031462A46FFF79EFF08E0012100F076FA28B1384631462A4623
S35100014278FFF7D0FF04462046BDE8F8407047000008B502680023002A0FDB8C214A43DFF82410891891F888108907C90F05D0DFF81810895809B1884703461846BDE808407047C046C00EFF1F000FFF1F75
S351000142C408B5D2F800E00023BEF1000F16DB4FF08C0C0EFB0CFEDFF82CC0F4449CF888C04FEA8C7C5FEADC7C08D0DFF81CC05CF80EC0BCF1000F01D0E04703461846BDE808407047C00EFF1F0C0FFF1FFA
S3510001431038B505460C463AF0A9FD014628462246FFF7D0FFBDE838407047000008B5D2F800E04FF0FF33BEF1000F16DB4FF08C0C0EFB0CFEDFF82CC0F4449CF888C04FEA8C7C5FEADC7C08D0DFF81CC095
S3510001435C5CF80EC0BCF1000F01D0E04703461846BDE808407047C046C00EFF1F100FFF1FDFF804301847C0462D43010008B5DFF81420034608460021FDF7FCFBBDE808407047C0467D43010008B50268E0
S351000143A84FF0FF33002A0FDB8C214A43DFF82010891891F888108907C90F05D0DFF81410895809B1884703461846BDE808407047C00EFF1F180FFF1F08B502680023002A0FDB8C214A43DFF824108918D8
S351000143F491F888108907C90F05D0DFF81810895809B1884703461846BDE808407047C046C00EFF1F1C0FFF1F08B5D0F800E00023BEF1000F16DB4FF08C0C0EFB0CFEDFF82CC0F4449CF888C04FEA8C7CF0
S351000144405FEADC7C08D0DFF81CC05CF80EC0BCF1000F01D0E04703461846BDE808407047C00EFF1F200FFF1F70B5054600680024FFF702FEB0B129688C204143DFF82E00405828B9A8681CF073FE58B17B
S3510001448C012409E02846FFF7A5FF06462846FFF783FF8642A8BF01242046BDE870407047C046440FFF1F00002DE9FE4F6F467A600268834639601D4600260024002A49DB8C204243DFF89600801890F8E1
S351000144D888008007C00F3FD0D7F830800124B8F1000F08BF4FF4807809B9002434E008F101004042C010C0000838854401900DF108091FE035B1A91B414588BF414602D8E9B100E0414648465A46FFF79B
S3510001452403FF824600280ADD002109F8001078683B68494652469847044650B103E00CBF0124002405E056445846FFF78BFF0028DAD0A9F104000068ADEB000D2046BD46BDE8FE4F7047C00EFF1F000056
S3510001457038B584B000AC214604220025FFF712FE18B12046FFF780FE0125284604B0BDE83840704770B584B000AC0E46214604220025FFF7FFFD58B130463AF05FFC014630462246FFF786FE0546204663
S351000145BCFFF764FE284604B0BDE87040704700002DE9F04190B00DAC0746204600A93422FCF71AFB38460026FFF726FD002818DB8C2100FB01F5DFF83410491991F888108907C90F0DD0DFF8288058F804
S35100014608051041B121463A46FFF786FD0D9858F8051088470646304610B0BDE8F0417047C00EFF1F040FFF1F2DE9F04190B00DAC0746204600A93422FCF7E8FA38460026FFF7F4FC002818DB8C2100FBDF
S3510001465401F5DFF83410491991F888108907C90F0DD0DFF8288058F8051041B121463A46FFF754FD0D9858F8051088470646304610B0BDE8F0417047C00EFF1F080FFF1F2DE9F04190B00DAC074620463A
S351000146A000A93422FCF7B6FA38460026FFF7C2FC002818DB8C2100FB01F5DFF83410491991F888108907C90F0DD0DFF8288058F8051041B121463A46FFF722FD0D9858F8051088470646304610B0BDE85F
S351000146ECF0417047C00EFF1F240FFF1F2DE9F04190B00DAC0746204600A93422FCF784FA38460026FFF790FC002818DB8C2100FB01F5DFF83410491991F888108907C90F0DD0DFF8288058F8051041B15B
S3510001473821463A46FFF7F0FC0D9858F8051088470646304610B0BDE8F0417047C00EFF1F280FFF1F2DE9F04790B0824689460DA800A93422FCF752FA5046012701240026FFF75CFC002836DB0DAD504645
S351000147845C213AF053FC2CB1002418B1401C5C213AF04CFC90B1A0EB0A0000F101080E98514642463AF0A8FB0E9928464144FCF7B1FA2846FCF7D6FAC24404E00DA85146FCF710FB0126B9F1000F00D028
S351000147D06EB90D980027FFF75DFF00B103E00D98FFF78AFF00B101270FB1002EC9D0384610B0BDE8F0477047F8B590B00DAC0746204600A93422FCF705FA38460026FFF711FC002813DB8C21DFF82C2091
S3510001481C4143551895F888108907C90F09D0E96E39B121463A46FFF775FC0D98E96E88470646304610B0BDE8F8407047C00EFF1F70B54468DFF846100646204601253AF077FBC0B1DFF83A1020463AF002
S3510001486871FB90B13068FFF7DFFE0028306802D0FFF7A8FE08E0FFF709FF002808BF002503D0306800F00AF805462846BDE870407047B24F0500B44F0500000038B5DFF82410DFF82420054600230024E8
S351000148B400F066F82846FFF79DFF00B101242046BDE838407047C046B74F05004D480100F8B590B00DAC0746204600A93422FCF797F938460026FFF7A3FB002813DB8C21DFF82C204143551895F888109D
S351000149008907C90F09D0696F39B121463A46FFF707FC0D98696F88470646304610B0BDE8F8407047C00EFF1FF8B590B007460E4615460DA800A93422FCF76CF90024012F17D88C2007FB00F1DFF8300055
S3510001494C401890F888008007C00F0CD0DFF82400425842B13046294690470446384631462A46FFF7FBFB204610B0BDE8F8407047C00EFF1F380FFF1F2DE9F84F90B00DF1340B824689469046584600A906
S3510001499834221F46FCF73AF950460026FFF746FB054600281BDB8C21DFF83C204843141894F888008007C00F11D0206F78B15046FFF764FE58B1284659465246FFF7A4FB0D98246F494642463B46A0470D
S351000149E40646304610B0BDE8F84F7047C00EFF1F2DE9F04FC3B082468946904600A803A94FF48072FCF704F90025009EBAF1000F5DD0002150460A460024FFF7FDFC48463AF022FA07460DF1000BDFF8FC
S35100014A30AE20584600215346FDF7AAF800B90124304649463A463AF0E3FA00283FD1F057202801D03D283AD1DFF88610F0193AF00BFB90F900103D2933D1441CDFF8761020463AF037FB2418DFF86E104C
S35100014A7C20463AF065FB064628B34046FCF7F8F8864203D94046FCF7F3F80646D8F80400214632463AF02CFAD8F804404046A119FCF734F94046FCF759F940462146FCF72DF94046FCF7C4FE4046FCF717
S35100014AC811F9012501E0002CADD0284643B0BDE8F04F7047C0467D430100B94F0500BC4F0500BE4F050000002DE9F04188B005AC80460F461646204600A91422FCF786F84046394622460025FFF770FF9B
S35100014B1438B12046FCF7A8F82046FCF7D1FC30600125284608B0BDE8F04170472DE9F84185B002AC80460E461746204600A90622FCF766F84046314622460025FFF750FF08B32046FCF788F82046FCF7F0
S35100014B606FF82046FCF782F8039CDFF83A1020463AF0ECF918B194F90060312E02D101253D700AE0DFF8221020463AF0DFF908B1302E02D1002038700125284605B0BDE8F8417047C046C24F0500C74FBB
S35100014BAC0500000010F400411CBF20F40040801D0C28B9BFDFF8101051F82000DFF80C00D0F880007047C0462C4F0500DC4E050070B5002406460D4649B11046FFF7E2FF014630461CF03CFAA86000B136
S35100014BF801242046BDE870407047000010B5002428B1806818B11CF0BBFA00B901242046BDE81040704700000020704738B584B000AC214600220025FFF7B8FA18B120460125FFF725FB284604B0BDE883
S35100014C443840704738B5002403460D4642B1906830B119462A461CF003F9854208BF01242046BDE83840704738B50024E44384460B46154682B1906870B161461A461CF059F90446A8681CF06BFA28B1AE
S35100014C90A8681CF06DFA08B90024E4432046BDE8384070470020704770B506464FF0FF3590B1806880B11CF081F90446B068002102221CF095F9B0681CF078F90546B068214600221CF08CF92846BDE807
S35100014CDC7040704708B5002120B1806810B11CF067F901460846BDE80840704708B5002378B1806868B132B1012A03D0022A08BF022300E001231A461CF06CF9012300B100231846BDE80840704700004F
S35100014D280020704700207047002070470020704700207047F8B5074600201646022F1ED28C2007FB00F4DFF858003422051928463AF0D0F8DFF84C00DFF84CC003190A22BCE8030003C3521EFAD1DFF8FC
S35100014D744000065195F8880040F0020085F8880001208C21DFF81C207943531893F8881021F0010200F00101114383F88810BDE8F8407047C00EFF1FF40EFF1F604F0500440FFF1F2DE9F041002500241C
S35100014DC080460F461646156059B1395949B140463AF0F0F918B138193060012501E01034F3E72846BDE8F041704700007CB5002406460D46A2B90868FFF73EF980B129688C204143DFF820004018D0F8C6
S35100014E0C841039B1304600AAFFF7D0FF10B100980124A8602046BDE87C407047C00EFF1F4FF0FF3101600120704700007CB506460024FFF7F9F80546FFF718F960B18C2005FB00F1DFF81800415829B16E
S35100014E58304600AAFFF7ACFF00B101242046BDE87C407047440FFF1F38B5936814465268D3F80CC00D4694458CBFACEB020C4FF0000C614528BF6546996889182A4639F027FF6068401960602846BDE8FA
S35100014EA4384070478068C06870470000406870470023D0F808C0A8B1BCF1000F12D0DCF80C3032B1012A05D0022A04BF5918416003E001E04268511841604168994288BF436001231846704710B504469A
S35100014EF0DFF834004FF4FA61FBF798FDDFF82C00002180F8281000F061F981F0000180F00000084314BFDFF81800DFF81800A060BDE810407047C046EC0FFF1FD80FFF1F394F0100315001002DE9F04121
S35100014F3C064600F045F981F0000180F000000027084304BFDFF86E00B06031D0DFF86A502846FBF79DFD58B3DFF862800120D8F80C100124884700F02BF998F82830C3F1200204FA03F808EA00009F404F
S35100014F8824FA02F21743A3F1200204FA02F21743394081F0000180F000000843284602D04FF4FA6101E04FF4FA71FBF73BFDDFF81600B060BDE8F0417047ED4E0100EC0FFF1FD80FFF1FD54F0100000022
S35100014FD4F8B5DFF84A5006462846FBF75DFDD8B1DFF83E700020F9680024884797F82800401C87F82800C0B23A2805D387F8284028464FF4FA6102E028464FF4FA71FBF70BFDDFF81200B060BDE8F840BD
S351000150207047EC0FFF1FD80FFF1F394F0100000038B5044600F0CAF881F0000180F0000008431CBFDFF83000A06012D1DFF82C502846FBF723FD60B1DFF824100120C968884728464FF47A71FBF7E0FC8A
S3510001506CDFF81400A060BDE838407047ED4E0100EC0FFF1FD80FFF1F8950010038B5DFF82C4005462046FBF703FD60B1DFF820100020C968884720464FF47A71FBF7C0FCDFF81000A860BDE838407047EE
S351000150B8EC0FFF1FD80FFF1F31500100DFF81C304FF0000CC3E900CC9860D960DFF810001A61D862186358637047C046D80FFF1FED4E0100DFF818004368026883F0000182F00000084314BF01200020D5
S351000151047047C046D80FFF1F08B500210122C0F1200C814002FA00F322FA0CFC203841EA0C0102FA00F00143DFF84C00D0E900CE0EEA01000CEA030E80F0000C8EF000005CEA000018BF0022DFF82CC07E
S35100015150DCE9000E18434EEA010ECCE9000E4AB1DCF808E0BEF1000F04D00091DCE900010122F047BDE808407047C046D80FFF1F38B5DFF84410002202FA00F30C684D680121C0F1200201FA00FC21FAD2
S3510001519C02F22038134301FA00F0034305EA030004EA0C0380F0000283F00000104308BF00210846BDE838407047C046D80FFF1FDFF8041003C97047D80FFF1F08B5DFF844004368026883F0000182F06B
S351000151E80000084314BF01220022DFF82C1000200860486062B1D1F808C0BCF1000F07D04FF0FF30009003C90023DB430022E047BDE808407047C046D80FFF1F00223A2805DADFF81010096909B151F8C5
S35100015234202010467047C046D80FFF1F08B5DFF81C00C16831B1016BC162416B0163DFF810008847BDE808407047C046D80FFF1F0410FF1FDFF80410086070471010FF1FDFF81820142807D8DFF8141071
S35100015280096819B151F8200000B1024610467047F44F05001010FF1FF8B58446DFF84C600F466546462403CE03C5641EFBD1306828600698CCE90423CCF818000798CCF80C70CCF81C000898CCF82000A7
S351000152CC0998CCF824000020CCE90A009CF8300220F002008CF830020120BDE8F8407047285105008288DFF804301847751C01008180704790F8E42222F0010201F00101114380F8E4127047D0F8E022CF
S3510001531822F0030201F003011143C0F8E01270473EB5024600AC0D4602F16E0120463222FBF76CFC20462946FBF752FDBDE83E40704700003EB5024600AC0D4602F1A00120461422FBF75AFC204629465A
S35100015364FBF740FDBDE83E40704700003EB5024600AC0D4602F13C0120463222FBF748FC20462946FBF72EFDBDE83E407047000010B50446DFF828C023465D22BCE8030003C3521EFAD1002100230A20FB
S351000153B06218323182F8E630401EF9DCBDE810407047C0465C5305003EB5024600AC0D4602F1B40120463222FBF71CFC20462946FBF702FDBDE83E407047000078B583B00546D0F8DC0200260C460A2863
S351000153FC19D22046FBF76EFCA8B1D5F8DC22322100AE514305F1E603304659183222FBF7FBFB30462146FBF7E1FCD5F8DC02401CC5F8DC020126304603B0BDE87840704710B50446FCF74AFC08B90B2010
S3510001544810E0A08808B90C200CE004F13C00FBF743FC08B90D2005E0D4F8DC0200280CBF0E201220122813D194F8E412C907C90F0ED004F16E00FBF72FFC08B90F2007E004F1A000FBF728FC00280CBFD3
S3510001549410201220BDE810407047000070B5CCB0064600AD28463146002400F003FFF06808B1306918B90320B0620020A2E07169284600F0B5F8284600F0D6F82868C068FFF7B2FF122811D1284600F0E6
S351000154E0F7FB78B10920B0622846012100F074FD40B12846012100F005FD18B1012401E02968886284B30A20B062DFF8041128460022002400F01EFB30B32846002100F05BFD08B32846002100F0ECFC7D
S3510001552CE0B1286800F048FF10B9286800F0FEFE286800F041FF10B1284600F07FFD2868C068B430FBF7C6FB38B12A68DFF8B810D2682846B43200F035FB0124002C41D02846002400F050FBE0B32846ED
S3510001557800F072FBC0B3286890F83002C007C00F284602D0DFF8881001E0DFF8881000F0EBF8DFF88410284600F0E6F8DFF87C10284600F0E1F8DFF87810284600F0DCF8DFF87010284600F0D7F8DFF831
S351000155C46C10284600F0D2F8326A12B1716A28469047F169284600F0ABF9284600F0FCF8002819BF0124B4621420B062002C686801D0002100E00121FCF722FC284600F02FF820464CB0BDE8704070474E
S35100015610C1570500C6570500EE5605000757050049570500CE5705005E570500D1570500D657050038B505460C4678B1002181612046FBF74DFB48B1204605F108010522FEF7FCFD10B105F10800A861E3
S3510001565CBDE838407047000010B5044628B1806918B1FEF70BFE0020A061BDE81040704770B592B00FAD0646284602A93222FBF7C3FAB069D8B100AC204600F04FFEDFF838102846FBF7A2FBDFF8302003
S351000156A82846214601ABFBF789FFDFF828102846FBF796FB2846FBF7D5FA0068B169FEF723FE12B0BDE870407047C046CE570500D7570500D957050010B58269044642B108461146FEF710FEDFF80C000F
S351000156F4A169FEF70BFEBDE810407047CE57050010B586468C46134640680EF5907162460024FCF753FB00B101242046BDE810407047000038B505460024FFF7E9FF002818BF012404D1DFF81010284690
S35100015740FFF7CEFF2046BDE838407047EA57050010B503460A46406803F590710024FCF73DFB00B101242046BDE810407047000070B505460C460026FFF7EAFFC8B195F82C01C007C00F0DD1A969DFF846
S3510001578C460009B1FEF7BEFD95F82C0120F0010040F0010085F82C01A96911B12046FEF7B1FD01260AE0A969DFF81E0009B1FEF7A9FDA96911B12046FEF7A4FD3046BDE870407047C046FE57050005581B
S351000157D80500000038B5DFF8241005460024FFF7C3FF30B1DFF818102846002200F0AEF904462046BDE838407047C046165805001C58050010B504460846114622684FF4AC73D26902F59A7200F0C8FC4B
S3510001582421680246C969204601F59A71FFF77AFFDFF80C102046FFF799FFBDE810407047CE57050070B506460D46002400F006FAF0B3DFF884103046FFF788FFDFF87C103046FFF783FF30462946FFF796
S351000158707FFFDFF8704030462146FFF779FFDFF868103046FFF774FFDFF860103046FFF76FFFDFF85C103046FFF76AFFDFF854103046FFF765FF30462946FFF761FF30462146FFF75DFFDFF8401030461C
S351000158BCFFF758FF30462946FFF754FFDFF830103046FFF74FFF01242046BDE8704070472157050021580500285805007E570500CE570500A05705002C5805003758050045580500F8B507464D6C886CD0
S3510001590801242E180BE0721BFF2A88BFFF2238462946FFF777FF08B9002402E0FF35B542F1D32046BDE8F840704700002DE9F04F85B0824689464FF0000800294ED0002400250E1D4FF0FF0B42E07719B1
S35100015954786C50B150463946FFF774FF68B350463946FFF7CBFF804627E03846FBF7B6F918B307F10D00FBF7B1F9F0B107F10D0001A90022FEF70CFC0028504611D03946FFF758FF48B1DFF8541001A89E
S351000159A052460023CDF800B0FEF784FD804601A8FEF76AFC03E0DFF83C10FFF7D9FEB8F1000F504602D0DFF8301001E0DFF82C10FFF786FE641C4C35D9F80000844201D2042CB6D3404605B0BDE8F04F89
S351000159EC7047C0460D5801004B5805007B5805009158050078B583B0054629684068EB69303140F2FF120024FCF7A6F9421E40F2FD118A4200F27F802968081880F83040A969DFF81A0109B1FEF76CFC34
S35100015A38296828463031FFF74FFE296800AE304630310522FBF7EEF83046FBF725FD2968C862296891F830028007C00F00F05C80C96A40F20920814233DC80F25E80B1F5E27F16DCB1F5E17F0ADB1CBF41
S35100015A8440F2C310814200F05280B1F5E27F00F04E8041E0DD2901DC49D03DE040F2A510814244D038E040F2F510814204DC3EDAB1F5FA7F3BD02FE0B1F5FC7F2CDCB1F5FB7F29DB1CBF40F2F710814221
S35100015AD02FD0B1F5FC7F2CD020E040F2272081420FDC26DA40F21720814205DC21DA40F2122081421DD011E040F22620814218D00CE040F22920814204DC12DAB1F50A7F0FD003E040F22A2081420AD010
S35100015B1C012408E0FCE7DFF82A102846FFF7DAFD28680721816295F82C0120F0010085F82C01204603B0BDE878407047C046A3580500AE58050000002DE9F84183B080460F46D8F8001000AC16462046C1
S35100015B6830314FF400720025FBF75CF820463946FBF736F946B1DFF844102046FBF730F920463146FBF72CF9DFF8341000A8FBF727F900994046FFF7E7FD50B1DFF824104046FFF7E1FD054618B14046FE
S35100015BB4FFF724FF0546284603B0BDE8F8417047D7570500CE570500D657050070B5064615460024FFF7CAFD88B1DFF82C103046FFF7C4FD58B130462946FFF7BFFD30B1DFF818103046FFF7B9FD00B17C
S35100015C0001242046BDE870407047C046C5580500CE57050070B5DFF83C1006460025FFF7A7FD90B1DFF8304030462146FFF7A0FD58B1DFF828103046FFF79AFD28B130462146FFF795FD00B1012528467F
S35100015C4CBDE870407047C0469D560500CE570500AF56050070B5DFF83040064621460025FFF780FD58B1DFF824103046FFF77AFD28B130462146FFF775FD00B101252846BDE870407047C046CE5705007A
S35100015C988556050038B5054629684068C9680024FCF7DCF8002818BF012407D1286813218162DFF810102846FFF70EFD2046BDE838407047C858050070B5016800250646CC68002800F0778040680021D9
S35100015CE4FCF78EF8002868D070682146FCF71CF9002856D070682146FCF792F8002849D0D4F8E00280078017012818BF012503D13046FFF7C1FF0546002D56D0DFF8B41030460025FFF7DAFC3046FFF704
S35100015D3067FE00284BD0304600F072F8002846D0D4F8E00280078017022815D1304600F07DF840B13046FFF7A1FF70B1304600F05FF8054609E0306808218162DFF86C103046FFF7B5FC00E0012545B392
S35100015D7C94F8E402C007C00F23D0304600F06AF80546F0B93068092181621AE03068062181623046DFF83C1011E0306805218162B169DFF8340009B1FEF7ACFA3046A11D05E0306804218162DFF8201077
S35100015DC83046FFF789FC2846BDE870407047C046DA58050008590500265905003F5905005E5905003EB5054600AC204629463222FAF718FF2046FAF735FFDFF81810FBF709F80028A4BF2818451C28466B
S35100015E14BDE83E407047C0467459050010B504460068C0683C30FFF7DFFF0246DFF814102046FFF78DFE10B9216809228A62BDE81040704776590500DFF80810DFF80830002218477B590500555B01008E
S35100015E602DE9F04101680022D1F80C80DFF8881005460024FFF76EFED0B3296808F16E0030314FF4007200F07FF9002830DB296828463031FFF76CFCDFF8607028463946FFF766FCDFF85860284631463E
S35100015EACFFF760FC2846FFF7A5FDD8B1296808F1A00030314FF4007200F060F9002811DB296828463031FFF74DFC28463946FFF749FC28463146FFF745FC2846FFF78AFD00B101242046BDE8F04170478E
S35100015EF884590500CE570500D65705002DE9F04F91B0824600688B46D0F80C80012000900EA801A934224FF00009FAF777FE00260025344608F1E60731E0BBF1000F16D00EA8FAF797FEDFF87E10FAF72A
S35100015F4451FF0EA83919FAF74DFFDFF872100EA8FAF748FFDFF86A100E9A5046FFF7F8FD10E000980028504602D0DFF85A1001E0DFF85610FFF7FAFB002000905046B919FFF7F4FB8146B9F1000F06D0FF
S35100015F906D1C32363234D8F8DC028542C9D3BBF1000F07D1B9F1000F04D0DFF826105046FFF7DEFB484611B0BDE8F04F70478F59050091590500935905009C590500A1590500CE5705000000F8B590B0FD
S35100015FDC074600680E460DACC568204600A93422FAF712FEAEB1DFF842102046FAF7F6FE204605F13C01FAF7F1FEDFF832102046FAF7ECFEDFF82A100D9A3846FFF79CFD06E0DFF82210384605F13C0211
S35100016028FFF7D2FD10B0BDE8F8407047C0468F59050091590500A4590500AF5905000000F8B590B00DAD0446284600A932220027FAF7DCFD2668304600F0B0F900284ED0F1782846FAF7B0FF28462021C5
S35100016074FAF7ACFEB078FBF7DFFA01462846FAF7B1FE28462021FAF7A1FE31882846FAF7ABFF28462021FAF799FE31792846FAF795FF28463A21FAF791FE71792846FAF78DFF28463A21FAF789FEB17998
S351000160C02846FAF785FF206890F830024007C00F284609D0DFF83A10FAF786FE216828468968FBF781FA03E0DFF82A10FAF77CFE0DA8FAF7BBFD0246DFF81E1012682046FFF766FD0746384610B0BDE8AD
S3510001610CF8407047C046D7570500B4590500BB590500000010B503789C10DFF85C301C570C70047804F0030C447804F0F004241144EA0C141C57012A4C7081BF90F801C00CF00F0490F802C00CF0C00C05
S3510001615883BF4FEAAC1C4CEA84041B573D238B70022A81BF807800F03F02DFF81000805698BF3D20C870BDE8104070474456050070B506460D461446FAF7A6FD014630462A46234600F00AF8002804DB5C
S351000161A4611E8842BCBF00212954BDE8704070472DE9FE4F164680460F4699464FF0FF32002500240DF1040B2FE0002300214FEA0B0E08EB050C03209CF900A08EF800A0BD4208D25B1C6D1C491C0CF159
S351000161F0010C0EF1010E401EF0DCC3B1584600A91A46FFF78DFF4FF0000A00AB311904204C453FBF1A7801F8012B641C224628BF4FF0FF325B1C0AF1010A401EF0DCBD42CDD31046BDE8FE4F704700004E
S3510001623C002300220360042100EB020CCCF84C304C32CCF84830491EF6DC70472DE9F84183B0074600200E4615461FB33968042920D24FF04C0800AC3A1D01FB08F1511820460D22FAF7D4FC2046294610
S35100016288FAF7AEFD396807F1110201FB08F1511820463422FAF7C6FC20463146FAF7A0FD3868401C3860012003B0BDE8F841704710B50446DFF838C08E4623462622BCE8030003C3521EFAD1C4F800E09F
S351000162D4DEF810006060DEF81800E06104F5907004F120014FF48072FAF792FC0120BDE810407047F84F0500DFF80C209060D16000201060506070471410FF1F10B5DFF81E40216809B1884705E0A1686F
S3510001632019B100F003F9A2689047BDE810407047C0461410FF1F000010B5DFF81E1004464A680AB1904705E0C86818B18047224600F03AF9BDE8104070471410FF1F000010B5B0F800C0ACF2DC7189B2D6
S3510001636C0023BC2914D88478621ED1B20B290FD8DFF82410022C8A5C04D11CF0030101D1521CD2B2C078012802D3904298BF01231846BDE810407047D059050001780022172906D841783B2903D88078A4
S351000163B83B2898BF012210467047000038B505460124FFF7C9FF00B90024281DFFF7E8FF00B900242046BDE838407047DFF818100A8802804A8842800A7902714A794271897981717047C046C059050095
S35100016404F8B507460726FFF7A9FFE8B1BC783D88DFF83C00611EEBB2415C03EB930080B2801D0818FA780721101880B23BF02CFD8EB215F0030007D1022C05D8002E08BF062601D0761EB6B23046BDE836
S35100016450F8407047F4590500042330F8022B21F8022B5B1EF9D1704708B500F015F845F28012C0F2010200233BF020FCBDE808407047000008B500F007F83C2200233BF015FCBDE80840704770B50E4630
S3510001649C00F046F8054630460C4600F041F8401BA141BDE87040704770B50E4600F038F8054630460C4600F033F82A1A74EB0102B8BF022005DB401B71EB0400B4BF01200020BDE87040704770B5064628
S351000164E800250024FFF738FFA8B1B278DFF83000511E30F811002918F07845EB05040D18308844F1000410F0030004D1022A02D96D1C44F1000428462146BDE870407047DC59050070B50646002500244B
S35100016534FFF746FF00283ED0308840F26D11A0F2B27202FB01F38108A1F5F672D1179D1841EBE374B378DFF868105A1E31F812106D18F17844F10004491E6D1844EBE17410F0030004D1022B02D86D1EAF
S3510001658064F1000445F28012C0F201020023A5FB020105FB031104FB021134794FF461626243851841EBE27471793C2048432D1844EBE074B0792D185C4128462146BDE870407047DC5905002DE9F04188
S351000165CC164645F28012C0F20102002380460F463BF06EFB451C41F1000445F2801240463946C0F2010200233BF05AFB80460F464FF4616200233BF05BFB3071404639464FF4616200233BF04BFB804648
S351000166180F463C2200233BF04DFB7071404639463C2200233BF03EFBB07140F2B270308080B210F0030040F26D1208BF4FF4B77200230CE03088AD1A9C41401C308080B210F0030040F26D1208BF4FF476
S35100016664B772511B73EB0401EEDBDFF84E304FF0010E0C214FF0000CBEF1020F02D108B94FF0010C03EB0E02521E127894444FEAEC77BCEB050277EB0402A8BF86F802E006DAB5EB0C05BC410EF1010E82
S351000166B0491EE1DCF570BDE8F0417047C046D0590500000008B5008864213BF0DFFBC8B2FAF7AAF8C0B2BDE80840704708B58078FAF7A2F8C0B2BDE80840704708B5C078FAF79AF8C0B2BDE80840704777
S351000166FC08B50078FAF792F8C0B2BDE80840704708B54078FAF78AF8C0B2BDE80840704708B58078FAF782F8C0B2BDE80840704710B50C46FAF794F800F5FA602080BDE81040704710B50C46FAF78AF898
S35100016748A070BDE81040704710B50C46FAF782F8E070BDE81040704710B50C46FAF77AF82070BDE81040704710B50C46FAF772F86070BDE81040704710B50C46FAF76AF8A070BDE81040704738B50546C2
S351000167944078FAF747F8C4B22878FAF743F8C0B244EA002080B2BDE83840704738B5DFF82C20054613790C460B705379C0F307204B7092798A70FAF747F82070E8B2FAF743F86070BDE838407047C04678
S351000167E0C059050038B50546008864213BF04EFBC8B2FAF719F8C0B2000440F00004A878FAF712F8C0B244EA0024E878FAF70CF8C0B204432046BDE83840704738B5DFF8342005461388C0F307400B80BF
S3510001682C52880C464A80FAF713F800F5FA602080C5F30720FAF70CF8A070E8B2FAF708F8E070BDE838407047C059050038B505460078F9F7E3FFC0B2000440F000046878F9F7DCFFC0B244EA0024A878CC
S35100016878F9F7D6FFC0B204432046BDE83840704738B5DFF83420054613790C460B705379C0F307404B7092798A70F9F7DBFF2070C5F30720F9F7D6FF6070E8B2F9F7D2FFA070BDE838407047C0590500A8
S351000168C438B505468078F9F7ADFFC0B2000640F00004E878F9F7A6FFC0B244EA00442879F9F7A0FFC0B244EA00246879F9F79AFFC0B204432046BDE83840704738B5DFF84820054613880C460B80538815
S35100016910C0F307604B8013790B7153794B7192798A71F9F79BFFA070C5F30740F9F796FFE070C5F30720F9F791FF2071E8B2F9F78DFF6071BDE838407047C046C059050038B50546C8780C46F9F766FF5D
S3510001695C2870A078F9F762FF6870208864213BF08FFAC8B2F9F75AFFA870BDE83840704738B5054600780C46F9F76AFFE0706878F9F766FFA070A878F9F762FF00F5FA602080BDE838407047002388426E
S351000169A807D38A4238BF012308D3824288BF012304E0824202D98A4238BF012318467047F8B51546074628460E46002438F04AFA102805D9384631462A4600F065F801242046BDE8F8407047F8B51646BB
S351000169F40746304600244D4238F036FA102805D938462946324600F051F801242046BDE8F840704738B514460A68054612F0030210D04FF0000CC2F1040E002305E00A6882180CF802300CF1010CF44527
S35100016A40F7D30868704408600968284689082246FFF7BAFF002814BF01200020BDE838407047000038B514460A68054612F0030210D04FF0000CC2F1040E002305E00A6882180CF802300CF1010CF4458E
S35100016A8CF7D30868704408600968284689082246FFF7A8FF002814BF01200020BDE83840704700002DE9F84F012957DD342393FBF1F3A1F1010A9C1D50F82A304FF0000C48F24765C6F2C815ACEB050CF2
S35100016AD84F1E0097CCF38105002607461FE000EB8608D8F804B04FEA8B084FEA031988EA531889EADB09C1448CEA0B0806F0030B8BEA050B52F82BB083EA0B034344D7F800E089EA0303734447F8043BC3
S35100016B24761CDDF800804645DBDB06F00306D0F8009075404FEA89074FEA031B8BEAD90B87EA531752F825508CEA09096B4050F82A805F444B447B40434440F82A30641EB2D156E0B1F1FF3F53DAC1F1B2
S35100016B700008342191FBF8F18B1D47F6B911C9F63761046803FB01F9A8F10107C9F38101A8F101031DE000EB8306351FD5F800A0A50085EA5A1B4FEA0A1585EAD4055D4403F0030B8BEA010B52F82BB077
S35100016BBC89EA04048AEA0B0A544436686C40341B40F823405B1E002BDFDC03F00303594050F827A0A50052F8211085EA5A1B4FEA0A1585EAD40589EA04048AEA010106685D4461186940741A48F2476180
S35100016C08C6F2C81189440460B9F1000FBAD1BDE8F84F704738B5DFF82C4000256060A160E260DFF8240025702061DFF8200000210222FBF70DFA3220206284F82450BDE8384070472410FF1F697001002E
S35100016C543C10FF1FDFF80410486170472410FF1F10B5DFF81C40DFF81C00216AFBF712FA10B9012184F82410BDE810407047C0462410FF1F3C10FF1FDFF80C10002291F8240081F8242070472410FF1FE1
S35100016CA0DFF80800012101707047C0462410FF1FDFF80800002101707047C0462410FF1FDFF80400007870472410FF1F2DE9F0410024DFF84670002625464FF0010810E0F868B9683B69001949190022C1
S35100016CEC984728B9F8680159B868415187F80080761C0C342D1D78688642EBD3387800280CBF01200020BDE8F0417047C0462410FF1F000070B506460D460024FFF79CFF40B13046294600F00BF8044653
S35100016D38DFF80C00FBF7BCF92046BDE8704070473C10FF1FF8B5DFF8307006467A6800240D4690420CD200F011F804460C2079697043081882681AB129683046904728602046BDE8F84070472410FF1F9E
S35100016D84DFF81820536898423FBF926852F820000860012028BF00207047C0462410FF1F70B506460D460024FFF75AFF48B130462946012200F00CF80446DFF81000FBF779F92046BDE870407047C046DE
S35100016DD03C10FF1F2DE9F843DFF85EC00C2300FB03F6DCF814301746DCF8082052F820E09B59814688460024002501221BB1724601259847024645B942B1484641463A4600F016F810B1012400E0144678
S35100016E1C44B1DFF81A0040698019426812B14846414690472046BDE8F8437047C0462410FF1F00000FB470B5DFF83A60054671681446884212D20C214843F2683369101805A90022984748B10599B06894
S35100016E68002C40F8251001D001203070012000E00020BDE8704004B070472410FF1F000008B5FFF7EBFE28B100F032F8DFF80C00FBF70EF9BDE808407047C0463C10FF1F70B5DFF84260FFF7D9FEC0B11E
S35100016EB4002400250CE0F06801224159B06840F82410F16820464959FFF782FF641C0C3570688442EFD301203070DFF81200FBF7E9F8BDE870407047C0462410FF1F3C10FF1F0000DFF826104FF0000C21
S35100016F00002007E0CA6813588A680C3042F82C300CF1010C4A689445F4D3012008707047C0462410FF1F0000DFF8181000234A68904204D2CA680C2148431018436818467047C0462410FF1FDFF818102D
S35100016F4C00234A68904204D2CA680C2148431018836818467047C0462410FF1FDFF8141000234A68904203D2CA680C2148431358184670472410FF1FDFF80400406870472410FF1F08B500A9FFF7C4FE2E
S35100016F98002814BF00980020BDE8084070470000DFF804301847C046A56D010038B50D46002400A90094FFF7AFFE0098284218BF01242046BDE83840704700007CB50D4600A906461446FFF79FFE80B1B9
S35100016FE4002C1DBF009840EA05010091009804BF20EA050100913046FFF7D2FE08B1012000E00020BDE87C407047000038B50C4600A90546FFF782FE48B1009880EA040128460091FFF7BCFE08B101209D
S3510001703000E00020BDE838407047000008B500A9FFF76EFE002814BF00980020BDE808407047000008B5FFF7A5FE002814BF01200020BDE80840704710B5002388B181B1D1F800C04468A44538BFA44692
S3510001707C04D3806884458CBF844601231BB912B1C1F800C001231846BDE8104070470000F8B5002480F85C100646A0F85E4080F860402030642115461F46F9F7B9FC0698B465F0600798347130610898BD
S351000170C83760F06196F8610040F00400C0B220F00200C0B220F00800C0B220F01000C0B220F02000C0B220F0010040F0010086F86100B46174633565BDE8F840704700004163704781637047C1637047AA
S3510001711441647047C1647047406B002100B1012108467047806B002100B1012108467047C06B002100B1012108467047006C002100B1012108467047406C002100B1012108467047806C002100B101215A
S3510001716008467047C06C002100B10121084670470021A0F85E107047B0F85E201143A0F85E10704770B506460D460024FFF7C6FF20B1726B30462946904704462046BDE8704070472DE9F04180460F4672
