S0030000FC
S35100010000FFFB0020111C030015780400157804001578040015780400157804000000000000000000000000000000000059040100157804000000000029050100157804001578040015780400157804002C
S3510001004C157804001578040015780400157804001578040015780400157804001578040015780400157804001578040015780400157804001578040015780400157804001578040015780400157804009E
S351000100981578040015780400157804001578040015780400157804001578040015780400157804001578040015780400157804001578040015780400157804001578040015780400157804001578040052
S351000100E41578040015780400157804001578040015780400157804001578040015780400157804001578040015780400157804001578040015780400157804001578040015780400157804001578040006
S3510001013015780400157804001578040015780400157804001578040015780400157804001578040015780400157804001578040015780400157804001578040015780400157804001578040015780400B9
S3510001017C157804001578040015780400157804001578040015780400157804001578040015780400157804001578040015780400157804001578040015780400157804001578040015780400157804006D
S351000101C81578040015780400157804001578040015780400157804001578040015780400157804001578040015780400157804001578040015780400157804001578040015780400157804001578040021
S3510001021415780400157804001578040015780400157804001578040015780400157804001578040015780400157804001578040015780400157804001578040015780400157804001578040015780400D4
S351000102601578040015780400157804001578040015780400157804001578040015780400157804001578040015780400157804001578040015780400157804001578040015780400157804001578040088
S351000102AC157804001578040015780400157804001578040015780400157804001578040015780400157804001578040015780400157804001578040015780400157804001578040015780400157804003C
S351000102F815780400157804001578040015780400157804001578040015780400157804001578040015780400157804001578040015780400157804001578040015780400157804001578040015780400F0
S3510001034415780400157804001578040015780400157804001578040015780400157804001578040015780400157804001578040015780400157804001578040015780400157804001578040015780400A3
S351000103901578040015780400157804001578040015780400157804001578040015780400157804001578040015780400157804001578040015780400157804001578040015780400157804001578040057
S339000103DC157804001578040015780400157804001578040015780400157804001578040015780400FFFFFFFFFFFFFFFFFFFFFFFFFEFFFFFFDE
S3510001042001DF704701DFFFF7FEBFDFF84003D0F8000072B6B0F8181051B9D0F82410D0F81C20D2F81C30994200F0028062B603DF62B6704702DF70474DF804ED72B61EF0040F0CBFEFF30881EFF3098196
S3510001046CD1F8181011F8021C032940F0048000F038F800F033B8012940F00880DFF8E002D0F800005DF804EB00F05BB8022940F02580DFF8CC02D0F80000D0F81C10D1F8082042F00102C1F808204DF8F3
S351000104B8041DD0F8401011F0010F1EBF4DF804ED24F0A4FA5DF804EB5DF8041BD1F80420D1F80030C2F80030C3F8042000F003F862B65DF804FB2DE90F40EFF31182A2F11002DFF87402D0F8041011F07B
S35100010504805F00F0058090F822309A4280F0088080F82220DFF8582251EA0201C0F80410BDE80F8072B6EFF3098CDFF8481291F80220EFF311832CE9FC4FDFF82C02D0F80000D0F81C30C3F814C072B670
S35100010550D0F82410D1F800208A4240F01680D1F808105FEA01017FF4F5AF81F31188DFF80812DFF8082281F8022062B6AFF3038072B6D0F82010FFF7E5BFC0F82410C0F81C20B2F82430A0F81A30D2F883
S3510001059C14C0BCE8FC4F83F311888CF309884DF8041DD0F8401011F0010F1EBF4DF804ED24F086FA5DF804EB5DF8041B62B6704772B64DF804EDDFF89831D3F80030B3F8181001F10101A3F81810DFF813
S351000105E898014DF8040DEFF31182EFF30581D3F834002DE90700EFF30880C3F834004FEA0100D3F8401011F0010F00F006802DE90F0024F085FABDE80F00D3F830200AB900F059B8904200F25680D3F8F3
S351000106342C20811AC0F25180D3F838204FEAD1014FEA810152F8011009B900F046B8D1F8002042B1824200F00880D1F8101011EA010F7FF4F4AF00F038B8D1F80C00D1F8042062B64DF8043D90475DF887
S35100010680043B72B6D3F8401011F0010F00F00880EFF305802DE90F0024F072FABDE80F00BDE80700C3F834005DF8040BB3F81810491EA3F81810D3F81C20D2F8280010F4805F40F0098039B9D3F82410DA
S351000106CCD1F80010914218BFFFF70BFF62B65DF804FBD3F82820FFF7C8BF72B62DE9F100DFF87C30D3F80030D3F834C00CF1100C5CF804EBDFF8800020F00100CCF818009CE8FF005DF804CBACF1040CFC
S351000107182CE9FF00BDE8F0008CF3088862B670472DE9024090F8001011F0800F03BF41F0800180F8001080EA00004FF08000BDE80280EFF309807047EFF308807047EFF3038070477046704778467047FA
S3510001076462B6704772B67047B80AFF1F00ED00E00000001020ED00E0FF000000000000007F060100002303E010F8012B9B189BB20A46491EC9B2002AF6D1D84380B27047002303E010F8012B9B189BB2CA
S351000107B00A46491E89B2002AF6D1D84380B27047B0FBF1FC01FB0CF1C2F800C0401A1860704700000028B8BFA0EB400070470000DFF81630426832B10268914208BF436801D00830F6E718467047AC5703
S351000107FC0500000070B506460D464FF0FF34716839B128463FF0DCFA08B9346801E00836F5E72046BDE870407047000070B50646002500240EE030460A2142F069FA01FA04F080B2054330460A2142F055
S3510001084861FA241D86B2A4B2002EEED12846BDE870407047002304215A0093B29A0092B29B18C0F30F329BB29B1800019BB280B2491EF1DC18467047DFF8081051F820007047C046B057050008B501F0C8
S351000108940702DFF8301051F8221042F0A3FF41F0EDFF0B46002102460020C3F6E0713FF0F1FE42F01BFD0028B8BF002080B2BDE808407047B0570500DFF8041008607047800EFF1FDFF804300220184756
S351000108E075090100DFF80430012018477509010070B5DFF8405004462968496909B1884715E0012000F05AF888B12868006970B1012000F02FF8064603E02868006900B180473046214600F007F8002823
S3510001092CF5D0BDE870407047800EFF1F70B5064601200D46012400F017F8801BA84238BF00242046BDE870407047000038B5054602200C4600F008F8401BA0422CBF01200020BDE83840704738B50546CF
S35100010978002400F01FF8A8B125B1012D07D0022D0AD00FE0DFF826000068006808E0DFF81E000068406803E0DFF8120000688068804704462046BDE838407047C046800EFF1F0000002120B1012808D00F
S351000109C402280CD011E0DFF826000068006860B10AE0DFF81A000068406830B104E0DFF80E000068806800B1012108467047800EFF1F000010B58160C168044621F00F01C16008070017FFF7B3FF2060F9
S35100010A106060207C20F0010040F00100C0B240F002002074BDE810407047000010B58160C168044621F00F0141F00101C16008070017FFF797FF20606060207C20F0010040F00100C0B240F0020020747B
S35100010A5CBDE810407047000010B58160C168044621F00F0141F00201C16008070017FFF77BFF20606060207C20F0010040F00100C0B240F002002074BDE810407047000038B5017C05468A070024D20F29
S35100010AA818D0C907C90F05D0C06800070017FFF75DFF6860AA68B2F1FF3F08BF002409D069682868081A904221BF287C20F00100287401242046BDE83840704708B5017CC907C90F08BF002001D0FFF70A
S35100010AF4D3FFBDE80840704770B50546FFF7CCFF0446E8B1E8682E680007001704D0012807D002280AD00DE0A9682846FFF76AFF08E0A9682846FFF77FFF03E0A9682846FFF796FFA8683118286881420A
S35100010B4088BF29602046BDE87040704708B5C1680907091704D0012906D0022908D00AE08168FFF749FF06E08168FFF75FFF02E08168FFF777FFBDE80840704710B5017C04468A07D20F13D0C907C90F9B
S35100010B8C0ED08168B1F1FF3F08BF00200BD0C06800070017FFF7E8FE21686060401A02E0806800E00020BDE81040704738B5017C0546C9070024C90F15D0C06800070017FFF7D2FE297C68608907C90F2B
S35100010BD80BD0AA68B2F1FF3F08BF4FF0FF3404D02968401A904200D2141A2046BDE838407047000003680022994205D38068C91A401E814238BF01221046704710B5044600F008F8206800210170204626
S35100010C24BDE81040704700000160416082607047016800220A70016841607047436893F900207AB1816859188B420BD2A2F16101C9B219299CBFA2F1200119704168491C4160EBE770470000016841605E
S35100010C707047000041680068081A704781684A1E41680068081A101A7047000010B50C46FFF7F4FFA0422CBF01200020BDE81040704700004368016880680022091804E093F9000018B15B1C521C8B4247
S35100010CBCF8D3104670470000DFF804301847C046EDFC04000022836808E0016801EB020C895611B9C0F804C002E0521C9A42F4D383689A4203D10168C918491E416070470368994204D382689A18914210
S35100010D0838BF41607047000010B5026804465118FFF7F0FF2046BDE81040704741680068081A7047D0F804C00268ACEB02038268521E93423ABF0CF10102426000218CF800107047416800220A707047C2
S35100010D5410B54FF0000C002284680CE003689B5623B98A4228BF4FF0010C06E0203BDBB25E2B02D8521CA242F0D36046BDE810407047000010B50DE044680368A4EB030C83685B1E9C4507D2631C4360CC
S35100010DA011F9013B2370521E002AEFD1BDE810407047000010B50446FFF7B8FF6068002101702046BDE81040704700000FE0D0F804C00268ACEB02038268521E93420AD20CF10102426011F9012B8CF811
S35100010DEC002091F90020002AEBD1416800220A707047000070B5064640684FF0FF343FF013F9054630462946FFF7F2FE08B130682C1A2046BDE870407047000038B5054640683FF001F9044628462146FB
S35100010E38FFF7E0FE00B900242046BDE8384070472DE9F8431446064620460D463EF04AFF8046706800273EF045FF024600210020736803EB0209336809EB080EAEEB030CB3689C4508D2002F07BF8EF823
S35100010E840000012799F900308EF80030002A08BF012100D0521EAA4201D30029E2D0716830464919FFF728FF002505E014F9011B3046FFF739FF6D1C4545F7D317B97068002101703046FFF701FF3046EF
S35100010ED0BDE8F8437047000070B5144602680D4606465118FFF70AFF3168304649190919FFF76CFF3046BDE87040704710B5DFF8182004465156FFF711FF6068002101702046BDE810407047C05705007F
S35100010F1CF8B5DFF830600F46C1F3071171560446FFF7FEFE07F00F0160680025057071562046FFF7F5FE606805702046BDE8F8407047C046C057050038B50C460546C1F30721FFF7DDFF2846E1B2FFF743
S35100010F68D9FF2846BDE838407047000038B50C46C1F30F410546C1F30721FFF7CBFF2846C4F30741FFF7C6FFA1B22846C1F30721FFF7C0FF2846E1B2FFF7BCFF2846BDE83840704710B504460846FFF731
S35100010FB439FCC2B2DFF8181020468956FFF7B4FE6068002101702046BDE810407047C046C057050010B504460846FFF723FC01462046C9B2FFF798FF2046BDE81040704738B50C4605462046FFF714FC98
S3510001100001462846C1F30721FFF788FF2046FFF70BFC01462846C9B2FFF780FF2846BDE838407047F8B50E4642F2107407463046214641F079FF05463846A9B2FFF7DAFF05FB04F1711A384689B2FFF797
S3510001104CD3FF3846BDE8F840704700003EB5054642F20F701446814205DD084642F2107141F04EFE09B2042C88BF04240020009001942E2002902846621C302300F0B6F82846BDE83E40704778B583B0F9
S35100011098064642F20F7015461C46814205DD084642F2107141F02EFE09B2042D88BF0425009501942E20029030462A46302300F097F8304603B0BDE878407047FEB500914568DFF8527006460024009857
S351000110E40A2100AA01ABFFF769FB019930467956FFF71AFE0098641C0028F0D17068002303700193621E09E0D01AE9562856E8540198101A29540198431C0193B3EB540FF2D33046BDE8FE407047C057E9
S351000111300500000038B505460C46002906DA2D21FFF7F4FD686800210170644228462146FFF7C0FF2846BDE8384070472DE9FE434468814690461F460A9EFFF7B3FF48462146FFF7C3FD4846FFF794FDB6
S3510001117C054646450ED3B0420CD94846A119FFF7B7FDD9F8040000210170484621463546FFF7AEFD002300A803E000F8017B5B1C6D1C4545F9D3002100AAD15413B14846FFF744FE48462146FFF79AFDB4
S351000111C80B9A72B1AA420CD80AA890F9081000A8017000214170A91A484689B200AAFFF72FFE4846FFF770FD4846BDE8FE437047FEB507460E4615461C46002906DA2D21FFF790FD786800210170764274
S3510001121408983146009009982A46019008A890F90800029038462346FFF796FF3846BDE8FE4070472DE9F84183B006460D461446082A88BF08244FF07C5800270CE0404641F014FB00230022C4F22403B3
S3510001126043F0B4FD40F06EFB80467F1CA742F0D328460021002741F0D5FA2846414603D342F050FD054608E042F078FF054630462D21FFF74BFD70680770284641F03AFF8046FFF797FA01463046FFF761
S351000112AC43FF54B330462E21FFF73AFD706800270770404641F05AFB0146284642F058FF0AE041F0D7FA0023C4F2240300223FF099FF40F031FB7F1CA742F2D341F014FFFFF772FA014600940020019048
S351000112F820200290304622463023FFF779FF304603B0BDE8F84170472DE9F84F82460026DDF828B00B980091914698460B900024012735462BB10AB1082A07D94FF0080904E00AB10A2A01D94FF00A0939
S351000113445046FFF799FC01284AD3DAF8040090F90000002844D05EB9B8F1000F08D1BBF1000F05D02D2804BF4FF0FF3701262DD0A0F13002D1B2092909D8B8F1000F01D02D0101E00A204543D0B22D1801
S351000113900BE0B8F1000F0BD0A0F14101C9B2052906D83738C0B200EB0515012601240FE0B8F1000F06D0A0F16101C9B2052901D85738EFE776B90B9810B9B9F1010F09D9DAF80400401CCAF80400002C4E
S351000113DCB2D0B9F10109AFD15CB1009805FB07F101600EE0DAF80400401CCAF80400A9F10109B9F1000F04D05046FFF739FC0128F0D22046BDE8F84F7047000018B583B00024009402A9022201230194FE
S35100011428FFF772FF00B902940298C0B203B0BDE81840704718B583B00024009402A9042201230194FFF760FF00B90294029880B203B0BDE81840704718B583B00024009402A9082201230194FFF74EFFA6
S3510001147400B90294029803B0BDE818407047000018B583B00024009402A9012200230194FFF73CFF00B902940298C0B203B0BDE81840704718B583B00024009402A9042200230194FFF72AFF00B90294F5
S351000114C0029880B203B0BDE81840704718B583B00024009402A90A2200230194FFF718FF00B90294029803B0BDE818407047000018B583B001210091002402A90A2200230194FFF705FF00B902940298B9
S3510001150C03B0BDE81840704770B5044608780E46FFF784F901462046C9B2FFF7F9FC20463A21FFF7FDFB6068002505707078FFF775F901462046C9B2FFF7EAFC20463A21FFF7EEFB60680570B078FFF700
S3510001155867F901462046C9B2FFF7DCFC2046BDE87040704770B50446C8780E46FFF758F901462046C9B2FFF7CDFC20462F21FFF7D1FB606800250570B078FFF749F901462046C9B2FFF7BEFC20462F217F
S351000115A4FFF7C2FB606864210570308841F0ACFBC8B2FFF737F901462046C9B2FFF7ACFC2046BDE87040704770B5064615461C46FFF7CAFF30462946FFF7F6FB30462146FFF796FF3046BDE87040704774
S351000115F03EB505460C460029ACBFDFF84010DFF840102846FFF7E2FB2046FFF7E3F8C11700AA05F089F801AC204605F01FF901462846FFF77BFC204605F020F901462846FFF774FC2846BDE83E407047AD
S3510001163C685805006A580500411EDFF814200B299CBFDFF8100050F8212010467047C046D1570500D45705002DE9F041C1F3076407460E4620460A2141F04AFBC0B2FFF7D5F801463846C9B2FFF74AFC37
S3510001168820460A2141F03EFBC8B2FFF7C9F8C1B2DFF8E05038466956FFF744FB78680024047038462E21FFF73DFB7868C6F30748047040460A2141F025FBC0B2FFF7B0F801463846C9B2FFF725FC404639
S351000116D40A2141F019FBC8B2FFF7A4F8C1B269563846FFF721FB78682E2104703846FFF71BFB7868C6F30728047040460A2141F003FBC0B2FFF78EF801463846C9B2FFF703FC40460A2141F0F7FAC8B2CC
S35100011720FFF782F8C1B269563846FFF7FFFA78682E2104703846FFF7F9FA7868F6B2047030460A2141F0E2FAC0B2FFF76DF801463846C9B2FFF7E2FB30460A2141F0D6FAC8B2FFF761F8C1B269563846B8
S3510001176CFFF7DEFA786804703846BDE8F0417047C05705002DE9F84F824601208B460090182700240425DAF80400DFF882104FF0010800263EF0E0FB814610BB0020002400902DE0B9F1010F11D0B9F140
S351000117B8020F07D0B9F1030F10D15046FFF75EFE642103E05046FFF759FE0A214843C0B202E05046FFF752FE3618F6B2B9F1010908BF4FF00008B8F1000FDDD1DAF8041006FA07F004435046491C083FBC
S35100011804FFF77AFA6D1EC2DCCBF800400098BDE8F84F7047C046B85805000000A0F130014AB2C9B20023092998BF13460DD9A0F14101C9B2052901D8373805E0A0F16101C9B2052901D8573843B2184681
S35100011850704700002DE9F041456806462C4620271BE0252A12D195F90100A8B195F9020090B1FFF7D5FF804695F90100FFF7D0FF48EA001004F8010BAD1C05E02B2A0CBF04F8017B04F8012B6D1C95F9FC
S3510001189C002022B13168B06808188542DBD30020207074603046BDE8F041704738B50C46DFF820100546FFF783FA28462146FFF77FFADFF814102846FFF77AFA2846BDE838407047C3580500C758050098
S351000118E870B50D46DFF8341006461446FFF76AFA30462946FFF766FADFF824103046FFF761FA30462146FFF75DFADFF818103046FFF758FA3046BDE870407047C35805003D580500C958050070B50D464C
S35100011934DFF8341006461446FFF746FA30462946FFF742FADFF824103046FFF73DFA30462146FFF7EDFBDFF818103046FFF734FA3046BDE870407047C35805003D580500C958050038B50C46DFF82010A8
S351000119800546FFF723FA28462146FFF71FFADFF814102846FFF71AFA2846BDE838407047CC580500C758050070B50D46DFF8341006461446FFF70AFA30462946FFF706FADFF824103046FFF701FA3046DA
S351000119CC2146FFF7FDF9DFF818103046FFF7F8F93046BDE870407047C35805003D580500CF58050070B50D46DFF8341006461446FFF7E6F930462946FFF7E2F9DFF824103046FFF7DDF930462146FFF7CD
S35100011A188DFBDFF818103046FFF7D4F93046BDE870407047C35805003D580500CF58050038B505460C4682B1DFF85610FFF7C2F928462146FFF7BEF9DFF84A102846FFF7B9F92846DFF842100FE0DFF882
S35100011A643610FFF7B1F928462146FFF7ADF9DFF82A102846FFF7A8F9DFF826102846FFF7A3F9DFF822102846FFF79EF92846BDE838407047C046C35805003D580500395805003B580500CF580500000055
S35100011AB02DE9F84F8246894690461F460A9E4FF0010B6AB942680168511A2BD0006832460123B8478346DAF80000CAF8040021E000241CE05046FFF7C9F80546504609EB04014246FFF748F9454513D845
S35100011AFCDAE90002DAF80010511A32460023B847DAF8001064198346CAF80410A8EB050810B1B8F1000FDFD15846BDE8F84F7047F8B504460F4616461D4639B10168FFF7DFF821682046C919FFF742F9B6
S35100011B48002D204600D104E0FFF794F8A84203D22046FFF78FF805466068079ADDF818C029463346E047034600280DDD226861682046891A59185118FFF7BCF8606800210170616820680B1A1846BDE860
S35100011B94F84070472DE9FE4F8246029191469B460026012401254AE095B1DAF80470DAF80080B8450CD050464146FFF79DF8DAF80020A7EB080150465118FFF7FDF80AE00021029A50460B46CDE9009B49
S35100011BE0FFF7A4FF0028D8BF002454B3DAF80070DFF85A10384600253EF07EF90246D8B1B84205D9411E91F900100D2900D1421E50461146FFF772F850460021FFF786F8DAF8040090F900000A2803D17E
S35100011C2C50460021FFF77CF8012603E05046FFF71FF800B90024002CB2D13046BDE8FE4F7047D35805000000DFF8041008607047840EFF1F90F8433023F0010343F001030160002180F843308280817158
S35100011C78704700003EB50D4690F8431021F0010180F84310002182800346016000AC2046991D3D22FEF7BAFF20462946FFF792F8BDE83E4070470000002238B190F84310C907C90F02D0006800B10122F6
S35100011CC41046704708B528B1801DFEF7F9FF08B1012000E00020BDE80840704710B50446FFF7E4FF002814BF0120002030B92046FFF7E8FF002814BF01200020002814BF01200020BDE8104070470000AE
S35100011D1038B5DFF8343004461B680D461B68002273B19847024658B1206885602168087B20F0010008732168087B20F0020008731046BDE838407047840EFF1F08B5DFF8181000220968496809B188473E
S35100011D5C02461046BDE808407047C046840EFF1F08B5DFF820C04FF0FF3EDCF800C0DCF808C0BCF1000F01D0E04786467046BDE808407047840EFF1F08B5DFF818304FF0000C1B68DB680BB19847844640
S35100011DA86046BDE808407047840EFF1F0B46844610461A46DFF8043061461847951D010008B50090084611461A46DFF80C30FFF76BFEBDE808407047B51D01007CB51446064620460D463DF07DFF02469D
S35100011DF4DFF81030284621460096FFF757FEBDE87C407047B51D010008B5DFF818200023126812690AB1904703461846BDE808407047C046840EFF1F08B5DFF818200023126852690AB190470346184610
S35100011E40BDE808407047C046840EFF1F08B5DFF818200023126892690AB1904703461846BDE808407047C046840EFF1F10B5DFF82820044612680023926A42B19047034628B1207B20F0010040F001006E
S35100011E8C20731846BDE810407047C046840EFF1F08B5DFF818304FF0000C1B68DB690BB1984784466046BDE808407047840EFF1F08B5DFF8182000231268126A0AB1904703461846BDE808407047C0469B
S35100011ED8840EFF1F08B586468C46104671466246FFF740FFBDE80840704700000EB5DFF81CC0CDF800C00190084611461A46049BFFF710FEBDE80E407047C046DD1E010008B5034608461146DFF80C2090
S35100011F24FFF738FEBDE808407047C046DD1E0100F8B588B005AE07460D46304601A910220024FEF765FE3046A91DFEF73DFF3046FEF78AFE00A9FFF711FC18B100980124286008E0DFF82A000068426A7B
S35100011F701AB1384629469047044695F8430020F0010104F00100084385F84300204608B0BDE8F8407047840EFF1F0000DFF8103084460B2203CBACE80300521EFAD17047D85805000FB410B5029C616878
S35100011FBCCA6C12B12068096D9047606890F85400C007C00F06D020680021FFF739FF2068FFF7B6FEBDE8104004B070472DE9F04188B0054603A800210024FFF78BFE30B303986A6C2946FFF74BFFE8B1B6
S35100012008029400AE0DF1080804AF0299A86C814210D2039801A9FFF74DFF0028F5D001980595049034773846CDF818800097FFF7BDFFEAE70A2000F0B3F9E6E70398FFF781FE002008B0BDE8F041704749
S35100012054DFF8041008607047880EFF1F08B5DFF828C04FF0000EDCF800301B6843B14260DCF800C00022DCF800C01346E04786467046BDE808407047880EFF1F0021DFF80830C9431847C046A12001008E
S351000120A008B5DFF818200023126892680AB1904703461846BDE808407047C046880EFF1F08B5DFF810100968C96801B18847BDE808407047880EFF1F08B5DFF816100968496909B1884701E0FFF7EAFF9E
S351000120ECBDE808407047880EFF1F000081600021C16001614FF0FF3102604360416170470021C16001614FF0FF3141617047000010B50446E268636800209A4210DA6269521C62619A42A8BF60612268F7
S351000121386069A368504318183DF012FDE068401CE0600120BDE810407047000038B5C368044600250022002B0CDD00F00FF802462069411C606821618142A8BF2561E068401EE0601046BDE838407047E4
S3510001218408B58446DCF80C200020002A0BDD0846DCF80020DCF81010DCF80830514359183DF0E0FC0120BDE808407047C06870474168C068081A704738B594461C46054604226346FFF796FF284621460E
S351000121D000F004F8BDE83840704700000FB438B50546FFF793FF002404E0284605A9FFF795FF641C69688C42F7DB05982862059800FB01F20020AA61E861BDE8384004B0704700000FB41CB5044600A9A5
S3510001221CFFF79AFFA2690098E369121A63F10003A261E3610598101843F10001A061E161204605A9FFF76CFF6268A069E169D31740F03CFD2062BDE81C4004B07047000038B594461C46054602226346D6
S35100012268FFF746FF2846214600F004F8BDE83840704700000FB438B50546FFF743FF002404E0284605A9FFF745FF641C68688442F7DBBDF8141001FB00F2D0172962AA61E861BDE8384004B070470000C5
S351000122B40FB41CB500A90446FFF74AFF00A8A2690088E369121A63F10003A261E361BDF81400101843F10001A061E161204605A9FFF71AFF6268A069E169D31740F0EAFC80B22062BDE81C4004B07047F7
S35100012300006A80B270470000DFF80410086070478C0EFF1F18B583B084460160426000AC836020460CF10C010B22FEF773FC06992046FEF74BFD03B0BDE81840704700000FB41CB50446002200A8027154
S3510001234CDFF81C000068036813B1069A00A898470099019821606060BDE81C4004B070478C0EFF1F0FB418B589B00146DFF8280003AC009020464FF47A720923FFF7C4FF0D9A01A82146FFF7D5FF01A804
S35100012398007909B0BDE8184004B070473059050008B5DFF810100968896801B18847BDE8084070478C0EFF1F08B5DFF810100968C96801B18847BDE8084070478C0EFF1F08B5DFF810100968096901B15B
S351000123E48847BDE8084070478C0EFF1F08B5DFF818304FF0000C1B689B690BB1984784466046BDE8084070478C0EFF1F08B5DFF8181000220968C96909B1884702461046BDE808407047C0468C0EFF1F5C
S3510001243008B5DFF810100968096A01B18847BDE8084070478C0EFF1F08B5DFF8301000220A744A748A74CA740A7508B1C860012242B1DFF818000021816001210022FFF7F7FD02461046BDE8084070479F
S3510001247C900EFF1F38B5DFF85E500446E8688047E97C2B7C084395F812C080EA03010CEA01016A7CC9B2114369746FEA0C01C9B20CEA0002194011432974C9B24840A874687D884207D0002C284602D09C
S351000124C8FFF706FE01E0FFF7F7FDDFF80E00017C4175BDE838407047C046900EFF1F00002DE9F047DFF89A408246894690461E46FEF7F4F90746514600252046FFF7CCFD002837D0484600F04FF828B3A0
S35100012514207CA16800EA0900C5B209B128468847B8F1000F28D02E4026D0207D284218BF45F0800520D141462046FFF7AFFDF0B200F02AF8C0B1FEF7CBF9C01B404528BF45F0800510D2A8EB0001EDE719
S35100012560BAF1FF3F07D2FEF7BDF9C01B504505D2AAEB0001C5E74FF0FF31C2E7002020752846BDE8F0477047C046900EFF1F0000DFF8041088607047900EFF1FDFF80C10097C084214BF012000207047CF
S351000125AC900EFF1FDFF828104B7C13EA00020CD00A7C024209D0C043C2B203EA02004874C87C1040C8740120704700207047C046900EFF1F10B50446FFF7DAFF10B9DFF80C00C474BDE810407047C046F5
S351000125F8900EFF1F38B5DFF8144005462075FFF7C9FF00B9E574BDE838407047900EFF1F022810D2DFF8202002EBC0021160107920F0010040F00100C0B240F00200C0B220F0040010717047A80EFF1F38
S3510001264410B5DFF82810012401EBC00211798907C90F08BF002405D01168096811B1884700B900242046BDE810407047A80EFF1F10B5DFF8241001EBC0042168496801B1884720798107C90F1CBF20F08D
S3510001269004002071BDE810407047C046A80EFF1F08B5DFF81C304FF0010C53F830309B680BB1984784466046BDE808407047C046A80EFF1F08B5DFF81C304FF0010C53F83030DB680BB198478446604654
S351000126DCBDE808407047C046A80EFF1F08B5DFF81C304FF0000C53F830301B690BB1984784466046BDE808407047C046A80EFF1F2DE9F84183B007460E4615461C464FF00008FFF791FF78B10A9831465B
S3510001272800900B982A460190012002903846234600F00AF980463846FFF798FF404603B0BDE8F84170470000FEB507460E4615460024FFF773FF68B10022009501200190384631461346029400F0EEF887
S3510001277404463846FFF77CFF2046BDE8FE4070472DE9F84F86B0119D8346039117460493109E129C4FF0000A75B301204FF00108059058464FF0000AFFF74AFFF8B1B8F1000F02D10120FEF799F84FF03C
S351000127C00008A94614B1AC4238BFA14600960598CDF8049002900399049B58463A4600F0B7F8824658464E444F44A5EB0905FFF741FFBAF1000F01D0002DD4D1504606B0BDE8F84F704700002DE9F8412E
S3510001280C83B00E460B99074615461C464FF0000891B1FFF711FF78B10A98314600900B982A460190012002903846234600F0BAF880463846FFF718FF404603B0BDE8F84170470000F8B584B007460E4662
S3510001285815460024FFF7F2FE80B103A8057003A80090012001900022384631461346029400F09AF804463846FFF7F8FE204604B0BDE8F840704700002DE9F04F87B083461398DDF8448000260391924675
S351000128A40493DDF84090129F1390B8F1000F47D0002F08BF444603D0781E0AEA00003C1A444588BF44465846FFF7BAFE58B3CDF800900194012002900399049B5846524600F064F80646D0B11398C0B15B
S351000128F0FDF7F8FF0590002511E00520FDF7F8FF5846082106AAFFF7CBFE00B1012535B905981399FEF710F808B100260125002DEBD05846FFF7A6FE00E0002616B10520FDF7DEFFA144A244A8EB04085C
S3510001293C16B1B8F1000FB7D1304607B0BDE8F04F704700000EB5DFF856C05CF830C0DCF814E0BEF1000F0FD0DDF810C0CDF800C0DDF814C0CDF804C00DF1100C9CF808C0CDF808C0F0470FE0DDF810C0F6
S35100012988CDF800C0DDF814C0CDF804C00DF1100C9CF808C0CDF808C000F036F8BDE80E407047A80EFF1F00000EB5DFF856C05CF830C0DCF818E0BEF1000F0FD0DDF810C0CDF800C0DDF814C0CDF804C0ED
S351000129D40DF1100C9CF808C0CDF808C0F0470FE0DDF810C0CDF800C0DDF814C0CDF804C00DF1100C9CF808C0CDF808C000F0C6F8BDE80E407047A80EFF1F00002DE9FE4F80460C98DDF838900C900020D6
S35100012A208B4692461F460D9E009001240025B9F1000F00F0A48013B1042B40F2A0800120009000249BE0082D00F29680DFE805F005172D57616B76808A8A4046022102AACDF808B0FFF71CFE00B9002440
S35100012A6CB9F1000F08BF052500F080806D1CEDB27CE0404601A90022FFF71EFE4046002102AAFFF707FE48B1029800B9EEE7404601210022FFF7FEFD002467E0FCE74046032102AACDF808A0FFF7F4FD73
S35100012AB838B14046042102AA0297FFF7EDFD00B10425042D54D000207A1E01A907E0131ADB002AFA03F3401C01F8013BC0B2B842F5D3404601A93A46FFF7E8FD002808BF00243DD0BCE74046002102AA12
S35100012B04FFF7CCFD002808BF002433D0B2E7404605210022FFF7C2FD002808BF002429D0A8E74046062102AA0296FFF7B7FD002808BF00241ED09DE70C9940463246FFF7D1FDB04218BF002414D193E71F
S35100012B504046002102AAFFF7A3FD002808BF00240AD089E7404601210022FFF799FD00280EBF0024012000900CB901200090009800283FF460AF2046BDE8FE4F704700002DE9FE4F80460C98DDF838A0CB
S35100012B9C0C900D988B4691461F460D90002601240025BAF1000F00F08A8013B1042B40F286800126002482E0062D00F27E80DFE805F0040E2B555F6973734046022101AACDF804B0FFF75EFD00B90024E5
S35100012BE811E0404600A90022FFF768FD4046002101AAFFF751FD80B1019838B9BAF1000F08BF04255BD06D1CEDB258E0404601210022FFF741FD002451E0FCE74046032101AACDF80490FFF737FD38B180
S35100012C344046042101AA0197FFF730FD00B10425042D3ED000207A1E00A907E0131ADB0029FA03F3401C01F8013BC0B2B842F5D3404600A93A46FFF72BFD002808BF002427D0CAE74046002101AAFFF725
S35100012C800FFD002808BF00241DD0C0E70C990D9A4046FFF717FD002808BF002413D0B6E74046002101AAFFF7FBFC002808BF002409D0ACE7404601210022FFF7F1FC00280CBF0024012604B90126002E24
S35100012CCC3FF47AAF2046BDE8FE4F7047DFF8041008607047B80EFF1F2DE9F04107460E4601243D4642E0284631463DF09DF9054608B900243AE03CF0F3FF804630463CF0EFFF404584BF002400252FD82C
S35100012D1808BF00241FD01ED8295626290CDC16DA002901DC13D014E00D2912DC0A2910DB0DD00D290BD00CE03B2901DC07D008E03F2906DC3D2904DB01D03F2901D1002401E0411C6D185CB9BD4209D08B
S35100012D64691E91F90010262904D03F291EBF0124401C2D18002CBAD12846BDE8F041704738B51546FFF7ACFF18B3DFF84C103DF04FF90446E8B1641C94F900100A290ED00D290CD059B1262909D03B2906
S35100012DB007D03F2905D02846FDF7B8FF68680028EBD12846FDF7C2FF2846FDF74FFF2846FEF740FD2046BDE8384070473B59050078B583B0002516461560FFF77BFF40B3DFF85A103DF01EF9411C31607D
S35100012DFC08B3401C90F900100A290BD00D2909D041B1262906D03B2904D03F2902D009B16D1CEEE70021017000AC316820462A46FDF7FEFE2046FEF70FFD019900980D1A2046FDF715FF284603B0BDE885
S35100012E4878407047C0463B590500000078B5C3B000AC06460D46204603A9FF22FDF7D6FEDFF828102046FDF7ADFF20462946FDF7A9FFDFF81C102046FDF7A4FF0099304600F098F943B0BDE87840704726
S35100012E944B5905004D59050078B5C3B000AC06460D46204603A9FF22FDF7B2FE20462946FEF700FD0099304600F07EF943B0BDE878407047F0B5C3B000AC07460E461546204603A9FF22FDF79BFE2046AB
S35100012EE031462A46FEF700FD0099384600F066F943B0BDE8F0407047F0B5C3B000AC07460E461546204603A9FF22FDF783FE204631462A46FEF70CFD0099384600F04EF943B0BDE8F040704778B5C3B0C1
S35100012F2C00AC06460D46204603A9FF22FDF76CFE20462946FEF71AFD0099304600F038F943B0BDE878407047F0B5C3B000AC07460E461546204603A9FF22FDF755FE204631462A46FEF71AFD00993846B4
S35100012F7800F020F943B0BDE8F0407047F0B5C3B000AC07460E461546204603A9FF22FDF73DFE204631462A46FEF726FD0099384600F008F943B0BDE8F0407047F0B5C3B000AC07460E461546204603A99E
S35100012FC4FF22FDF725FE204631462A46FEF732FD0099384600F0F0F843B0BDE8F040704778B5C3B000AC06460D46204603A9FF22FDF70EFEDFF8181020462A46FEF71AFD0099304600F0D8F843B0BDE83D
S35100013010784070474359050078B5C3B000AC06460D46204603A9FF22FDF7F4FDDFF8181020462A46FEF7B8FC0099304600F0BEF843B0BDE8784070473D5905002DE9F0478EB0DFF854A0DFF854908046AE
S3510001305C0F460026002500ACD9F8000000EBC5014868B0B1096820463CF044FE204651463CF096FE404621463CF0D6FF38B1DFF820000126006800EBC500386001E06D1CE2E730460EB0BDE8F0477047A1
S351000130A84F590500B80EFF1F38B505460C3000A90024FFF7C7FF20B1009928464968884701242046BDE8384070470000DFF8041008607047BC0EFF1F10B5C0E99B120446029A00F51E701946FDF790FD3A
S351000130F40399049A04F52170FDF78AFD002194F8980220F0010084F89802C4F87412C4F8901204F5157042F21071FDF785FC204600F004F8BDE810407047000038B5054600F51E70FDF77CFD05F52170E3
S35100013140FDF778FD002405F51570C5F86842FDF7FDFC95F83E0220F00100C0B220F00200C0B220F0040085F83E02C820C5F8480295F8500220F00100C0B220F0080085F80C4285F850026C60AC602C73BD
S3510001318CC5F84442C5F84C42BDE838407047000010B5002104460A4600F03AF894F8500240F0080084F85002BDE810407047000038B50C46054620463CF092FD02462846214600F025F8BDE838407047B3
S351000131D838B5864692F850028C46010715461C46C90F0ED08007C00F0BD028467146624600F01EF85CB1002128460A4600F018F805E0D2F8700271466246FEF7BFFDBDE83840704708B5DFF81430009065
S3510001322400F52170FEF742FCBDE808407047C046D93101002DE9F04186B003AC80460F461646204600A90C220025FDF7E1FCFF2E204603D93146FDF78BFE02E0B1B2FDF777FEDFF84E1003A8FDF7AEFD83
S35100013270039C20463CF03AFD0246D8F870022146FEF788FD90B1012536B1D8F8700239463246FEF77FFD054645B1D8F87002DFF816100222FEF776FD00B10125284606B0BDE8F0417047845C05000000C7
S351000132BCDFF80800006840687047C046BC0EFF1F2DE9F843C4B001AD80460F46284604A9FF22DFF86062FDF797FC2846FDF7C0FCDFF854122846FDF76BFDD8F848122846FDF7EAFEDFF844122846FDF719
S3510001330861FDDFF84002D8F84812FDF765FA01462846FDF757FDDFF830122846FDF752FD019C20463CF0DEFC2146DFF82042024608F521702346CDF80080FEF7B5FB2846FDF790FCDFF808122846FDF7A4
S351000133543BFDDFF80412284609688968FDF734FDDFF8D8112846FDF72FFDDDF8049048463CF0BAFC024608F5217049462346CDF80080FEF793FB2846FDF76EFCDFF8CC112846FDF719FD98F85002C007AE
S351000133A0C00F284602D0DFF8BC1101E0DFF8B811FDF70CFD28463146FDF708FDDDF8049048463CF093FC0246CDF8008008F5217049462346FEF76CFBD8F8440218B32846FDF744FCDFF884112846FDF759
S351000133ECEFFCDFF88001D8F84412FDF7F3F901462846FDF7E5FC28463146FDF7E1FCDDF8049048463CF06CFC024608F5217049462346CDF80080FEF745FBD8F84C0268B12846FDF71DFCDFF840112846EA
S35100013438FDF7C8FCD8F84C122846FDF747FE0BE098F850028007C00F1AD02846FDF70AFCDFF81C11FDF7B6FCDFF8DC102846FDF7B1FCDDF8049048463CF03CFC0246DFF8DC3008F521704946CDF80080DB
S35100013484FEF714FBD8F8400210B32846FDF7ECFBDFF8E4102846FDF797FCD8F8400200F0E1FD01462846FDF78FFCDFF890102846FDF78AFC019D28463CF016FC0246DFF8903008F521702946CDF8008035
S351000134D0FEF7EEFAD8F8481240F2911081420ED1DFF89C5028463CF001FC0246DFF8643008F521702946CDF80080FEF7D9FAD7B130463CF0F3FB024608F5217031462346CDF80080FEF7CCFA0021CDF862
S3510001351C008008F521700A462346FEF7C3FA98F8500240F0080088F8500244B0BDE8F8437047C046845C0500875C0500915C0500D05A0500935C0500D9310100975C0500BC0EFF1FA05C0500AD5C05008A
S35100013568B85C0500BE5C0500205B0500CD5C0500DE5C0500F95C0500245D050038B50546002419E0D5F87812284600F0B3F8A8B1284600F03FF888B10021DFF84230009505F521700A46FEF77FFA95F85A
S351000135B45002C0070124C00F0FD02846FFF7B6FD05F51570FDF7F6FA0246D5F8700205F51E71FEF79FFC0028D6D12046BDE838407047D9310100000008B5D0F8903202460BB9C8200DE002F10C01D2F8B8
S35100013600942200F503709847C8281EBF40F29311884240F29110BDE80840704770B506460024FFF7E3FF0546C8280CD130464FF4CA75FFF73DFD00B1012424B9304600F0EBF900B1012424B106F51570C1
S3510001364CFDF77EFA0CE0002130460A460B4600F00BF830460121C6F848520124FFF730FE2046BDE870407047C0F844124FF0C80C90F85012C0F848C221F0020C03F001014CEA4101C9B221F00801C9B294
S3510001369821F0010390F83E128907C0F84C2280F85032C90F05D0D9B221F0010141F0010113E090F89812C907C90F10D01AB9D9B28907C90F0BD090F8501221F0010290F83E12C907C1F3C071114380F81F
S351000136E450120021C0F8401290F8501221F0040180F85012012070477CB5D0F86822002504460E46022A06D000F046F878B30220C4F868022BE030463CF0E6FA28B196F900000D2801D00A281DD194F8C4
S351000137303E024007C00F13D004F51E70FDF79AFA0246A06804F51E710090D4F8700200230025FEF7CFFBA168884200DC0D1AA5600020C4F86802012503E02046314600F077F82846BDE87C407047000065
S3510001377C10B500240A2903D1FDF7E2FA012403E00D2901D0FDF7CCFA2046BDE81040704770B50E460446DFF8B4103046042200253CF070FB10B9012565600BE0DFF8A010304605223CF066FB002803BF6F
S351000137C80220606001256560002D39D03046202100253CF069FB064670B3401C20213CF063FB00B10570701C00F0A6F9701C3CF079FA40F2FF11884219D204F10C00711C3CF07AFA04F10C003F213CF08B
S351000138144DFB00281CBF002100F8011B06D104F10C003CF061FA04F10C010818206001250CE0002020734FF4CF7005E025734FF4C87001E040F2F510C4F848022846BDE870407047515D0500565D05009E
S351000138602DE9F04186B0DFF83E6105468846304600243CF03BFA0246404631463CF008FB30BB404620213CF013FB0746002800F08580401C3CF02AFA024603AE3046791C521CFDF7C3F900940120019030
S351000138AC304602A90A220023FDF72CFD00286FD002980124A86095F83E0240F0040085F83E0265E0DFF8D66030463CF009FA0246404631463CF0D6FAB0BBDFF8C61040463CF0A2FB58B195F83E0220F0CB
S351000138F8010040F00100C0B240F0020085F83E0248E0DFF8A61040463CF090FB30B195F83E0220F0010040F00100EFE7DFF88E1040463CF083FB002895F83E021EBF20F0010040F0010085F83E022BD1C0
S351000139448107C90F04BF20F0010085F83E0223E0DFF8626030463CF0C7F90246404631463CF094FAC0B9DFF8521040463CF060FB074628B9DFF8461040463CF059FB074657B103AE304605F503713222E4
S35100013990FDF740F93046B91DFDF718FA204606B0BDE8F0417047205C05003F5C0500615C0500565C05004B5C0500305C05005C5D0500635D0500000008B5DFF81430009000F52170FEF76CF8BDE808402E
S351000139DC7047C046D931010038B52E2100253CF071FA044660B13CF07BF9022808D3DFF81800611CFCF7FEFE05460028B8BF00252846BDE838407047985B050070B596B00FAE0546304602A93422FDF756
S35100013A28F5F895F90C0000242F2808D195F90D0028B9DFF8C41030460968096802E00FA805F10C01FDF7BEF9DFF8B0100F98096801AA00F059F8C8B10F98FFF7BFFF019A0146D26828460023FFF700FE9A
S35100013A7428460121FFF728FC019ADFF8883000959168D26805F52170FEF710F8044630E00FA8FDF7E9F8DFF86420002112685268FDF7D0F912AE0F983146002200F0EEFBF8B10F98FFF794FF0446304616
S35100013AC000F0E6FC0246284621460023FFF7D2FD284601210124FFF7F9FBD5F88C02401E0090DFF8281030462A46002300F058FD304600F03FFC204616B0BDE870407047BC0EFF1F805C0500D9310100EA
S35100013B0CC93901002DE9F0410025002480460F461646156051B1395941B140463CF084FA10B13819306001251034F4E72846BDE8F0417047024616E02F2910D190F901102E290CD190F902102F2908BF50
S35100013B58801C06D02E2904D190F903102F2908BFC01C10F9011B02F8011B90F900100029E4D100201070704738B50C7893F800C044400CEA04041578E4B22C4314701A7802EA00046FEA020C0A780CEA27
S35100013BA4020222430A70D1B248401870BDE8384070470000137813EA000C08D00978014205D0C043C0B21840107001207047002070470000137813EA000C08D00978014205D1C043C0B21840107001200F
S35100013BF0704700207047000038B50546DFF82CC00C462B460B22BCE8030003C3521EFAD1DFF81CC005F140030322BCE8030003C3521EFAD12C60BDE838407047845D05006C5D0500F0B587B00468DFF875
S35100013C3C6C600546002700F14003032203CE03C3521EFBD1206800F095FD10B304AE304600A90D22FCF7D8FF2846314600F088F920680499DFF838202B4600F0FBFE286D00280DDD286C58B9E96CE06847
S35100013C888142A1BF95F8540020F0010040F0010085F854000127384607B0BDE8F04070476C5D0500B13C010010B5014684684968204600F077F9002822DB1BDB2168C968884217DCB0EB610F08DA216CB2
S35100013CD48842B8BF2064616C8842C8BF606407E0A16C8842B8BFA064E16C8842C8BFE064206D401C206505E094F8540040F0020084F854000120BDE810407047FEB502680D464FF0FF3181630646106852
S35100013D200021002400F090FD70B33046FFF782FF50B3F26C716C9142C8BFB16306DC306C18B98A42A8BFB16300DAB263B06B0027002802DA0DB1B7630127B06B002813DB00AD2846311D3422FCF754FFD1
S35100013D6C3046294600F0BCF847B1301D00F070FC20B94FF0FF30B06300203071B06B0028AEBF0124002030712046BDE8FE40704778B587B0054600260468FFF745FFD0B1296D2069814204DC95F854008A
S35100013DB88007C00F10D004AE304600A90D22FCF725FF2846314600F0D5F820680499DFF814202B4600F048FE0126304607B0BDE878407047F13D010070B50646846871682046256800F0D6F8002839DB38
S35100013E04EA6801219042C8BF002129DC94F85420D207D20F0BD1E26C636C9342D8BF13462A699A1A521C9042B8BF002118E0626CD5F810C0531C634508DBA2EB0C035B1C984201DB90420BDD002109E0F7
S35100013E50ACEB0203E46C9B1EE31A984202DA9042C8BF002141B9287D0028306802D000F08FFD01E000F020FC0120BDE87040704778B583B0826B05460C46002A06DB0168C9688A42BCBF511C816301DB83
S35100013E9C0021816300AE3046291D3422FCF7B4FE2846314600F01CF884B12868007D20B1281D00F091FC48B903E0281D00F0C8FB20B96FF00100A86300202871A86B0028ACBF0120002003B0BDE87840DB
S35100013EE87047000070B50646806B00240D460028284618DB31680968FCF764FFDFF832102846FCF75FFF316828464968FCF75AFFB16B2846FDF70AF9316828468968FCF751FF012401E0FCF70DFF204611
S35100013F34BDE870407047DC5D0500000070B50646806B00240D46002828460EDB31684968FCF73AFFB16B2846FDF7EAF8316828468968FCF731FF012401E0FCF7EDFE2046BDE870407047000038B505461F
S35100013F800C46296820464968FCF720FFDFF818102046FCF71BFF296820468968FCF716FFBDE838407047C046DE5D050070B500680E4640684FF0FF35FCF784FE044630463BF094FEA04203D930193CF045
S35100013FCC7DF905462846BDE87040704770B5064600200D46022E1CD28C2006FB00F4DFF85400001990F8881021F0020180F88810114634223BF0BCFEDFF83C000A22031903CD03C3521EFBD1DFF8300076
S351000140180021015101208C21DFF81C207143531893F8881021F0010200F00101114383F88810BDE870407047C00EFF1FF40EFF1F440FFF1F844638B1DFF810300A2203CBACE80300521EFAD17047C04676
S35100014064E05D050010B504463BF03EFE2018A04209D990F900105C2901D02F2901D1401C01E0401EF3E7BDE81040704710B5012102281BDA8C2200FB02F3DFF83820D41894F8882022F0020284F88820EE
S351000140B0DFF82820D2580AB19047014694F8880020F0020201F0010042EA400084F888000846BDE810407047C00EFF1FF40EFF1F08B54FF0010C022811DA8C2100FB01F3DFF82410CA1892F8881021F031
S351000140FC020182F88810DFF81810C95809B1884784466046BDE808407047C046C00EFF1FF80EFF1F2DE9F843DFF8366081464FF0FF3800270025022470193BF0D9FD024632B1701949463BF0A5FE08B9C0
S35100014148B84603E07F1C8C35641EEFDC4046BDE8F8437047C046C00EFF1F00000021012898BF0121084670470021022808DA8C214143DFF81000401890F888008007C10F08467047C00EFF1F08B50346C8
S351000141940020022B08DA08468C21DFF8142059435118FCF711FE0120BDE808407047C046C00EFF1F38B50C464268016805468A4208D9511E91F900105C2903D0DFF81410FCF7FAFD28462146FCF7F6FD9A
S351000141E0BDE838407047C046B45E050070B50E4615460024FFF7CCFF20B130462946FFF7DBFF01242046BDE87040704770B50C46064615462046FCF729FD20462946FCF7D5FD8C2006FB00F1DFF82000F9
S3510001422C401890F888008007C00F05D0DFF81400415809B1204688472046BDE870407047C00EFF1F3C0FFF1F3EB500AC05462046FCF7E6FC8C2005FB00F1DFF82000401890F888008007C00F05D0DFF84F
S351000142781400415809B120468847BDE83E407047C00EFF1F400FFF1F2DE9F04790B00DAD824689469046284600A93422FCF7B6FC50460027FFF738FF00281ADB8C2100FB01F6DFF84410C9E90007891932
S351000142C491F888108907C90F0DD0DFF83440A15949B129465246FFF797FF0D98A35949464246984707461FB94FF0FF30C9F80000384610B0BDE8F0477047C046C00EFF1FFC0EFF1FF8B507460E461546F0
S35100014310002400F003FA0028384600D003E000F09DF928B1384631462A46FFF7B1FF04462046BDE8F8407047F8B507460E461546002400F0EBF90028384604D031462A46FFF79EFF08E0012100F076FA43
S3510001435C28B1384631462A46FFF7D0FF04462046BDE8F8407047000008B502680023002A0FDB8C214A43DFF82410891891F888108907C90F05D0DFF81810895809B1884703461846BDE808407047C0466B
S351000143A8C00EFF1F000FFF1F08B5D2F800E00023BEF1000F16DB4FF08C0C0EFB0CFEDFF82CC0F4449CF888C04FEA8C7C5FEADC7C08D0DFF81CC05CF80EC0BCF1000F01D0E04703461846BDE80840704721
S351000143F4C00EFF1F0C0FFF1F38B505460C463BF073FC014628462246FFF7D0FFBDE838407047000008B5D2F800E04FF0FF33BEF1000F16DB4FF08C0C0EFB0CFEDFF82CC0F4449CF888C04FEA8C7C5FEAA5
S35100014440DC7C08D0DFF81CC05CF80EC0BCF1000F01D0E04703461846BDE808407047C046C00EFF1F100FFF1FDFF804301847C0461944010008B5DFF81420034608460021FDF78AFBBDE808407047C04685
S3510001448C6944010008B502684FF0FF33002A0FDB8C214A43DFF82010891891F888108907C90F05D0DFF81410895809B1884703461846BDE808407047C00EFF1F180FFF1F08B502680023002A0FDB8C2157
S351000144D84A43DFF82410891891F888108907C90F05D0DFF81810895809B1884703461846BDE808407047C046C00EFF1F1C0FFF1F08B5D0F800E00023BEF1000F16DB4FF08C0C0EFB0CFEDFF82CC0F444EF
S351000145249CF888C04FEA8C7C5FEADC7C08D0DFF81CC05CF80EC0BCF1000F01D0E04703461846BDE808407047C00EFF1F200FFF1F70B5054600680024FFF702FEB0B129688C204143DFF82E00405828B90F
S35100014570A8681DF03DFD58B1012409E02846FFF7A5FF06462846FFF783FF8642A8BF01242046BDE870407047C046440FFF1F00002DE9FE4F6F467A600268834639601D4600260024002A49DB8C20424329
S351000145BCDFF89600801890F888008007C00F3FD0D7F830800124B8F1000F08BF4FF4807809B9002434E008F101004042C010C0000838854401900DF108091FE035B1A91B414588BF414602D8E9B100E0D4
S35100014608414648465A46FFF703FF824600280ADD002109F8001078683B68494652469847044650B103E00CBF0124002405E056445846FFF78BFF0028DAD0A9F104000068ADEB000D2046BD46BDE8FE4F69
S351000146547047C00EFF1F000038B584B000AC214604220025FFF712FE18B12046FFF780FE0125284604B0BDE83840704770B584B000AC0E46214604220025FFF7FFFD58B130463BF029FB0146304622463C
S351000146A0FFF786FE05462046FFF764FE284604B0BDE87040704700002DE9F04190B00DAC0746204600A93422FCF7A4FA38460026FFF726FD002818DB8C2100FB01F5DFF83410491991F888108907C90F17
S351000146EC0DD0DFF8288058F8051041B121463A46FFF786FD0D9858F8051088470646304610B0BDE8F0417047C00EFF1F040FFF1F2DE9F04190B00DAC0746204600A93422FCF772FA38460026FFF7F4FC88
S35100014738002818DB8C2100FB01F5DFF83410491991F888108907C90F0DD0DFF8288058F8051041B121463A46FFF754FD0D9858F8051088470646304610B0BDE8F0417047C00EFF1F080FFF1F2DE9F0413E
S3510001478490B00DAC0746204600A93422FCF740FA38460026FFF7C2FC002818DB8C2100FB01F5DFF83410491991F888108907C90F0DD0DFF8288058F8051041B121463A46FFF722FD0D9858F8051088476B
S351000147D00646304610B0BDE8F0417047C00EFF1F240FFF1F2DE9F04190B00DAC0746204600A93422FCF70EFA38460026FFF790FC002818DB8C2100FB01F5DFF83410491991F888108907C90F0DD0DFF8C4
S3510001481C288058F8051041B121463A46FFF7F0FC0D9858F8051088470646304610B0BDE8F0417047C00EFF1F280FFF1F2DE9F04790B0824689460DA800A93422FCF7DCF95046012701240026FFF75CFC61
S35100014868002836DB0DAD50465C213BF01DFB2CB1002418B1401C5C213BF016FB90B1A0EB0A0000F101080E98514642463BF072FA0E9928464144FCF72DFA2846FCF752FAC24404E00DA85146FCF78CFA99
S351000148B40126B9F1000F00D06EB90D980027FFF75DFF00B103E00D98FFF78AFF00B101270FB1002EC9D0384610B0BDE8F0477047F8B590B00DAC0746204600A93422FCF78FF938460026FFF711FC002831
S3510001490013DB8C21DFF82C204143551895F888108907C90F09D0E96E39B121463A46FFF775FC0D98E96E88470646304610B0BDE8F8407047C00EFF1F70B54468DFF846100646204601253BF041FAC0B146
S3510001494CDFF83A1020463BF03BFA90B13068FFF7DFFE0028306802D0FFF7A8FE08E0FFF709FF002808BF002503D0306800F00AF805462846BDE870407047B65E0500B85E0500000038B5DFF82410DFF838
S35100014998242005460023002400F066F82846FFF79DFF00B101242046BDE838407047C046BB5E050039490100F8B590B00DAC0746204600A93422FCF721F938460026FFF7A3FB002813DB8C21DFF82C206E
S351000149E44143551895F888108907C90F09D0696F39B121463A46FFF707FC0D98696F88470646304610B0BDE8F8407047C00EFF1FF8B590B007460E4615460DA800A93422FCF7F6F80024012F17D88C20CC
S35100014A3007FB00F1DFF83000401890F888008007C00F0CD0DFF82400425842B13046294690470446384631462A46FFF7FBFB204610B0BDE8F8407047C00EFF1F380FFF1F2DE9F84F90B00DF1340B824613
S35100014A7C89469046584600A934221F46FCF7C4F850460026FFF746FB054600281BDB8C21DFF83C204843141894F888008007C00F11D0206F78B15046FFF764FE58B1284659465246FFF7A4FB0D98246F32
S35100014AC8494642463B46A0470646304610B0BDE8F84F7047C00EFF1F2DE9F04FC3B082468946904600A803A94FF48072FCF78EF80025009EBAF1000F5AD0002150460A460024FFF7FDFC48463BF0ECF876
S35100014B1407460DF1000BDFF8A620584600215346FDF738F800B90124304649463A463BF0ADF900283CD1F057202801D03D2837D1DFF87E10F0193BF0D5F990F900103D2930D1441CDFF86E1020463BF0FC
S35100014B6001FA2418DFF8661020463BF02FFA064610B34046FCF782F8864203D94046FCF77DF80646D8F80400214632463BF0F6F8D8F804404046A119FCF7B0F84046FCF7D5F840462146FCF7A9F84046DC
S35100014BACFCF790F8012501E0002CB0D0284643B0BDE8F04F704769440100BD5E0500C05E0500C25E050000002DE9F04188B005AC80460F461646204600A91422FCF714F84046394622460025FFF774FF90
S35100014BF838B12046FCF736F82046FCF763FC30600125284608B0BDE8F04170472DE9F84185B002AC80460E461746204600A90622FBF7F4FF4046314622460025FFF754FF08B32046FCF716F82046FBF7C7
S35100014C44FDFF2046FCF710F8039CDFF83A1020463BF0BAF818B194F90060312E02D101253D700AE0DFF8221020463BF0ADF808B1302E02D1002038700125284605B0BDE8F8417047C046C65E0500CB5EF1
S35100014C900500000010F400411CBF20F40040801D0C28B9BFDFF8101051F82000DFF80C00D0F880007047C046305E0500E05D050070B5002406460D4649B11046FFF7E2FF014630461DF00AF9A86000B15D
S35100014CDC01242046BDE870407047000010B5002428B1806818B11DF089F900B901242046BDE81040704700000020704738B584B000AC214600220025FFF7BCFA18B120460125FFF729FB284604B0BDE8C8
S35100014D283840704738B5002403460D4642B1906830B119462A461CF0D1FF854208BF01242046BDE83840704738B50024E44384460B46154682B1906870B161461A461DF027F80446A8681DF039F928B159
S35100014D74A8681DF03BF908B90024E4432046BDE8384070470020704770B506464FF0FF3590B1806880B11DF04FF80446B068002102221DF063F8B0681DF046F80546B068214600221DF05AF82846BDE81C
S35100014DC07040704708B5002120B1806810B11DF035F801460846BDE80840704708B5002378B1806868B132B1012A03D0022A08BF022300E001231A461DF03AF8012300B100231846BDE8084070470000CE
S35100014E0C0020704700207047002070470020704700207047F8B5074600201646022F1ED28C2007FB00F4DFF858003422051928463AF09EFFDFF84C00DFF84CC003190A22BCE8030003C3521EFAD1DFF842
S35100014E584000065195F8880040F0020085F8880001208C21DFF81C207943531893F8881021F0010200F00101114383F88810BDE8F8407047C00EFF1FF40EFF1F645E0500440FFF1F2DE9F0410025002424
S35100014EA480460F461646156059B1395949B140463BF0BEF818B138193060012501E01034F3E72846BDE8F041704700007CB5002406460D46A2B90868FFF742F980B129688C204143DFF820004018D0F80F
S35100014EF0841039B1304600AAFFF7D0FF10B100980124A8602046BDE87C407047C00EFF1F4FF0FF3101600120704700007CB506460024FFF7FDF80546FFF71CF960B18C2005FB00F1DFF81800415829B182
S35100014F3C304600AAFFF7ACFF00B101242046BDE87C407047440FFF1F38B5936814465268D3F80CC00D4694458CBFACEB020C4FF0000C614528BF6546996889182A463AF0F5FD6068401960602846BDE848
S35100014F88384070478068C06870470000406870470023D0F808C0A8B1BCF1000F12D0DCF80C3032B1012A05D0022A04BF5918416003E001E04268511841604168994288BF436001231846704710B50446B5
S35100014FD4DFF834004FF4FA61FBF726FDDFF82C00002180F8281000F061F981F0000180F00000084314BFDFF81800DFF81800A060BDE810407047C046EC0FFF1FD80FFF1F1D500100155101002DE9F041E4
S35100015020064600F045F981F0000180F000000027084304BFDFF86E00B06031D0DFF86A502846FBF72BFD58B3DFF862800120D8F80C100124884700F02BF998F82830C3F1200204FA03F808EA00009F40DC
S3510001506C24FA02F21743A3F1200204FA02F21743394081F0000180F000000843284602D04FF4FA6101E04FF4FA71FBF7C9FCDFF81600B060BDE8F0417047D14F0100EC0FFF1FD80FFF1FB95001000000E6
S351000150B8F8B5DFF84A5006462846FBF7EBFCD8B1DFF83E700020F9680024884797F82800401C87F82800C0B23B2805D387F8284028464FF4FA6102E028464FF4FA71FBF799FCDFF81200B060BDE8F840BD
S351000151047047EC0FFF1FD80FFF1F1D500100000038B5044600F0CAF881F0000180F0000008431CBFDFF83000A06012D1DFF82C502846FBF7B1FC60B1DFF824100120C968884728464FF47A71FBF76EFCA5
S35100015150DFF81400A060BDE838407047D14F0100EC0FFF1FD80FFF1F6D51010038B5DFF82C4005462046FBF791FC60B1DFF820100020C968884720464FF47A71FBF74EFCDFF81000A860BDE83840704724
S3510001519CEC0FFF1FD80FFF1F15510100DFF81C304FF0000CC3E900CC9860D960DFF810001A61D862186358637047C046D80FFF1FD14F0100DFF818004368026883F0000182F00000084314BF0120002026
S351000151E87047C046D80FFF1F08B500210122C0F1200C814002FA00F322FA0CFC203841EA0C0102FA00F00143DFF84C00D0E900CE0EEA01000CEA030E80F0000C8EF000005CEA000018BF0022DFF82CC09A
S35100015234DCE9000E18434EEA010ECCE9000E4AB1DCF808E0BEF1000F04D00091DCE900010122F047BDE808407047C046D80FFF1F38B5DFF84410002202FA00F30C684D680121C0F1200201FA00FC21FAED
S3510001528002F22038134301FA00F0034305EA030004EA0C0380F0000283F00000104308BF00210846BDE838407047C046D80FFF1FDFF8041003C97047D80FFF1F08B5DFF858200121D2E900CE01FA00F3B4
S351000152CCD8170EEA00020CEA030E82F0000C8EF000025CEA020208BF0021DFF830200029D2E900CE2EEA000E2CEA030CC2E900CE09D0D2F808C0BCF1000F04D00090106851680022E047BDE80840704729
S35100015318D80FFF1F08B5DFF844004368026883F0000182F00000084314BF01220022DFF82C1000200860486062B1D1F808C0BCF1000F07D04FF0FF30009003C90023DB430022E047BDE808407047C0468F
S35100015364D80FFF1F00223B2805DADFF81010096909B151F8202010467047C046D80FFF1F08B5DFF81C00C16831B1016BC162416B0163DFF810008847BDE808407047C046D80FFF1F0410FF1FDFF80410ED
S351000153B0086070471010FF1FDFF81820152807D8DFF81410096819B151F8200000B1024610467047F85E05001010FF1FF8B58446DFF84C600F466546462403CE03C5641EFBD1306828600698CCE90423FF
S351000153FCCCF818000798CCF80C70CCF81C000898CCF820000998CCF824000020CCE90A009CF8300220F002008CF830020120BDE8F84070472C60050038B50546042431F802CB25F802CB641EF9D190F8EF
S351000154483012826021F0040203F0010142EA810180F83012BDE83840704700008288DFF8043018477D1C01008180704790F8EC2222F0010201F00101114380F8EC127047D0F8E82222F0030201F00301E2
S351000154941143C0F8E81270473EB5024600AC0D4602F1760120463222FBF7B2FB20462946FBF78AFCBDE83E40704700003EB5024600AC0D4602F1A80120461422FBF7A0FB20462946FBF778FCBDE83E4087
S351000154E0704700003EB5024600AC0D4602F1440120463222FBF78EFB20462946FBF766FCBDE83E407047000010B50446DFF828C023465E22BCE8030003C3521EFAD1002100230A206218323182F8EE30D6
S3510001552C401EF9DCBDE810407047C046606205003EB5024600AC0D4602F1BC0120463222FBF762FB20462946FBF73AFCBDE83E407047000078B583B00546D0F8E40200260C460A2819D22046FBF7A6FBCF
S35100015578A8B1D5F8E422322100AE514305F1EE03304659183222FBF741FB30462146FBF719FCD5F8E402401CC5F8E4020126304603B0BDE87840704710B50446FCF794FB08B90B2010E0A08808B90C2053
S351000155C40CE004F14400FBF77BFB08B90D2005E0D4F8E40200280CBF0E201220122813D194F8EC12C907C90F0ED004F17600FBF767FB08B90F2007E004F1A800FBF760FB00280CBF10201220BDE8104037
S351000156107047000070B5CCB0064600AC20463146002500F0F9FEF06808B1306918B90320B0620020B2E07169204600F0C9F8204600F014F92068C068FFF7B2FF122811D1204600F081FC78B10920B062AE
S3510001565C2046012100F0F8FD40B12046012100F089FD18B1012501E02168886285B30A20B062DFF8261120460022002500F0A8FB30B32046002100F0DFFD08B32046002100F070FDE0B1206800F03EFF7F
S351000156A810B9206800F0F4FE206800F037FF10B1204600F003FE2068C068BC30FBF7FEFA38B12268DFF8DA10D2682046BC3200F0BFFB0125BDB32046002500F0DBFB90B3204600F0FDFB70B3206890F819
S351000156F43002C007C00F204602D0DFF8AE1001E0DFF8AA1000F084F9DFF8A610204600F07FF9DFF8A210204600F07AF9DFF89A10204600F075F9DFF89610204600F070F9054620B1DFF88A10204600F0DE
S3510001574069F925B9DFF88210204600F0CBF8CDB1326A002512B1716A20469047F169204600F030FA204600F071F948B1204600F077F9002819BF0125B5621520B06201E01420B062002D606801D000214F
S3510001578C00E00121FCF75CFB204600F033F828464CB0BDE870407047C0468C66050091660500B9650500D26505001466050099660500296605009C660500A1660500A2660500000038B505460C4678B145
S351000157D8002181612046FBF771FA48B1204605F108010522FEF7A4FD10B105F10800A861BDE838407047000010B5044628B1806918B1FEF7B3FD0020A061BDE81040704770B592B006468069E0B10FAD0C
S35100015824284602A93222FBF7F3F900AC204600F031FEDFF82C102846FBF7C6FADFF824202846214601ABFBF7BFFE2846FBF70CFA0068B169FEF7D0FD12B0BDE87040704799660500C366050010B58169DE
S35100015870044631B1FFF7D0FFDFF80C00A169FEF7BDFDBDE810407047C566050010B58169044631B1FFF7C0FFDFF80C10204600F03DF8BDE810407047EB66050038B50C468169054679B1FFF7AFFFDFF853
S351000158BC2010284600F02CF8A9692046FEF798FDDFF81000A969FEF793FDBDE838407047F86605009966050038B50C468169054679B1FFF793FFDFF82010284600F010F8A9692046FEF77CFDDFF81000CC
S35100015908A969FEF777FDBDE838407047066705009966050008B582691AB108461146FEF769FDBDE80840704710B58269044642B108461146FEF75EFDDFF80C00A169FEF759FDBDE81040704799660500A6
S35100015954F8B50E4690F82C11C907002407461546C90F09D1FFF790FF97F82C0120F0010040F0010087F82C01BA691AB130462946FEF714FD786807F5907132462B46FCF719FA00B101242046BDE8F840FF
S351000159A07047000038B505460024FFF7D3FF002818BF012404D1DFF810102846FFF792FF2046BDE8384070470F67050070B50D4690F82C11C90700240646C90F09D1FFF755FF96F82C0120F0010040F0CA
S351000159EC010086F82C01B16911B12846FEF700FD706806F590712A46FCF7EEF900B101242046BDE87040704770B506460D460024FFF7D6FF08B101240AE0B169DFF81A0009B1FEF7E5FCB16911B12846BA
S35100015A38FEF7E0FC2046BDE870407047C046236705000000DFF80810DFF808300022184734670500DD5D010010B590F82C1141F0020180F82C11DFF81C100446002200F0B1F994F82C1121F0020184F814
S35100015A842C11BDE8104070473867050038B50546084611462A684FF4AC73D269002402F59A7201F069FD29680246C969284601F59A71FFF775FF30B1DFF8141028460222FFF76EFF04462046BDE8384036
S35100015AD07047C0469966050070B506460D46002400F002FAF0B3DFF884103046FFF792FFDFF87C103046FFF78DFF30462946FFF789FFDFF8704030462146FFF783FFDFF868103046FFF77EFFDFF86010CA
S35100015B1C3046FFF779FFDFF85C103046FFF774FFDFF854103046FFF76FFF30462946FFF76BFF30462146FFF767FFDFF840103046FFF762FF30462946FFF75EFFDFF830103046FFF759FF01242046BDE866
S35100015B6870407047EC6505003D6705004467050049660500996605006B660500486705005367050061670500F8B507464D6C886C01242E180BE0721BFF2A88BFFF2238462946FFF771FF08B9002402E0D1
S35100015BB4FF35B542F1D32046BDE8F840704700002DE9F04F85B0824689464FF0000800294BD0002400250E1D4FF0FF0B3FE07719786C50B150463946FFF774FF68B350463946FFF7CBFF804627E03846FF
S35100015C00FBF760F818B307F10D00FBF75BF8F0B107F10D0001A90022FEF73AFB0028504611D03946FFF758FF48B1DFF84E1001A852460023CDF800B0FEF7B2FC804601A8FEF798FB03E0DFF83610FFF754
S35100015C4CE3FEB8F1000F04D1DFF82A105046FFF743FE641C4C35D9F80000844201D2042CB9D3404605B0BDE8F04F7047C046915A01006767050097670500000078B583B0054629684068EB69303140F229
S35100015C98FF120024FCF766F8411EB1F5FF7F00F284802968081880F83040296828463031FFF7F8FD296800AE304630310522FAF7B1FF3046FBF7ECFB2968C862296891F830028007C00F00F0678095F8E8
S35100015CE42C018007C00F05D0C86ADD2808BF012400F06580C96A40F20920814233DC80F25E80B1F5E27F16DCB1F5E17F0ADB1CBF40F2C310814200F05280B1F5E27F00F04E8041E0DD2901DC49D03DE025
S35100015D3040F2A510814244D038E040F2F510814204DC3EDAB1F5FA7F3BD02FE0B1F5FC7F2CDCB1F5FB7F29DB1CBF40F2F71081422FD0B1F5FC7F2CD020E040F2272081420FDC26DA40F21720814205DCAB
S35100015D7C21DA40F2122081421DD011E040F22620814218D00CE040F22920814204DC12DAB1F50A7F0FD003E040F22A2081420AD0012408E0FCE7DFF824102846FFF794FD28680721816295F82C0120F05C
S35100015DC8010085F82C01204603B0BDE878407047A96705002DE9F84183B080460F46D8F8001000AC1646204630314FF400720025FAF718FF20463946FAF7E4FF46B1DFF844102046FAF7DEFF2046314681
S35100015E14FAF7DAFFDFF8341000A8FAF7D5FF00994046FFF7F5FD50B1DFF824104046FFF7EFFD054618B14046FFF724FF0546284603B0BDE8F8417047C366050099660500A166050070B50646154600248C
S35100015E60FFF7D8FD88B1DFF82C103046FFF7D2FD58B130462946FFF7CDFD30B1DFF818103046FFF7C7FD00B101242046BDE870407047C046C06705009966050070B5DFF83C1006460025FFF7B5FD90B1BF
S35100015EACDFF8304030462146FFF7AEFD58B1DFF828103046FFF7A8FD28B130462146FFF7A3FD00B101252846BDE870407047C04668650500996605007A65050070B5DFF83040064621460025FFF78EFD93
S35100015EF858B1DFF824103046FFF788FD28B130462146FFF783FD00B101252846BDE870407047C046996605005065050038B5054629684068C9680024FBF79CFF002818BF012407D1286813218162DFF844
S35100015F4410102846FFF7CCFC2046BDE838407047C367050070B5016800250646CC68002800F0728040680021FBF74EFF002863D070682146FBF7DCFF002856D070682146FBF752FF002849D0D4F8E802E2
S35100015F9080078017012818BF012503D13046FFF7C1FF0546002D51D0DFF8A81030460025FFF7BEFC3046FFF767FE002846D0304600F06CF8002841D0D4F8E80280078017022815D1304600F077F840B14B
S35100015FDC3046FFF7A1FF70B1304600F059F8054609E0306808218162DFF860103046FFF773FC00E001251DB394F8EC02C007C00F1ED0304600F064F80546C8B930680921816215E0306806218162304680
S35100016028DFF830100CE03068052181623046DFF8281005E0306804218162DFF820103046FFF74CFC2846BDE870407047D567050003680500216805003A680500586805003EB5054600AC20462946322284
S35100016074FAF7DAFD2046FAF7F7FDDFF81810FAF7BDFE0028A4BF2818451C2846BDE83E407047C0466E68050010B504460068C0684430FFF7DFFF0246DFF814102046FFF793FE10B9216809228A62BDE8A1
S351000160C01040704770680500DFF80810DFF808300022184775680500DD5D01002DE9F04101680022D1F80C80DFF8881005460024FFF774FED0B3296808F1760030314FF4007201F07FFA002830DB2968D9
S3510001610C28463031FFF780FCDFF8607028463946FFF77AFCDFF8586028463146FFF774FC2846FFF7ABFDD8B1296808F1A80030314FF4007201F060FA002811DB296828463031FFF761FC28463946FFF753
S351000161585DFC28463146FFF759FC2846FFF790FD00B101242046BDE8F04170477E68050099660500A16605002DE9F04F91B0824600688B46D0F80C80012000900EA801A934224FF00009FAF739FD0026CF
S351000161A40025344608F1EE0731E0BBF1000F16D00EA8FAF759FDDFF87E10FAF705FE0EA83919FAF701FEDFF872100EA8FAF7FCFDDFF86A100E9A5046FFF7FEFD10E000980028504602D0DFF85A1001E068
S351000161F0DFF85610FFF70EFC002000905046B919FFF708FC8146B9F1000F06D06D1C32363234D8F8E4028542C9D3BBF1000F07D1B9F1000F04D0DFF826105046FFF7F2FB484611B0BDE8F04F70478968C6
S3510001623C05008B6805008D680500966805009B680500996605000000F8B590B0074600680E460DACC568204600A93422FAF7D4FCAEB1DFF842102046FAF7AAFD204605F14401FAF7A5FDDFF832102046CE
S35100016288FAF7A0FDDFF82A100D9A3846FFF7A2FD06E0DFF82210384605F14402FFF7D8FD10B0BDE8F8407047C046896805008B6805009E680500A96805000000F8B590B00DAD0446284600A9322200270A
S351000162D4FAF79EFC2668304600F022F900284ED0F1782846FAF776FE28462021FAF760FDB078FBF7A5F901462846FAF765FD28462021FAF755FD31882846FAF771FE28462021FAF74DFD31792846FAF732
S351000163205BFE28463A21FAF745FD71792846FAF753FE28463A21FAF73DFDB1792846FAF74BFE206890F830024007C00F284609D0DFF83A10FAF73AFD216828468968FBF747F903E0DFF82A10FAF730FD61
S3510001636C0DA8FAF77DFC0246DFF81E1012682046FFF76CFD0746384610B0BDE8F8407047C046C3660500AE680500B56805000000002300220360042100EB020CCCF84C304C32CCF84830491EF6DC7047F3
S351000163B82DE9F84183B0074600200E4615461FB33968042920D24FF04C0800AC3A1D01FB08F1511820460D22FAF724FC20462946FAF7F0FC396807F1110201FB08F1511820463422FAF716FC2046314670
S35100016404FAF7E2FC3868401C3860012003B0BDE8F841704710B50446DFF838C08E4623462622BCE8030003C3521EFAD1C4F800E0DEF810006060DEF81800E06104F5907004F120014FF48072FAF7E2FBEB
S351000164500120BDE810407047FC5E0500DFF80C209060D16000201060506070471410FF1F10B5DFF81E40216809B1884705E0A16819B100F003F9A2689047BDE810407047C0461410FF1F000010B5DFF84F
S3510001649C1E1004464A680AB1904705E0C86818B18047224600F03AF9BDE8104070471410FF1F000010B5B0F800C0ACF2DC7189B20023BC2914D88478621ED1B20B290FD8DFF82410022C8A5C04D11CF072
S351000164E8030101D1521CD2B2C078012802D3904298BF01231846BDE810407047CA68050001780022172906D841783B2903D880783B2898BF012210467047000038B505460124FFF7C9FF00B90024281D05
S35100016534FFF7E8FF00B900242046BDE838407047DFF818100A8802804A8842800A7902714A794271897981717047C046BA680500F8B507460726FFF7A9FFE8B1BC783D88DFF83C00611EEBB2415C03EB24
S35100016580930080B2801D0818FA780721101880B23CF0BCFB8EB215F0030007D1022C05D8002E08BF062601D0761EB6B23046BDE8F8407047EE680500042330F8022B21F8022B5B1EF9D1704708B500F088
S351000165CC15F845F28012C0F2010200233CF0B0FABDE808407047000008B500F007F83C2200233CF0A5FABDE80840704770B50E4600F046F8054630460C4600F041F8401BA141BDE87040704770B50E4613
S3510001661800F038F8054630460C4600F033F82A1A74EB0102B8BF022005DB401B71EB0400B4BF01200020BDE87040704770B5064600250024FFF738FFA8B1B278DFF83000511E30F811002918F07845EB55
S3510001666405040D18308844F1000410F0030004D1022A02D96D1C44F1000428462146BDE870407047D668050070B5064600250024FFF746FF00283ED0308840F26D11A0F2B27202FB01F38108A1F5F6723E
S351000166B0D1179D1841EBE374B378DFF868105A1E31F812106D18F17844F10004491E6D1844EBE17410F0030004D1022B02D86D1E64F1000445F28012C0F201020023A5FB020105FB031104FB02113479C9
S351000166FC4FF461626243851841EBE27471793C2048432D1844EBE074B0792D185C4128462146BDE870407047D66805002DE9F041164645F28012C0F20102002380460F463CF0FEF9451C41F1000445F269
S35100016748801240463946C0F2010200233CF0EAF980460F464FF4616200233CF0EBF93071404639464FF4616200233CF0DBF980460F463C2200233CF0DDF97071404639463C2200233CF0CEF9B07140F212
S35100016794B270308080B210F0030040F26D1208BF4FF4B77200230CE03088AD1A9C41401C308080B210F0030040F26D1208BF4FF4B772511B73EB0401EEDBDFF84E304FF0010E0C214FF0000CBEF1020FC4
S351000167E002D108B94FF0010C03EB0E02521E127894444FEAEC77BCEB050277EB0402A8BF86F802E006DAB5EB0C05BC410EF1010E491EE1DCF570BDE8F0417047C046CA680500000008B5008864213CF058
S3510001682C6FFAC8B2F9F7FAFFC0B2BDE80840704708B58078F9F7F2FFC0B2BDE80840704708B5C078F9F7EAFFC0B2BDE80840704708B50078F9F7E2FFC0B2BDE80840704708B54078F9F7DAFFC0B2BDE836
S351000168780840704708B58078F9F7D2FFC0B2BDE80840704710B50C46F9F7E4FF00F5FA602080BDE81040704710B50C46F9F7DAFFA070BDE81040704710B50C46F9F7D2FFE070BDE81040704710B50C4636
S351000168C4F9F7CAFF2070BDE81040704710B50C46F9F7C2FF6070BDE81040704710B50C46F9F7BAFFA070BDE81040704738B505464078F9F797FFC4B22878F9F793FFC0B244EA002080B2BDE838407047F8
S3510001691038B5DFF82C20054613790C460B705379C0F307204B7092798A70F9F797FF2070E8B2F9F793FF6070BDE838407047C046BA68050038B50546008864213CF0DEF9C8B2F9F769FFC0B2000440F057
S3510001695C0004A878F9F762FFC0B244EA0024E878F9F75CFFC0B204432046BDE83840704738B5DFF8342005461388C0F307400B8052880C464A80F9F763FF00F5FA602080C5F30720F9F75CFFA070E8B283
S351000169A8F9F758FFE070BDE838407047BA68050038B505460078F9F733FFC0B2000440F000046878F9F72CFFC0B244EA0024A878F9F726FFC0B204432046BDE83840704738B5DFF83420054613790C4666
S351000169F40B705379C0F307404B7092798A70F9F72BFF2070C5F30720F9F726FF6070E8B2F9F722FFA070BDE838407047BA68050038B505468078F9F7FDFEC0B2000640F00004E878F9F7F6FEC0B244EA80
S35100016A4000442879F9F7F0FEC0B244EA00246879F9F7EAFEC0B204432046BDE83840704738B5DFF84820054613880C460B805388C0F307604B8013790B7153794B7192798A71F9F7EBFEA070C5F30740A3
S35100016A8CF9F7E6FEE070C5F30720F9F7E1FE2071E8B2F9F7DDFE6071BDE838407047C046BA68050038B50546C8780C46F9F7B6FE2870A078F9F7B2FE6870208864213CF01FF9C8B2F9F7AAFEA870BDE847
S35100016AD83840704738B5054600780C46F9F7BAFEE0706878F9F7B6FEA070A878F9F7B2FE00F5FA602080BDE8384070470023884207D38A4238BF012308D3824288BF012304E0824202D98A4238BF012309
S35100016B2418467047F8B51546074628460E46002439F0DAF8102805D9384631462A4600F065F801242046BDE8F8407047F8B516460746304600244D4239F0C6F8102805D938462946324600F051F80124AD
S35100016B702046BDE8F840704738B514460A68054612F0030210D04FF0000CC2F1040E002305E00A6882180CF802300CF1010CF445F7D30868704408600968284689082246FFF7BAFF002814BF0120002037
S35100016BBCBDE838407047000038B514460A68054612F0030210D04FF0000CC2F1040E002305E00A6882180CF802300CF1010CF445F7D30868704408600968284689082246FFF7A8FF002814BF0120002023
S35100016C08BDE83840704700002DE9F84F012957DD342393FBF1F3A1F1010A9C1D50F82A304FF0000C48F24765C6F2C815ACEB050C4F1E0097CCF38105002607461FE000EB8608D8F804B04FEA8B084FEABE
S35100016C54031988EA531889EADB09C1448CEA0B0806F0030B8BEA050B52F82BB083EA0B034344D7F800E089EA0303734447F8043B761CDDF800804645DBDB06F00306D0F8009075404FEA89074FEA031BAE
S35100016CA08BEAD90B87EA531752F825508CEA09096B4050F82A805F444B447B40434440F82A30641EB2D156E0B1F1FF3F53DAC1F10008342191FBF8F18B1D47F6B911C9F63761046803FB01F9A8F10107AC
S35100016CECC9F38101A8F101031DE000EB8306351FD5F800A0A50085EA5A1B4FEA0A1585EAD4055D4403F0030B8BEA010B52F82BB089EA04048AEA0B0A544436686C40341B40F823405B1E002BDFDC03F0B5
S35100016D380303594050F827A0A50052F8211085EA5A1B4FEA0A1585EAD40589EA04048AEA010106685D4461186940741A48F24761C6F2C81189440460B9F1000FBAD1BDE8F84F704738B5DFF82C40002526
S35100016D846060A160E260DFF8240025702061DFF8200000210222FBF761F93220206284F82450BDE8384070472410FF1FC97101003C10FF1FDFF80410486170472410FF1F10B5DFF81C40DFF81C00216A7E
S35100016DD0FBF766F910B9012184F82410BDE810407047C0462410FF1F3C10FF1FDFF80C10002291F8240081F8242070472410FF1FDFF80800012101707047C0462410FF1FDFF80800002101707047C046DF
S35100016E1C2410FF1FDFF80400007870472410FF1F2DE9F0410024DFF84670002625464FF0010810E0F868B9683B69001949190022984728B9F8680159B868415187F80080761C0C342D1D78688642EBD345
S35100016E68387800280CBF01200020BDE8F0417047C0462410FF1F000070B506460D460024FFF79CFF40B13046294600F00BF80446DFF80C00FBF710F92046BDE8704070473C10FF1FF8B5DFF83070064658
S35100016EB47A6800240D4690420CD200F011F804460C2079697043081882681AB129683046904728602046BDE8F84070472410FF1FDFF81820536898423FBF926852F820000860012028BF00207047C046A4
S35100016F002410FF1F70B506460D460024FFF75AFF48B130462946012200F00CF80446DFF81000FBF7CDF82046BDE870407047C0463C10FF1F2DE9F843DFF85EC00C2300FB03F6DCF814301746DCF808201C
S35100016F4C52F820E09B59814688460024002501221BB1724601259847024645B942B1484641463A4600F016F810B1012400E0144644B1DFF81A0040698019426812B14846414690472046BDE8F8437047C0
S35100016F98C0462410FF1F00000FB470B5DFF83A60054671681446884212D20C214843F2683369101805A90022984748B10599B068002C40F8251001D001203070012000E00020BDE8704004B07047241055
S35100016FE4FF1F000008B5FFF7EBFE28B100F032F8DFF80C00FBF762F8BDE808407047C0463C10FF1F70B5DFF84260FFF7D9FEC0B1002400250CE0F06801224159B06840F82410F16820464959FFF782FFE8
S35100017030641C0C3570688442EFD301203070DFF81200FBF73DF8BDE870407047C0462410FF1F3C10FF1F0000DFF826104FF0000C002007E0CA6813588A680C3042F82C300CF1010C4A689445F4D3012010
S3510001707C08707047C0462410FF1F0000DFF8181000234A68904204D2CA680C2148431018436818467047C0462410FF1FDFF8181000234A68904204D2CA680C2148431018836818467047C0462410FF1FAE
S351000170C8DFF8141000234A68904203D2CA680C2148431358184670472410FF1FDFF80400406870472410FF1F08B500A9FFF7C4FE002814BF00980020BDE8084070470000DFF804301847C046056F01005C
S3510001711438B50D46002400A90094FFF7AFFE0098284218BF01242046BDE83840704700007CB50D4600A906461446FFF79FFE80B1002C1DBF009840EA05010091009804BF20EA050100913046FFF7D2FE7C
S3510001716008B1012000E00020BDE87C407047000038B50C4600A90546FFF782FE48B1009880EA040128460091FFF7BCFE08B1012000E00020BDE838407047000008B500A9FFF76EFE002814BF0098002069
